{"abi":[{"inputs":[{"internalType":"uint256","name":"minimum","type":"uint256"}],"name":"createCampaign","outputs":[],"stateMutability":"nonpayable","type":"function"},{"inputs":[{"internalType":"uint256","name":"","type":"uint256"}],"name":"deployedCampaigns","outputs":[{"internalType":"address","name":"","type":"address"}],"stateMutability":"view","type":"function"},{"inputs":[],"name":"getCampaigns","outputs":[{"internalType":"address[]","name":"","type":"address[]"}],"stateMutability":"view","type":"function"}],"devdoc":{"kind":"dev","methods":{},"version":1},"evm":{"assembly":"    /* \"Campaign.sol\":65:440  contract CampaignFactory {\r... */\n  mstore(0x40, 0x80)\n  callvalue\n  dup1\n  iszero\n  tag_1\n  jumpi\n  0x00\n  dup1\n  revert\ntag_1:\n  pop\n  dataSize(sub_0)\n  dup1\n  dataOffset(sub_0)\n  0x00\n  codecopy\n  0x00\n  return\nstop\n\nsub_0: assembly {\n        /* \"Campaign.sol\":65:440  contract CampaignFactory {\r... */\n      mstore(0x40, 0x80)\n      callvalue\n      dup1\n      iszero\n      tag_1\n      jumpi\n      0x00\n      dup1\n      revert\n    tag_1:\n      pop\n      jumpi(tag_2, lt(calldatasize, 0x04))\n      shr(0xe0, calldataload(0x00))\n      dup1\n      0x339d50a5\n      eq\n      tag_3\n      jumpi\n      dup1\n      0xa3303a75\n      eq\n      tag_4\n      jumpi\n      dup1\n      0xa6b03633\n      eq\n      tag_5\n      jumpi\n    tag_2:\n      0x00\n      dup1\n      revert\n        /* \"Campaign.sol\":97:131  address[] public deployedCampaigns */\n    tag_3:\n      tag_6\n      0x04\n      dup1\n      calldatasize\n      sub\n      dup2\n      add\n      swap1\n      tag_7\n      swap2\n      swap1\n      tag_8\n      jump\t// in\n    tag_7:\n      tag_9\n      jump\t// in\n    tag_6:\n      mload(0x40)\n      tag_10\n      swap2\n      swap1\n      tag_11\n      jump\t// in\n    tag_10:\n      mload(0x40)\n      dup1\n      swap2\n      sub\n      swap1\n      return\n        /* \"Campaign.sol\":144:319  function createCampaign(uint minimum) public {\r... */\n    tag_4:\n      tag_12\n      0x04\n      dup1\n      calldatasize\n      sub\n      dup2\n      add\n      swap1\n      tag_13\n      swap2\n      swap1\n      tag_8\n      jump\t// in\n    tag_13:\n      tag_14\n      jump\t// in\n    tag_12:\n      stop\n        /* \"Campaign.sol\":331:437  function getCampaigns() public view returns (address[] memory) {\r... */\n    tag_5:\n      tag_15\n      tag_16\n      jump\t// in\n    tag_15:\n      mload(0x40)\n      tag_17\n      swap2\n      swap1\n      tag_18\n      jump\t// in\n    tag_17:\n      mload(0x40)\n      dup1\n      swap2\n      sub\n      swap1\n      return\n        /* \"Campaign.sol\":97:131  address[] public deployedCampaigns */\n    tag_9:\n      0x00\n      dup2\n      dup2\n      sload\n      dup2\n      lt\n      tag_19\n      jumpi\n      0x00\n      dup1\n      revert\n    tag_19:\n      swap1\n      0x00\n      mstore\n      keccak256(0x00, 0x20)\n      add\n      0x00\n      swap2\n      pop\n      sload\n      swap1\n      0x0100\n      exp\n      swap1\n      div\n      0xffffffffffffffffffffffffffffffffffffffff\n      and\n      dup2\n      jump\t// out\n        /* \"Campaign.sol\":144:319  function createCampaign(uint minimum) public {\r... */\n    tag_14:\n        /* \"Campaign.sol\":200:220  Campaign newCampaign */\n      0x00\n        /* \"Campaign.sol\":236:243  minimum */\n      dup2\n        /* \"Campaign.sol\":245:255  msg.sender */\n      caller\n        /* \"Campaign.sol\":223:256  new Campaign(minimum, msg.sender) */\n      mload(0x40)\n      tag_22\n      swap1\n      tag_23\n      jump\t// in\n    tag_22:\n      tag_24\n      swap3\n      swap2\n      swap1\n      tag_25\n      jump\t// in\n    tag_24:\n      mload(0x40)\n      dup1\n      swap2\n      sub\n      swap1\n      0x00\n      create\n      dup1\n      iszero\n      dup1\n      iszero\n      tag_26\n      jumpi\n      returndatasize\n      0x00\n      dup1\n      returndatacopy\n      revert(0x00, returndatasize)\n    tag_26:\n      pop\n        /* \"Campaign.sol\":200:256  Campaign newCampaign = new Campaign(minimum, msg.sender) */\n      swap1\n      pop\n        /* \"Campaign.sol\":267:284  deployedCampaigns */\n      0x00\n        /* \"Campaign.sol\":298:309  newCampaign */\n      dup2\n        /* \"Campaign.sol\":267:311  deployedCampaigns.push(address(newCampaign)) */\n      swap1\n      dup1\n      0x01\n      dup2\n      sload\n      add\n      dup1\n      dup3\n      sstore\n      dup1\n      swap2\n      pop\n      pop\n      0x01\n      swap1\n      sub\n      swap1\n      0x00\n      mstore\n      keccak256(0x00, 0x20)\n      add\n      0x00\n      swap1\n      swap2\n      swap1\n      swap2\n      swap1\n      swap2\n      0x0100\n      exp\n      dup2\n      sload\n      dup2\n      0xffffffffffffffffffffffffffffffffffffffff\n      mul\n      not\n      and\n      swap1\n      dup4\n      0xffffffffffffffffffffffffffffffffffffffff\n      and\n      mul\n      or\n      swap1\n      sstore\n      pop\n        /* \"Campaign.sol\":144:319  function createCampaign(uint minimum) public {\r... */\n      pop\n      pop\n      jump\t// out\n        /* \"Campaign.sol\":331:437  function getCampaigns() public view returns (address[] memory) {\r... */\n    tag_16:\n        /* \"Campaign.sol\":376:392  address[] memory */\n      0x60\n        /* \"Campaign.sol\":412:429  deployedCampaigns */\n      0x00\n        /* \"Campaign.sol\":405:429  return deployedCampaigns */\n      dup1\n      sload\n      dup1\n      0x20\n      mul\n      0x20\n      add\n      mload(0x40)\n      swap1\n      dup2\n      add\n      0x40\n      mstore\n      dup1\n      swap3\n      swap2\n      swap1\n      dup2\n      dup2\n      mstore\n      0x20\n      add\n      dup3\n      dup1\n      sload\n      dup1\n      iszero\n      tag_29\n      jumpi\n      0x20\n      mul\n      dup3\n      add\n      swap2\n      swap1\n      0x00\n      mstore\n      keccak256(0x00, 0x20)\n      swap1\n    tag_30:\n      dup2\n      0x00\n      swap1\n      sload\n      swap1\n      0x0100\n      exp\n      swap1\n      div\n      0xffffffffffffffffffffffffffffffffffffffff\n      and\n      0xffffffffffffffffffffffffffffffffffffffff\n      and\n      dup2\n      mstore\n      0x20\n      add\n      swap1\n      0x01\n      add\n      swap1\n      dup1\n      dup4\n      gt\n      tag_30\n      jumpi\n    tag_29:\n      pop\n      pop\n      pop\n      pop\n      pop\n      swap1\n      pop\n        /* \"Campaign.sol\":331:437  function getCampaigns() public view returns (address[] memory) {\r... */\n      swap1\n      jump\t// out\n    tag_23:\n      dataSize(sub_0)\n      dup1\n      dataOffset(sub_0)\n      dup4\n      codecopy\n      add\n      swap1\n      jump\t// out\n        /* \"#utility.yul\":7:146   */\n    tag_32:\n      0x00\n        /* \"#utility.yul\":91:97   */\n      dup2\n        /* \"#utility.yul\":78:98   */\n      calldataload\n        /* \"#utility.yul\":69:98   */\n      swap1\n      pop\n        /* \"#utility.yul\":107:140   */\n      tag_34\n        /* \"#utility.yul\":134:139   */\n      dup2\n        /* \"#utility.yul\":107:140   */\n      tag_35\n      jump\t// in\n    tag_34:\n        /* \"#utility.yul\":59:146   */\n      swap3\n      swap2\n      pop\n      pop\n      jump\t// out\n        /* \"#utility.yul\":152:414   */\n    tag_8:\n      0x00\n        /* \"#utility.yul\":260:262   */\n      0x20\n        /* \"#utility.yul\":248:257   */\n      dup3\n        /* \"#utility.yul\":239:246   */\n      dup5\n        /* \"#utility.yul\":235:258   */\n      sub\n        /* \"#utility.yul\":231:263   */\n      slt\n        /* \"#utility.yul\":228:230   */\n      iszero\n      tag_37\n      jumpi\n        /* \"#utility.yul\":276:277   */\n      0x00\n        /* \"#utility.yul\":273:274   */\n      dup1\n        /* \"#utility.yul\":266:278   */\n      revert\n        /* \"#utility.yul\":228:230   */\n    tag_37:\n        /* \"#utility.yul\":319:320   */\n      0x00\n        /* \"#utility.yul\":344:397   */\n      tag_38\n        /* \"#utility.yul\":389:396   */\n      dup5\n        /* \"#utility.yul\":380:386   */\n      dup3\n        /* \"#utility.yul\":369:378   */\n      dup6\n        /* \"#utility.yul\":365:387   */\n      add\n        /* \"#utility.yul\":344:397   */\n      tag_32\n      jump\t// in\n    tag_38:\n        /* \"#utility.yul\":334:397   */\n      swap2\n      pop\n        /* \"#utility.yul\":290:407   */\n      pop\n        /* \"#utility.yul\":218:414   */\n      swap3\n      swap2\n      pop\n      pop\n      jump\t// out\n        /* \"#utility.yul\":420:599   */\n    tag_39:\n      0x00\n        /* \"#utility.yul\":510:556   */\n      tag_41\n        /* \"#utility.yul\":552:555   */\n      dup4\n        /* \"#utility.yul\":544:550   */\n      dup4\n        /* \"#utility.yul\":510:556   */\n      tag_42\n      jump\t// in\n    tag_41:\n        /* \"#utility.yul\":588:592   */\n      0x20\n        /* \"#utility.yul\":583:586   */\n      dup4\n        /* \"#utility.yul\":579:593   */\n      add\n        /* \"#utility.yul\":565:593   */\n      swap1\n      pop\n        /* \"#utility.yul\":500:599   */\n      swap3\n      swap2\n      pop\n      pop\n      jump\t// out\n        /* \"#utility.yul\":605:713   */\n    tag_42:\n        /* \"#utility.yul\":682:706   */\n      tag_44\n        /* \"#utility.yul\":700:705   */\n      dup2\n        /* \"#utility.yul\":682:706   */\n      tag_45\n      jump\t// in\n    tag_44:\n        /* \"#utility.yul\":677:680   */\n      dup3\n        /* \"#utility.yul\":670:707   */\n      mstore\n        /* \"#utility.yul\":660:713   */\n      pop\n      pop\n      jump\t// out\n        /* \"#utility.yul\":719:837   */\n    tag_46:\n        /* \"#utility.yul\":806:830   */\n      tag_48\n        /* \"#utility.yul\":824:829   */\n      dup2\n        /* \"#utility.yul\":806:830   */\n      tag_45\n      jump\t// in\n    tag_48:\n        /* \"#utility.yul\":801:804   */\n      dup3\n        /* \"#utility.yul\":794:831   */\n      mstore\n        /* \"#utility.yul\":784:837   */\n      pop\n      pop\n      jump\t// out\n        /* \"#utility.yul\":873:1605   */\n    tag_49:\n      0x00\n        /* \"#utility.yul\":1021:1075   */\n      tag_51\n        /* \"#utility.yul\":1069:1074   */\n      dup3\n        /* \"#utility.yul\":1021:1075   */\n      tag_52\n      jump\t// in\n    tag_51:\n        /* \"#utility.yul\":1091:1177   */\n      tag_53\n        /* \"#utility.yul\":1170:1176   */\n      dup2\n        /* \"#utility.yul\":1165:1168   */\n      dup6\n        /* \"#utility.yul\":1091:1177   */\n      tag_54\n      jump\t// in\n    tag_53:\n        /* \"#utility.yul\":1084:1177   */\n      swap4\n      pop\n        /* \"#utility.yul\":1201:1257   */\n      tag_55\n        /* \"#utility.yul\":1251:1256   */\n      dup4\n        /* \"#utility.yul\":1201:1257   */\n      tag_56\n      jump\t// in\n    tag_55:\n        /* \"#utility.yul\":1280:1287   */\n      dup1\n        /* \"#utility.yul\":1311:1312   */\n      0x00\n        /* \"#utility.yul\":1296:1580   */\n    tag_57:\n        /* \"#utility.yul\":1321:1327   */\n      dup4\n        /* \"#utility.yul\":1318:1319   */\n      dup2\n        /* \"#utility.yul\":1315:1328   */\n      lt\n        /* \"#utility.yul\":1296:1580   */\n      iszero\n      tag_59\n      jumpi\n        /* \"#utility.yul\":1397:1403   */\n      dup2\n        /* \"#utility.yul\":1391:1404   */\n      mload\n        /* \"#utility.yul\":1424:1487   */\n      tag_60\n        /* \"#utility.yul\":1483:1486   */\n      dup9\n        /* \"#utility.yul\":1468:1481   */\n      dup3\n        /* \"#utility.yul\":1424:1487   */\n      tag_39\n      jump\t// in\n    tag_60:\n        /* \"#utility.yul\":1417:1487   */\n      swap8\n      pop\n        /* \"#utility.yul\":1510:1570   */\n      tag_61\n        /* \"#utility.yul\":1563:1569   */\n      dup4\n        /* \"#utility.yul\":1510:1570   */\n      tag_62\n      jump\t// in\n    tag_61:\n        /* \"#utility.yul\":1500:1570   */\n      swap3\n      pop\n        /* \"#utility.yul\":1356:1580   */\n      pop\n        /* \"#utility.yul\":1343:1344   */\n      0x01\n        /* \"#utility.yul\":1340:1341   */\n      dup2\n        /* \"#utility.yul\":1336:1345   */\n      add\n        /* \"#utility.yul\":1331:1345   */\n      swap1\n      pop\n        /* \"#utility.yul\":1296:1580   */\n      jump(tag_57)\n    tag_59:\n        /* \"#utility.yul\":1300:1314   */\n      pop\n        /* \"#utility.yul\":1596:1599   */\n      dup6\n        /* \"#utility.yul\":1589:1599   */\n      swap4\n      pop\n        /* \"#utility.yul\":997:1605   */\n      pop\n      pop\n      pop\n      swap3\n      swap2\n      pop\n      pop\n      jump\t// out\n        /* \"#utility.yul\":1611:1729   */\n    tag_63:\n        /* \"#utility.yul\":1698:1722   */\n      tag_65\n        /* \"#utility.yul\":1716:1721   */\n      dup2\n        /* \"#utility.yul\":1698:1722   */\n      tag_66\n      jump\t// in\n    tag_65:\n        /* \"#utility.yul\":1693:1696   */\n      dup3\n        /* \"#utility.yul\":1686:1723   */\n      mstore\n        /* \"#utility.yul\":1676:1729   */\n      pop\n      pop\n      jump\t// out\n        /* \"#utility.yul\":1735:1957   */\n    tag_11:\n      0x00\n        /* \"#utility.yul\":1866:1868   */\n      0x20\n        /* \"#utility.yul\":1855:1864   */\n      dup3\n        /* \"#utility.yul\":1851:1869   */\n      add\n        /* \"#utility.yul\":1843:1869   */\n      swap1\n      pop\n        /* \"#utility.yul\":1879:1950   */\n      tag_68\n        /* \"#utility.yul\":1947:1948   */\n      0x00\n        /* \"#utility.yul\":1936:1945   */\n      dup4\n        /* \"#utility.yul\":1932:1949   */\n      add\n        /* \"#utility.yul\":1923:1929   */\n      dup5\n        /* \"#utility.yul\":1879:1950   */\n      tag_46\n      jump\t// in\n    tag_68:\n        /* \"#utility.yul\":1833:1957   */\n      swap3\n      swap2\n      pop\n      pop\n      jump\t// out\n        /* \"#utility.yul\":1963:2336   */\n    tag_18:\n      0x00\n        /* \"#utility.yul\":2144:2146   */\n      0x20\n        /* \"#utility.yul\":2133:2142   */\n      dup3\n        /* \"#utility.yul\":2129:2147   */\n      add\n        /* \"#utility.yul\":2121:2147   */\n      swap1\n      pop\n        /* \"#utility.yul\":2193:2202   */\n      dup2\n        /* \"#utility.yul\":2187:2191   */\n      dup2\n        /* \"#utility.yul\":2183:2203   */\n      sub\n        /* \"#utility.yul\":2179:2180   */\n      0x00\n        /* \"#utility.yul\":2168:2177   */\n      dup4\n        /* \"#utility.yul\":2164:2181   */\n      add\n        /* \"#utility.yul\":2157:2204   */\n      mstore\n        /* \"#utility.yul\":2221:2329   */\n      tag_70\n        /* \"#utility.yul\":2324:2328   */\n      dup2\n        /* \"#utility.yul\":2315:2321   */\n      dup5\n        /* \"#utility.yul\":2221:2329   */\n      tag_49\n      jump\t// in\n    tag_70:\n        /* \"#utility.yul\":2213:2329   */\n      swap1\n      pop\n        /* \"#utility.yul\":2111:2336   */\n      swap3\n      swap2\n      pop\n      pop\n      jump\t// out\n        /* \"#utility.yul\":2342:2674   */\n    tag_25:\n      0x00\n        /* \"#utility.yul\":2501:2503   */\n      0x40\n        /* \"#utility.yul\":2490:2499   */\n      dup3\n        /* \"#utility.yul\":2486:2504   */\n      add\n        /* \"#utility.yul\":2478:2504   */\n      swap1\n      pop\n        /* \"#utility.yul\":2514:2585   */\n      tag_72\n        /* \"#utility.yul\":2582:2583   */\n      0x00\n        /* \"#utility.yul\":2571:2580   */\n      dup4\n        /* \"#utility.yul\":2567:2584   */\n      add\n        /* \"#utility.yul\":2558:2564   */\n      dup6\n        /* \"#utility.yul\":2514:2585   */\n      tag_63\n      jump\t// in\n    tag_72:\n        /* \"#utility.yul\":2595:2667   */\n      tag_73\n        /* \"#utility.yul\":2663:2665   */\n      0x20\n        /* \"#utility.yul\":2652:2661   */\n      dup4\n        /* \"#utility.yul\":2648:2666   */\n      add\n        /* \"#utility.yul\":2639:2645   */\n      dup5\n        /* \"#utility.yul\":2595:2667   */\n      tag_46\n      jump\t// in\n    tag_73:\n        /* \"#utility.yul\":2468:2674   */\n      swap4\n      swap3\n      pop\n      pop\n      pop\n      jump\t// out\n        /* \"#utility.yul\":2680:2812   */\n    tag_56:\n      0x00\n        /* \"#utility.yul\":2770:2773   */\n      dup2\n        /* \"#utility.yul\":2762:2773   */\n      swap1\n      pop\n        /* \"#utility.yul\":2800:2804   */\n      0x20\n        /* \"#utility.yul\":2795:2798   */\n      dup3\n        /* \"#utility.yul\":2791:2805   */\n      add\n        /* \"#utility.yul\":2783:2805   */\n      swap1\n      pop\n        /* \"#utility.yul\":2752:2812   */\n      swap2\n      swap1\n      pop\n      jump\t// out\n        /* \"#utility.yul\":2818:2932   */\n    tag_52:\n      0x00\n        /* \"#utility.yul\":2919:2924   */\n      dup2\n        /* \"#utility.yul\":2913:2925   */\n      mload\n        /* \"#utility.yul\":2903:2925   */\n      swap1\n      pop\n        /* \"#utility.yul\":2892:2932   */\n      swap2\n      swap1\n      pop\n      jump\t// out\n        /* \"#utility.yul\":2938:3051   */\n    tag_62:\n      0x00\n        /* \"#utility.yul\":3040:3044   */\n      0x20\n        /* \"#utility.yul\":3035:3038   */\n      dup3\n        /* \"#utility.yul\":3031:3045   */\n      add\n        /* \"#utility.yul\":3023:3045   */\n      swap1\n      pop\n        /* \"#utility.yul\":3013:3051   */\n      swap2\n      swap1\n      pop\n      jump\t// out\n        /* \"#utility.yul\":3057:3241   */\n    tag_54:\n      0x00\n        /* \"#utility.yul\":3190:3196   */\n      dup3\n        /* \"#utility.yul\":3185:3188   */\n      dup3\n        /* \"#utility.yul\":3178:3197   */\n      mstore\n        /* \"#utility.yul\":3230:3234   */\n      0x20\n        /* \"#utility.yul\":3225:3228   */\n      dup3\n        /* \"#utility.yul\":3221:3235   */\n      add\n        /* \"#utility.yul\":3206:3235   */\n      swap1\n      pop\n        /* \"#utility.yul\":3168:3241   */\n      swap3\n      swap2\n      pop\n      pop\n      jump\t// out\n        /* \"#utility.yul\":3247:3343   */\n    tag_45:\n      0x00\n        /* \"#utility.yul\":3313:3337   */\n      tag_79\n        /* \"#utility.yul\":3331:3336   */\n      dup3\n        /* \"#utility.yul\":3313:3337   */\n      tag_80\n      jump\t// in\n    tag_79:\n        /* \"#utility.yul\":3302:3337   */\n      swap1\n      pop\n        /* \"#utility.yul\":3292:3343   */\n      swap2\n      swap1\n      pop\n      jump\t// out\n        /* \"#utility.yul\":3349:3475   */\n    tag_80:\n      0x00\n        /* \"#utility.yul\":3426:3468   */\n      0xffffffffffffffffffffffffffffffffffffffff\n        /* \"#utility.yul\":3419:3424   */\n      dup3\n        /* \"#utility.yul\":3415:3469   */\n      and\n        /* \"#utility.yul\":3404:3469   */\n      swap1\n      pop\n        /* \"#utility.yul\":3394:3475   */\n      swap2\n      swap1\n      pop\n      jump\t// out\n        /* \"#utility.yul\":3481:3558   */\n    tag_66:\n      0x00\n        /* \"#utility.yul\":3547:3552   */\n      dup2\n        /* \"#utility.yul\":3536:3552   */\n      swap1\n      pop\n        /* \"#utility.yul\":3526:3558   */\n      swap2\n      swap1\n      pop\n      jump\t// out\n        /* \"#utility.yul\":3564:3686   */\n    tag_35:\n        /* \"#utility.yul\":3637:3661   */\n      tag_84\n        /* \"#utility.yul\":3655:3660   */\n      dup2\n        /* \"#utility.yul\":3637:3661   */\n      tag_66\n      jump\t// in\n    tag_84:\n        /* \"#utility.yul\":3630:3635   */\n      dup2\n        /* \"#utility.yul\":3627:3662   */\n      eq\n        /* \"#utility.yul\":3617:3619   */\n      tag_85\n      jumpi\n        /* \"#utility.yul\":3676:3677   */\n      0x00\n        /* \"#utility.yul\":3673:3674   */\n      dup1\n        /* \"#utility.yul\":3666:3678   */\n      revert\n        /* \"#utility.yul\":3617:3619   */\n    tag_85:\n        /* \"#utility.yul\":3607:3686   */\n      pop\n      jump\t// out\n    stop\n\n    sub_0: assembly {\n            /* \"Campaign.sol\":444:2690  contract Campaign {\r... */\n          mstore(0x40, 0x80)\n            /* \"Campaign.sol\":821:939  constructor(uint minimum, address creator){\r... */\n          callvalue\n          dup1\n          iszero\n          tag_1\n          jumpi\n          0x00\n          dup1\n          revert\n        tag_1:\n          pop\n          mload(0x40)\n          sub(codesize, bytecodeSize)\n          dup1\n          bytecodeSize\n          dup4\n          codecopy\n          dup2\n          dup2\n          add\n          0x40\n          mstore\n          dup2\n          add\n          swap1\n          tag_2\n          swap2\n          swap1\n          tag_3\n          jump\t// in\n        tag_2:\n            /* \"Campaign.sol\":884:891  creator */\n          dup1\n            /* \"Campaign.sol\":874:881  manager */\n          0x00\n          dup1\n            /* \"Campaign.sol\":874:891  manager = creator */\n          0x0100\n          exp\n          dup2\n          sload\n          dup2\n          0xffffffffffffffffffffffffffffffffffffffff\n          mul\n          not\n          and\n          swap1\n          dup4\n          0xffffffffffffffffffffffffffffffffffffffff\n          and\n          mul\n          or\n          swap1\n          sstore\n          pop\n            /* \"Campaign.sol\":924:931  minimum */\n          dup2\n            /* \"Campaign.sol\":902:921  minimumContribution */\n          0x05\n            /* \"Campaign.sol\":902:931  minimumContribution = minimum */\n          dup2\n          swap1\n          sstore\n          pop\n            /* \"Campaign.sol\":821:939  constructor(uint minimum, address creator){\r... */\n          pop\n          pop\n            /* \"Campaign.sol\":444:2690  contract Campaign {\r... */\n          jump(tag_6)\n            /* \"#utility.yul\":7:150   */\n        tag_8:\n          0x00\n            /* \"#utility.yul\":95:101   */\n          dup2\n            /* \"#utility.yul\":89:102   */\n          mload\n            /* \"#utility.yul\":80:102   */\n          swap1\n          pop\n            /* \"#utility.yul\":111:144   */\n          tag_10\n            /* \"#utility.yul\":138:143   */\n          dup2\n            /* \"#utility.yul\":111:144   */\n          tag_11\n          jump\t// in\n        tag_10:\n            /* \"#utility.yul\":70:150   */\n          swap3\n          swap2\n          pop\n          pop\n          jump\t// out\n            /* \"#utility.yul\":156:299   */\n        tag_12:\n          0x00\n            /* \"#utility.yul\":244:250   */\n          dup2\n            /* \"#utility.yul\":238:251   */\n          mload\n            /* \"#utility.yul\":229:251   */\n          swap1\n          pop\n            /* \"#utility.yul\":260:293   */\n          tag_14\n            /* \"#utility.yul\":287:292   */\n          dup2\n            /* \"#utility.yul\":260:293   */\n          tag_15\n          jump\t// in\n        tag_14:\n            /* \"#utility.yul\":219:299   */\n          swap3\n          swap2\n          pop\n          pop\n          jump\t// out\n            /* \"#utility.yul\":305:745   */\n        tag_3:\n          0x00\n          dup1\n            /* \"#utility.yul\":441:443   */\n          0x40\n            /* \"#utility.yul\":429:438   */\n          dup4\n            /* \"#utility.yul\":420:427   */\n          dup6\n            /* \"#utility.yul\":416:439   */\n          sub\n            /* \"#utility.yul\":412:444   */\n          slt\n            /* \"#utility.yul\":409:411   */\n          iszero\n          tag_17\n          jumpi\n            /* \"#utility.yul\":457:458   */\n          0x00\n            /* \"#utility.yul\":454:455   */\n          dup1\n            /* \"#utility.yul\":447:459   */\n          revert\n            /* \"#utility.yul\":409:411   */\n        tag_17:\n            /* \"#utility.yul\":500:501   */\n          0x00\n            /* \"#utility.yul\":525:589   */\n          tag_18\n            /* \"#utility.yul\":581:588   */\n          dup6\n            /* \"#utility.yul\":572:578   */\n          dup3\n            /* \"#utility.yul\":561:570   */\n          dup7\n            /* \"#utility.yul\":557:579   */\n          add\n            /* \"#utility.yul\":525:589   */\n          tag_12\n          jump\t// in\n        tag_18:\n            /* \"#utility.yul\":515:589   */\n          swap3\n          pop\n            /* \"#utility.yul\":471:599   */\n          pop\n            /* \"#utility.yul\":638:640   */\n          0x20\n            /* \"#utility.yul\":664:728   */\n          tag_19\n            /* \"#utility.yul\":720:727   */\n          dup6\n            /* \"#utility.yul\":711:717   */\n          dup3\n            /* \"#utility.yul\":700:709   */\n          dup7\n            /* \"#utility.yul\":696:718   */\n          add\n            /* \"#utility.yul\":664:728   */\n          tag_8\n          jump\t// in\n        tag_19:\n            /* \"#utility.yul\":654:728   */\n          swap2\n          pop\n            /* \"#utility.yul\":609:738   */\n          pop\n            /* \"#utility.yul\":399:745   */\n          swap3\n          pop\n          swap3\n          swap1\n          pop\n          jump\t// out\n            /* \"#utility.yul\":751:847   */\n        tag_20:\n          0x00\n            /* \"#utility.yul\":817:841   */\n          tag_22\n            /* \"#utility.yul\":835:840   */\n          dup3\n            /* \"#utility.yul\":817:841   */\n          tag_23\n          jump\t// in\n        tag_22:\n            /* \"#utility.yul\":806:841   */\n          swap1\n          pop\n            /* \"#utility.yul\":796:847   */\n          swap2\n          swap1\n          pop\n          jump\t// out\n            /* \"#utility.yul\":853:979   */\n        tag_23:\n          0x00\n            /* \"#utility.yul\":930:972   */\n          0xffffffffffffffffffffffffffffffffffffffff\n            /* \"#utility.yul\":923:928   */\n          dup3\n            /* \"#utility.yul\":919:973   */\n          and\n            /* \"#utility.yul\":908:973   */\n          swap1\n          pop\n            /* \"#utility.yul\":898:979   */\n          swap2\n          swap1\n          pop\n          jump\t// out\n            /* \"#utility.yul\":985:1062   */\n        tag_25:\n          0x00\n            /* \"#utility.yul\":1051:1056   */\n          dup2\n            /* \"#utility.yul\":1040:1056   */\n          swap1\n          pop\n            /* \"#utility.yul\":1030:1062   */\n          swap2\n          swap1\n          pop\n          jump\t// out\n            /* \"#utility.yul\":1068:1190   */\n        tag_11:\n            /* \"#utility.yul\":1141:1165   */\n          tag_28\n            /* \"#utility.yul\":1159:1164   */\n          dup2\n            /* \"#utility.yul\":1141:1165   */\n          tag_20\n          jump\t// in\n        tag_28:\n            /* \"#utility.yul\":1134:1139   */\n          dup2\n            /* \"#utility.yul\":1131:1166   */\n          eq\n            /* \"#utility.yul\":1121:1123   */\n          tag_29\n          jumpi\n            /* \"#utility.yul\":1180:1181   */\n          0x00\n            /* \"#utility.yul\":1177:1178   */\n          dup1\n            /* \"#utility.yul\":1170:1182   */\n          revert\n            /* \"#utility.yul\":1121:1123   */\n        tag_29:\n            /* \"#utility.yul\":1111:1190   */\n          pop\n          jump\t// out\n            /* \"#utility.yul\":1196:1318   */\n        tag_15:\n            /* \"#utility.yul\":1269:1293   */\n          tag_31\n            /* \"#utility.yul\":1287:1292   */\n          dup2\n            /* \"#utility.yul\":1269:1293   */\n          tag_25\n          jump\t// in\n        tag_31:\n            /* \"#utility.yul\":1262:1267   */\n          dup2\n            /* \"#utility.yul\":1259:1294   */\n          eq\n            /* \"#utility.yul\":1249:1251   */\n          tag_32\n          jumpi\n            /* \"#utility.yul\":1308:1309   */\n          0x00\n            /* \"#utility.yul\":1305:1306   */\n          dup1\n            /* \"#utility.yul\":1298:1310   */\n          revert\n            /* \"#utility.yul\":1249:1251   */\n        tag_32:\n            /* \"#utility.yul\":1239:1318   */\n          pop\n          jump\t// out\n            /* \"Campaign.sol\":444:2690  contract Campaign {\r... */\n        tag_6:\n          dataSize(sub_0)\n          dup1\n          dataOffset(sub_0)\n          0x00\n          codecopy\n          0x00\n          return\n        stop\n\n        sub_0: assembly {\n                /* \"Campaign.sol\":444:2690  contract Campaign {\r... */\n              mstore(0x40, 0x80)\n              jumpi(tag_1, lt(calldatasize, 0x04))\n              shr(0xe0, calldataload(0x00))\n              dup1\n              0x82fde093\n              gt\n              tag_11\n              jumpi\n              dup1\n              0x82fde093\n              eq\n              tag_6\n              jumpi\n              dup1\n              0x8a9cfd55\n              eq\n              tag_7\n              jumpi\n              dup1\n              0x937e09b1\n              eq\n              tag_8\n              jumpi\n              dup1\n              0xd7bb99ba\n              eq\n              tag_9\n              jumpi\n              dup1\n              0xd7d1bbdb\n              eq\n              tag_10\n              jumpi\n              jump(tag_1)\n            tag_11:\n              dup1\n              0x03441006\n              eq\n              tag_2\n              jumpi\n              dup1\n              0x0a144391\n              eq\n              tag_3\n              jumpi\n              dup1\n              0x481c6a75\n              eq\n              tag_4\n              jumpi\n              dup1\n              0x81d12c58\n              eq\n              tag_5\n              jumpi\n            tag_1:\n              0x00\n              dup1\n              revert\n                /* \"Campaign.sol\":2086:2466  function finalizeRequest(uint id) public onlyManager {\r... */\n            tag_2:\n              callvalue\n              dup1\n              iszero\n              tag_12\n              jumpi\n              0x00\n              dup1\n              revert\n            tag_12:\n              pop\n              tag_13\n              0x04\n              dup1\n              calldatasize\n              sub\n              dup2\n              add\n              swap1\n              tag_14\n              swap2\n              swap1\n              tag_15\n              jump\t// in\n            tag_14:\n              tag_16\n              jump\t// in\n            tag_13:\n              stop\n                /* \"Campaign.sol\":504:545  mapping(address => bool) public approvers */\n            tag_3:\n              callvalue\n              dup1\n              iszero\n              tag_17\n              jumpi\n              0x00\n              dup1\n              revert\n            tag_17:\n              pop\n              tag_18\n              0x04\n              dup1\n              calldatasize\n              sub\n              dup2\n              add\n              swap1\n              tag_19\n              swap2\n              swap1\n              tag_20\n              jump\t// in\n            tag_19:\n              tag_21\n              jump\t// in\n            tag_18:\n              mload(0x40)\n              tag_22\n              swap2\n              swap1\n              tag_23\n              jump\t// in\n            tag_22:\n              mload(0x40)\n              dup1\n              swap2\n              sub\n              swap1\n              return\n                /* \"Campaign.sol\":475:497  address public manager */\n            tag_4:\n              callvalue\n              dup1\n              iszero\n              tag_24\n              jumpi\n              0x00\n              dup1\n              revert\n            tag_24:\n              pop\n              tag_25\n              tag_26\n              jump\t// in\n            tag_25:\n              mload(0x40)\n              tag_27\n              swap2\n              swap1\n              tag_28\n              jump\t// in\n            tag_27:\n              mload(0x40)\n              dup1\n              swap2\n              sub\n              swap1\n              return\n                /* \"Campaign.sol\":608:648  mapping(uint => Request) public requests */\n            tag_5:\n              callvalue\n              dup1\n              iszero\n              tag_29\n              jumpi\n              0x00\n              dup1\n              revert\n            tag_29:\n              pop\n              tag_30\n              0x04\n              dup1\n              calldatasize\n              sub\n              dup2\n              add\n              swap1\n              tag_31\n              swap2\n              swap1\n              tag_15\n              jump\t// in\n            tag_31:\n              tag_32\n              jump\t// in\n            tag_30:\n              mload(0x40)\n              tag_33\n              swap6\n              swap5\n              swap4\n              swap3\n              swap2\n              swap1\n              tag_34\n              jump\t// in\n            tag_33:\n              mload(0x40)\n              dup1\n              swap2\n              sub\n              swap1\n              return\n                /* \"Campaign.sol\":552:578  uint public approversCount */\n            tag_6:\n              callvalue\n              dup1\n              iszero\n              tag_35\n              jumpi\n              0x00\n              dup1\n              revert\n            tag_35:\n              pop\n              tag_36\n              tag_37\n              jump\t// in\n            tag_36:\n              mload(0x40)\n              tag_38\n              swap2\n              swap1\n              tag_39\n              jump\t// in\n            tag_38:\n              mload(0x40)\n              dup1\n              swap2\n              sub\n              swap1\n              return\n                /* \"Campaign.sol\":1270:1710  function createRequest(string memory description, uint value, address payable recipient) public onlyManager returns (uint requestId) {\r... */\n            tag_7:\n              callvalue\n              dup1\n              iszero\n              tag_40\n              jumpi\n              0x00\n              dup1\n              revert\n            tag_40:\n              pop\n              tag_41\n              0x04\n              dup1\n              calldatasize\n              sub\n              dup2\n              add\n              swap1\n              tag_42\n              swap2\n              swap1\n              tag_43\n              jump\t// in\n            tag_42:\n              tag_44\n              jump\t// in\n            tag_41:\n              mload(0x40)\n              tag_45\n              swap2\n              swap1\n              tag_39\n              jump\t// in\n            tag_45:\n              mload(0x40)\n              dup1\n              swap2\n              sub\n              swap1\n              return\n                /* \"Campaign.sol\":661:692  uint public minimumContribution */\n            tag_8:\n              callvalue\n              dup1\n              iszero\n              tag_46\n              jumpi\n              0x00\n              dup1\n              revert\n            tag_46:\n              pop\n              tag_47\n              tag_48\n              jump\t// in\n            tag_47:\n              mload(0x40)\n              tag_49\n              swap2\n              swap1\n              tag_39\n              jump\t// in\n            tag_49:\n              mload(0x40)\n              dup1\n              swap2\n              sub\n              swap1\n              return\n                /* \"Campaign.sol\":951:1258  function contribute() public payable {\r... */\n            tag_9:\n              tag_50\n              tag_51\n              jump\t// in\n            tag_50:\n              stop\n                /* \"Campaign.sol\":1722:2074  function approveRequest(uint id) public {\r... */\n            tag_10:\n              callvalue\n              dup1\n              iszero\n              tag_52\n              jumpi\n              0x00\n              dup1\n              revert\n            tag_52:\n              pop\n              tag_53\n              0x04\n              dup1\n              calldatasize\n              sub\n              dup2\n              add\n              swap1\n              tag_54\n              swap2\n              swap1\n              tag_15\n              jump\t// in\n            tag_54:\n              tag_55\n              jump\t// in\n            tag_53:\n              stop\n                /* \"Campaign.sol\":2086:2466  function finalizeRequest(uint id) public onlyManager {\r... */\n            tag_16:\n                /* \"Campaign.sol\":755:762  manager */\n              0x00\n              dup1\n              sload\n              swap1\n              0x0100\n              exp\n              swap1\n              div\n              0xffffffffffffffffffffffffffffffffffffffff\n              and\n                /* \"Campaign.sol\":741:762  msg.sender == manager */\n              0xffffffffffffffffffffffffffffffffffffffff\n              and\n                /* \"Campaign.sol\":741:751  msg.sender */\n              caller\n                /* \"Campaign.sol\":741:762  msg.sender == manager */\n              0xffffffffffffffffffffffffffffffffffffffff\n              and\n              eq\n                /* \"Campaign.sol\":733:789  require(msg.sender == manager, \"Only managers allowed!\") */\n              tag_57\n              jumpi\n              mload(0x40)\n              0x08c379a000000000000000000000000000000000000000000000000000000000\n              dup2\n              mstore\n              0x04\n              add\n              tag_58\n              swap1\n              tag_59\n              jump\t// in\n            tag_58:\n              mload(0x40)\n              dup1\n              swap2\n              sub\n              swap1\n              revert\n            tag_57:\n                /* \"Campaign.sol\":2150:2173  Request storage request */\n              0x00\n                /* \"Campaign.sol\":2176:2184  requests */\n              0x04\n                /* \"Campaign.sol\":2176:2188  requests[id] */\n              0x00\n                /* \"Campaign.sol\":2185:2187  id */\n              dup4\n                /* \"Campaign.sol\":2176:2188  requests[id] */\n              dup2\n              mstore\n              0x20\n              add\n              swap1\n              dup2\n              mstore\n              0x20\n              add\n              0x00\n              keccak256\n                /* \"Campaign.sol\":2150:2188  Request storage request = requests[id] */\n              swap1\n              pop\n                /* \"Campaign.sol\":2258:2259  2 */\n              0x02\n                /* \"Campaign.sol\":2241:2255  approversCount */\n              dup1\n              sload\n                /* \"Campaign.sol\":2241:2259  approversCount / 2 */\n              tag_61\n              swap2\n              swap1\n              tag_62\n              jump\t// in\n            tag_61:\n                /* \"Campaign.sol\":2217:2224  request */\n              dup2\n                /* \"Campaign.sol\":2217:2238  request.approvalCount */\n              0x03\n              add\n              sload\n                /* \"Campaign.sol\":2217:2259  request.approvalCount > approversCount / 2 */\n              gt\n                /* \"Campaign.sol\":2209:2287  require(request.approvalCount > approversCount / 2, \"Insufficient approvals!\") */\n              tag_63\n              jumpi\n              mload(0x40)\n              0x08c379a000000000000000000000000000000000000000000000000000000000\n              dup2\n              mstore\n              0x04\n              add\n              tag_64\n              swap1\n              tag_65\n              jump\t// in\n            tag_64:\n              mload(0x40)\n              dup1\n              swap2\n              sub\n              swap1\n              revert\n            tag_63:\n                /* \"Campaign.sol\":2307:2314  request */\n              dup1\n                /* \"Campaign.sol\":2307:2325  request.isComplete */\n              0x02\n              add\n              0x14\n              swap1\n              sload\n              swap1\n              0x0100\n              exp\n              swap1\n              div\n              0xff\n              and\n                /* \"Campaign.sol\":2306:2325  !request.isComplete */\n              iszero\n                /* \"Campaign.sol\":2298:2370  require(!request.isComplete, \"This request has already been completed!\") */\n              tag_66\n              jumpi\n              mload(0x40)\n              0x08c379a000000000000000000000000000000000000000000000000000000000\n              dup2\n              mstore\n              0x04\n              add\n              tag_67\n              swap1\n              tag_68\n              jump\t// in\n            tag_67:\n              mload(0x40)\n              dup1\n              swap2\n              sub\n              swap1\n              revert\n            tag_66:\n                /* \"Campaign.sol\":2402:2406  true */\n              0x01\n                /* \"Campaign.sol\":2381:2388  request */\n              dup2\n                /* \"Campaign.sol\":2381:2399  request.isComplete */\n              0x02\n              add\n              0x14\n                /* \"Campaign.sol\":2381:2406  request.isComplete = true */\n              0x0100\n              exp\n              dup2\n              sload\n              dup2\n              0xff\n              mul\n              not\n              and\n              swap1\n              dup4\n              iszero\n              iszero\n              mul\n              or\n              swap1\n              sstore\n              pop\n                /* \"Campaign.sol\":2417:2424  request */\n              dup1\n                /* \"Campaign.sol\":2417:2434  request.recipient */\n              0x02\n              add\n              0x00\n              swap1\n              sload\n              swap1\n              0x0100\n              exp\n              swap1\n              div\n              0xffffffffffffffffffffffffffffffffffffffff\n              and\n                /* \"Campaign.sol\":2417:2443  request.recipient.transfer */\n              0xffffffffffffffffffffffffffffffffffffffff\n              and\n                /* \"Campaign.sol\":2417:2458  request.recipient.transfer(request.value) */\n              0x08fc\n                /* \"Campaign.sol\":2444:2451  request */\n              dup3\n                /* \"Campaign.sol\":2444:2457  request.value */\n              0x01\n              add\n              sload\n                /* \"Campaign.sol\":2417:2458  request.recipient.transfer(request.value) */\n              swap1\n              dup2\n              iszero\n              mul\n              swap1\n              mload(0x40)\n              0x00\n              mload(0x40)\n              dup1\n              dup4\n              sub\n              dup2\n              dup6\n              dup9\n              dup9\n              call\n              swap4\n              pop\n              pop\n              pop\n              pop\n              iszero\n              dup1\n              iszero\n              tag_70\n              jumpi\n              returndatasize\n              0x00\n              dup1\n              returndatacopy\n              revert(0x00, returndatasize)\n            tag_70:\n              pop\n                /* \"Campaign.sol\":800:801  _ */\n              pop\n                /* \"Campaign.sol\":2086:2466  function finalizeRequest(uint id) public onlyManager {\r... */\n              pop\n              jump\t// out\n                /* \"Campaign.sol\":504:545  mapping(address => bool) public approvers */\n            tag_21:\n              mstore(0x20, 0x01)\n              dup1\n              0x00\n              mstore\n              keccak256(0x00, 0x40)\n              0x00\n              swap2\n              pop\n              sload\n              swap1\n              0x0100\n              exp\n              swap1\n              div\n              0xff\n              and\n              dup2\n              jump\t// out\n                /* \"Campaign.sol\":475:497  address public manager */\n            tag_26:\n              0x00\n              dup1\n              sload\n              swap1\n              0x0100\n              exp\n              swap1\n              div\n              0xffffffffffffffffffffffffffffffffffffffff\n              and\n              dup2\n              jump\t// out\n                /* \"Campaign.sol\":608:648  mapping(uint => Request) public requests */\n            tag_32:\n              mstore(0x20, 0x04)\n              dup1\n              0x00\n              mstore\n              keccak256(0x00, 0x40)\n              0x00\n              swap2\n              pop\n              swap1\n              pop\n              dup1\n              0x00\n              add\n              dup1\n              sload\n              tag_71\n              swap1\n              tag_72\n              jump\t// in\n            tag_71:\n              dup1\n              0x1f\n              add\n              0x20\n              dup1\n              swap2\n              div\n              mul\n              0x20\n              add\n              mload(0x40)\n              swap1\n              dup2\n              add\n              0x40\n              mstore\n              dup1\n              swap3\n              swap2\n              swap1\n              dup2\n              dup2\n              mstore\n              0x20\n              add\n              dup3\n              dup1\n              sload\n              tag_73\n              swap1\n              tag_72\n              jump\t// in\n            tag_73:\n              dup1\n              iszero\n              tag_74\n              jumpi\n              dup1\n              0x1f\n              lt\n              tag_75\n              jumpi\n              0x0100\n              dup1\n              dup4\n              sload\n              div\n              mul\n              dup4\n              mstore\n              swap2\n              0x20\n              add\n              swap2\n              jump(tag_74)\n            tag_75:\n              dup3\n              add\n              swap2\n              swap1\n              0x00\n              mstore\n              keccak256(0x00, 0x20)\n              swap1\n            tag_76:\n              dup2\n              sload\n              dup2\n              mstore\n              swap1\n              0x01\n              add\n              swap1\n              0x20\n              add\n              dup1\n              dup4\n              gt\n              tag_76\n              jumpi\n              dup3\n              swap1\n              sub\n              0x1f\n              and\n              dup3\n              add\n              swap2\n            tag_74:\n              pop\n              pop\n              pop\n              pop\n              pop\n              swap1\n              dup1\n              0x01\n              add\n              sload\n              swap1\n              dup1\n              0x02\n              add\n              0x00\n              swap1\n              sload\n              swap1\n              0x0100\n              exp\n              swap1\n              div\n              0xffffffffffffffffffffffffffffffffffffffff\n              and\n              swap1\n              dup1\n              0x02\n              add\n              0x14\n              swap1\n              sload\n              swap1\n              0x0100\n              exp\n              swap1\n              div\n              0xff\n              and\n              swap1\n              dup1\n              0x03\n              add\n              sload\n              swap1\n              pop\n              dup6\n              jump\t// out\n                /* \"Campaign.sol\":552:578  uint public approversCount */\n            tag_37:\n              sload(0x02)\n              dup2\n              jump\t// out\n                /* \"Campaign.sol\":1270:1710  function createRequest(string memory description, uint value, address payable recipient) public onlyManager returns (uint requestId) {\r... */\n            tag_44:\n                /* \"Campaign.sol\":1387:1401  uint requestId */\n              0x00\n                /* \"Campaign.sol\":755:762  manager */\n              dup1\n              0x00\n              swap1\n              sload\n              swap1\n              0x0100\n              exp\n              swap1\n              div\n              0xffffffffffffffffffffffffffffffffffffffff\n              and\n                /* \"Campaign.sol\":741:762  msg.sender == manager */\n              0xffffffffffffffffffffffffffffffffffffffff\n              and\n                /* \"Campaign.sol\":741:751  msg.sender */\n              caller\n                /* \"Campaign.sol\":741:762  msg.sender == manager */\n              0xffffffffffffffffffffffffffffffffffffffff\n              and\n              eq\n                /* \"Campaign.sol\":733:789  require(msg.sender == manager, \"Only managers allowed!\") */\n              tag_78\n              jumpi\n              mload(0x40)\n              0x08c379a000000000000000000000000000000000000000000000000000000000\n              dup2\n              mstore\n              0x04\n              add\n              tag_79\n              swap1\n              tag_59\n              jump\t// in\n            tag_79:\n              mload(0x40)\n              dup1\n              swap2\n              sub\n              swap1\n              revert\n            tag_78:\n                /* \"Campaign.sol\":1426:1437  numRequests */\n              0x03\n              0x00\n                /* \"Campaign.sol\":1426:1439  numRequests++ */\n              dup2\n              sload\n              dup1\n              swap3\n              swap2\n              swap1\n              tag_81\n              swap1\n              tag_82\n              jump\t// in\n            tag_81:\n              swap2\n              swap1\n              pop\n              sstore\n                /* \"Campaign.sol\":1414:1439  requestId = numRequests++ */\n              swap1\n              pop\n                /* \"Campaign.sol\":1450:1476  Request storage newRequest */\n              0x00\n                /* \"Campaign.sol\":1479:1487  requests */\n              0x04\n                /* \"Campaign.sol\":1479:1498  requests[requestId] */\n              0x00\n                /* \"Campaign.sol\":1488:1497  requestId */\n              dup4\n                /* \"Campaign.sol\":1479:1498  requests[requestId] */\n              dup2\n              mstore\n              0x20\n              add\n              swap1\n              dup2\n              mstore\n              0x20\n              add\n              0x00\n              keccak256\n                /* \"Campaign.sol\":1450:1498  Request storage newRequest = requests[requestId] */\n              swap1\n              pop\n                /* \"Campaign.sol\":1534:1545  description */\n              dup5\n                /* \"Campaign.sol\":1509:1519  newRequest */\n              dup2\n                /* \"Campaign.sol\":1509:1531  newRequest.description */\n              0x00\n              add\n                /* \"Campaign.sol\":1509:1545  newRequest.description = description */\n              swap1\n              dup1\n              mload\n              swap1\n              0x20\n              add\n              swap1\n              tag_83\n              swap3\n              swap2\n              swap1\n              tag_84\n              jump\t// in\n            tag_83:\n              pop\n                /* \"Campaign.sol\":1575:1580  value */\n              dup4\n                /* \"Campaign.sol\":1556:1566  newRequest */\n              dup2\n                /* \"Campaign.sol\":1556:1572  newRequest.value */\n              0x01\n              add\n                /* \"Campaign.sol\":1556:1580  newRequest.value = value */\n              dup2\n              swap1\n              sstore\n              pop\n                /* \"Campaign.sol\":1614:1623  recipient */\n              dup3\n                /* \"Campaign.sol\":1591:1601  newRequest */\n              dup2\n                /* \"Campaign.sol\":1591:1611  newRequest.recipient */\n              0x02\n              add\n              0x00\n                /* \"Campaign.sol\":1591:1623  newRequest.recipient = recipient */\n              0x0100\n              exp\n              dup2\n              sload\n              dup2\n              0xffffffffffffffffffffffffffffffffffffffff\n              mul\n              not\n              and\n              swap1\n              dup4\n              0xffffffffffffffffffffffffffffffffffffffff\n              and\n              mul\n              or\n              swap1\n              sstore\n              pop\n                /* \"Campaign.sol\":1658:1663  false */\n              0x00\n                /* \"Campaign.sol\":1634:1644  newRequest */\n              dup2\n                /* \"Campaign.sol\":1634:1655  newRequest.isComplete */\n              0x02\n              add\n              0x14\n                /* \"Campaign.sol\":1634:1663  newRequest.isComplete = false */\n              0x0100\n              exp\n              dup2\n              sload\n              dup2\n              0xff\n              mul\n              not\n              and\n              swap1\n              dup4\n              iszero\n              iszero\n              mul\n              or\n              swap1\n              sstore\n              pop\n                /* \"Campaign.sol\":1701:1702  0 */\n              0x00\n                /* \"Campaign.sol\":1674:1684  newRequest */\n              dup2\n                /* \"Campaign.sol\":1674:1698  newRequest.approvalCount */\n              0x03\n              add\n                /* \"Campaign.sol\":1674:1702  newRequest.approvalCount = 0 */\n              dup2\n              swap1\n              sstore\n              pop\n                /* \"Campaign.sol\":800:801  _ */\n              pop\n                /* \"Campaign.sol\":1270:1710  function createRequest(string memory description, uint value, address payable recipient) public onlyManager returns (uint requestId) {\r... */\n              swap4\n              swap3\n              pop\n              pop\n              pop\n              jump\t// out\n                /* \"Campaign.sol\":661:692  uint public minimumContribution */\n            tag_48:\n              sload(0x05)\n              dup2\n              jump\t// out\n                /* \"Campaign.sol\":951:1258  function contribute() public payable {\r... */\n            tag_51:\n                /* \"Campaign.sol\":1019:1038  minimumContribution */\n              sload(0x05)\n                /* \"Campaign.sol\":1007:1016  msg.value */\n              callvalue\n                /* \"Campaign.sol\":1007:1038  msg.value > minimumContribution */\n              gt\n                /* \"Campaign.sol\":999:1099  require(msg.value > minimumContribution, \"You need more money to enter into the contribution list!\") */\n              tag_86\n              jumpi\n              mload(0x40)\n              0x08c379a000000000000000000000000000000000000000000000000000000000\n              dup2\n              mstore\n              0x04\n              add\n              tag_87\n              swap1\n              tag_88\n              jump\t// in\n            tag_87:\n              mload(0x40)\n              dup1\n              swap2\n              sub\n              swap1\n              revert\n            tag_86:\n                /* \"Campaign.sol\":1119:1128  approvers */\n              0x01\n                /* \"Campaign.sol\":1119:1140  approvers[msg.sender] */\n              0x00\n                /* \"Campaign.sol\":1129:1139  msg.sender */\n              caller\n                /* \"Campaign.sol\":1119:1140  approvers[msg.sender] */\n              0xffffffffffffffffffffffffffffffffffffffff\n              and\n              0xffffffffffffffffffffffffffffffffffffffff\n              and\n              dup2\n              mstore\n              0x20\n              add\n              swap1\n              dup2\n              mstore\n              0x20\n              add\n              0x00\n              keccak256\n              0x00\n              swap1\n              sload\n              swap1\n              0x0100\n              exp\n              swap1\n              div\n              0xff\n              and\n                /* \"Campaign.sol\":1118:1140  !approvers[msg.sender] */\n              iszero\n                /* \"Campaign.sol\":1110:1174  require(!approvers[msg.sender], \"You can contribute only once!\") */\n              tag_89\n              jumpi\n              mload(0x40)\n              0x08c379a000000000000000000000000000000000000000000000000000000000\n              dup2\n              mstore\n              0x04\n              add\n              tag_90\n              swap1\n              tag_91\n              jump\t// in\n            tag_90:\n              mload(0x40)\n              dup1\n              swap2\n              sub\n              swap1\n              revert\n            tag_89:\n                /* \"Campaign.sol\":1219:1223  true */\n              0x01\n                /* \"Campaign.sol\":1195:1204  approvers */\n              dup1\n                /* \"Campaign.sol\":1195:1216  approvers[msg.sender] */\n              0x00\n                /* \"Campaign.sol\":1205:1215  msg.sender */\n              caller\n                /* \"Campaign.sol\":1195:1216  approvers[msg.sender] */\n              0xffffffffffffffffffffffffffffffffffffffff\n              and\n              0xffffffffffffffffffffffffffffffffffffffff\n              and\n              dup2\n              mstore\n              0x20\n              add\n              swap1\n              dup2\n              mstore\n              0x20\n              add\n              0x00\n              keccak256\n              0x00\n                /* \"Campaign.sol\":1195:1223  approvers[msg.sender] = true */\n              0x0100\n              exp\n              dup2\n              sload\n              dup2\n              0xff\n              mul\n              not\n              and\n              swap1\n              dup4\n              iszero\n              iszero\n              mul\n              or\n              swap1\n              sstore\n              pop\n                /* \"Campaign.sol\":1234:1248  approversCount */\n              0x02\n              0x00\n                /* \"Campaign.sol\":1234:1250  approversCount++ */\n              dup2\n              sload\n              dup1\n              swap3\n              swap2\n              swap1\n              tag_92\n              swap1\n              tag_82\n              jump\t// in\n            tag_92:\n              swap2\n              swap1\n              pop\n              sstore\n              pop\n                /* \"Campaign.sol\":951:1258  function contribute() public payable {\r... */\n              jump\t// out\n                /* \"Campaign.sol\":1722:2074  function approveRequest(uint id) public {\r... */\n            tag_55:\n                /* \"Campaign.sol\":1773:1796  Request storage request */\n              0x00\n                /* \"Campaign.sol\":1799:1807  requests */\n              0x04\n                /* \"Campaign.sol\":1799:1811  requests[id] */\n              0x00\n                /* \"Campaign.sol\":1808:1810  id */\n              dup4\n                /* \"Campaign.sol\":1799:1811  requests[id] */\n              dup2\n              mstore\n              0x20\n              add\n              swap1\n              dup2\n              mstore\n              0x20\n              add\n              0x00\n              keccak256\n                /* \"Campaign.sol\":1773:1811  Request storage request = requests[id] */\n              swap1\n              pop\n                /* \"Campaign.sol\":1832:1841  approvers */\n              0x01\n                /* \"Campaign.sol\":1832:1853  approvers[msg.sender] */\n              0x00\n                /* \"Campaign.sol\":1842:1852  msg.sender */\n              caller\n                /* \"Campaign.sol\":1832:1853  approvers[msg.sender] */\n              0xffffffffffffffffffffffffffffffffffffffff\n              and\n              0xffffffffffffffffffffffffffffffffffffffff\n              and\n              dup2\n              mstore\n              0x20\n              add\n              swap1\n              dup2\n              mstore\n              0x20\n              add\n              0x00\n              keccak256\n              0x00\n              swap1\n              sload\n              swap1\n              0x0100\n              exp\n              swap1\n              div\n              0xff\n              and\n                /* \"Campaign.sol\":1824:1887  require(approvers[msg.sender], \"You need to contribute first!\") */\n              tag_94\n              jumpi\n              mload(0x40)\n              0x08c379a000000000000000000000000000000000000000000000000000000000\n              dup2\n              mstore\n              0x04\n              add\n              tag_95\n              swap1\n              tag_96\n              jump\t// in\n            tag_95:\n              mload(0x40)\n              dup1\n              swap2\n              sub\n              swap1\n              revert\n            tag_94:\n                /* \"Campaign.sol\":1907:1914  request */\n              dup1\n                /* \"Campaign.sol\":1907:1924  request.approvals */\n              0x04\n              add\n                /* \"Campaign.sol\":1907:1936  request.approvals[msg.sender] */\n              0x00\n                /* \"Campaign.sol\":1925:1935  msg.sender */\n              caller\n                /* \"Campaign.sol\":1907:1936  request.approvals[msg.sender] */\n              0xffffffffffffffffffffffffffffffffffffffff\n              and\n              0xffffffffffffffffffffffffffffffffffffffff\n              and\n              dup2\n              mstore\n              0x20\n              add\n              swap1\n              dup2\n              mstore\n              0x20\n              add\n              0x00\n              keccak256\n              0x00\n              swap1\n              sload\n              swap1\n              0x0100\n              exp\n              swap1\n              div\n              0xff\n              and\n                /* \"Campaign.sol\":1906:1936  !request.approvals[msg.sender] */\n              iszero\n                /* \"Campaign.sol\":1898:1975  require(!request.approvals[msg.sender], \"You can't approve a request twice!\") */\n              tag_97\n              jumpi\n              mload(0x40)\n              0x08c379a000000000000000000000000000000000000000000000000000000000\n              dup2\n              mstore\n              0x04\n              add\n              tag_98\n              swap1\n              tag_99\n              jump\t// in\n            tag_98:\n              mload(0x40)\n              dup1\n              swap2\n              sub\n              swap1\n              revert\n            tag_97:\n                /* \"Campaign.sol\":2028:2032  true */\n              0x01\n                /* \"Campaign.sol\":1996:2003  request */\n              dup2\n                /* \"Campaign.sol\":1996:2013  request.approvals */\n              0x04\n              add\n                /* \"Campaign.sol\":1996:2025  request.approvals[msg.sender] */\n              0x00\n                /* \"Campaign.sol\":2014:2024  msg.sender */\n              caller\n                /* \"Campaign.sol\":1996:2025  request.approvals[msg.sender] */\n              0xffffffffffffffffffffffffffffffffffffffff\n              and\n              0xffffffffffffffffffffffffffffffffffffffff\n              and\n              dup2\n              mstore\n              0x20\n              add\n              swap1\n              dup2\n              mstore\n              0x20\n              add\n              0x00\n              keccak256\n              0x00\n                /* \"Campaign.sol\":1996:2032  request.approvals[msg.sender] = true */\n              0x0100\n              exp\n              dup2\n              sload\n              dup2\n              0xff\n              mul\n              not\n              and\n              swap1\n              dup4\n              iszero\n              iszero\n              mul\n              or\n              swap1\n              sstore\n              pop\n                /* \"Campaign.sol\":2043:2050  request */\n              dup1\n                /* \"Campaign.sol\":2043:2064  request.approvalCount */\n              0x03\n              add\n              0x00\n                /* \"Campaign.sol\":2043:2066  request.approvalCount++ */\n              dup2\n              sload\n              dup1\n              swap3\n              swap2\n              swap1\n              tag_100\n              swap1\n              tag_82\n              jump\t// in\n            tag_100:\n              swap2\n              swap1\n              pop\n              sstore\n              pop\n                /* \"Campaign.sol\":1722:2074  function approveRequest(uint id) public {\r... */\n              pop\n              pop\n              jump\t// out\n            tag_84:\n              dup3\n              dup1\n              sload\n              tag_101\n              swap1\n              tag_72\n              jump\t// in\n            tag_101:\n              swap1\n              0x00\n              mstore\n              keccak256(0x00, 0x20)\n              swap1\n              0x1f\n              add\n              0x20\n              swap1\n              div\n              dup2\n              add\n              swap3\n              dup3\n              tag_103\n              jumpi\n              0x00\n              dup6\n              sstore\n              jump(tag_102)\n            tag_103:\n              dup3\n              0x1f\n              lt\n              tag_104\n              jumpi\n              dup1\n              mload\n              not(0xff)\n              and\n              dup4\n              dup1\n              add\n              or\n              dup6\n              sstore\n              jump(tag_102)\n            tag_104:\n              dup3\n              dup1\n              add\n              0x01\n              add\n              dup6\n              sstore\n              dup3\n              iszero\n              tag_102\n              jumpi\n              swap2\n              dup3\n              add\n            tag_105:\n              dup3\n              dup2\n              gt\n              iszero\n              tag_106\n              jumpi\n              dup3\n              mload\n              dup3\n              sstore\n              swap2\n              0x20\n              add\n              swap2\n              swap1\n              0x01\n              add\n              swap1\n              jump(tag_105)\n            tag_106:\n            tag_102:\n              pop\n              swap1\n              pop\n              tag_107\n              swap2\n              swap1\n              tag_108\n              jump\t// in\n            tag_107:\n              pop\n              swap1\n              jump\t// out\n            tag_108:\n            tag_109:\n              dup1\n              dup3\n              gt\n              iszero\n              tag_110\n              jumpi\n              0x00\n              dup2\n              0x00\n              swap1\n              sstore\n              pop\n              0x01\n              add\n              jump(tag_109)\n            tag_110:\n              pop\n              swap1\n              jump\t// out\n                /* \"#utility.yul\":7:351   */\n            tag_112:\n              0x00\n                /* \"#utility.yul\":110:175   */\n              tag_114\n                /* \"#utility.yul\":125:174   */\n              tag_115\n                /* \"#utility.yul\":167:173   */\n              dup5\n                /* \"#utility.yul\":125:174   */\n              tag_116\n              jump\t// in\n            tag_115:\n                /* \"#utility.yul\":110:175   */\n              tag_117\n              jump\t// in\n            tag_114:\n                /* \"#utility.yul\":101:175   */\n              swap1\n              pop\n                /* \"#utility.yul\":198:204   */\n              dup3\n                /* \"#utility.yul\":191:196   */\n              dup2\n                /* \"#utility.yul\":184:205   */\n              mstore\n                /* \"#utility.yul\":236:240   */\n              0x20\n                /* \"#utility.yul\":229:234   */\n              dup2\n                /* \"#utility.yul\":225:241   */\n              add\n                /* \"#utility.yul\":274:277   */\n              dup5\n                /* \"#utility.yul\":265:271   */\n              dup5\n                /* \"#utility.yul\":260:263   */\n              dup5\n                /* \"#utility.yul\":256:272   */\n              add\n                /* \"#utility.yul\":253:278   */\n              gt\n                /* \"#utility.yul\":250:252   */\n              iszero\n              tag_118\n              jumpi\n                /* \"#utility.yul\":291:292   */\n              0x00\n                /* \"#utility.yul\":288:289   */\n              dup1\n                /* \"#utility.yul\":281:293   */\n              revert\n                /* \"#utility.yul\":250:252   */\n            tag_118:\n                /* \"#utility.yul\":304:345   */\n              tag_119\n                /* \"#utility.yul\":338:344   */\n              dup5\n                /* \"#utility.yul\":333:336   */\n              dup3\n                /* \"#utility.yul\":328:331   */\n              dup6\n                /* \"#utility.yul\":304:345   */\n              tag_120\n              jump\t// in\n            tag_119:\n                /* \"#utility.yul\":91:351   */\n              pop\n              swap4\n              swap3\n              pop\n              pop\n              pop\n              jump\t// out\n                /* \"#utility.yul\":357:496   */\n            tag_121:\n              0x00\n                /* \"#utility.yul\":441:447   */\n              dup2\n                /* \"#utility.yul\":428:448   */\n              calldataload\n                /* \"#utility.yul\":419:448   */\n              swap1\n              pop\n                /* \"#utility.yul\":457:490   */\n              tag_123\n                /* \"#utility.yul\":484:489   */\n              dup2\n                /* \"#utility.yul\":457:490   */\n              tag_124\n              jump\t// in\n            tag_123:\n                /* \"#utility.yul\":409:496   */\n              swap3\n              swap2\n              pop\n              pop\n              jump\t// out\n                /* \"#utility.yul\":502:657   */\n            tag_125:\n              0x00\n                /* \"#utility.yul\":594:600   */\n              dup2\n                /* \"#utility.yul\":581:601   */\n              calldataload\n                /* \"#utility.yul\":572:601   */\n              swap1\n              pop\n                /* \"#utility.yul\":610:651   */\n              tag_127\n                /* \"#utility.yul\":645:650   */\n              dup2\n                /* \"#utility.yul\":610:651   */\n              tag_128\n              jump\t// in\n            tag_127:\n                /* \"#utility.yul\":562:657   */\n              swap3\n              swap2\n              pop\n              pop\n              jump\t// out\n                /* \"#utility.yul\":677:950   */\n            tag_129:\n              0x00\n                /* \"#utility.yul\":782:785   */\n              dup3\n                /* \"#utility.yul\":775:779   */\n              0x1f\n                /* \"#utility.yul\":767:773   */\n              dup4\n                /* \"#utility.yul\":763:780   */\n              add\n                /* \"#utility.yul\":759:786   */\n              slt\n                /* \"#utility.yul\":749:751   */\n              tag_131\n              jumpi\n                /* \"#utility.yul\":800:801   */\n              0x00\n                /* \"#utility.yul\":797:798   */\n              dup1\n                /* \"#utility.yul\":790:802   */\n              revert\n                /* \"#utility.yul\":749:751   */\n            tag_131:\n                /* \"#utility.yul\":840:846   */\n              dup2\n                /* \"#utility.yul\":827:847   */\n              calldataload\n                /* \"#utility.yul\":865:944   */\n              tag_132\n                /* \"#utility.yul\":940:943   */\n              dup5\n                /* \"#utility.yul\":932:938   */\n              dup3\n                /* \"#utility.yul\":925:929   */\n              0x20\n                /* \"#utility.yul\":917:923   */\n              dup7\n                /* \"#utility.yul\":913:930   */\n              add\n                /* \"#utility.yul\":865:944   */\n              tag_112\n              jump\t// in\n            tag_132:\n                /* \"#utility.yul\":856:944   */\n              swap2\n              pop\n                /* \"#utility.yul\":739:950   */\n              pop\n              swap3\n              swap2\n              pop\n              pop\n              jump\t// out\n                /* \"#utility.yul\":956:1095   */\n            tag_133:\n              0x00\n                /* \"#utility.yul\":1040:1046   */\n              dup2\n                /* \"#utility.yul\":1027:1047   */\n              calldataload\n                /* \"#utility.yul\":1018:1047   */\n              swap1\n              pop\n                /* \"#utility.yul\":1056:1089   */\n              tag_135\n                /* \"#utility.yul\":1083:1088   */\n              dup2\n                /* \"#utility.yul\":1056:1089   */\n              tag_136\n              jump\t// in\n            tag_135:\n                /* \"#utility.yul\":1008:1095   */\n              swap3\n              swap2\n              pop\n              pop\n              jump\t// out\n                /* \"#utility.yul\":1101:1363   */\n            tag_20:\n              0x00\n                /* \"#utility.yul\":1209:1211   */\n              0x20\n                /* \"#utility.yul\":1197:1206   */\n              dup3\n                /* \"#utility.yul\":1188:1195   */\n              dup5\n                /* \"#utility.yul\":1184:1207   */\n              sub\n                /* \"#utility.yul\":1180:1212   */\n              slt\n                /* \"#utility.yul\":1177:1179   */\n              iszero\n              tag_138\n              jumpi\n                /* \"#utility.yul\":1225:1226   */\n              0x00\n                /* \"#utility.yul\":1222:1223   */\n              dup1\n                /* \"#utility.yul\":1215:1227   */\n              revert\n                /* \"#utility.yul\":1177:1179   */\n            tag_138:\n                /* \"#utility.yul\":1268:1269   */\n              0x00\n                /* \"#utility.yul\":1293:1346   */\n              tag_139\n                /* \"#utility.yul\":1338:1345   */\n              dup5\n                /* \"#utility.yul\":1329:1335   */\n              dup3\n                /* \"#utility.yul\":1318:1327   */\n              dup6\n                /* \"#utility.yul\":1314:1336   */\n              add\n                /* \"#utility.yul\":1293:1346   */\n              tag_121\n              jump\t// in\n            tag_139:\n                /* \"#utility.yul\":1283:1346   */\n              swap2\n              pop\n                /* \"#utility.yul\":1239:1356   */\n              pop\n                /* \"#utility.yul\":1167:1363   */\n              swap3\n              swap2\n              pop\n              pop\n              jump\t// out\n                /* \"#utility.yul\":1369:2050   */\n            tag_43:\n              0x00\n              dup1\n              0x00\n                /* \"#utility.yul\":1529:1531   */\n              0x60\n                /* \"#utility.yul\":1517:1526   */\n              dup5\n                /* \"#utility.yul\":1508:1515   */\n              dup7\n                /* \"#utility.yul\":1504:1527   */\n              sub\n                /* \"#utility.yul\":1500:1532   */\n              slt\n                /* \"#utility.yul\":1497:1499   */\n              iszero\n              tag_141\n              jumpi\n                /* \"#utility.yul\":1545:1546   */\n              0x00\n                /* \"#utility.yul\":1542:1543   */\n              dup1\n                /* \"#utility.yul\":1535:1547   */\n              revert\n                /* \"#utility.yul\":1497:1499   */\n            tag_141:\n                /* \"#utility.yul\":1616:1617   */\n              0x00\n                /* \"#utility.yul\":1605:1614   */\n              dup5\n                /* \"#utility.yul\":1601:1618   */\n              add\n                /* \"#utility.yul\":1588:1619   */\n              calldataload\n                /* \"#utility.yul\":1646:1664   */\n              0xffffffffffffffff\n                /* \"#utility.yul\":1638:1644   */\n              dup2\n                /* \"#utility.yul\":1635:1665   */\n              gt\n                /* \"#utility.yul\":1632:1634   */\n              iszero\n              tag_142\n              jumpi\n                /* \"#utility.yul\":1678:1679   */\n              0x00\n                /* \"#utility.yul\":1675:1676   */\n              dup1\n                /* \"#utility.yul\":1668:1680   */\n              revert\n                /* \"#utility.yul\":1632:1634   */\n            tag_142:\n                /* \"#utility.yul\":1706:1769   */\n              tag_143\n                /* \"#utility.yul\":1761:1768   */\n              dup7\n                /* \"#utility.yul\":1752:1758   */\n              dup3\n                /* \"#utility.yul\":1741:1750   */\n              dup8\n                /* \"#utility.yul\":1737:1759   */\n              add\n                /* \"#utility.yul\":1706:1769   */\n              tag_129\n              jump\t// in\n            tag_143:\n                /* \"#utility.yul\":1696:1769   */\n              swap4\n              pop\n                /* \"#utility.yul\":1559:1779   */\n              pop\n                /* \"#utility.yul\":1818:1820   */\n              0x20\n                /* \"#utility.yul\":1844:1897   */\n              tag_144\n                /* \"#utility.yul\":1889:1896   */\n              dup7\n                /* \"#utility.yul\":1880:1886   */\n              dup3\n                /* \"#utility.yul\":1869:1878   */\n              dup8\n                /* \"#utility.yul\":1865:1887   */\n              add\n                /* \"#utility.yul\":1844:1897   */\n              tag_133\n              jump\t// in\n            tag_144:\n                /* \"#utility.yul\":1834:1897   */\n              swap3\n              pop\n                /* \"#utility.yul\":1789:1907   */\n              pop\n                /* \"#utility.yul\":1946:1948   */\n              0x40\n                /* \"#utility.yul\":1972:2033   */\n              tag_145\n                /* \"#utility.yul\":2025:2032   */\n              dup7\n                /* \"#utility.yul\":2016:2022   */\n              dup3\n                /* \"#utility.yul\":2005:2014   */\n              dup8\n                /* \"#utility.yul\":2001:2023   */\n              add\n                /* \"#utility.yul\":1972:2033   */\n              tag_125\n              jump\t// in\n            tag_145:\n                /* \"#utility.yul\":1962:2033   */\n              swap2\n              pop\n                /* \"#utility.yul\":1917:2043   */\n              pop\n                /* \"#utility.yul\":1487:2050   */\n              swap3\n              pop\n              swap3\n              pop\n              swap3\n              jump\t// out\n                /* \"#utility.yul\":2056:2318   */\n            tag_15:\n              0x00\n                /* \"#utility.yul\":2164:2166   */\n              0x20\n                /* \"#utility.yul\":2152:2161   */\n              dup3\n                /* \"#utility.yul\":2143:2150   */\n              dup5\n                /* \"#utility.yul\":2139:2162   */\n              sub\n                /* \"#utility.yul\":2135:2167   */\n              slt\n                /* \"#utility.yul\":2132:2134   */\n              iszero\n              tag_147\n              jumpi\n                /* \"#utility.yul\":2180:2181   */\n              0x00\n                /* \"#utility.yul\":2177:2178   */\n              dup1\n                /* \"#utility.yul\":2170:2182   */\n              revert\n                /* \"#utility.yul\":2132:2134   */\n            tag_147:\n                /* \"#utility.yul\":2223:2224   */\n              0x00\n                /* \"#utility.yul\":2248:2301   */\n              tag_148\n                /* \"#utility.yul\":2293:2300   */\n              dup5\n                /* \"#utility.yul\":2284:2290   */\n              dup3\n                /* \"#utility.yul\":2273:2282   */\n              dup6\n                /* \"#utility.yul\":2269:2291   */\n              add\n                /* \"#utility.yul\":2248:2301   */\n              tag_133\n              jump\t// in\n            tag_148:\n                /* \"#utility.yul\":2238:2301   */\n              swap2\n              pop\n                /* \"#utility.yul\":2194:2311   */\n              pop\n                /* \"#utility.yul\":2122:2318   */\n              swap3\n              swap2\n              pop\n              pop\n              jump\t// out\n                /* \"#utility.yul\":2324:2466   */\n            tag_149:\n                /* \"#utility.yul\":2427:2459   */\n              tag_151\n                /* \"#utility.yul\":2453:2458   */\n              dup2\n                /* \"#utility.yul\":2427:2459   */\n              tag_152\n              jump\t// in\n            tag_151:\n                /* \"#utility.yul\":2422:2425   */\n              dup3\n                /* \"#utility.yul\":2415:2460   */\n              mstore\n                /* \"#utility.yul\":2405:2466   */\n              pop\n              pop\n              jump\t// out\n                /* \"#utility.yul\":2472:2590   */\n            tag_153:\n                /* \"#utility.yul\":2559:2583   */\n              tag_155\n                /* \"#utility.yul\":2577:2582   */\n              dup2\n                /* \"#utility.yul\":2559:2583   */\n              tag_156\n              jump\t// in\n            tag_155:\n                /* \"#utility.yul\":2554:2557   */\n              dup3\n                /* \"#utility.yul\":2547:2584   */\n              mstore\n                /* \"#utility.yul\":2537:2590   */\n              pop\n              pop\n              jump\t// out\n                /* \"#utility.yul\":2596:2705   */\n            tag_157:\n                /* \"#utility.yul\":2677:2698   */\n              tag_159\n                /* \"#utility.yul\":2692:2697   */\n              dup2\n                /* \"#utility.yul\":2677:2698   */\n              tag_160\n              jump\t// in\n            tag_159:\n                /* \"#utility.yul\":2672:2675   */\n              dup3\n                /* \"#utility.yul\":2665:2699   */\n              mstore\n                /* \"#utility.yul\":2655:2705   */\n              pop\n              pop\n              jump\t// out\n                /* \"#utility.yul\":2711:3075   */\n            tag_161:\n              0x00\n                /* \"#utility.yul\":2827:2866   */\n              tag_163\n                /* \"#utility.yul\":2860:2865   */\n              dup3\n                /* \"#utility.yul\":2827:2866   */\n              tag_164\n              jump\t// in\n            tag_163:\n                /* \"#utility.yul\":2882:2953   */\n              tag_165\n                /* \"#utility.yul\":2946:2952   */\n              dup2\n                /* \"#utility.yul\":2941:2944   */\n              dup6\n                /* \"#utility.yul\":2882:2953   */\n              tag_166\n              jump\t// in\n            tag_165:\n                /* \"#utility.yul\":2875:2953   */\n              swap4\n              pop\n                /* \"#utility.yul\":2962:3014   */\n              tag_167\n                /* \"#utility.yul\":3007:3013   */\n              dup2\n                /* \"#utility.yul\":3002:3005   */\n              dup6\n                /* \"#utility.yul\":2995:2999   */\n              0x20\n                /* \"#utility.yul\":2988:2993   */\n              dup7\n                /* \"#utility.yul\":2984:3000   */\n              add\n                /* \"#utility.yul\":2962:3014   */\n              tag_168\n              jump\t// in\n            tag_167:\n                /* \"#utility.yul\":3039:3068   */\n              tag_169\n                /* \"#utility.yul\":3061:3067   */\n              dup2\n                /* \"#utility.yul\":3039:3068   */\n              tag_170\n              jump\t// in\n            tag_169:\n                /* \"#utility.yul\":3034:3037   */\n              dup5\n                /* \"#utility.yul\":3030:3069   */\n              add\n                /* \"#utility.yul\":3023:3069   */\n              swap2\n              pop\n                /* \"#utility.yul\":2803:3075   */\n              pop\n              swap3\n              swap2\n              pop\n              pop\n              jump\t// out\n                /* \"#utility.yul\":3081:3453   */\n            tag_171:\n              0x00\n                /* \"#utility.yul\":3244:3311   */\n              tag_173\n                /* \"#utility.yul\":3308:3310   */\n              0x28\n                /* \"#utility.yul\":3303:3306   */\n              dup4\n                /* \"#utility.yul\":3244:3311   */\n              tag_166\n              jump\t// in\n            tag_173:\n                /* \"#utility.yul\":3237:3311   */\n              swap2\n              pop\n                /* \"#utility.yul\":3341:3375   */\n              0x5468697320726571756573742068617320616c7265616479206265656e20636f\n                /* \"#utility.yul\":3337:3338   */\n              0x00\n                /* \"#utility.yul\":3332:3335   */\n              dup4\n                /* \"#utility.yul\":3328:3339   */\n              add\n                /* \"#utility.yul\":3321:3376   */\n              mstore\n                /* \"#utility.yul\":3407:3417   */\n              0x6d706c6574656421000000000000000000000000000000000000000000000000\n                /* \"#utility.yul\":3402:3404   */\n              0x20\n                /* \"#utility.yul\":3397:3400   */\n              dup4\n                /* \"#utility.yul\":3393:3405   */\n              add\n                /* \"#utility.yul\":3386:3418   */\n              mstore\n                /* \"#utility.yul\":3444:3446   */\n              0x40\n                /* \"#utility.yul\":3439:3442   */\n              dup3\n                /* \"#utility.yul\":3435:3447   */\n              add\n                /* \"#utility.yul\":3428:3447   */\n              swap1\n              pop\n                /* \"#utility.yul\":3227:3453   */\n              swap2\n              swap1\n              pop\n              jump\t// out\n                /* \"#utility.yul\":3459:3779   */\n            tag_174:\n              0x00\n                /* \"#utility.yul\":3622:3689   */\n              tag_176\n                /* \"#utility.yul\":3686:3688   */\n              0x16\n                /* \"#utility.yul\":3681:3684   */\n              dup4\n                /* \"#utility.yul\":3622:3689   */\n              tag_166\n              jump\t// in\n            tag_176:\n                /* \"#utility.yul\":3615:3689   */\n              swap2\n              pop\n                /* \"#utility.yul\":3719:3743   */\n              0x4f6e6c79206d616e616765727320616c6c6f7765642100000000000000000000\n                /* \"#utility.yul\":3715:3716   */\n              0x00\n                /* \"#utility.yul\":3710:3713   */\n              dup4\n                /* \"#utility.yul\":3706:3717   */\n              add\n                /* \"#utility.yul\":3699:3744   */\n              mstore\n                /* \"#utility.yul\":3770:3772   */\n              0x20\n                /* \"#utility.yul\":3765:3768   */\n              dup3\n                /* \"#utility.yul\":3761:3773   */\n              add\n                /* \"#utility.yul\":3754:3773   */\n              swap1\n              pop\n                /* \"#utility.yul\":3605:3779   */\n              swap2\n              swap1\n              pop\n              jump\t// out\n                /* \"#utility.yul\":3785:4173   */\n            tag_177:\n              0x00\n                /* \"#utility.yul\":3948:4015   */\n              tag_179\n                /* \"#utility.yul\":4012:4014   */\n              0x38\n                /* \"#utility.yul\":4007:4010   */\n              dup4\n                /* \"#utility.yul\":3948:4015   */\n              tag_166\n              jump\t// in\n            tag_179:\n                /* \"#utility.yul\":3941:4015   */\n              swap2\n              pop\n                /* \"#utility.yul\":4045:4079   */\n              0x596f75206e656564206d6f7265206d6f6e657920746f20656e74657220696e74\n                /* \"#utility.yul\":4041:4042   */\n              0x00\n                /* \"#utility.yul\":4036:4039   */\n              dup4\n                /* \"#utility.yul\":4032:4043   */\n              add\n                /* \"#utility.yul\":4025:4080   */\n              mstore\n                /* \"#utility.yul\":4111:4137   */\n              0x6f2074686520636f6e747269627574696f6e206c697374210000000000000000\n                /* \"#utility.yul\":4106:4108   */\n              0x20\n                /* \"#utility.yul\":4101:4104   */\n              dup4\n                /* \"#utility.yul\":4097:4109   */\n              add\n                /* \"#utility.yul\":4090:4138   */\n              mstore\n                /* \"#utility.yul\":4164:4166   */\n              0x40\n                /* \"#utility.yul\":4159:4162   */\n              dup3\n                /* \"#utility.yul\":4155:4167   */\n              add\n                /* \"#utility.yul\":4148:4167   */\n              swap1\n              pop\n                /* \"#utility.yul\":3931:4173   */\n              swap2\n              swap1\n              pop\n              jump\t// out\n                /* \"#utility.yul\":4179:4500   */\n            tag_180:\n              0x00\n                /* \"#utility.yul\":4342:4409   */\n              tag_182\n                /* \"#utility.yul\":4406:4408   */\n              0x17\n                /* \"#utility.yul\":4401:4404   */\n              dup4\n                /* \"#utility.yul\":4342:4409   */\n              tag_166\n              jump\t// in\n            tag_182:\n                /* \"#utility.yul\":4335:4409   */\n              swap2\n              pop\n                /* \"#utility.yul\":4439:4464   */\n              0x496e73756666696369656e7420617070726f76616c7321000000000000000000\n                /* \"#utility.yul\":4435:4436   */\n              0x00\n                /* \"#utility.yul\":4430:4433   */\n              dup4\n                /* \"#utility.yul\":4426:4437   */\n              add\n                /* \"#utility.yul\":4419:4465   */\n              mstore\n                /* \"#utility.yul\":4491:4493   */\n              0x20\n                /* \"#utility.yul\":4486:4489   */\n              dup3\n                /* \"#utility.yul\":4482:4494   */\n              add\n                /* \"#utility.yul\":4475:4494   */\n              swap1\n              pop\n                /* \"#utility.yul\":4325:4500   */\n              swap2\n              swap1\n              pop\n              jump\t// out\n                /* \"#utility.yul\":4506:4872   */\n            tag_183:\n              0x00\n                /* \"#utility.yul\":4669:4736   */\n              tag_185\n                /* \"#utility.yul\":4733:4735   */\n              0x22\n                /* \"#utility.yul\":4728:4731   */\n              dup4\n                /* \"#utility.yul\":4669:4736   */\n              tag_166\n              jump\t// in\n            tag_185:\n                /* \"#utility.yul\":4662:4736   */\n              swap2\n              pop\n                /* \"#utility.yul\":4766:4800   */\n              0x596f752063616e277420617070726f7665206120726571756573742074776963\n                /* \"#utility.yul\":4762:4763   */\n              0x00\n                /* \"#utility.yul\":4757:4760   */\n              dup4\n                /* \"#utility.yul\":4753:4764   */\n              add\n                /* \"#utility.yul\":4746:4801   */\n              mstore\n                /* \"#utility.yul\":4832:4836   */\n              0x6521000000000000000000000000000000000000000000000000000000000000\n                /* \"#utility.yul\":4827:4829   */\n              0x20\n                /* \"#utility.yul\":4822:4825   */\n              dup4\n                /* \"#utility.yul\":4818:4830   */\n              add\n                /* \"#utility.yul\":4811:4837   */\n              mstore\n                /* \"#utility.yul\":4863:4865   */\n              0x40\n                /* \"#utility.yul\":4858:4861   */\n              dup3\n                /* \"#utility.yul\":4854:4866   */\n              add\n                /* \"#utility.yul\":4847:4866   */\n              swap1\n              pop\n                /* \"#utility.yul\":4652:4872   */\n              swap2\n              swap1\n              pop\n              jump\t// out\n                /* \"#utility.yul\":4878:5205   */\n            tag_186:\n              0x00\n                /* \"#utility.yul\":5041:5108   */\n              tag_188\n                /* \"#utility.yul\":5105:5107   */\n              0x1d\n                /* \"#utility.yul\":5100:5103   */\n              dup4\n                /* \"#utility.yul\":5041:5108   */\n              tag_166\n              jump\t// in\n            tag_188:\n                /* \"#utility.yul\":5034:5108   */\n              swap2\n              pop\n                /* \"#utility.yul\":5138:5169   */\n              0x596f75206e65656420746f20636f6e7472696275746520666972737421000000\n                /* \"#utility.yul\":5134:5135   */\n              0x00\n                /* \"#utility.yul\":5129:5132   */\n              dup4\n                /* \"#utility.yul\":5125:5136   */\n              add\n                /* \"#utility.yul\":5118:5170   */\n              mstore\n                /* \"#utility.yul\":5196:5198   */\n              0x20\n                /* \"#utility.yul\":5191:5194   */\n              dup3\n                /* \"#utility.yul\":5187:5199   */\n              add\n                /* \"#utility.yul\":5180:5199   */\n              swap1\n              pop\n                /* \"#utility.yul\":5024:5205   */\n              swap2\n              swap1\n              pop\n              jump\t// out\n                /* \"#utility.yul\":5211:5538   */\n            tag_189:\n              0x00\n                /* \"#utility.yul\":5374:5441   */\n              tag_191\n                /* \"#utility.yul\":5438:5440   */\n              0x1d\n                /* \"#utility.yul\":5433:5436   */\n              dup4\n                /* \"#utility.yul\":5374:5441   */\n              tag_166\n              jump\t// in\n            tag_191:\n                /* \"#utility.yul\":5367:5441   */\n              swap2\n              pop\n                /* \"#utility.yul\":5471:5502   */\n              0x596f752063616e20636f6e74726962757465206f6e6c79206f6e636521000000\n                /* \"#utility.yul\":5467:5468   */\n              0x00\n                /* \"#utility.yul\":5462:5465   */\n              dup4\n                /* \"#utility.yul\":5458:5469   */\n              add\n                /* \"#utility.yul\":5451:5503   */\n              mstore\n                /* \"#utility.yul\":5529:5531   */\n              0x20\n                /* \"#utility.yul\":5524:5527   */\n              dup3\n                /* \"#utility.yul\":5520:5532   */\n              add\n                /* \"#utility.yul\":5513:5532   */\n              swap1\n              pop\n                /* \"#utility.yul\":5357:5538   */\n              swap2\n              swap1\n              pop\n              jump\t// out\n                /* \"#utility.yul\":5544:5662   */\n            tag_192:\n                /* \"#utility.yul\":5631:5655   */\n              tag_194\n                /* \"#utility.yul\":5649:5654   */\n              dup2\n                /* \"#utility.yul\":5631:5655   */\n              tag_195\n              jump\t// in\n            tag_194:\n                /* \"#utility.yul\":5626:5629   */\n              dup3\n                /* \"#utility.yul\":5619:5656   */\n              mstore\n                /* \"#utility.yul\":5609:5662   */\n              pop\n              pop\n              jump\t// out\n                /* \"#utility.yul\":5668:5890   */\n            tag_28:\n              0x00\n                /* \"#utility.yul\":5799:5801   */\n              0x20\n                /* \"#utility.yul\":5788:5797   */\n              dup3\n                /* \"#utility.yul\":5784:5802   */\n              add\n                /* \"#utility.yul\":5776:5802   */\n              swap1\n              pop\n                /* \"#utility.yul\":5812:5883   */\n              tag_197\n                /* \"#utility.yul\":5880:5881   */\n              0x00\n                /* \"#utility.yul\":5869:5878   */\n              dup4\n                /* \"#utility.yul\":5865:5882   */\n              add\n                /* \"#utility.yul\":5856:5862   */\n              dup5\n                /* \"#utility.yul\":5812:5883   */\n              tag_153\n              jump\t// in\n            tag_197:\n                /* \"#utility.yul\":5766:5890   */\n              swap3\n              swap2\n              pop\n              pop\n              jump\t// out\n                /* \"#utility.yul\":5896:6106   */\n            tag_23:\n              0x00\n                /* \"#utility.yul\":6021:6023   */\n              0x20\n                /* \"#utility.yul\":6010:6019   */\n              dup3\n                /* \"#utility.yul\":6006:6024   */\n              add\n                /* \"#utility.yul\":5998:6024   */\n              swap1\n              pop\n                /* \"#utility.yul\":6034:6099   */\n              tag_199\n                /* \"#utility.yul\":6096:6097   */\n              0x00\n                /* \"#utility.yul\":6085:6094   */\n              dup4\n                /* \"#utility.yul\":6081:6098   */\n              add\n                /* \"#utility.yul\":6072:6078   */\n              dup5\n                /* \"#utility.yul\":6034:6099   */\n              tag_157\n              jump\t// in\n            tag_199:\n                /* \"#utility.yul\":5988:6106   */\n              swap3\n              swap2\n              pop\n              pop\n              jump\t// out\n                /* \"#utility.yul\":6112:6887   */\n            tag_34:\n              0x00\n                /* \"#utility.yul\":6385:6388   */\n              0xa0\n                /* \"#utility.yul\":6374:6383   */\n              dup3\n                /* \"#utility.yul\":6370:6389   */\n              add\n                /* \"#utility.yul\":6362:6389   */\n              swap1\n              pop\n                /* \"#utility.yul\":6435:6444   */\n              dup2\n                /* \"#utility.yul\":6429:6433   */\n              dup2\n                /* \"#utility.yul\":6425:6445   */\n              sub\n                /* \"#utility.yul\":6421:6422   */\n              0x00\n                /* \"#utility.yul\":6410:6419   */\n              dup4\n                /* \"#utility.yul\":6406:6423   */\n              add\n                /* \"#utility.yul\":6399:6446   */\n              mstore\n                /* \"#utility.yul\":6463:6541   */\n              tag_201\n                /* \"#utility.yul\":6536:6540   */\n              dup2\n                /* \"#utility.yul\":6527:6533   */\n              dup9\n                /* \"#utility.yul\":6463:6541   */\n              tag_161\n              jump\t// in\n            tag_201:\n                /* \"#utility.yul\":6455:6541   */\n              swap1\n              pop\n                /* \"#utility.yul\":6551:6623   */\n              tag_202\n                /* \"#utility.yul\":6619:6621   */\n              0x20\n                /* \"#utility.yul\":6608:6617   */\n              dup4\n                /* \"#utility.yul\":6604:6622   */\n              add\n                /* \"#utility.yul\":6595:6601   */\n              dup8\n                /* \"#utility.yul\":6551:6623   */\n              tag_192\n              jump\t// in\n            tag_202:\n                /* \"#utility.yul\":6633:6721   */\n              tag_203\n                /* \"#utility.yul\":6717:6719   */\n              0x40\n                /* \"#utility.yul\":6706:6715   */\n              dup4\n                /* \"#utility.yul\":6702:6720   */\n              add\n                /* \"#utility.yul\":6693:6699   */\n              dup7\n                /* \"#utility.yul\":6633:6721   */\n              tag_149\n              jump\t// in\n            tag_203:\n                /* \"#utility.yul\":6731:6797   */\n              tag_204\n                /* \"#utility.yul\":6793:6795   */\n              0x60\n                /* \"#utility.yul\":6782:6791   */\n              dup4\n                /* \"#utility.yul\":6778:6796   */\n              add\n                /* \"#utility.yul\":6769:6775   */\n              dup6\n                /* \"#utility.yul\":6731:6797   */\n              tag_157\n              jump\t// in\n            tag_204:\n                /* \"#utility.yul\":6807:6880   */\n              tag_205\n                /* \"#utility.yul\":6875:6878   */\n              0x80\n                /* \"#utility.yul\":6864:6873   */\n              dup4\n                /* \"#utility.yul\":6860:6879   */\n              add\n                /* \"#utility.yul\":6851:6857   */\n              dup5\n                /* \"#utility.yul\":6807:6880   */\n              tag_192\n              jump\t// in\n            tag_205:\n                /* \"#utility.yul\":6352:6887   */\n              swap7\n              swap6\n              pop\n              pop\n              pop\n              pop\n              pop\n              pop\n              jump\t// out\n                /* \"#utility.yul\":6893:7312   */\n            tag_68:\n              0x00\n                /* \"#utility.yul\":7097:7099   */\n              0x20\n                /* \"#utility.yul\":7086:7095   */\n              dup3\n                /* \"#utility.yul\":7082:7100   */\n              add\n                /* \"#utility.yul\":7074:7100   */\n              swap1\n              pop\n                /* \"#utility.yul\":7146:7155   */\n              dup2\n                /* \"#utility.yul\":7140:7144   */\n              dup2\n                /* \"#utility.yul\":7136:7156   */\n              sub\n                /* \"#utility.yul\":7132:7133   */\n              0x00\n                /* \"#utility.yul\":7121:7130   */\n              dup4\n                /* \"#utility.yul\":7117:7134   */\n              add\n                /* \"#utility.yul\":7110:7157   */\n              mstore\n                /* \"#utility.yul\":7174:7305   */\n              tag_207\n                /* \"#utility.yul\":7300:7304   */\n              dup2\n                /* \"#utility.yul\":7174:7305   */\n              tag_171\n              jump\t// in\n            tag_207:\n                /* \"#utility.yul\":7166:7305   */\n              swap1\n              pop\n                /* \"#utility.yul\":7064:7312   */\n              swap2\n              swap1\n              pop\n              jump\t// out\n                /* \"#utility.yul\":7318:7737   */\n            tag_59:\n              0x00\n                /* \"#utility.yul\":7522:7524   */\n              0x20\n                /* \"#utility.yul\":7511:7520   */\n              dup3\n                /* \"#utility.yul\":7507:7525   */\n              add\n                /* \"#utility.yul\":7499:7525   */\n              swap1\n              pop\n                /* \"#utility.yul\":7571:7580   */\n              dup2\n                /* \"#utility.yul\":7565:7569   */\n              dup2\n                /* \"#utility.yul\":7561:7581   */\n              sub\n                /* \"#utility.yul\":7557:7558   */\n              0x00\n                /* \"#utility.yul\":7546:7555   */\n              dup4\n                /* \"#utility.yul\":7542:7559   */\n              add\n                /* \"#utility.yul\":7535:7582   */\n              mstore\n                /* \"#utility.yul\":7599:7730   */\n              tag_209\n                /* \"#utility.yul\":7725:7729   */\n              dup2\n                /* \"#utility.yul\":7599:7730   */\n              tag_174\n              jump\t// in\n            tag_209:\n                /* \"#utility.yul\":7591:7730   */\n              swap1\n              pop\n                /* \"#utility.yul\":7489:7737   */\n              swap2\n              swap1\n              pop\n              jump\t// out\n                /* \"#utility.yul\":7743:8162   */\n            tag_88:\n              0x00\n                /* \"#utility.yul\":7947:7949   */\n              0x20\n                /* \"#utility.yul\":7936:7945   */\n              dup3\n                /* \"#utility.yul\":7932:7950   */\n              add\n                /* \"#utility.yul\":7924:7950   */\n              swap1\n              pop\n                /* \"#utility.yul\":7996:8005   */\n              dup2\n                /* \"#utility.yul\":7990:7994   */\n              dup2\n                /* \"#utility.yul\":7986:8006   */\n              sub\n                /* \"#utility.yul\":7982:7983   */\n              0x00\n                /* \"#utility.yul\":7971:7980   */\n              dup4\n                /* \"#utility.yul\":7967:7984   */\n              add\n                /* \"#utility.yul\":7960:8007   */\n              mstore\n                /* \"#utility.yul\":8024:8155   */\n              tag_211\n                /* \"#utility.yul\":8150:8154   */\n              dup2\n                /* \"#utility.yul\":8024:8155   */\n              tag_177\n              jump\t// in\n            tag_211:\n                /* \"#utility.yul\":8016:8155   */\n              swap1\n              pop\n                /* \"#utility.yul\":7914:8162   */\n              swap2\n              swap1\n              pop\n              jump\t// out\n                /* \"#utility.yul\":8168:8587   */\n            tag_65:\n              0x00\n                /* \"#utility.yul\":8372:8374   */\n              0x20\n                /* \"#utility.yul\":8361:8370   */\n              dup3\n                /* \"#utility.yul\":8357:8375   */\n              add\n                /* \"#utility.yul\":8349:8375   */\n              swap1\n              pop\n                /* \"#utility.yul\":8421:8430   */\n              dup2\n                /* \"#utility.yul\":8415:8419   */\n              dup2\n                /* \"#utility.yul\":8411:8431   */\n              sub\n                /* \"#utility.yul\":8407:8408   */\n              0x00\n                /* \"#utility.yul\":8396:8405   */\n              dup4\n                /* \"#utility.yul\":8392:8409   */\n              add\n                /* \"#utility.yul\":8385:8432   */\n              mstore\n                /* \"#utility.yul\":8449:8580   */\n              tag_213\n                /* \"#utility.yul\":8575:8579   */\n              dup2\n                /* \"#utility.yul\":8449:8580   */\n              tag_180\n              jump\t// in\n            tag_213:\n                /* \"#utility.yul\":8441:8580   */\n              swap1\n              pop\n                /* \"#utility.yul\":8339:8587   */\n              swap2\n              swap1\n              pop\n              jump\t// out\n                /* \"#utility.yul\":8593:9012   */\n            tag_99:\n              0x00\n                /* \"#utility.yul\":8797:8799   */\n              0x20\n                /* \"#utility.yul\":8786:8795   */\n              dup3\n                /* \"#utility.yul\":8782:8800   */\n              add\n                /* \"#utility.yul\":8774:8800   */\n              swap1\n              pop\n                /* \"#utility.yul\":8846:8855   */\n              dup2\n                /* \"#utility.yul\":8840:8844   */\n              dup2\n                /* \"#utility.yul\":8836:8856   */\n              sub\n                /* \"#utility.yul\":8832:8833   */\n              0x00\n                /* \"#utility.yul\":8821:8830   */\n              dup4\n                /* \"#utility.yul\":8817:8834   */\n              add\n                /* \"#utility.yul\":8810:8857   */\n              mstore\n                /* \"#utility.yul\":8874:9005   */\n              tag_215\n                /* \"#utility.yul\":9000:9004   */\n              dup2\n                /* \"#utility.yul\":8874:9005   */\n              tag_183\n              jump\t// in\n            tag_215:\n                /* \"#utility.yul\":8866:9005   */\n              swap1\n              pop\n                /* \"#utility.yul\":8764:9012   */\n              swap2\n              swap1\n              pop\n              jump\t// out\n                /* \"#utility.yul\":9018:9437   */\n            tag_96:\n              0x00\n                /* \"#utility.yul\":9222:9224   */\n              0x20\n                /* \"#utility.yul\":9211:9220   */\n              dup3\n                /* \"#utility.yul\":9207:9225   */\n              add\n                /* \"#utility.yul\":9199:9225   */\n              swap1\n              pop\n                /* \"#utility.yul\":9271:9280   */\n              dup2\n                /* \"#utility.yul\":9265:9269   */\n              dup2\n                /* \"#utility.yul\":9261:9281   */\n              sub\n                /* \"#utility.yul\":9257:9258   */\n              0x00\n                /* \"#utility.yul\":9246:9255   */\n              dup4\n                /* \"#utility.yul\":9242:9259   */\n              add\n                /* \"#utility.yul\":9235:9282   */\n              mstore\n                /* \"#utility.yul\":9299:9430   */\n              tag_217\n                /* \"#utility.yul\":9425:9429   */\n              dup2\n                /* \"#utility.yul\":9299:9430   */\n              tag_186\n              jump\t// in\n            tag_217:\n                /* \"#utility.yul\":9291:9430   */\n              swap1\n              pop\n                /* \"#utility.yul\":9189:9437   */\n              swap2\n              swap1\n              pop\n              jump\t// out\n                /* \"#utility.yul\":9443:9862   */\n            tag_91:\n              0x00\n                /* \"#utility.yul\":9647:9649   */\n              0x20\n                /* \"#utility.yul\":9636:9645   */\n              dup3\n                /* \"#utility.yul\":9632:9650   */\n              add\n                /* \"#utility.yul\":9624:9650   */\n              swap1\n              pop\n                /* \"#utility.yul\":9696:9705   */\n              dup2\n                /* \"#utility.yul\":9690:9694   */\n              dup2\n                /* \"#utility.yul\":9686:9706   */\n              sub\n                /* \"#utility.yul\":9682:9683   */\n              0x00\n                /* \"#utility.yul\":9671:9680   */\n              dup4\n                /* \"#utility.yul\":9667:9684   */\n              add\n                /* \"#utility.yul\":9660:9707   */\n              mstore\n                /* \"#utility.yul\":9724:9855   */\n              tag_219\n                /* \"#utility.yul\":9850:9854   */\n              dup2\n                /* \"#utility.yul\":9724:9855   */\n              tag_189\n              jump\t// in\n            tag_219:\n                /* \"#utility.yul\":9716:9855   */\n              swap1\n              pop\n                /* \"#utility.yul\":9614:9862   */\n              swap2\n              swap1\n              pop\n              jump\t// out\n                /* \"#utility.yul\":9868:10090   */\n            tag_39:\n              0x00\n                /* \"#utility.yul\":9999:10001   */\n              0x20\n                /* \"#utility.yul\":9988:9997   */\n              dup3\n                /* \"#utility.yul\":9984:10002   */\n              add\n                /* \"#utility.yul\":9976:10002   */\n              swap1\n              pop\n                /* \"#utility.yul\":10012:10083   */\n              tag_221\n                /* \"#utility.yul\":10080:10081   */\n              0x00\n                /* \"#utility.yul\":10069:10078   */\n              dup4\n                /* \"#utility.yul\":10065:10082   */\n              add\n                /* \"#utility.yul\":10056:10062   */\n              dup5\n                /* \"#utility.yul\":10012:10083   */\n              tag_192\n              jump\t// in\n            tag_221:\n                /* \"#utility.yul\":9966:10090   */\n              swap3\n              swap2\n              pop\n              pop\n              jump\t// out\n                /* \"#utility.yul\":10096:10379   */\n            tag_117:\n              0x00\n                /* \"#utility.yul\":10162:10164   */\n              0x40\n                /* \"#utility.yul\":10156:10165   */\n              mload\n                /* \"#utility.yul\":10146:10165   */\n              swap1\n              pop\n                /* \"#utility.yul\":10204:10208   */\n              dup2\n                /* \"#utility.yul\":10196:10202   */\n              dup2\n                /* \"#utility.yul\":10192:10209   */\n              add\n                /* \"#utility.yul\":10311:10317   */\n              dup2\n                /* \"#utility.yul\":10299:10309   */\n              dup2\n                /* \"#utility.yul\":10296:10318   */\n              lt\n                /* \"#utility.yul\":10275:10293   */\n              0xffffffffffffffff\n                /* \"#utility.yul\":10263:10273   */\n              dup3\n                /* \"#utility.yul\":10260:10294   */\n              gt\n                /* \"#utility.yul\":10257:10319   */\n              or\n                /* \"#utility.yul\":10254:10256   */\n              iszero\n              tag_223\n              jumpi\n                /* \"#utility.yul\":10322:10340   */\n              tag_224\n              tag_225\n              jump\t// in\n            tag_224:\n                /* \"#utility.yul\":10254:10256   */\n            tag_223:\n                /* \"#utility.yul\":10362:10372   */\n              dup1\n                /* \"#utility.yul\":10358:10360   */\n              0x40\n                /* \"#utility.yul\":10351:10373   */\n              mstore\n                /* \"#utility.yul\":10136:10379   */\n              pop\n              swap2\n              swap1\n              pop\n              jump\t// out\n                /* \"#utility.yul\":10385:10717   */\n            tag_116:\n              0x00\n                /* \"#utility.yul\":10537:10555   */\n              0xffffffffffffffff\n                /* \"#utility.yul\":10529:10535   */\n              dup3\n                /* \"#utility.yul\":10526:10556   */\n              gt\n                /* \"#utility.yul\":10523:10525   */\n              iszero\n              tag_227\n              jumpi\n                /* \"#utility.yul\":10559:10577   */\n              tag_228\n              tag_225\n              jump\t// in\n            tag_228:\n                /* \"#utility.yul\":10523:10525   */\n            tag_227:\n                /* \"#utility.yul\":10644:10648   */\n              0x1f\n                /* \"#utility.yul\":10640:10649   */\n              not\n                /* \"#utility.yul\":10633:10637   */\n              0x1f\n                /* \"#utility.yul\":10625:10631   */\n              dup4\n                /* \"#utility.yul\":10621:10638   */\n              add\n                /* \"#utility.yul\":10617:10650   */\n              and\n                /* \"#utility.yul\":10609:10650   */\n              swap1\n              pop\n                /* \"#utility.yul\":10705:10709   */\n              0x20\n                /* \"#utility.yul\":10699:10703   */\n              dup2\n                /* \"#utility.yul\":10695:10710   */\n              add\n                /* \"#utility.yul\":10687:10710   */\n              swap1\n              pop\n                /* \"#utility.yul\":10452:10717   */\n              swap2\n              swap1\n              pop\n              jump\t// out\n                /* \"#utility.yul\":10723:10822   */\n            tag_164:\n              0x00\n                /* \"#utility.yul\":10809:10814   */\n              dup2\n                /* \"#utility.yul\":10803:10815   */\n              mload\n                /* \"#utility.yul\":10793:10815   */\n              swap1\n              pop\n                /* \"#utility.yul\":10782:10822   */\n              swap2\n              swap1\n              pop\n              jump\t// out\n                /* \"#utility.yul\":10828:10997   */\n            tag_166:\n              0x00\n                /* \"#utility.yul\":10946:10952   */\n              dup3\n                /* \"#utility.yul\":10941:10944   */\n              dup3\n                /* \"#utility.yul\":10934:10953   */\n              mstore\n                /* \"#utility.yul\":10986:10990   */\n              0x20\n                /* \"#utility.yul\":10981:10984   */\n              dup3\n                /* \"#utility.yul\":10977:10991   */\n              add\n                /* \"#utility.yul\":10962:10991   */\n              swap1\n              pop\n                /* \"#utility.yul\":10924:10997   */\n              swap3\n              swap2\n              pop\n              pop\n              jump\t// out\n                /* \"#utility.yul\":11003:11188   */\n            tag_62:\n              0x00\n                /* \"#utility.yul\":11060:11080   */\n              tag_232\n                /* \"#utility.yul\":11078:11079   */\n              dup3\n                /* \"#utility.yul\":11060:11080   */\n              tag_195\n              jump\t// in\n            tag_232:\n                /* \"#utility.yul\":11055:11080   */\n              swap2\n              pop\n                /* \"#utility.yul\":11094:11114   */\n              tag_233\n                /* \"#utility.yul\":11112:11113   */\n              dup4\n                /* \"#utility.yul\":11094:11114   */\n              tag_195\n              jump\t// in\n            tag_233:\n                /* \"#utility.yul\":11089:11114   */\n              swap3\n              pop\n                /* \"#utility.yul\":11133:11134   */\n              dup3\n                /* \"#utility.yul\":11123:11125   */\n              tag_234\n              jumpi\n                /* \"#utility.yul\":11138:11156   */\n              tag_235\n              tag_236\n              jump\t// in\n            tag_235:\n                /* \"#utility.yul\":11123:11125   */\n            tag_234:\n                /* \"#utility.yul\":11180:11181   */\n              dup3\n                /* \"#utility.yul\":11177:11178   */\n              dup3\n                /* \"#utility.yul\":11173:11182   */\n              div\n                /* \"#utility.yul\":11168:11182   */\n              swap1\n              pop\n                /* \"#utility.yul\":11045:11188   */\n              swap3\n              swap2\n              pop\n              pop\n              jump\t// out\n                /* \"#utility.yul\":11194:11290   */\n            tag_156:\n              0x00\n                /* \"#utility.yul\":11260:11284   */\n              tag_238\n                /* \"#utility.yul\":11278:11283   */\n              dup3\n                /* \"#utility.yul\":11260:11284   */\n              tag_239\n              jump\t// in\n            tag_238:\n                /* \"#utility.yul\":11249:11284   */\n              swap1\n              pop\n                /* \"#utility.yul\":11239:11290   */\n              swap2\n              swap1\n              pop\n              jump\t// out\n                /* \"#utility.yul\":11296:11400   */\n            tag_152:\n              0x00\n                /* \"#utility.yul\":11370:11394   */\n              tag_241\n                /* \"#utility.yul\":11388:11393   */\n              dup3\n                /* \"#utility.yul\":11370:11394   */\n              tag_239\n              jump\t// in\n            tag_241:\n                /* \"#utility.yul\":11359:11394   */\n              swap1\n              pop\n                /* \"#utility.yul\":11349:11400   */\n              swap2\n              swap1\n              pop\n              jump\t// out\n                /* \"#utility.yul\":11406:11496   */\n            tag_160:\n              0x00\n                /* \"#utility.yul\":11483:11488   */\n              dup2\n                /* \"#utility.yul\":11476:11489   */\n              iszero\n                /* \"#utility.yul\":11469:11490   */\n              iszero\n                /* \"#utility.yul\":11458:11490   */\n              swap1\n              pop\n                /* \"#utility.yul\":11448:11496   */\n              swap2\n              swap1\n              pop\n              jump\t// out\n                /* \"#utility.yul\":11502:11628   */\n            tag_239:\n              0x00\n                /* \"#utility.yul\":11579:11621   */\n              0xffffffffffffffffffffffffffffffffffffffff\n                /* \"#utility.yul\":11572:11577   */\n              dup3\n                /* \"#utility.yul\":11568:11622   */\n              and\n                /* \"#utility.yul\":11557:11622   */\n              swap1\n              pop\n                /* \"#utility.yul\":11547:11628   */\n              swap2\n              swap1\n              pop\n              jump\t// out\n                /* \"#utility.yul\":11634:11711   */\n            tag_195:\n              0x00\n                /* \"#utility.yul\":11700:11705   */\n              dup2\n                /* \"#utility.yul\":11689:11705   */\n              swap1\n              pop\n                /* \"#utility.yul\":11679:11711   */\n              swap2\n              swap1\n              pop\n              jump\t// out\n                /* \"#utility.yul\":11717:11871   */\n            tag_120:\n                /* \"#utility.yul\":11801:11807   */\n              dup3\n                /* \"#utility.yul\":11796:11799   */\n              dup2\n                /* \"#utility.yul\":11791:11794   */\n              dup4\n                /* \"#utility.yul\":11778:11808   */\n              calldatacopy\n                /* \"#utility.yul\":11863:11864   */\n              0x00\n                /* \"#utility.yul\":11854:11860   */\n              dup4\n                /* \"#utility.yul\":11849:11852   */\n              dup4\n                /* \"#utility.yul\":11845:11861   */\n              add\n                /* \"#utility.yul\":11838:11865   */\n              mstore\n                /* \"#utility.yul\":11768:11871   */\n              pop\n              pop\n              pop\n              jump\t// out\n                /* \"#utility.yul\":11877:12184   */\n            tag_168:\n                /* \"#utility.yul\":11945:11946   */\n              0x00\n                /* \"#utility.yul\":11955:12068   */\n            tag_247:\n                /* \"#utility.yul\":11969:11975   */\n              dup4\n                /* \"#utility.yul\":11966:11967   */\n              dup2\n                /* \"#utility.yul\":11963:11976   */\n              lt\n                /* \"#utility.yul\":11955:12068   */\n              iszero\n              tag_249\n              jumpi\n                /* \"#utility.yul\":12054:12055   */\n              dup1\n                /* \"#utility.yul\":12049:12052   */\n              dup3\n                /* \"#utility.yul\":12045:12056   */\n              add\n                /* \"#utility.yul\":12039:12057   */\n              mload\n                /* \"#utility.yul\":12035:12036   */\n              dup2\n                /* \"#utility.yul\":12030:12033   */\n              dup5\n                /* \"#utility.yul\":12026:12037   */\n              add\n                /* \"#utility.yul\":12019:12058   */\n              mstore\n                /* \"#utility.yul\":11991:11993   */\n              0x20\n                /* \"#utility.yul\":11988:11989   */\n              dup2\n                /* \"#utility.yul\":11984:11994   */\n              add\n                /* \"#utility.yul\":11979:11994   */\n              swap1\n              pop\n                /* \"#utility.yul\":11955:12068   */\n              jump(tag_247)\n            tag_249:\n                /* \"#utility.yul\":12086:12092   */\n              dup4\n                /* \"#utility.yul\":12083:12084   */\n              dup2\n                /* \"#utility.yul\":12080:12093   */\n              gt\n                /* \"#utility.yul\":12077:12079   */\n              iszero\n              tag_250\n              jumpi\n                /* \"#utility.yul\":12166:12167   */\n              0x00\n                /* \"#utility.yul\":12157:12163   */\n              dup5\n                /* \"#utility.yul\":12152:12155   */\n              dup5\n                /* \"#utility.yul\":12148:12164   */\n              add\n                /* \"#utility.yul\":12141:12168   */\n              mstore\n                /* \"#utility.yul\":12077:12079   */\n            tag_250:\n                /* \"#utility.yul\":11926:12184   */\n              pop\n              pop\n              pop\n              pop\n              jump\t// out\n                /* \"#utility.yul\":12190:12510   */\n            tag_72:\n              0x00\n                /* \"#utility.yul\":12271:12272   */\n              0x02\n                /* \"#utility.yul\":12265:12269   */\n              dup3\n                /* \"#utility.yul\":12261:12273   */\n              div\n                /* \"#utility.yul\":12251:12273   */\n              swap1\n              pop\n                /* \"#utility.yul\":12318:12319   */\n              0x01\n                /* \"#utility.yul\":12312:12316   */\n              dup3\n                /* \"#utility.yul\":12308:12320   */\n              and\n                /* \"#utility.yul\":12339:12357   */\n              dup1\n                /* \"#utility.yul\":12329:12331   */\n              tag_252\n              jumpi\n                /* \"#utility.yul\":12395:12399   */\n              0x7f\n                /* \"#utility.yul\":12387:12393   */\n              dup3\n                /* \"#utility.yul\":12383:12400   */\n              and\n                /* \"#utility.yul\":12373:12400   */\n              swap2\n              pop\n                /* \"#utility.yul\":12329:12331   */\n            tag_252:\n                /* \"#utility.yul\":12457:12459   */\n              0x20\n                /* \"#utility.yul\":12449:12455   */\n              dup3\n                /* \"#utility.yul\":12446:12460   */\n              lt\n                /* \"#utility.yul\":12426:12444   */\n              dup2\n                /* \"#utility.yul\":12423:12461   */\n              eq\n                /* \"#utility.yul\":12420:12422   */\n              iszero\n              tag_253\n              jumpi\n                /* \"#utility.yul\":12476:12494   */\n              tag_254\n              tag_255\n              jump\t// in\n            tag_254:\n                /* \"#utility.yul\":12420:12422   */\n            tag_253:\n                /* \"#utility.yul\":12241:12510   */\n              pop\n              swap2\n              swap1\n              pop\n              jump\t// out\n                /* \"#utility.yul\":12516:12749   */\n            tag_82:\n              0x00\n                /* \"#utility.yul\":12578:12602   */\n              tag_257\n                /* \"#utility.yul\":12596:12601   */\n              dup3\n                /* \"#utility.yul\":12578:12602   */\n              tag_195\n              jump\t// in\n            tag_257:\n                /* \"#utility.yul\":12569:12602   */\n              swap2\n              pop\n                /* \"#utility.yul\":12624:12690   */\n              0xffffffffffffffffffffffffffffffffffffffffffffffffffffffffffffffff\n                /* \"#utility.yul\":12617:12622   */\n              dup3\n                /* \"#utility.yul\":12614:12691   */\n              eq\n                /* \"#utility.yul\":12611:12613   */\n              iszero\n              tag_258\n              jumpi\n                /* \"#utility.yul\":12694:12712   */\n              tag_259\n              tag_260\n              jump\t// in\n            tag_259:\n                /* \"#utility.yul\":12611:12613   */\n            tag_258:\n                /* \"#utility.yul\":12741:12742   */\n              0x01\n                /* \"#utility.yul\":12734:12739   */\n              dup3\n                /* \"#utility.yul\":12730:12743   */\n              add\n                /* \"#utility.yul\":12723:12743   */\n              swap1\n              pop\n                /* \"#utility.yul\":12559:12749   */\n              swap2\n              swap1\n              pop\n              jump\t// out\n                /* \"#utility.yul\":12755:12935   */\n            tag_260:\n                /* \"#utility.yul\":12803:12880   */\n              0x4e487b7100000000000000000000000000000000000000000000000000000000\n                /* \"#utility.yul\":12800:12801   */\n              0x00\n                /* \"#utility.yul\":12793:12881   */\n              mstore\n                /* \"#utility.yul\":12900:12904   */\n              0x11\n                /* \"#utility.yul\":12897:12898   */\n              0x04\n                /* \"#utility.yul\":12890:12905   */\n              mstore\n                /* \"#utility.yul\":12924:12928   */\n              0x24\n                /* \"#utility.yul\":12921:12922   */\n              0x00\n                /* \"#utility.yul\":12914:12929   */\n              revert\n                /* \"#utility.yul\":12941:13121   */\n            tag_236:\n                /* \"#utility.yul\":12989:13066   */\n              0x4e487b7100000000000000000000000000000000000000000000000000000000\n                /* \"#utility.yul\":12986:12987   */\n              0x00\n                /* \"#utility.yul\":12979:13067   */\n              mstore\n                /* \"#utility.yul\":13086:13090   */\n              0x12\n                /* \"#utility.yul\":13083:13084   */\n              0x04\n                /* \"#utility.yul\":13076:13091   */\n              mstore\n                /* \"#utility.yul\":13110:13114   */\n              0x24\n                /* \"#utility.yul\":13107:13108   */\n              0x00\n                /* \"#utility.yul\":13100:13115   */\n              revert\n                /* \"#utility.yul\":13127:13307   */\n            tag_255:\n                /* \"#utility.yul\":13175:13252   */\n              0x4e487b7100000000000000000000000000000000000000000000000000000000\n                /* \"#utility.yul\":13172:13173   */\n              0x00\n                /* \"#utility.yul\":13165:13253   */\n              mstore\n                /* \"#utility.yul\":13272:13276   */\n              0x22\n                /* \"#utility.yul\":13269:13270   */\n              0x04\n                /* \"#utility.yul\":13262:13277   */\n              mstore\n                /* \"#utility.yul\":13296:13300   */\n              0x24\n                /* \"#utility.yul\":13293:13294   */\n              0x00\n                /* \"#utility.yul\":13286:13301   */\n              revert\n                /* \"#utility.yul\":13313:13493   */\n            tag_225:\n                /* \"#utility.yul\":13361:13438   */\n              0x4e487b7100000000000000000000000000000000000000000000000000000000\n                /* \"#utility.yul\":13358:13359   */\n              0x00\n                /* \"#utility.yul\":13351:13439   */\n              mstore\n                /* \"#utility.yul\":13458:13462   */\n              0x41\n                /* \"#utility.yul\":13455:13456   */\n              0x04\n                /* \"#utility.yul\":13448:13463   */\n              mstore\n                /* \"#utility.yul\":13482:13486   */\n              0x24\n                /* \"#utility.yul\":13479:13480   */\n              0x00\n                /* \"#utility.yul\":13472:13487   */\n              revert\n                /* \"#utility.yul\":13499:13601   */\n            tag_170:\n              0x00\n                /* \"#utility.yul\":13591:13593   */\n              0x1f\n                /* \"#utility.yul\":13587:13594   */\n              not\n                /* \"#utility.yul\":13582:13584   */\n              0x1f\n                /* \"#utility.yul\":13575:13580   */\n              dup4\n                /* \"#utility.yul\":13571:13585   */\n              add\n                /* \"#utility.yul\":13567:13595   */\n              and\n                /* \"#utility.yul\":13557:13595   */\n              swap1\n              pop\n                /* \"#utility.yul\":13547:13601   */\n              swap2\n              swap1\n              pop\n              jump\t// out\n                /* \"#utility.yul\":13607:13729   */\n            tag_124:\n                /* \"#utility.yul\":13680:13704   */\n              tag_267\n                /* \"#utility.yul\":13698:13703   */\n              dup2\n                /* \"#utility.yul\":13680:13704   */\n              tag_156\n              jump\t// in\n            tag_267:\n                /* \"#utility.yul\":13673:13678   */\n              dup2\n                /* \"#utility.yul\":13670:13705   */\n              eq\n                /* \"#utility.yul\":13660:13662   */\n              tag_268\n              jumpi\n                /* \"#utility.yul\":13719:13720   */\n              0x00\n                /* \"#utility.yul\":13716:13717   */\n              dup1\n                /* \"#utility.yul\":13709:13721   */\n              revert\n                /* \"#utility.yul\":13660:13662   */\n            tag_268:\n                /* \"#utility.yul\":13650:13729   */\n              pop\n              jump\t// out\n                /* \"#utility.yul\":13735:13873   */\n            tag_128:\n                /* \"#utility.yul\":13816:13848   */\n              tag_270\n                /* \"#utility.yul\":13842:13847   */\n              dup2\n                /* \"#utility.yul\":13816:13848   */\n              tag_152\n              jump\t// in\n            tag_270:\n                /* \"#utility.yul\":13809:13814   */\n              dup2\n                /* \"#utility.yul\":13806:13849   */\n              eq\n                /* \"#utility.yul\":13796:13798   */\n              tag_271\n              jumpi\n                /* \"#utility.yul\":13863:13864   */\n              0x00\n                /* \"#utility.yul\":13860:13861   */\n              dup1\n                /* \"#utility.yul\":13853:13865   */\n              revert\n                /* \"#utility.yul\":13796:13798   */\n            tag_271:\n                /* \"#utility.yul\":13786:13873   */\n              pop\n              jump\t// out\n                /* \"#utility.yul\":13879:14001   */\n            tag_136:\n                /* \"#utility.yul\":13952:13976   */\n              tag_273\n                /* \"#utility.yul\":13970:13975   */\n              dup2\n                /* \"#utility.yul\":13952:13976   */\n              tag_195\n              jump\t// in\n            tag_273:\n                /* \"#utility.yul\":13945:13950   */\n              dup2\n                /* \"#utility.yul\":13942:13977   */\n              eq\n                /* \"#utility.yul\":13932:13934   */\n              tag_274\n              jumpi\n                /* \"#utility.yul\":13991:13992   */\n              0x00\n                /* \"#utility.yul\":13988:13989   */\n              dup1\n                /* \"#utility.yul\":13981:13993   */\n              revert\n                /* \"#utility.yul\":13932:13934   */\n            tag_274:\n                /* \"#utility.yul\":13922:14001   */\n              pop\n              jump\t// out\n\n            auxdata: 0xa26469706673582212200730c42c7d610643703e3142b59d451984b0118c8d52c90da61e46099043d82464736f6c63430008000033\n        }\n    }\n\n    auxdata: 0xa26469706673582212205d989c294232cf353f6ea92ebc0600804b4ae81589919c034ed82d25ca1c55af64736f6c63430008000033\n}\n","bytecode":{"linkReferences":{},"object":"608060405234801561001057600080fd5b50611866806100206000396000f3fe608060405234801561001057600080fd5b50600436106100415760003560e01c8063339d50a514610046578063a3303a7514610076578063a6b0363314610092575b600080fd5b610060600480360381019061005b9190610240565b6100b0565b60405161006d919061030c565b60405180910390f35b610090600480360381019061008b9190610240565b6100ef565b005b61009a610190565b6040516100a79190610327565b60405180910390f35b600081815481106100c057600080fd5b906000526020600020016000915054906101000a900473ffffffffffffffffffffffffffffffffffffffff1681565b600081336040516100ff9061021e565b61010a929190610349565b604051809103906000f080158015610126573d6000803e3d6000fd5b5090506000819080600181540180825580915050600190039060005260206000200160009091909190916101000a81548173ffffffffffffffffffffffffffffffffffffffff021916908373ffffffffffffffffffffffffffffffffffffffff1602179055505050565b6060600080548060200260200160405190810160405280929190818152602001828054801561021457602002820191906000526020600020905b8160009054906101000a900473ffffffffffffffffffffffffffffffffffffffff1673ffffffffffffffffffffffffffffffffffffffff16815260200190600101908083116101ca575b5050505050905090565b611432806103ff83390190565b60008135905061023a816103e7565b92915050565b60006020828403121561025257600080fd5b60006102608482850161022b565b91505092915050565b60006102758383610281565b60208301905092915050565b61028a816103ab565b82525050565b610299816103ab565b82525050565b60006102aa82610382565b6102b4818561039a565b93506102bf83610372565b8060005b838110156102f05781516102d78882610269565b97506102e28361038d565b9250506001810190506102c3565b5085935050505092915050565b610306816103dd565b82525050565b60006020820190506103216000830184610290565b92915050565b60006020820190508181036000830152610341818461029f565b905092915050565b600060408201905061035e60008301856102fd565b61036b6020830184610290565b9392505050565b6000819050602082019050919050565b600081519050919050565b6000602082019050919050565b600082825260208201905092915050565b60006103b6826103bd565b9050919050565b600073ffffffffffffffffffffffffffffffffffffffff82169050919050565b6000819050919050565b6103f0816103dd565b81146103fb57600080fd5b5056fe60806040523480156200001157600080fd5b5060405162001432380380620014328339818101604052810190620000379190620000b4565b806000806101000a81548173ffffffffffffffffffffffffffffffffffffffff021916908373ffffffffffffffffffffffffffffffffffffffff16021790555081600581905550505062000167565b600081519050620000978162000133565b92915050565b600081519050620000ae816200014d565b92915050565b60008060408385031215620000c857600080fd5b6000620000d8858286016200009d565b9250506020620000eb8582860162000086565b9150509250929050565b6000620001028262000109565b9050919050565b600073ffffffffffffffffffffffffffffffffffffffff82169050919050565b6000819050919050565b6200013e81620000f5565b81146200014a57600080fd5b50565b620001588162000129565b81146200016457600080fd5b50565b6112bb80620001776000396000f3fe6080604052600436106100865760003560e01c806382fde0931161005957806382fde0931461015d5780638a9cfd5514610188578063937e09b1146101c5578063d7bb99ba146101f0578063d7d1bbdb146101fa57610086565b8063034410061461008b5780630a144391146100b4578063481c6a75146100f157806381d12c581461011c575b600080fd5b34801561009757600080fd5b506100b260048036038101906100ad9190610b53565b610223565b005b3480156100c057600080fd5b506100db60048036038101906100d69190610ac3565b6103fd565b6040516100e89190610e3e565b60405180910390f35b3480156100fd57600080fd5b5061010661041d565b6040516101139190610e23565b60405180910390f35b34801561012857600080fd5b50610143600480360381019061013e9190610b53565b610441565b604051610154959493929190610e59565b60405180910390f35b34801561016957600080fd5b5061017261052c565b60405161017f9190610f93565b60405180910390f35b34801561019457600080fd5b506101af60048036038101906101aa9190610aec565b610532565b6040516101bc9190610f93565b60405180910390f35b3480156101d157600080fd5b506101da610687565b6040516101e79190610f93565b60405180910390f35b6101f861068d565b005b34801561020657600080fd5b50610221600480360381019061021c9190610b53565b6107cf565b005b60008054906101000a900473ffffffffffffffffffffffffffffffffffffffff1673ffffffffffffffffffffffffffffffffffffffff163373ffffffffffffffffffffffffffffffffffffffff16146102b1576040517f08c379a00000000000000000000000000000000000000000000000000000000081526004016102a890610ed3565b60405180910390fd5b6000600460008381526020019081526020016000209050600280546102d6919061102b565b81600301541161031b576040517f08c379a000000000000000000000000000000000000000000000000000000000815260040161031290610f13565b60405180910390fd5b8060020160149054906101000a900460ff161561036d576040517f08c379a000000000000000000000000000000000000000000000000000000000815260040161036490610eb3565b60405180910390fd5b60018160020160146101000a81548160ff0219169083151502179055508060020160009054906101000a900473ffffffffffffffffffffffffffffffffffffffff1673ffffffffffffffffffffffffffffffffffffffff166108fc82600101549081150290604051600060405180830381858888f193505050501580156103f8573d6000803e3d6000fd5b505050565b60016020528060005260406000206000915054906101000a900460ff1681565b60008054906101000a900473ffffffffffffffffffffffffffffffffffffffff1681565b6004602052806000526040600020600091509050806000018054610464906110f8565b80601f0160208091040260200160405190810160405280929190818152602001828054610490906110f8565b80156104dd5780601f106104b2576101008083540402835291602001916104dd565b820191906000526020600020905b8154815290600101906020018083116104c057829003601f168201915b5050505050908060010154908060020160009054906101000a900473ffffffffffffffffffffffffffffffffffffffff16908060020160149054906101000a900460ff16908060030154905085565b60025481565b60008060009054906101000a900473ffffffffffffffffffffffffffffffffffffffff1673ffffffffffffffffffffffffffffffffffffffff163373ffffffffffffffffffffffffffffffffffffffff16146105c3576040517f08c379a00000000000000000000000000000000000000000000000000000000081526004016105ba90610ed3565b60405180910390fd5b600360008154809291906105d69061112a565b91905055905060006004600083815260200190815260200160002090508481600001908051906020019061060b929190610979565b50838160010181905550828160020160006101000a81548173ffffffffffffffffffffffffffffffffffffffff021916908373ffffffffffffffffffffffffffffffffffffffff16021790555060008160020160146101000a81548160ff02191690831515021790555060008160030181905550509392505050565b60055481565b60055434116106d1576040517f08c379a00000000000000000000000000000000000000000000000000000000081526004016106c890610ef3565b60405180910390fd5b600160003373ffffffffffffffffffffffffffffffffffffffff1673ffffffffffffffffffffffffffffffffffffffff16815260200190815260200160002060009054906101000a900460ff161561075e576040517f08c379a000000000000000000000000000000000000000000000000000000000815260040161075590610f73565b60405180910390fd5b60018060003373ffffffffffffffffffffffffffffffffffffffff1673ffffffffffffffffffffffffffffffffffffffff16815260200190815260200160002060006101000a81548160ff021916908315150217905550600260008154809291906107c89061112a565b9190505550565b6000600460008381526020019081526020016000209050600160003373ffffffffffffffffffffffffffffffffffffffff1673ffffffffffffffffffffffffffffffffffffffff16815260200190815260200160002060009054906101000a900460ff16610872576040517f08c379a000000000000000000000000000000000000000000000000000000000815260040161086990610f53565b60405180910390fd5b8060040160003373ffffffffffffffffffffffffffffffffffffffff1673ffffffffffffffffffffffffffffffffffffffff16815260200190815260200160002060009054906101000a900460ff1615610901576040517f08c379a00000000000000000000000000000000000000000000000000000000081526004016108f890610f33565b60405180910390fd5b60018160040160003373ffffffffffffffffffffffffffffffffffffffff1673ffffffffffffffffffffffffffffffffffffffff16815260200190815260200160002060006101000a81548160ff0219169083151502179055508060030160008154809291906109709061112a565b91905055505050565b828054610985906110f8565b90600052602060002090601f0160209004810192826109a757600085556109ee565b82601f106109c057805160ff19168380011785556109ee565b828001600101855582156109ee579182015b828111156109ed5782518255916020019190600101906109d2565b5b5090506109fb91906109ff565b5090565b5b80821115610a18576000816000905550600101610a00565b5090565b6000610a2f610a2a84610fdf565b610fae565b905082815260208101848484011115610a4757600080fd5b610a528482856110b6565b509392505050565b600081359050610a6981611240565b92915050565b600081359050610a7e81611257565b92915050565b600082601f830112610a9557600080fd5b8135610aa5848260208601610a1c565b91505092915050565b600081359050610abd8161126e565b92915050565b600060208284031215610ad557600080fd5b6000610ae384828501610a5a565b91505092915050565b600080600060608486031215610b0157600080fd5b600084013567ffffffffffffffff811115610b1b57600080fd5b610b2786828701610a84565b9350506020610b3886828701610aae565b9250506040610b4986828701610a6f565b9150509250925092565b600060208284031215610b6557600080fd5b6000610b7384828501610aae565b91505092915050565b610b858161106e565b82525050565b610b948161105c565b82525050565b610ba381611080565b82525050565b6000610bb48261100f565b610bbe818561101a565b9350610bce8185602086016110c5565b610bd78161122f565b840191505092915050565b6000610bef60288361101a565b91507f5468697320726571756573742068617320616c7265616479206265656e20636f60008301527f6d706c65746564210000000000000000000000000000000000000000000000006020830152604082019050919050565b6000610c5560168361101a565b91507f4f6e6c79206d616e616765727320616c6c6f77656421000000000000000000006000830152602082019050919050565b6000610c9560388361101a565b91507f596f75206e656564206d6f7265206d6f6e657920746f20656e74657220696e7460008301527f6f2074686520636f6e747269627574696f6e206c6973742100000000000000006020830152604082019050919050565b6000610cfb60178361101a565b91507f496e73756666696369656e7420617070726f76616c73210000000000000000006000830152602082019050919050565b6000610d3b60228361101a565b91507f596f752063616e277420617070726f766520612072657175657374207477696360008301527f65210000000000000000000000000000000000000000000000000000000000006020830152604082019050919050565b6000610da1601d8361101a565b91507f596f75206e65656420746f20636f6e74726962757465206669727374210000006000830152602082019050919050565b6000610de1601d8361101a565b91507f596f752063616e20636f6e74726962757465206f6e6c79206f6e6365210000006000830152602082019050919050565b610e1d816110ac565b82525050565b6000602082019050610e386000830184610b8b565b92915050565b6000602082019050610e536000830184610b9a565b92915050565b600060a0820190508181036000830152610e738188610ba9565b9050610e826020830187610e14565b610e8f6040830186610b7c565b610e9c6060830185610b9a565b610ea96080830184610e14565b9695505050505050565b60006020820190508181036000830152610ecc81610be2565b9050919050565b60006020820190508181036000830152610eec81610c48565b9050919050565b60006020820190508181036000830152610f0c81610c88565b9050919050565b60006020820190508181036000830152610f2c81610cee565b9050919050565b60006020820190508181036000830152610f4c81610d2e565b9050919050565b60006020820190508181036000830152610f6c81610d94565b9050919050565b60006020820190508181036000830152610f8c81610dd4565b9050919050565b6000602082019050610fa86000830184610e14565b92915050565b6000604051905081810181811067ffffffffffffffff82111715610fd557610fd4611200565b5b8060405250919050565b600067ffffffffffffffff821115610ffa57610ff9611200565b5b601f19601f8301169050602081019050919050565b600081519050919050565b600082825260208201905092915050565b6000611036826110ac565b9150611041836110ac565b925082611051576110506111a2565b5b828204905092915050565b60006110678261108c565b9050919050565b60006110798261108c565b9050919050565b60008115159050919050565b600073ffffffffffffffffffffffffffffffffffffffff82169050919050565b6000819050919050565b82818337600083830152505050565b60005b838110156110e35780820151818401526020810190506110c8565b838111156110f2576000848401525b50505050565b6000600282049050600182168061111057607f821691505b60208210811415611124576111236111d1565b5b50919050565b6000611135826110ac565b91507fffffffffffffffffffffffffffffffffffffffffffffffffffffffffffffffff82141561116857611167611173565b5b600182019050919050565b7f4e487b7100000000000000000000000000000000000000000000000000000000600052601160045260246000fd5b7f4e487b7100000000000000000000000000000000000000000000000000000000600052601260045260246000fd5b7f4e487b7100000000000000000000000000000000000000000000000000000000600052602260045260246000fd5b7f4e487b7100000000000000000000000000000000000000000000000000000000600052604160045260246000fd5b6000601f19601f8301169050919050565b6112498161105c565b811461125457600080fd5b50565b6112608161106e565b811461126b57600080fd5b50565b611277816110ac565b811461128257600080fd5b5056fea26469706673582212200730c42c7d610643703e3142b59d451984b0118c8d52c90da61e46099043d82464736f6c63430008000033a26469706673582212205d989c294232cf353f6ea92ebc0600804b4ae81589919c034ed82d25ca1c55af64736f6c63430008000033","opcodes":"PUSH1 0x80 PUSH1 0x40 MSTORE CALLVALUE DUP1 ISZERO PUSH2 0x10 JUMPI PUSH1 0x0 DUP1 REVERT JUMPDEST POP PUSH2 0x1866 DUP1 PUSH2 0x20 PUSH1 0x0 CODECOPY PUSH1 0x0 RETURN INVALID PUSH1 0x80 PUSH1 0x40 MSTORE CALLVALUE DUP1 ISZERO PUSH2 0x10 JUMPI PUSH1 0x0 DUP1 REVERT JUMPDEST POP PUSH1 0x4 CALLDATASIZE LT PUSH2 0x41 JUMPI PUSH1 0x0 CALLDATALOAD PUSH1 0xE0 SHR DUP1 PUSH4 0x339D50A5 EQ PUSH2 0x46 JUMPI DUP1 PUSH4 0xA3303A75 EQ PUSH2 0x76 JUMPI DUP1 PUSH4 0xA6B03633 EQ PUSH2 0x92 JUMPI JUMPDEST PUSH1 0x0 DUP1 REVERT JUMPDEST PUSH2 0x60 PUSH1 0x4 DUP1 CALLDATASIZE SUB DUP2 ADD SWAP1 PUSH2 0x5B SWAP2 SWAP1 PUSH2 0x240 JUMP JUMPDEST PUSH2 0xB0 JUMP JUMPDEST PUSH1 0x40 MLOAD PUSH2 0x6D SWAP2 SWAP1 PUSH2 0x30C JUMP JUMPDEST PUSH1 0x40 MLOAD DUP1 SWAP2 SUB SWAP1 RETURN JUMPDEST PUSH2 0x90 PUSH1 0x4 DUP1 CALLDATASIZE SUB DUP2 ADD SWAP1 PUSH2 0x8B SWAP2 SWAP1 PUSH2 0x240 JUMP JUMPDEST PUSH2 0xEF JUMP JUMPDEST STOP JUMPDEST PUSH2 0x9A PUSH2 0x190 JUMP JUMPDEST PUSH1 0x40 MLOAD PUSH2 0xA7 SWAP2 SWAP1 PUSH2 0x327 JUMP JUMPDEST PUSH1 0x40 MLOAD DUP1 SWAP2 SUB SWAP1 RETURN JUMPDEST PUSH1 0x0 DUP2 DUP2 SLOAD DUP2 LT PUSH2 0xC0 JUMPI PUSH1 0x0 DUP1 REVERT JUMPDEST SWAP1 PUSH1 0x0 MSTORE PUSH1 0x20 PUSH1 0x0 KECCAK256 ADD PUSH1 0x0 SWAP2 POP SLOAD SWAP1 PUSH2 0x100 EXP SWAP1 DIV PUSH20 0xFFFFFFFFFFFFFFFFFFFFFFFFFFFFFFFFFFFFFFFF AND DUP2 JUMP JUMPDEST PUSH1 0x0 DUP2 CALLER PUSH1 0x40 MLOAD PUSH2 0xFF SWAP1 PUSH2 0x21E JUMP JUMPDEST PUSH2 0x10A SWAP3 SWAP2 SWAP1 PUSH2 0x349 JUMP JUMPDEST PUSH1 0x40 MLOAD DUP1 SWAP2 SUB SWAP1 PUSH1 0x0 CREATE DUP1 ISZERO DUP1 ISZERO PUSH2 0x126 JUMPI RETURNDATASIZE PUSH1 0x0 DUP1 RETURNDATACOPY RETURNDATASIZE PUSH1 0x0 REVERT JUMPDEST POP SWAP1 POP PUSH1 0x0 DUP2 SWAP1 DUP1 PUSH1 0x1 DUP2 SLOAD ADD DUP1 DUP3 SSTORE DUP1 SWAP2 POP POP PUSH1 0x1 SWAP1 SUB SWAP1 PUSH1 0x0 MSTORE PUSH1 0x20 PUSH1 0x0 KECCAK256 ADD PUSH1 0x0 SWAP1 SWAP2 SWAP1 SWAP2 SWAP1 SWAP2 PUSH2 0x100 EXP DUP2 SLOAD DUP2 PUSH20 0xFFFFFFFFFFFFFFFFFFFFFFFFFFFFFFFFFFFFFFFF MUL NOT AND SWAP1 DUP4 PUSH20 0xFFFFFFFFFFFFFFFFFFFFFFFFFFFFFFFFFFFFFFFF AND MUL OR SWAP1 SSTORE POP POP POP JUMP JUMPDEST PUSH1 0x60 PUSH1 0x0 DUP1 SLOAD DUP1 PUSH1 0x20 MUL PUSH1 0x20 ADD PUSH1 0x40 MLOAD SWAP1 DUP2 ADD PUSH1 0x40 MSTORE DUP1 SWAP3 SWAP2 SWAP1 DUP2 DUP2 MSTORE PUSH1 0x20 ADD DUP3 DUP1 SLOAD DUP1 ISZERO PUSH2 0x214 JUMPI PUSH1 0x20 MUL DUP3 ADD SWAP2 SWAP1 PUSH1 0x0 MSTORE PUSH1 0x20 PUSH1 0x0 KECCAK256 SWAP1 JUMPDEST DUP2 PUSH1 0x0 SWAP1 SLOAD SWAP1 PUSH2 0x100 EXP SWAP1 DIV PUSH20 0xFFFFFFFFFFFFFFFFFFFFFFFFFFFFFFFFFFFFFFFF AND PUSH20 0xFFFFFFFFFFFFFFFFFFFFFFFFFFFFFFFFFFFFFFFF AND DUP2 MSTORE PUSH1 0x20 ADD SWAP1 PUSH1 0x1 ADD SWAP1 DUP1 DUP4 GT PUSH2 0x1CA JUMPI JUMPDEST POP POP POP POP POP SWAP1 POP SWAP1 JUMP JUMPDEST PUSH2 0x1432 DUP1 PUSH2 0x3FF DUP4 CODECOPY ADD SWAP1 JUMP JUMPDEST PUSH1 0x0 DUP2 CALLDATALOAD SWAP1 POP PUSH2 0x23A DUP2 PUSH2 0x3E7 JUMP JUMPDEST SWAP3 SWAP2 POP POP JUMP JUMPDEST PUSH1 0x0 PUSH1 0x20 DUP3 DUP5 SUB SLT ISZERO PUSH2 0x252 JUMPI PUSH1 0x0 DUP1 REVERT JUMPDEST PUSH1 0x0 PUSH2 0x260 DUP5 DUP3 DUP6 ADD PUSH2 0x22B JUMP JUMPDEST SWAP2 POP POP SWAP3 SWAP2 POP POP JUMP JUMPDEST PUSH1 0x0 PUSH2 0x275 DUP4 DUP4 PUSH2 0x281 JUMP JUMPDEST PUSH1 0x20 DUP4 ADD SWAP1 POP SWAP3 SWAP2 POP POP JUMP JUMPDEST PUSH2 0x28A DUP2 PUSH2 0x3AB JUMP JUMPDEST DUP3 MSTORE POP POP JUMP JUMPDEST PUSH2 0x299 DUP2 PUSH2 0x3AB JUMP JUMPDEST DUP3 MSTORE POP POP JUMP JUMPDEST PUSH1 0x0 PUSH2 0x2AA DUP3 PUSH2 0x382 JUMP JUMPDEST PUSH2 0x2B4 DUP2 DUP6 PUSH2 0x39A JUMP JUMPDEST SWAP4 POP PUSH2 0x2BF DUP4 PUSH2 0x372 JUMP JUMPDEST DUP1 PUSH1 0x0 JUMPDEST DUP4 DUP2 LT ISZERO PUSH2 0x2F0 JUMPI DUP2 MLOAD PUSH2 0x2D7 DUP9 DUP3 PUSH2 0x269 JUMP JUMPDEST SWAP8 POP PUSH2 0x2E2 DUP4 PUSH2 0x38D JUMP JUMPDEST SWAP3 POP POP PUSH1 0x1 DUP2 ADD SWAP1 POP PUSH2 0x2C3 JUMP JUMPDEST POP DUP6 SWAP4 POP POP POP POP SWAP3 SWAP2 POP POP JUMP JUMPDEST PUSH2 0x306 DUP2 PUSH2 0x3DD JUMP JUMPDEST DUP3 MSTORE POP POP JUMP JUMPDEST PUSH1 0x0 PUSH1 0x20 DUP3 ADD SWAP1 POP PUSH2 0x321 PUSH1 0x0 DUP4 ADD DUP5 PUSH2 0x290 JUMP JUMPDEST SWAP3 SWAP2 POP POP JUMP JUMPDEST PUSH1 0x0 PUSH1 0x20 DUP3 ADD SWAP1 POP DUP2 DUP2 SUB PUSH1 0x0 DUP4 ADD MSTORE PUSH2 0x341 DUP2 DUP5 PUSH2 0x29F JUMP JUMPDEST SWAP1 POP SWAP3 SWAP2 POP POP JUMP JUMPDEST PUSH1 0x0 PUSH1 0x40 DUP3 ADD SWAP1 POP PUSH2 0x35E PUSH1 0x0 DUP4 ADD DUP6 PUSH2 0x2FD JUMP JUMPDEST PUSH2 0x36B PUSH1 0x20 DUP4 ADD DUP5 PUSH2 0x290 JUMP JUMPDEST SWAP4 SWAP3 POP POP POP JUMP JUMPDEST PUSH1 0x0 DUP2 SWAP1 POP PUSH1 0x20 DUP3 ADD SWAP1 POP SWAP2 SWAP1 POP JUMP JUMPDEST PUSH1 0x0 DUP2 MLOAD SWAP1 POP SWAP2 SWAP1 POP JUMP JUMPDEST PUSH1 0x0 PUSH1 0x20 DUP3 ADD SWAP1 POP SWAP2 SWAP1 POP JUMP JUMPDEST PUSH1 0x0 DUP3 DUP3 MSTORE PUSH1 0x20 DUP3 ADD SWAP1 POP SWAP3 SWAP2 POP POP JUMP JUMPDEST PUSH1 0x0 PUSH2 0x3B6 DUP3 PUSH2 0x3BD JUMP JUMPDEST SWAP1 POP SWAP2 SWAP1 POP JUMP JUMPDEST PUSH1 0x0 PUSH20 0xFFFFFFFFFFFFFFFFFFFFFFFFFFFFFFFFFFFFFFFF DUP3 AND SWAP1 POP SWAP2 SWAP1 POP JUMP JUMPDEST PUSH1 0x0 DUP2 SWAP1 POP SWAP2 SWAP1 POP JUMP JUMPDEST PUSH2 0x3F0 DUP2 PUSH2 0x3DD JUMP JUMPDEST DUP2 EQ PUSH2 0x3FB JUMPI PUSH1 0x0 DUP1 REVERT JUMPDEST POP JUMP INVALID PUSH1 0x80 PUSH1 0x40 MSTORE CALLVALUE DUP1 ISZERO PUSH3 0x11 JUMPI PUSH1 0x0 DUP1 REVERT JUMPDEST POP PUSH1 0x40 MLOAD PUSH3 0x1432 CODESIZE SUB DUP1 PUSH3 0x1432 DUP4 CODECOPY DUP2 DUP2 ADD PUSH1 0x40 MSTORE DUP2 ADD SWAP1 PUSH3 0x37 SWAP2 SWAP1 PUSH3 0xB4 JUMP JUMPDEST DUP1 PUSH1 0x0 DUP1 PUSH2 0x100 EXP DUP2 SLOAD DUP2 PUSH20 0xFFFFFFFFFFFFFFFFFFFFFFFFFFFFFFFFFFFFFFFF MUL NOT AND SWAP1 DUP4 PUSH20 0xFFFFFFFFFFFFFFFFFFFFFFFFFFFFFFFFFFFFFFFF AND MUL OR SWAP1 SSTORE POP DUP2 PUSH1 0x5 DUP2 SWAP1 SSTORE POP POP POP PUSH3 0x167 JUMP JUMPDEST PUSH1 0x0 DUP2 MLOAD SWAP1 POP PUSH3 0x97 DUP2 PUSH3 0x133 JUMP JUMPDEST SWAP3 SWAP2 POP POP JUMP JUMPDEST PUSH1 0x0 DUP2 MLOAD SWAP1 POP PUSH3 0xAE DUP2 PUSH3 0x14D JUMP JUMPDEST SWAP3 SWAP2 POP POP JUMP JUMPDEST PUSH1 0x0 DUP1 PUSH1 0x40 DUP4 DUP6 SUB SLT ISZERO PUSH3 0xC8 JUMPI PUSH1 0x0 DUP1 REVERT JUMPDEST PUSH1 0x0 PUSH3 0xD8 DUP6 DUP3 DUP7 ADD PUSH3 0x9D JUMP JUMPDEST SWAP3 POP POP PUSH1 0x20 PUSH3 0xEB DUP6 DUP3 DUP7 ADD PUSH3 0x86 JUMP JUMPDEST SWAP2 POP POP SWAP3 POP SWAP3 SWAP1 POP JUMP JUMPDEST PUSH1 0x0 PUSH3 0x102 DUP3 PUSH3 0x109 JUMP JUMPDEST SWAP1 POP SWAP2 SWAP1 POP JUMP JUMPDEST PUSH1 0x0 PUSH20 0xFFFFFFFFFFFFFFFFFFFFFFFFFFFFFFFFFFFFFFFF DUP3 AND SWAP1 POP SWAP2 SWAP1 POP JUMP JUMPDEST PUSH1 0x0 DUP2 SWAP1 POP SWAP2 SWAP1 POP JUMP JUMPDEST PUSH3 0x13E DUP2 PUSH3 0xF5 JUMP JUMPDEST DUP2 EQ PUSH3 0x14A JUMPI PUSH1 0x0 DUP1 REVERT JUMPDEST POP JUMP JUMPDEST PUSH3 0x158 DUP2 PUSH3 0x129 JUMP JUMPDEST DUP2 EQ PUSH3 0x164 JUMPI PUSH1 0x0 DUP1 REVERT JUMPDEST POP JUMP JUMPDEST PUSH2 0x12BB DUP1 PUSH3 0x177 PUSH1 0x0 CODECOPY PUSH1 0x0 RETURN INVALID PUSH1 0x80 PUSH1 0x40 MSTORE PUSH1 0x4 CALLDATASIZE LT PUSH2 0x86 JUMPI PUSH1 0x0 CALLDATALOAD PUSH1 0xE0 SHR DUP1 PUSH4 0x82FDE093 GT PUSH2 0x59 JUMPI DUP1 PUSH4 0x82FDE093 EQ PUSH2 0x15D JUMPI DUP1 PUSH4 0x8A9CFD55 EQ PUSH2 0x188 JUMPI DUP1 PUSH4 0x937E09B1 EQ PUSH2 0x1C5 JUMPI DUP1 PUSH4 0xD7BB99BA EQ PUSH2 0x1F0 JUMPI DUP1 PUSH4 0xD7D1BBDB EQ PUSH2 0x1FA JUMPI PUSH2 0x86 JUMP JUMPDEST DUP1 PUSH4 0x3441006 EQ PUSH2 0x8B JUMPI DUP1 PUSH4 0xA144391 EQ PUSH2 0xB4 JUMPI DUP1 PUSH4 0x481C6A75 EQ PUSH2 0xF1 JUMPI DUP1 PUSH4 0x81D12C58 EQ PUSH2 0x11C JUMPI JUMPDEST PUSH1 0x0 DUP1 REVERT JUMPDEST CALLVALUE DUP1 ISZERO PUSH2 0x97 JUMPI PUSH1 0x0 DUP1 REVERT JUMPDEST POP PUSH2 0xB2 PUSH1 0x4 DUP1 CALLDATASIZE SUB DUP2 ADD SWAP1 PUSH2 0xAD SWAP2 SWAP1 PUSH2 0xB53 JUMP JUMPDEST PUSH2 0x223 JUMP JUMPDEST STOP JUMPDEST CALLVALUE DUP1 ISZERO PUSH2 0xC0 JUMPI PUSH1 0x0 DUP1 REVERT JUMPDEST POP PUSH2 0xDB PUSH1 0x4 DUP1 CALLDATASIZE SUB DUP2 ADD SWAP1 PUSH2 0xD6 SWAP2 SWAP1 PUSH2 0xAC3 JUMP JUMPDEST PUSH2 0x3FD JUMP JUMPDEST PUSH1 0x40 MLOAD PUSH2 0xE8 SWAP2 SWAP1 PUSH2 0xE3E JUMP JUMPDEST PUSH1 0x40 MLOAD DUP1 SWAP2 SUB SWAP1 RETURN JUMPDEST CALLVALUE DUP1 ISZERO PUSH2 0xFD JUMPI PUSH1 0x0 DUP1 REVERT JUMPDEST POP PUSH2 0x106 PUSH2 0x41D JUMP JUMPDEST PUSH1 0x40 MLOAD PUSH2 0x113 SWAP2 SWAP1 PUSH2 0xE23 JUMP JUMPDEST PUSH1 0x40 MLOAD DUP1 SWAP2 SUB SWAP1 RETURN JUMPDEST CALLVALUE DUP1 ISZERO PUSH2 0x128 JUMPI PUSH1 0x0 DUP1 REVERT JUMPDEST POP PUSH2 0x143 PUSH1 0x4 DUP1 CALLDATASIZE SUB DUP2 ADD SWAP1 PUSH2 0x13E SWAP2 SWAP1 PUSH2 0xB53 JUMP JUMPDEST PUSH2 0x441 JUMP JUMPDEST PUSH1 0x40 MLOAD PUSH2 0x154 SWAP6 SWAP5 SWAP4 SWAP3 SWAP2 SWAP1 PUSH2 0xE59 JUMP JUMPDEST PUSH1 0x40 MLOAD DUP1 SWAP2 SUB SWAP1 RETURN JUMPDEST CALLVALUE DUP1 ISZERO PUSH2 0x169 JUMPI PUSH1 0x0 DUP1 REVERT JUMPDEST POP PUSH2 0x172 PUSH2 0x52C JUMP JUMPDEST PUSH1 0x40 MLOAD PUSH2 0x17F SWAP2 SWAP1 PUSH2 0xF93 JUMP JUMPDEST PUSH1 0x40 MLOAD DUP1 SWAP2 SUB SWAP1 RETURN JUMPDEST CALLVALUE DUP1 ISZERO PUSH2 0x194 JUMPI PUSH1 0x0 DUP1 REVERT JUMPDEST POP PUSH2 0x1AF PUSH1 0x4 DUP1 CALLDATASIZE SUB DUP2 ADD SWAP1 PUSH2 0x1AA SWAP2 SWAP1 PUSH2 0xAEC JUMP JUMPDEST PUSH2 0x532 JUMP JUMPDEST PUSH1 0x40 MLOAD PUSH2 0x1BC SWAP2 SWAP1 PUSH2 0xF93 JUMP JUMPDEST PUSH1 0x40 MLOAD DUP1 SWAP2 SUB SWAP1 RETURN JUMPDEST CALLVALUE DUP1 ISZERO PUSH2 0x1D1 JUMPI PUSH1 0x0 DUP1 REVERT JUMPDEST POP PUSH2 0x1DA PUSH2 0x687 JUMP JUMPDEST PUSH1 0x40 MLOAD PUSH2 0x1E7 SWAP2 SWAP1 PUSH2 0xF93 JUMP JUMPDEST PUSH1 0x40 MLOAD DUP1 SWAP2 SUB SWAP1 RETURN JUMPDEST PUSH2 0x1F8 PUSH2 0x68D JUMP JUMPDEST STOP JUMPDEST CALLVALUE DUP1 ISZERO PUSH2 0x206 JUMPI PUSH1 0x0 DUP1 REVERT JUMPDEST POP PUSH2 0x221 PUSH1 0x4 DUP1 CALLDATASIZE SUB DUP2 ADD SWAP1 PUSH2 0x21C SWAP2 SWAP1 PUSH2 0xB53 JUMP JUMPDEST PUSH2 0x7CF JUMP JUMPDEST STOP JUMPDEST PUSH1 0x0 DUP1 SLOAD SWAP1 PUSH2 0x100 EXP SWAP1 DIV PUSH20 0xFFFFFFFFFFFFFFFFFFFFFFFFFFFFFFFFFFFFFFFF AND PUSH20 0xFFFFFFFFFFFFFFFFFFFFFFFFFFFFFFFFFFFFFFFF AND CALLER PUSH20 0xFFFFFFFFFFFFFFFFFFFFFFFFFFFFFFFFFFFFFFFF AND EQ PUSH2 0x2B1 JUMPI PUSH1 0x40 MLOAD PUSH32 0x8C379A000000000000000000000000000000000000000000000000000000000 DUP2 MSTORE PUSH1 0x4 ADD PUSH2 0x2A8 SWAP1 PUSH2 0xED3 JUMP JUMPDEST PUSH1 0x40 MLOAD DUP1 SWAP2 SUB SWAP1 REVERT JUMPDEST PUSH1 0x0 PUSH1 0x4 PUSH1 0x0 DUP4 DUP2 MSTORE PUSH1 0x20 ADD SWAP1 DUP2 MSTORE PUSH1 0x20 ADD PUSH1 0x0 KECCAK256 SWAP1 POP PUSH1 0x2 DUP1 SLOAD PUSH2 0x2D6 SWAP2 SWAP1 PUSH2 0x102B JUMP JUMPDEST DUP2 PUSH1 0x3 ADD SLOAD GT PUSH2 0x31B JUMPI PUSH1 0x40 MLOAD PUSH32 0x8C379A000000000000000000000000000000000000000000000000000000000 DUP2 MSTORE PUSH1 0x4 ADD PUSH2 0x312 SWAP1 PUSH2 0xF13 JUMP JUMPDEST PUSH1 0x40 MLOAD DUP1 SWAP2 SUB SWAP1 REVERT JUMPDEST DUP1 PUSH1 0x2 ADD PUSH1 0x14 SWAP1 SLOAD SWAP1 PUSH2 0x100 EXP SWAP1 DIV PUSH1 0xFF AND ISZERO PUSH2 0x36D JUMPI PUSH1 0x40 MLOAD PUSH32 0x8C379A000000000000000000000000000000000000000000000000000000000 DUP2 MSTORE PUSH1 0x4 ADD PUSH2 0x364 SWAP1 PUSH2 0xEB3 JUMP JUMPDEST PUSH1 0x40 MLOAD DUP1 SWAP2 SUB SWAP1 REVERT JUMPDEST PUSH1 0x1 DUP2 PUSH1 0x2 ADD PUSH1 0x14 PUSH2 0x100 EXP DUP2 SLOAD DUP2 PUSH1 0xFF MUL NOT AND SWAP1 DUP4 ISZERO ISZERO MUL OR SWAP1 SSTORE POP DUP1 PUSH1 0x2 ADD PUSH1 0x0 SWAP1 SLOAD SWAP1 PUSH2 0x100 EXP SWAP1 DIV PUSH20 0xFFFFFFFFFFFFFFFFFFFFFFFFFFFFFFFFFFFFFFFF AND PUSH20 0xFFFFFFFFFFFFFFFFFFFFFFFFFFFFFFFFFFFFFFFF AND PUSH2 0x8FC DUP3 PUSH1 0x1 ADD SLOAD SWAP1 DUP2 ISZERO MUL SWAP1 PUSH1 0x40 MLOAD PUSH1 0x0 PUSH1 0x40 MLOAD DUP1 DUP4 SUB DUP2 DUP6 DUP9 DUP9 CALL SWAP4 POP POP POP POP ISZERO DUP1 ISZERO PUSH2 0x3F8 JUMPI RETURNDATASIZE PUSH1 0x0 DUP1 RETURNDATACOPY RETURNDATASIZE PUSH1 0x0 REVERT JUMPDEST POP POP POP JUMP JUMPDEST PUSH1 0x1 PUSH1 0x20 MSTORE DUP1 PUSH1 0x0 MSTORE PUSH1 0x40 PUSH1 0x0 KECCAK256 PUSH1 0x0 SWAP2 POP SLOAD SWAP1 PUSH2 0x100 EXP SWAP1 DIV PUSH1 0xFF AND DUP2 JUMP JUMPDEST PUSH1 0x0 DUP1 SLOAD SWAP1 PUSH2 0x100 EXP SWAP1 DIV PUSH20 0xFFFFFFFFFFFFFFFFFFFFFFFFFFFFFFFFFFFFFFFF AND DUP2 JUMP JUMPDEST PUSH1 0x4 PUSH1 0x20 MSTORE DUP1 PUSH1 0x0 MSTORE PUSH1 0x40 PUSH1 0x0 KECCAK256 PUSH1 0x0 SWAP2 POP SWAP1 POP DUP1 PUSH1 0x0 ADD DUP1 SLOAD PUSH2 0x464 SWAP1 PUSH2 0x10F8 JUMP JUMPDEST DUP1 PUSH1 0x1F ADD PUSH1 0x20 DUP1 SWAP2 DIV MUL PUSH1 0x20 ADD PUSH1 0x40 MLOAD SWAP1 DUP2 ADD PUSH1 0x40 MSTORE DUP1 SWAP3 SWAP2 SWAP1 DUP2 DUP2 MSTORE PUSH1 0x20 ADD DUP3 DUP1 SLOAD PUSH2 0x490 SWAP1 PUSH2 0x10F8 JUMP JUMPDEST DUP1 ISZERO PUSH2 0x4DD JUMPI DUP1 PUSH1 0x1F LT PUSH2 0x4B2 JUMPI PUSH2 0x100 DUP1 DUP4 SLOAD DIV MUL DUP4 MSTORE SWAP2 PUSH1 0x20 ADD SWAP2 PUSH2 0x4DD JUMP JUMPDEST DUP3 ADD SWAP2 SWAP1 PUSH1 0x0 MSTORE PUSH1 0x20 PUSH1 0x0 KECCAK256 SWAP1 JUMPDEST DUP2 SLOAD DUP2 MSTORE SWAP1 PUSH1 0x1 ADD SWAP1 PUSH1 0x20 ADD DUP1 DUP4 GT PUSH2 0x4C0 JUMPI DUP3 SWAP1 SUB PUSH1 0x1F AND DUP3 ADD SWAP2 JUMPDEST POP POP POP POP POP SWAP1 DUP1 PUSH1 0x1 ADD SLOAD SWAP1 DUP1 PUSH1 0x2 ADD PUSH1 0x0 SWAP1 SLOAD SWAP1 PUSH2 0x100 EXP SWAP1 DIV PUSH20 0xFFFFFFFFFFFFFFFFFFFFFFFFFFFFFFFFFFFFFFFF AND SWAP1 DUP1 PUSH1 0x2 ADD PUSH1 0x14 SWAP1 SLOAD SWAP1 PUSH2 0x100 EXP SWAP1 DIV PUSH1 0xFF AND SWAP1 DUP1 PUSH1 0x3 ADD SLOAD SWAP1 POP DUP6 JUMP JUMPDEST PUSH1 0x2 SLOAD DUP2 JUMP JUMPDEST PUSH1 0x0 DUP1 PUSH1 0x0 SWAP1 SLOAD SWAP1 PUSH2 0x100 EXP SWAP1 DIV PUSH20 0xFFFFFFFFFFFFFFFFFFFFFFFFFFFFFFFFFFFFFFFF AND PUSH20 0xFFFFFFFFFFFFFFFFFFFFFFFFFFFFFFFFFFFFFFFF AND CALLER PUSH20 0xFFFFFFFFFFFFFFFFFFFFFFFFFFFFFFFFFFFFFFFF AND EQ PUSH2 0x5C3 JUMPI PUSH1 0x40 MLOAD PUSH32 0x8C379A000000000000000000000000000000000000000000000000000000000 DUP2 MSTORE PUSH1 0x4 ADD PUSH2 0x5BA SWAP1 PUSH2 0xED3 JUMP JUMPDEST PUSH1 0x40 MLOAD DUP1 SWAP2 SUB SWAP1 REVERT JUMPDEST PUSH1 0x3 PUSH1 0x0 DUP2 SLOAD DUP1 SWAP3 SWAP2 SWAP1 PUSH2 0x5D6 SWAP1 PUSH2 0x112A JUMP JUMPDEST SWAP2 SWAP1 POP SSTORE SWAP1 POP PUSH1 0x0 PUSH1 0x4 PUSH1 0x0 DUP4 DUP2 MSTORE PUSH1 0x20 ADD SWAP1 DUP2 MSTORE PUSH1 0x20 ADD PUSH1 0x0 KECCAK256 SWAP1 POP DUP5 DUP2 PUSH1 0x0 ADD SWAP1 DUP1 MLOAD SWAP1 PUSH1 0x20 ADD SWAP1 PUSH2 0x60B SWAP3 SWAP2 SWAP1 PUSH2 0x979 JUMP JUMPDEST POP DUP4 DUP2 PUSH1 0x1 ADD DUP2 SWAP1 SSTORE POP DUP3 DUP2 PUSH1 0x2 ADD PUSH1 0x0 PUSH2 0x100 EXP DUP2 SLOAD DUP2 PUSH20 0xFFFFFFFFFFFFFFFFFFFFFFFFFFFFFFFFFFFFFFFF MUL NOT AND SWAP1 DUP4 PUSH20 0xFFFFFFFFFFFFFFFFFFFFFFFFFFFFFFFFFFFFFFFF AND MUL OR SWAP1 SSTORE POP PUSH1 0x0 DUP2 PUSH1 0x2 ADD PUSH1 0x14 PUSH2 0x100 EXP DUP2 SLOAD DUP2 PUSH1 0xFF MUL NOT AND SWAP1 DUP4 ISZERO ISZERO MUL OR SWAP1 SSTORE POP PUSH1 0x0 DUP2 PUSH1 0x3 ADD DUP2 SWAP1 SSTORE POP POP SWAP4 SWAP3 POP POP POP JUMP JUMPDEST PUSH1 0x5 SLOAD DUP2 JUMP JUMPDEST PUSH1 0x5 SLOAD CALLVALUE GT PUSH2 0x6D1 JUMPI PUSH1 0x40 MLOAD PUSH32 0x8C379A000000000000000000000000000000000000000000000000000000000 DUP2 MSTORE PUSH1 0x4 ADD PUSH2 0x6C8 SWAP1 PUSH2 0xEF3 JUMP JUMPDEST PUSH1 0x40 MLOAD DUP1 SWAP2 SUB SWAP1 REVERT JUMPDEST PUSH1 0x1 PUSH1 0x0 CALLER PUSH20 0xFFFFFFFFFFFFFFFFFFFFFFFFFFFFFFFFFFFFFFFF AND PUSH20 0xFFFFFFFFFFFFFFFFFFFFFFFFFFFFFFFFFFFFFFFF AND DUP2 MSTORE PUSH1 0x20 ADD SWAP1 DUP2 MSTORE PUSH1 0x20 ADD PUSH1 0x0 KECCAK256 PUSH1 0x0 SWAP1 SLOAD SWAP1 PUSH2 0x100 EXP SWAP1 DIV PUSH1 0xFF AND ISZERO PUSH2 0x75E JUMPI PUSH1 0x40 MLOAD PUSH32 0x8C379A000000000000000000000000000000000000000000000000000000000 DUP2 MSTORE PUSH1 0x4 ADD PUSH2 0x755 SWAP1 PUSH2 0xF73 JUMP JUMPDEST PUSH1 0x40 MLOAD DUP1 SWAP2 SUB SWAP1 REVERT JUMPDEST PUSH1 0x1 DUP1 PUSH1 0x0 CALLER PUSH20 0xFFFFFFFFFFFFFFFFFFFFFFFFFFFFFFFFFFFFFFFF AND PUSH20 0xFFFFFFFFFFFFFFFFFFFFFFFFFFFFFFFFFFFFFFFF AND DUP2 MSTORE PUSH1 0x20 ADD SWAP1 DUP2 MSTORE PUSH1 0x20 ADD PUSH1 0x0 KECCAK256 PUSH1 0x0 PUSH2 0x100 EXP DUP2 SLOAD DUP2 PUSH1 0xFF MUL NOT AND SWAP1 DUP4 ISZERO ISZERO MUL OR SWAP1 SSTORE POP PUSH1 0x2 PUSH1 0x0 DUP2 SLOAD DUP1 SWAP3 SWAP2 SWAP1 PUSH2 0x7C8 SWAP1 PUSH2 0x112A JUMP JUMPDEST SWAP2 SWAP1 POP SSTORE POP JUMP JUMPDEST PUSH1 0x0 PUSH1 0x4 PUSH1 0x0 DUP4 DUP2 MSTORE PUSH1 0x20 ADD SWAP1 DUP2 MSTORE PUSH1 0x20 ADD PUSH1 0x0 KECCAK256 SWAP1 POP PUSH1 0x1 PUSH1 0x0 CALLER PUSH20 0xFFFFFFFFFFFFFFFFFFFFFFFFFFFFFFFFFFFFFFFF AND PUSH20 0xFFFFFFFFFFFFFFFFFFFFFFFFFFFFFFFFFFFFFFFF AND DUP2 MSTORE PUSH1 0x20 ADD SWAP1 DUP2 MSTORE PUSH1 0x20 ADD PUSH1 0x0 KECCAK256 PUSH1 0x0 SWAP1 SLOAD SWAP1 PUSH2 0x100 EXP SWAP1 DIV PUSH1 0xFF AND PUSH2 0x872 JUMPI PUSH1 0x40 MLOAD PUSH32 0x8C379A000000000000000000000000000000000000000000000000000000000 DUP2 MSTORE PUSH1 0x4 ADD PUSH2 0x869 SWAP1 PUSH2 0xF53 JUMP JUMPDEST PUSH1 0x40 MLOAD DUP1 SWAP2 SUB SWAP1 REVERT JUMPDEST DUP1 PUSH1 0x4 ADD PUSH1 0x0 CALLER PUSH20 0xFFFFFFFFFFFFFFFFFFFFFFFFFFFFFFFFFFFFFFFF AND PUSH20 0xFFFFFFFFFFFFFFFFFFFFFFFFFFFFFFFFFFFFFFFF AND DUP2 MSTORE PUSH1 0x20 ADD SWAP1 DUP2 MSTORE PUSH1 0x20 ADD PUSH1 0x0 KECCAK256 PUSH1 0x0 SWAP1 SLOAD SWAP1 PUSH2 0x100 EXP SWAP1 DIV PUSH1 0xFF AND ISZERO PUSH2 0x901 JUMPI PUSH1 0x40 MLOAD PUSH32 0x8C379A000000000000000000000000000000000000000000000000000000000 DUP2 MSTORE PUSH1 0x4 ADD PUSH2 0x8F8 SWAP1 PUSH2 0xF33 JUMP JUMPDEST PUSH1 0x40 MLOAD DUP1 SWAP2 SUB SWAP1 REVERT JUMPDEST PUSH1 0x1 DUP2 PUSH1 0x4 ADD PUSH1 0x0 CALLER PUSH20 0xFFFFFFFFFFFFFFFFFFFFFFFFFFFFFFFFFFFFFFFF AND PUSH20 0xFFFFFFFFFFFFFFFFFFFFFFFFFFFFFFFFFFFFFFFF AND DUP2 MSTORE PUSH1 0x20 ADD SWAP1 DUP2 MSTORE PUSH1 0x20 ADD PUSH1 0x0 KECCAK256 PUSH1 0x0 PUSH2 0x100 EXP DUP2 SLOAD DUP2 PUSH1 0xFF MUL NOT AND SWAP1 DUP4 ISZERO ISZERO MUL OR SWAP1 SSTORE POP DUP1 PUSH1 0x3 ADD PUSH1 0x0 DUP2 SLOAD DUP1 SWAP3 SWAP2 SWAP1 PUSH2 0x970 SWAP1 PUSH2 0x112A JUMP JUMPDEST SWAP2 SWAP1 POP SSTORE POP POP POP JUMP JUMPDEST DUP3 DUP1 SLOAD PUSH2 0x985 SWAP1 PUSH2 0x10F8 JUMP JUMPDEST SWAP1 PUSH1 0x0 MSTORE PUSH1 0x20 PUSH1 0x0 KECCAK256 SWAP1 PUSH1 0x1F ADD PUSH1 0x20 SWAP1 DIV DUP2 ADD SWAP3 DUP3 PUSH2 0x9A7 JUMPI PUSH1 0x0 DUP6 SSTORE PUSH2 0x9EE JUMP JUMPDEST DUP3 PUSH1 0x1F LT PUSH2 0x9C0 JUMPI DUP1 MLOAD PUSH1 0xFF NOT AND DUP4 DUP1 ADD OR DUP6 SSTORE PUSH2 0x9EE JUMP JUMPDEST DUP3 DUP1 ADD PUSH1 0x1 ADD DUP6 SSTORE DUP3 ISZERO PUSH2 0x9EE JUMPI SWAP2 DUP3 ADD JUMPDEST DUP3 DUP2 GT ISZERO PUSH2 0x9ED JUMPI DUP3 MLOAD DUP3 SSTORE SWAP2 PUSH1 0x20 ADD SWAP2 SWAP1 PUSH1 0x1 ADD SWAP1 PUSH2 0x9D2 JUMP JUMPDEST JUMPDEST POP SWAP1 POP PUSH2 0x9FB SWAP2 SWAP1 PUSH2 0x9FF JUMP JUMPDEST POP SWAP1 JUMP JUMPDEST JUMPDEST DUP1 DUP3 GT ISZERO PUSH2 0xA18 JUMPI PUSH1 0x0 DUP2 PUSH1 0x0 SWAP1 SSTORE POP PUSH1 0x1 ADD PUSH2 0xA00 JUMP JUMPDEST POP SWAP1 JUMP JUMPDEST PUSH1 0x0 PUSH2 0xA2F PUSH2 0xA2A DUP5 PUSH2 0xFDF JUMP JUMPDEST PUSH2 0xFAE JUMP JUMPDEST SWAP1 POP DUP3 DUP2 MSTORE PUSH1 0x20 DUP2 ADD DUP5 DUP5 DUP5 ADD GT ISZERO PUSH2 0xA47 JUMPI PUSH1 0x0 DUP1 REVERT JUMPDEST PUSH2 0xA52 DUP5 DUP3 DUP6 PUSH2 0x10B6 JUMP JUMPDEST POP SWAP4 SWAP3 POP POP POP JUMP JUMPDEST PUSH1 0x0 DUP2 CALLDATALOAD SWAP1 POP PUSH2 0xA69 DUP2 PUSH2 0x1240 JUMP JUMPDEST SWAP3 SWAP2 POP POP JUMP JUMPDEST PUSH1 0x0 DUP2 CALLDATALOAD SWAP1 POP PUSH2 0xA7E DUP2 PUSH2 0x1257 JUMP JUMPDEST SWAP3 SWAP2 POP POP JUMP JUMPDEST PUSH1 0x0 DUP3 PUSH1 0x1F DUP4 ADD SLT PUSH2 0xA95 JUMPI PUSH1 0x0 DUP1 REVERT JUMPDEST DUP2 CALLDATALOAD PUSH2 0xAA5 DUP5 DUP3 PUSH1 0x20 DUP7 ADD PUSH2 0xA1C JUMP JUMPDEST SWAP2 POP POP SWAP3 SWAP2 POP POP JUMP JUMPDEST PUSH1 0x0 DUP2 CALLDATALOAD SWAP1 POP PUSH2 0xABD DUP2 PUSH2 0x126E JUMP JUMPDEST SWAP3 SWAP2 POP POP JUMP JUMPDEST PUSH1 0x0 PUSH1 0x20 DUP3 DUP5 SUB SLT ISZERO PUSH2 0xAD5 JUMPI PUSH1 0x0 DUP1 REVERT JUMPDEST PUSH1 0x0 PUSH2 0xAE3 DUP5 DUP3 DUP6 ADD PUSH2 0xA5A JUMP JUMPDEST SWAP2 POP POP SWAP3 SWAP2 POP POP JUMP JUMPDEST PUSH1 0x0 DUP1 PUSH1 0x0 PUSH1 0x60 DUP5 DUP7 SUB SLT ISZERO PUSH2 0xB01 JUMPI PUSH1 0x0 DUP1 REVERT JUMPDEST PUSH1 0x0 DUP5 ADD CALLDATALOAD PUSH8 0xFFFFFFFFFFFFFFFF DUP2 GT ISZERO PUSH2 0xB1B JUMPI PUSH1 0x0 DUP1 REVERT JUMPDEST PUSH2 0xB27 DUP7 DUP3 DUP8 ADD PUSH2 0xA84 JUMP JUMPDEST SWAP4 POP POP PUSH1 0x20 PUSH2 0xB38 DUP7 DUP3 DUP8 ADD PUSH2 0xAAE JUMP JUMPDEST SWAP3 POP POP PUSH1 0x40 PUSH2 0xB49 DUP7 DUP3 DUP8 ADD PUSH2 0xA6F JUMP JUMPDEST SWAP2 POP POP SWAP3 POP SWAP3 POP SWAP3 JUMP JUMPDEST PUSH1 0x0 PUSH1 0x20 DUP3 DUP5 SUB SLT ISZERO PUSH2 0xB65 JUMPI PUSH1 0x0 DUP1 REVERT JUMPDEST PUSH1 0x0 PUSH2 0xB73 DUP5 DUP3 DUP6 ADD PUSH2 0xAAE JUMP JUMPDEST SWAP2 POP POP SWAP3 SWAP2 POP POP JUMP JUMPDEST PUSH2 0xB85 DUP2 PUSH2 0x106E JUMP JUMPDEST DUP3 MSTORE POP POP JUMP JUMPDEST PUSH2 0xB94 DUP2 PUSH2 0x105C JUMP JUMPDEST DUP3 MSTORE POP POP JUMP JUMPDEST PUSH2 0xBA3 DUP2 PUSH2 0x1080 JUMP JUMPDEST DUP3 MSTORE POP POP JUMP JUMPDEST PUSH1 0x0 PUSH2 0xBB4 DUP3 PUSH2 0x100F JUMP JUMPDEST PUSH2 0xBBE DUP2 DUP6 PUSH2 0x101A JUMP JUMPDEST SWAP4 POP PUSH2 0xBCE DUP2 DUP6 PUSH1 0x20 DUP7 ADD PUSH2 0x10C5 JUMP JUMPDEST PUSH2 0xBD7 DUP2 PUSH2 0x122F JUMP JUMPDEST DUP5 ADD SWAP2 POP POP SWAP3 SWAP2 POP POP JUMP JUMPDEST PUSH1 0x0 PUSH2 0xBEF PUSH1 0x28 DUP4 PUSH2 0x101A JUMP JUMPDEST SWAP2 POP PUSH32 0x5468697320726571756573742068617320616C7265616479206265656E20636F PUSH1 0x0 DUP4 ADD MSTORE PUSH32 0x6D706C6574656421000000000000000000000000000000000000000000000000 PUSH1 0x20 DUP4 ADD MSTORE PUSH1 0x40 DUP3 ADD SWAP1 POP SWAP2 SWAP1 POP JUMP JUMPDEST PUSH1 0x0 PUSH2 0xC55 PUSH1 0x16 DUP4 PUSH2 0x101A JUMP JUMPDEST SWAP2 POP PUSH32 0x4F6E6C79206D616E616765727320616C6C6F7765642100000000000000000000 PUSH1 0x0 DUP4 ADD MSTORE PUSH1 0x20 DUP3 ADD SWAP1 POP SWAP2 SWAP1 POP JUMP JUMPDEST PUSH1 0x0 PUSH2 0xC95 PUSH1 0x38 DUP4 PUSH2 0x101A JUMP JUMPDEST SWAP2 POP PUSH32 0x596F75206E656564206D6F7265206D6F6E657920746F20656E74657220696E74 PUSH1 0x0 DUP4 ADD MSTORE PUSH32 0x6F2074686520636F6E747269627574696F6E206C697374210000000000000000 PUSH1 0x20 DUP4 ADD MSTORE PUSH1 0x40 DUP3 ADD SWAP1 POP SWAP2 SWAP1 POP JUMP JUMPDEST PUSH1 0x0 PUSH2 0xCFB PUSH1 0x17 DUP4 PUSH2 0x101A JUMP JUMPDEST SWAP2 POP PUSH32 0x496E73756666696369656E7420617070726F76616C7321000000000000000000 PUSH1 0x0 DUP4 ADD MSTORE PUSH1 0x20 DUP3 ADD SWAP1 POP SWAP2 SWAP1 POP JUMP JUMPDEST PUSH1 0x0 PUSH2 0xD3B PUSH1 0x22 DUP4 PUSH2 0x101A JUMP JUMPDEST SWAP2 POP PUSH32 0x596F752063616E277420617070726F7665206120726571756573742074776963 PUSH1 0x0 DUP4 ADD MSTORE PUSH32 0x6521000000000000000000000000000000000000000000000000000000000000 PUSH1 0x20 DUP4 ADD MSTORE PUSH1 0x40 DUP3 ADD SWAP1 POP SWAP2 SWAP1 POP JUMP JUMPDEST PUSH1 0x0 PUSH2 0xDA1 PUSH1 0x1D DUP4 PUSH2 0x101A JUMP JUMPDEST SWAP2 POP PUSH32 0x596F75206E65656420746F20636F6E7472696275746520666972737421000000 PUSH1 0x0 DUP4 ADD MSTORE PUSH1 0x20 DUP3 ADD SWAP1 POP SWAP2 SWAP1 POP JUMP JUMPDEST PUSH1 0x0 PUSH2 0xDE1 PUSH1 0x1D DUP4 PUSH2 0x101A JUMP JUMPDEST SWAP2 POP PUSH32 0x596F752063616E20636F6E74726962757465206F6E6C79206F6E636521000000 PUSH1 0x0 DUP4 ADD MSTORE PUSH1 0x20 DUP3 ADD SWAP1 POP SWAP2 SWAP1 POP JUMP JUMPDEST PUSH2 0xE1D DUP2 PUSH2 0x10AC JUMP JUMPDEST DUP3 MSTORE POP POP JUMP JUMPDEST PUSH1 0x0 PUSH1 0x20 DUP3 ADD SWAP1 POP PUSH2 0xE38 PUSH1 0x0 DUP4 ADD DUP5 PUSH2 0xB8B JUMP JUMPDEST SWAP3 SWAP2 POP POP JUMP JUMPDEST PUSH1 0x0 PUSH1 0x20 DUP3 ADD SWAP1 POP PUSH2 0xE53 PUSH1 0x0 DUP4 ADD DUP5 PUSH2 0xB9A JUMP JUMPDEST SWAP3 SWAP2 POP POP JUMP JUMPDEST PUSH1 0x0 PUSH1 0xA0 DUP3 ADD SWAP1 POP DUP2 DUP2 SUB PUSH1 0x0 DUP4 ADD MSTORE PUSH2 0xE73 DUP2 DUP9 PUSH2 0xBA9 JUMP JUMPDEST SWAP1 POP PUSH2 0xE82 PUSH1 0x20 DUP4 ADD DUP8 PUSH2 0xE14 JUMP JUMPDEST PUSH2 0xE8F PUSH1 0x40 DUP4 ADD DUP7 PUSH2 0xB7C JUMP JUMPDEST PUSH2 0xE9C PUSH1 0x60 DUP4 ADD DUP6 PUSH2 0xB9A JUMP JUMPDEST PUSH2 0xEA9 PUSH1 0x80 DUP4 ADD DUP5 PUSH2 0xE14 JUMP JUMPDEST SWAP7 SWAP6 POP POP POP POP POP POP JUMP JUMPDEST PUSH1 0x0 PUSH1 0x20 DUP3 ADD SWAP1 POP DUP2 DUP2 SUB PUSH1 0x0 DUP4 ADD MSTORE PUSH2 0xECC DUP2 PUSH2 0xBE2 JUMP JUMPDEST SWAP1 POP SWAP2 SWAP1 POP JUMP JUMPDEST PUSH1 0x0 PUSH1 0x20 DUP3 ADD SWAP1 POP DUP2 DUP2 SUB PUSH1 0x0 DUP4 ADD MSTORE PUSH2 0xEEC DUP2 PUSH2 0xC48 JUMP JUMPDEST SWAP1 POP SWAP2 SWAP1 POP JUMP JUMPDEST PUSH1 0x0 PUSH1 0x20 DUP3 ADD SWAP1 POP DUP2 DUP2 SUB PUSH1 0x0 DUP4 ADD MSTORE PUSH2 0xF0C DUP2 PUSH2 0xC88 JUMP JUMPDEST SWAP1 POP SWAP2 SWAP1 POP JUMP JUMPDEST PUSH1 0x0 PUSH1 0x20 DUP3 ADD SWAP1 POP DUP2 DUP2 SUB PUSH1 0x0 DUP4 ADD MSTORE PUSH2 0xF2C DUP2 PUSH2 0xCEE JUMP JUMPDEST SWAP1 POP SWAP2 SWAP1 POP JUMP JUMPDEST PUSH1 0x0 PUSH1 0x20 DUP3 ADD SWAP1 POP DUP2 DUP2 SUB PUSH1 0x0 DUP4 ADD MSTORE PUSH2 0xF4C DUP2 PUSH2 0xD2E JUMP JUMPDEST SWAP1 POP SWAP2 SWAP1 POP JUMP JUMPDEST PUSH1 0x0 PUSH1 0x20 DUP3 ADD SWAP1 POP DUP2 DUP2 SUB PUSH1 0x0 DUP4 ADD MSTORE PUSH2 0xF6C DUP2 PUSH2 0xD94 JUMP JUMPDEST SWAP1 POP SWAP2 SWAP1 POP JUMP JUMPDEST PUSH1 0x0 PUSH1 0x20 DUP3 ADD SWAP1 POP DUP2 DUP2 SUB PUSH1 0x0 DUP4 ADD MSTORE PUSH2 0xF8C DUP2 PUSH2 0xDD4 JUMP JUMPDEST SWAP1 POP SWAP2 SWAP1 POP JUMP JUMPDEST PUSH1 0x0 PUSH1 0x20 DUP3 ADD SWAP1 POP PUSH2 0xFA8 PUSH1 0x0 DUP4 ADD DUP5 PUSH2 0xE14 JUMP JUMPDEST SWAP3 SWAP2 POP POP JUMP JUMPDEST PUSH1 0x0 PUSH1 0x40 MLOAD SWAP1 POP DUP2 DUP2 ADD DUP2 DUP2 LT PUSH8 0xFFFFFFFFFFFFFFFF DUP3 GT OR ISZERO PUSH2 0xFD5 JUMPI PUSH2 0xFD4 PUSH2 0x1200 JUMP JUMPDEST JUMPDEST DUP1 PUSH1 0x40 MSTORE POP SWAP2 SWAP1 POP JUMP JUMPDEST PUSH1 0x0 PUSH8 0xFFFFFFFFFFFFFFFF DUP3 GT ISZERO PUSH2 0xFFA JUMPI PUSH2 0xFF9 PUSH2 0x1200 JUMP JUMPDEST JUMPDEST PUSH1 0x1F NOT PUSH1 0x1F DUP4 ADD AND SWAP1 POP PUSH1 0x20 DUP2 ADD SWAP1 POP SWAP2 SWAP1 POP JUMP JUMPDEST PUSH1 0x0 DUP2 MLOAD SWAP1 POP SWAP2 SWAP1 POP JUMP JUMPDEST PUSH1 0x0 DUP3 DUP3 MSTORE PUSH1 0x20 DUP3 ADD SWAP1 POP SWAP3 SWAP2 POP POP JUMP JUMPDEST PUSH1 0x0 PUSH2 0x1036 DUP3 PUSH2 0x10AC JUMP JUMPDEST SWAP2 POP PUSH2 0x1041 DUP4 PUSH2 0x10AC JUMP JUMPDEST SWAP3 POP DUP3 PUSH2 0x1051 JUMPI PUSH2 0x1050 PUSH2 0x11A2 JUMP JUMPDEST JUMPDEST DUP3 DUP3 DIV SWAP1 POP SWAP3 SWAP2 POP POP JUMP JUMPDEST PUSH1 0x0 PUSH2 0x1067 DUP3 PUSH2 0x108C JUMP JUMPDEST SWAP1 POP SWAP2 SWAP1 POP JUMP JUMPDEST PUSH1 0x0 PUSH2 0x1079 DUP3 PUSH2 0x108C JUMP JUMPDEST SWAP1 POP SWAP2 SWAP1 POP JUMP JUMPDEST PUSH1 0x0 DUP2 ISZERO ISZERO SWAP1 POP SWAP2 SWAP1 POP JUMP JUMPDEST PUSH1 0x0 PUSH20 0xFFFFFFFFFFFFFFFFFFFFFFFFFFFFFFFFFFFFFFFF DUP3 AND SWAP1 POP SWAP2 SWAP1 POP JUMP JUMPDEST PUSH1 0x0 DUP2 SWAP1 POP SWAP2 SWAP1 POP JUMP JUMPDEST DUP3 DUP2 DUP4 CALLDATACOPY PUSH1 0x0 DUP4 DUP4 ADD MSTORE POP POP POP JUMP JUMPDEST PUSH1 0x0 JUMPDEST DUP4 DUP2 LT ISZERO PUSH2 0x10E3 JUMPI DUP1 DUP3 ADD MLOAD DUP2 DUP5 ADD MSTORE PUSH1 0x20 DUP2 ADD SWAP1 POP PUSH2 0x10C8 JUMP JUMPDEST DUP4 DUP2 GT ISZERO PUSH2 0x10F2 JUMPI PUSH1 0x0 DUP5 DUP5 ADD MSTORE JUMPDEST POP POP POP POP JUMP JUMPDEST PUSH1 0x0 PUSH1 0x2 DUP3 DIV SWAP1 POP PUSH1 0x1 DUP3 AND DUP1 PUSH2 0x1110 JUMPI PUSH1 0x7F DUP3 AND SWAP2 POP JUMPDEST PUSH1 0x20 DUP3 LT DUP2 EQ ISZERO PUSH2 0x1124 JUMPI PUSH2 0x1123 PUSH2 0x11D1 JUMP JUMPDEST JUMPDEST POP SWAP2 SWAP1 POP JUMP JUMPDEST PUSH1 0x0 PUSH2 0x1135 DUP3 PUSH2 0x10AC JUMP JUMPDEST SWAP2 POP PUSH32 0xFFFFFFFFFFFFFFFFFFFFFFFFFFFFFFFFFFFFFFFFFFFFFFFFFFFFFFFFFFFFFFFF DUP3 EQ ISZERO PUSH2 0x1168 JUMPI PUSH2 0x1167 PUSH2 0x1173 JUMP JUMPDEST JUMPDEST PUSH1 0x1 DUP3 ADD SWAP1 POP SWAP2 SWAP1 POP JUMP JUMPDEST PUSH32 0x4E487B7100000000000000000000000000000000000000000000000000000000 PUSH1 0x0 MSTORE PUSH1 0x11 PUSH1 0x4 MSTORE PUSH1 0x24 PUSH1 0x0 REVERT JUMPDEST PUSH32 0x4E487B7100000000000000000000000000000000000000000000000000000000 PUSH1 0x0 MSTORE PUSH1 0x12 PUSH1 0x4 MSTORE PUSH1 0x24 PUSH1 0x0 REVERT JUMPDEST PUSH32 0x4E487B7100000000000000000000000000000000000000000000000000000000 PUSH1 0x0 MSTORE PUSH1 0x22 PUSH1 0x4 MSTORE PUSH1 0x24 PUSH1 0x0 REVERT JUMPDEST PUSH32 0x4E487B7100000000000000000000000000000000000000000000000000000000 PUSH1 0x0 MSTORE PUSH1 0x41 PUSH1 0x4 MSTORE PUSH1 0x24 PUSH1 0x0 REVERT JUMPDEST PUSH1 0x0 PUSH1 0x1F NOT PUSH1 0x1F DUP4 ADD AND SWAP1 POP SWAP2 SWAP1 POP JUMP JUMPDEST PUSH2 0x1249 DUP2 PUSH2 0x105C JUMP JUMPDEST DUP2 EQ PUSH2 0x1254 JUMPI PUSH1 0x0 DUP1 REVERT JUMPDEST POP JUMP JUMPDEST PUSH2 0x1260 DUP2 PUSH2 0x106E JUMP JUMPDEST DUP2 EQ PUSH2 0x126B JUMPI PUSH1 0x0 DUP1 REVERT JUMPDEST POP JUMP JUMPDEST PUSH2 0x1277 DUP2 PUSH2 0x10AC JUMP JUMPDEST DUP2 EQ PUSH2 0x1282 JUMPI PUSH1 0x0 DUP1 REVERT JUMPDEST POP JUMP INVALID LOG2 PUSH5 0x6970667358 0x22 SLT KECCAK256 SMOD ADDRESS 0xC4 0x2C PUSH30 0x610643703E3142B59D451984B0118C8D52C90DA61E46099043D82464736F PUSH13 0x63430008000033A26469706673 PC 0x22 SLT KECCAK256 0x5D SWAP9 SWAP13 0x29 TIMESTAMP ORIGIN 0xCF CALLDATALOAD EXTCODEHASH PUSH15 0xA92EBC0600804B4AE81589919C034E 0xD8 0x2D 0x25 0xCA SHR SSTORE 0xAF PUSH5 0x736F6C6343 STOP ADDMOD STOP STOP CALLER "},"gasEstimates":{"creation":{"codeDepositCost":"1249200","executionCost":"1302","totalCost":"1250502"},"external":{"createCampaign(uint256)":"infinite","deployedCampaigns(uint256)":"2334","getCampaigns()":"infinite"}},"methodIdentifiers":{"createCampaign(uint256)":"a3303a75","deployedCampaigns(uint256)":"339d50a5","getCampaigns()":"a6b03633"}},"storageLayout":{"storage":[{"astId":4,"contract":"Campaign.sol:CampaignFactory","label":"deployedCampaigns","offset":0,"slot":"0","type":"t_array(t_address)dyn_storage"}],"types":{"t_address":{"encoding":"inplace","label":"address","numberOfBytes":"20"},"t_array(t_address)dyn_storage":{"base":"t_address","encoding":"dynamic_array","label":"address[]","numberOfBytes":"32"}}},"userdoc":{"kind":"user","methods":{},"version":1}}