{"abi":[{"inputs":[{"internalType":"uint256","name":"minimum","type":"uint256"}],"name":"createCampaign","outputs":[],"stateMutability":"nonpayable","type":"function"},{"inputs":[{"internalType":"uint256","name":"","type":"uint256"}],"name":"deployedCampaigns","outputs":[{"internalType":"address","name":"","type":"address"}],"stateMutability":"view","type":"function"},{"inputs":[],"name":"getCampaigns","outputs":[{"internalType":"address[]","name":"","type":"address[]"}],"stateMutability":"view","type":"function"}],"devdoc":{"kind":"dev","methods":{},"version":1},"evm":{"assembly":"    /* \"Campaign.sol\":65:435  contract CampaignFactory {\r... */\n  mstore(0x40, 0x80)\n  callvalue\n  dup1\n  iszero\n  tag_1\n  jumpi\n  0x00\n  dup1\n  revert\ntag_1:\n  pop\n  dataSize(sub_0)\n  dup1\n  dataOffset(sub_0)\n  0x00\n  codecopy\n  0x00\n  return\nstop\n\nsub_0: assembly {\n        /* \"Campaign.sol\":65:435  contract CampaignFactory {\r... */\n      mstore(0x40, 0x80)\n      callvalue\n      dup1\n      iszero\n      tag_1\n      jumpi\n      0x00\n      dup1\n      revert\n    tag_1:\n      pop\n      jumpi(tag_2, lt(calldatasize, 0x04))\n      shr(0xe0, calldataload(0x00))\n      dup1\n      0x339d50a5\n      eq\n      tag_3\n      jumpi\n      dup1\n      0xa3303a75\n      eq\n      tag_4\n      jumpi\n      dup1\n      0xa6b03633\n      eq\n      tag_5\n      jumpi\n    tag_2:\n      0x00\n      dup1\n      revert\n        /* \"Campaign.sol\":97:131  address[] public deployedCampaigns */\n    tag_3:\n      tag_6\n      0x04\n      dup1\n      calldatasize\n      sub\n      dup2\n      add\n      swap1\n      tag_7\n      swap2\n      swap1\n      tag_8\n      jump\t// in\n    tag_7:\n      tag_9\n      jump\t// in\n    tag_6:\n      mload(0x40)\n      tag_10\n      swap2\n      swap1\n      tag_11\n      jump\t// in\n    tag_10:\n      mload(0x40)\n      dup1\n      swap2\n      sub\n      swap1\n      return\n        /* \"Campaign.sol\":140:318  function createCampaign(uint256 minimum) public {\r... */\n    tag_4:\n      tag_12\n      0x04\n      dup1\n      calldatasize\n      sub\n      dup2\n      add\n      swap1\n      tag_13\n      swap2\n      swap1\n      tag_8\n      jump\t// in\n    tag_13:\n      tag_14\n      jump\t// in\n    tag_12:\n      stop\n        /* \"Campaign.sol\":326:432  function getCampaigns() public view returns (address[] memory) {\r... */\n    tag_5:\n      tag_15\n      tag_16\n      jump\t// in\n    tag_15:\n      mload(0x40)\n      tag_17\n      swap2\n      swap1\n      tag_18\n      jump\t// in\n    tag_17:\n      mload(0x40)\n      dup1\n      swap2\n      sub\n      swap1\n      return\n        /* \"Campaign.sol\":97:131  address[] public deployedCampaigns */\n    tag_9:\n      0x00\n      dup2\n      dup2\n      sload\n      dup2\n      lt\n      tag_19\n      jumpi\n      0x00\n      dup1\n      revert\n    tag_19:\n      swap1\n      0x00\n      mstore\n      keccak256(0x00, 0x20)\n      add\n      0x00\n      swap2\n      pop\n      sload\n      swap1\n      0x0100\n      exp\n      swap1\n      div\n      0xffffffffffffffffffffffffffffffffffffffff\n      and\n      dup2\n      jump\t// out\n        /* \"Campaign.sol\":140:318  function createCampaign(uint256 minimum) public {\r... */\n    tag_14:\n        /* \"Campaign.sol\":199:219  Campaign newCampaign */\n      0x00\n        /* \"Campaign.sol\":235:242  minimum */\n      dup2\n        /* \"Campaign.sol\":244:254  msg.sender */\n      caller\n        /* \"Campaign.sol\":222:255  new Campaign(minimum, msg.sender) */\n      mload(0x40)\n      tag_22\n      swap1\n      tag_23\n      jump\t// in\n    tag_22:\n      tag_24\n      swap3\n      swap2\n      swap1\n      tag_25\n      jump\t// in\n    tag_24:\n      mload(0x40)\n      dup1\n      swap2\n      sub\n      swap1\n      0x00\n      create\n      dup1\n      iszero\n      dup1\n      iszero\n      tag_26\n      jumpi\n      returndatasize\n      0x00\n      dup1\n      returndatacopy\n      revert(0x00, returndatasize)\n    tag_26:\n      pop\n        /* \"Campaign.sol\":199:255  Campaign newCampaign = new Campaign(minimum, msg.sender) */\n      swap1\n      pop\n        /* \"Campaign.sol\":266:283  deployedCampaigns */\n      0x00\n        /* \"Campaign.sol\":297:308  newCampaign */\n      dup2\n        /* \"Campaign.sol\":266:310  deployedCampaigns.push(address(newCampaign)) */\n      swap1\n      dup1\n      0x01\n      dup2\n      sload\n      add\n      dup1\n      dup3\n      sstore\n      dup1\n      swap2\n      pop\n      pop\n      0x01\n      swap1\n      sub\n      swap1\n      0x00\n      mstore\n      keccak256(0x00, 0x20)\n      add\n      0x00\n      swap1\n      swap2\n      swap1\n      swap2\n      swap1\n      swap2\n      0x0100\n      exp\n      dup2\n      sload\n      dup2\n      0xffffffffffffffffffffffffffffffffffffffff\n      mul\n      not\n      and\n      swap1\n      dup4\n      0xffffffffffffffffffffffffffffffffffffffff\n      and\n      mul\n      or\n      swap1\n      sstore\n      pop\n        /* \"Campaign.sol\":140:318  function createCampaign(uint256 minimum) public {\r... */\n      pop\n      pop\n      jump\t// out\n        /* \"Campaign.sol\":326:432  function getCampaigns() public view returns (address[] memory) {\r... */\n    tag_16:\n        /* \"Campaign.sol\":371:387  address[] memory */\n      0x60\n        /* \"Campaign.sol\":407:424  deployedCampaigns */\n      0x00\n        /* \"Campaign.sol\":400:424  return deployedCampaigns */\n      dup1\n      sload\n      dup1\n      0x20\n      mul\n      0x20\n      add\n      mload(0x40)\n      swap1\n      dup2\n      add\n      0x40\n      mstore\n      dup1\n      swap3\n      swap2\n      swap1\n      dup2\n      dup2\n      mstore\n      0x20\n      add\n      dup3\n      dup1\n      sload\n      dup1\n      iszero\n      tag_29\n      jumpi\n      0x20\n      mul\n      dup3\n      add\n      swap2\n      swap1\n      0x00\n      mstore\n      keccak256(0x00, 0x20)\n      swap1\n    tag_30:\n      dup2\n      0x00\n      swap1\n      sload\n      swap1\n      0x0100\n      exp\n      swap1\n      div\n      0xffffffffffffffffffffffffffffffffffffffff\n      and\n      0xffffffffffffffffffffffffffffffffffffffff\n      and\n      dup2\n      mstore\n      0x20\n      add\n      swap1\n      0x01\n      add\n      swap1\n      dup1\n      dup4\n      gt\n      tag_30\n      jumpi\n    tag_29:\n      pop\n      pop\n      pop\n      pop\n      pop\n      swap1\n      pop\n        /* \"Campaign.sol\":326:432  function getCampaigns() public view returns (address[] memory) {\r... */\n      swap1\n      jump\t// out\n    tag_23:\n      dataSize(sub_0)\n      dup1\n      dataOffset(sub_0)\n      dup4\n      codecopy\n      add\n      swap1\n      jump\t// out\n        /* \"#utility.yul\":7:146   */\n    tag_32:\n      0x00\n        /* \"#utility.yul\":91:97   */\n      dup2\n        /* \"#utility.yul\":78:98   */\n      calldataload\n        /* \"#utility.yul\":69:98   */\n      swap1\n      pop\n        /* \"#utility.yul\":107:140   */\n      tag_34\n        /* \"#utility.yul\":134:139   */\n      dup2\n        /* \"#utility.yul\":107:140   */\n      tag_35\n      jump\t// in\n    tag_34:\n        /* \"#utility.yul\":59:146   */\n      swap3\n      swap2\n      pop\n      pop\n      jump\t// out\n        /* \"#utility.yul\":152:414   */\n    tag_8:\n      0x00\n        /* \"#utility.yul\":260:262   */\n      0x20\n        /* \"#utility.yul\":248:257   */\n      dup3\n        /* \"#utility.yul\":239:246   */\n      dup5\n        /* \"#utility.yul\":235:258   */\n      sub\n        /* \"#utility.yul\":231:263   */\n      slt\n        /* \"#utility.yul\":228:230   */\n      iszero\n      tag_37\n      jumpi\n        /* \"#utility.yul\":276:277   */\n      0x00\n        /* \"#utility.yul\":273:274   */\n      dup1\n        /* \"#utility.yul\":266:278   */\n      revert\n        /* \"#utility.yul\":228:230   */\n    tag_37:\n        /* \"#utility.yul\":319:320   */\n      0x00\n        /* \"#utility.yul\":344:397   */\n      tag_38\n        /* \"#utility.yul\":389:396   */\n      dup5\n        /* \"#utility.yul\":380:386   */\n      dup3\n        /* \"#utility.yul\":369:378   */\n      dup6\n        /* \"#utility.yul\":365:387   */\n      add\n        /* \"#utility.yul\":344:397   */\n      tag_32\n      jump\t// in\n    tag_38:\n        /* \"#utility.yul\":334:397   */\n      swap2\n      pop\n        /* \"#utility.yul\":290:407   */\n      pop\n        /* \"#utility.yul\":218:414   */\n      swap3\n      swap2\n      pop\n      pop\n      jump\t// out\n        /* \"#utility.yul\":420:599   */\n    tag_39:\n      0x00\n        /* \"#utility.yul\":510:556   */\n      tag_41\n        /* \"#utility.yul\":552:555   */\n      dup4\n        /* \"#utility.yul\":544:550   */\n      dup4\n        /* \"#utility.yul\":510:556   */\n      tag_42\n      jump\t// in\n    tag_41:\n        /* \"#utility.yul\":588:592   */\n      0x20\n        /* \"#utility.yul\":583:586   */\n      dup4\n        /* \"#utility.yul\":579:593   */\n      add\n        /* \"#utility.yul\":565:593   */\n      swap1\n      pop\n        /* \"#utility.yul\":500:599   */\n      swap3\n      swap2\n      pop\n      pop\n      jump\t// out\n        /* \"#utility.yul\":605:713   */\n    tag_42:\n        /* \"#utility.yul\":682:706   */\n      tag_44\n        /* \"#utility.yul\":700:705   */\n      dup2\n        /* \"#utility.yul\":682:706   */\n      tag_45\n      jump\t// in\n    tag_44:\n        /* \"#utility.yul\":677:680   */\n      dup3\n        /* \"#utility.yul\":670:707   */\n      mstore\n        /* \"#utility.yul\":660:713   */\n      pop\n      pop\n      jump\t// out\n        /* \"#utility.yul\":719:837   */\n    tag_46:\n        /* \"#utility.yul\":806:830   */\n      tag_48\n        /* \"#utility.yul\":824:829   */\n      dup2\n        /* \"#utility.yul\":806:830   */\n      tag_45\n      jump\t// in\n    tag_48:\n        /* \"#utility.yul\":801:804   */\n      dup3\n        /* \"#utility.yul\":794:831   */\n      mstore\n        /* \"#utility.yul\":784:837   */\n      pop\n      pop\n      jump\t// out\n        /* \"#utility.yul\":873:1605   */\n    tag_49:\n      0x00\n        /* \"#utility.yul\":1021:1075   */\n      tag_51\n        /* \"#utility.yul\":1069:1074   */\n      dup3\n        /* \"#utility.yul\":1021:1075   */\n      tag_52\n      jump\t// in\n    tag_51:\n        /* \"#utility.yul\":1091:1177   */\n      tag_53\n        /* \"#utility.yul\":1170:1176   */\n      dup2\n        /* \"#utility.yul\":1165:1168   */\n      dup6\n        /* \"#utility.yul\":1091:1177   */\n      tag_54\n      jump\t// in\n    tag_53:\n        /* \"#utility.yul\":1084:1177   */\n      swap4\n      pop\n        /* \"#utility.yul\":1201:1257   */\n      tag_55\n        /* \"#utility.yul\":1251:1256   */\n      dup4\n        /* \"#utility.yul\":1201:1257   */\n      tag_56\n      jump\t// in\n    tag_55:\n        /* \"#utility.yul\":1280:1287   */\n      dup1\n        /* \"#utility.yul\":1311:1312   */\n      0x00\n        /* \"#utility.yul\":1296:1580   */\n    tag_57:\n        /* \"#utility.yul\":1321:1327   */\n      dup4\n        /* \"#utility.yul\":1318:1319   */\n      dup2\n        /* \"#utility.yul\":1315:1328   */\n      lt\n        /* \"#utility.yul\":1296:1580   */\n      iszero\n      tag_59\n      jumpi\n        /* \"#utility.yul\":1397:1403   */\n      dup2\n        /* \"#utility.yul\":1391:1404   */\n      mload\n        /* \"#utility.yul\":1424:1487   */\n      tag_60\n        /* \"#utility.yul\":1483:1486   */\n      dup9\n        /* \"#utility.yul\":1468:1481   */\n      dup3\n        /* \"#utility.yul\":1424:1487   */\n      tag_39\n      jump\t// in\n    tag_60:\n        /* \"#utility.yul\":1417:1487   */\n      swap8\n      pop\n        /* \"#utility.yul\":1510:1570   */\n      tag_61\n        /* \"#utility.yul\":1563:1569   */\n      dup4\n        /* \"#utility.yul\":1510:1570   */\n      tag_62\n      jump\t// in\n    tag_61:\n        /* \"#utility.yul\":1500:1570   */\n      swap3\n      pop\n        /* \"#utility.yul\":1356:1580   */\n      pop\n        /* \"#utility.yul\":1343:1344   */\n      0x01\n        /* \"#utility.yul\":1340:1341   */\n      dup2\n        /* \"#utility.yul\":1336:1345   */\n      add\n        /* \"#utility.yul\":1331:1345   */\n      swap1\n      pop\n        /* \"#utility.yul\":1296:1580   */\n      jump(tag_57)\n    tag_59:\n        /* \"#utility.yul\":1300:1314   */\n      pop\n        /* \"#utility.yul\":1596:1599   */\n      dup6\n        /* \"#utility.yul\":1589:1599   */\n      swap4\n      pop\n        /* \"#utility.yul\":997:1605   */\n      pop\n      pop\n      pop\n      swap3\n      swap2\n      pop\n      pop\n      jump\t// out\n        /* \"#utility.yul\":1611:1729   */\n    tag_63:\n        /* \"#utility.yul\":1698:1722   */\n      tag_65\n        /* \"#utility.yul\":1716:1721   */\n      dup2\n        /* \"#utility.yul\":1698:1722   */\n      tag_66\n      jump\t// in\n    tag_65:\n        /* \"#utility.yul\":1693:1696   */\n      dup3\n        /* \"#utility.yul\":1686:1723   */\n      mstore\n        /* \"#utility.yul\":1676:1729   */\n      pop\n      pop\n      jump\t// out\n        /* \"#utility.yul\":1735:1957   */\n    tag_11:\n      0x00\n        /* \"#utility.yul\":1866:1868   */\n      0x20\n        /* \"#utility.yul\":1855:1864   */\n      dup3\n        /* \"#utility.yul\":1851:1869   */\n      add\n        /* \"#utility.yul\":1843:1869   */\n      swap1\n      pop\n        /* \"#utility.yul\":1879:1950   */\n      tag_68\n        /* \"#utility.yul\":1947:1948   */\n      0x00\n        /* \"#utility.yul\":1936:1945   */\n      dup4\n        /* \"#utility.yul\":1932:1949   */\n      add\n        /* \"#utility.yul\":1923:1929   */\n      dup5\n        /* \"#utility.yul\":1879:1950   */\n      tag_46\n      jump\t// in\n    tag_68:\n        /* \"#utility.yul\":1833:1957   */\n      swap3\n      swap2\n      pop\n      pop\n      jump\t// out\n        /* \"#utility.yul\":1963:2336   */\n    tag_18:\n      0x00\n        /* \"#utility.yul\":2144:2146   */\n      0x20\n        /* \"#utility.yul\":2133:2142   */\n      dup3\n        /* \"#utility.yul\":2129:2147   */\n      add\n        /* \"#utility.yul\":2121:2147   */\n      swap1\n      pop\n        /* \"#utility.yul\":2193:2202   */\n      dup2\n        /* \"#utility.yul\":2187:2191   */\n      dup2\n        /* \"#utility.yul\":2183:2203   */\n      sub\n        /* \"#utility.yul\":2179:2180   */\n      0x00\n        /* \"#utility.yul\":2168:2177   */\n      dup4\n        /* \"#utility.yul\":2164:2181   */\n      add\n        /* \"#utility.yul\":2157:2204   */\n      mstore\n        /* \"#utility.yul\":2221:2329   */\n      tag_70\n        /* \"#utility.yul\":2324:2328   */\n      dup2\n        /* \"#utility.yul\":2315:2321   */\n      dup5\n        /* \"#utility.yul\":2221:2329   */\n      tag_49\n      jump\t// in\n    tag_70:\n        /* \"#utility.yul\":2213:2329   */\n      swap1\n      pop\n        /* \"#utility.yul\":2111:2336   */\n      swap3\n      swap2\n      pop\n      pop\n      jump\t// out\n        /* \"#utility.yul\":2342:2674   */\n    tag_25:\n      0x00\n        /* \"#utility.yul\":2501:2503   */\n      0x40\n        /* \"#utility.yul\":2490:2499   */\n      dup3\n        /* \"#utility.yul\":2486:2504   */\n      add\n        /* \"#utility.yul\":2478:2504   */\n      swap1\n      pop\n        /* \"#utility.yul\":2514:2585   */\n      tag_72\n        /* \"#utility.yul\":2582:2583   */\n      0x00\n        /* \"#utility.yul\":2571:2580   */\n      dup4\n        /* \"#utility.yul\":2567:2584   */\n      add\n        /* \"#utility.yul\":2558:2564   */\n      dup6\n        /* \"#utility.yul\":2514:2585   */\n      tag_63\n      jump\t// in\n    tag_72:\n        /* \"#utility.yul\":2595:2667   */\n      tag_73\n        /* \"#utility.yul\":2663:2665   */\n      0x20\n        /* \"#utility.yul\":2652:2661   */\n      dup4\n        /* \"#utility.yul\":2648:2666   */\n      add\n        /* \"#utility.yul\":2639:2645   */\n      dup5\n        /* \"#utility.yul\":2595:2667   */\n      tag_46\n      jump\t// in\n    tag_73:\n        /* \"#utility.yul\":2468:2674   */\n      swap4\n      swap3\n      pop\n      pop\n      pop\n      jump\t// out\n        /* \"#utility.yul\":2680:2812   */\n    tag_56:\n      0x00\n        /* \"#utility.yul\":2770:2773   */\n      dup2\n        /* \"#utility.yul\":2762:2773   */\n      swap1\n      pop\n        /* \"#utility.yul\":2800:2804   */\n      0x20\n        /* \"#utility.yul\":2795:2798   */\n      dup3\n        /* \"#utility.yul\":2791:2805   */\n      add\n        /* \"#utility.yul\":2783:2805   */\n      swap1\n      pop\n        /* \"#utility.yul\":2752:2812   */\n      swap2\n      swap1\n      pop\n      jump\t// out\n        /* \"#utility.yul\":2818:2932   */\n    tag_52:\n      0x00\n        /* \"#utility.yul\":2919:2924   */\n      dup2\n        /* \"#utility.yul\":2913:2925   */\n      mload\n        /* \"#utility.yul\":2903:2925   */\n      swap1\n      pop\n        /* \"#utility.yul\":2892:2932   */\n      swap2\n      swap1\n      pop\n      jump\t// out\n        /* \"#utility.yul\":2938:3051   */\n    tag_62:\n      0x00\n        /* \"#utility.yul\":3040:3044   */\n      0x20\n        /* \"#utility.yul\":3035:3038   */\n      dup3\n        /* \"#utility.yul\":3031:3045   */\n      add\n        /* \"#utility.yul\":3023:3045   */\n      swap1\n      pop\n        /* \"#utility.yul\":3013:3051   */\n      swap2\n      swap1\n      pop\n      jump\t// out\n        /* \"#utility.yul\":3057:3241   */\n    tag_54:\n      0x00\n        /* \"#utility.yul\":3190:3196   */\n      dup3\n        /* \"#utility.yul\":3185:3188   */\n      dup3\n        /* \"#utility.yul\":3178:3197   */\n      mstore\n        /* \"#utility.yul\":3230:3234   */\n      0x20\n        /* \"#utility.yul\":3225:3228   */\n      dup3\n        /* \"#utility.yul\":3221:3235   */\n      add\n        /* \"#utility.yul\":3206:3235   */\n      swap1\n      pop\n        /* \"#utility.yul\":3168:3241   */\n      swap3\n      swap2\n      pop\n      pop\n      jump\t// out\n        /* \"#utility.yul\":3247:3343   */\n    tag_45:\n      0x00\n        /* \"#utility.yul\":3313:3337   */\n      tag_79\n        /* \"#utility.yul\":3331:3336   */\n      dup3\n        /* \"#utility.yul\":3313:3337   */\n      tag_80\n      jump\t// in\n    tag_79:\n        /* \"#utility.yul\":3302:3337   */\n      swap1\n      pop\n        /* \"#utility.yul\":3292:3343   */\n      swap2\n      swap1\n      pop\n      jump\t// out\n        /* \"#utility.yul\":3349:3475   */\n    tag_80:\n      0x00\n        /* \"#utility.yul\":3426:3468   */\n      0xffffffffffffffffffffffffffffffffffffffff\n        /* \"#utility.yul\":3419:3424   */\n      dup3\n        /* \"#utility.yul\":3415:3469   */\n      and\n        /* \"#utility.yul\":3404:3469   */\n      swap1\n      pop\n        /* \"#utility.yul\":3394:3475   */\n      swap2\n      swap1\n      pop\n      jump\t// out\n        /* \"#utility.yul\":3481:3558   */\n    tag_66:\n      0x00\n        /* \"#utility.yul\":3547:3552   */\n      dup2\n        /* \"#utility.yul\":3536:3552   */\n      swap1\n      pop\n        /* \"#utility.yul\":3526:3558   */\n      swap2\n      swap1\n      pop\n      jump\t// out\n        /* \"#utility.yul\":3564:3686   */\n    tag_35:\n        /* \"#utility.yul\":3637:3661   */\n      tag_84\n        /* \"#utility.yul\":3655:3660   */\n      dup2\n        /* \"#utility.yul\":3637:3661   */\n      tag_66\n      jump\t// in\n    tag_84:\n        /* \"#utility.yul\":3630:3635   */\n      dup2\n        /* \"#utility.yul\":3627:3662   */\n      eq\n        /* \"#utility.yul\":3617:3619   */\n      tag_85\n      jumpi\n        /* \"#utility.yul\":3676:3677   */\n      0x00\n        /* \"#utility.yul\":3673:3674   */\n      dup1\n        /* \"#utility.yul\":3666:3678   */\n      revert\n        /* \"#utility.yul\":3617:3619   */\n    tag_85:\n        /* \"#utility.yul\":3607:3686   */\n      pop\n      jump\t// out\n    stop\n\n    sub_0: assembly {\n            /* \"Campaign.sol\":439:3334  contract Campaign {\r... */\n          mstore(0x40, 0x80)\n            /* \"Campaign.sol\":814:936  constructor(uint256 minimum, address creator) {\r... */\n          callvalue\n          dup1\n          iszero\n          tag_1\n          jumpi\n          0x00\n          dup1\n          revert\n        tag_1:\n          pop\n          mload(0x40)\n          sub(codesize, bytecodeSize)\n          dup1\n          bytecodeSize\n          dup4\n          codecopy\n          dup2\n          dup2\n          add\n          0x40\n          mstore\n          dup2\n          add\n          swap1\n          tag_2\n          swap2\n          swap1\n          tag_3\n          jump\t// in\n        tag_2:\n            /* \"Campaign.sol\":881:888  creator */\n          dup1\n            /* \"Campaign.sol\":871:878  manager */\n          0x00\n          dup1\n            /* \"Campaign.sol\":871:888  manager = creator */\n          0x0100\n          exp\n          dup2\n          sload\n          dup2\n          0xffffffffffffffffffffffffffffffffffffffff\n          mul\n          not\n          and\n          swap1\n          dup4\n          0xffffffffffffffffffffffffffffffffffffffff\n          and\n          mul\n          or\n          swap1\n          sstore\n          pop\n            /* \"Campaign.sol\":921:928  minimum */\n          dup2\n            /* \"Campaign.sol\":899:918  minimumContribution */\n          0x05\n            /* \"Campaign.sol\":899:928  minimumContribution = minimum */\n          dup2\n          swap1\n          sstore\n          pop\n            /* \"Campaign.sol\":814:936  constructor(uint256 minimum, address creator) {\r... */\n          pop\n          pop\n            /* \"Campaign.sol\":439:3334  contract Campaign {\r... */\n          jump(tag_6)\n            /* \"#utility.yul\":7:150   */\n        tag_8:\n          0x00\n            /* \"#utility.yul\":95:101   */\n          dup2\n            /* \"#utility.yul\":89:102   */\n          mload\n            /* \"#utility.yul\":80:102   */\n          swap1\n          pop\n            /* \"#utility.yul\":111:144   */\n          tag_10\n            /* \"#utility.yul\":138:143   */\n          dup2\n            /* \"#utility.yul\":111:144   */\n          tag_11\n          jump\t// in\n        tag_10:\n            /* \"#utility.yul\":70:150   */\n          swap3\n          swap2\n          pop\n          pop\n          jump\t// out\n            /* \"#utility.yul\":156:299   */\n        tag_12:\n          0x00\n            /* \"#utility.yul\":244:250   */\n          dup2\n            /* \"#utility.yul\":238:251   */\n          mload\n            /* \"#utility.yul\":229:251   */\n          swap1\n          pop\n            /* \"#utility.yul\":260:293   */\n          tag_14\n            /* \"#utility.yul\":287:292   */\n          dup2\n            /* \"#utility.yul\":260:293   */\n          tag_15\n          jump\t// in\n        tag_14:\n            /* \"#utility.yul\":219:299   */\n          swap3\n          swap2\n          pop\n          pop\n          jump\t// out\n            /* \"#utility.yul\":305:745   */\n        tag_3:\n          0x00\n          dup1\n            /* \"#utility.yul\":441:443   */\n          0x40\n            /* \"#utility.yul\":429:438   */\n          dup4\n            /* \"#utility.yul\":420:427   */\n          dup6\n            /* \"#utility.yul\":416:439   */\n          sub\n            /* \"#utility.yul\":412:444   */\n          slt\n            /* \"#utility.yul\":409:411   */\n          iszero\n          tag_17\n          jumpi\n            /* \"#utility.yul\":457:458   */\n          0x00\n            /* \"#utility.yul\":454:455   */\n          dup1\n            /* \"#utility.yul\":447:459   */\n          revert\n            /* \"#utility.yul\":409:411   */\n        tag_17:\n            /* \"#utility.yul\":500:501   */\n          0x00\n            /* \"#utility.yul\":525:589   */\n          tag_18\n            /* \"#utility.yul\":581:588   */\n          dup6\n            /* \"#utility.yul\":572:578   */\n          dup3\n            /* \"#utility.yul\":561:570   */\n          dup7\n            /* \"#utility.yul\":557:579   */\n          add\n            /* \"#utility.yul\":525:589   */\n          tag_12\n          jump\t// in\n        tag_18:\n            /* \"#utility.yul\":515:589   */\n          swap3\n          pop\n            /* \"#utility.yul\":471:599   */\n          pop\n            /* \"#utility.yul\":638:640   */\n          0x20\n            /* \"#utility.yul\":664:728   */\n          tag_19\n            /* \"#utility.yul\":720:727   */\n          dup6\n            /* \"#utility.yul\":711:717   */\n          dup3\n            /* \"#utility.yul\":700:709   */\n          dup7\n            /* \"#utility.yul\":696:718   */\n          add\n            /* \"#utility.yul\":664:728   */\n          tag_8\n          jump\t// in\n        tag_19:\n            /* \"#utility.yul\":654:728   */\n          swap2\n          pop\n            /* \"#utility.yul\":609:738   */\n          pop\n            /* \"#utility.yul\":399:745   */\n          swap3\n          pop\n          swap3\n          swap1\n          pop\n          jump\t// out\n            /* \"#utility.yul\":751:847   */\n        tag_20:\n          0x00\n            /* \"#utility.yul\":817:841   */\n          tag_22\n            /* \"#utility.yul\":835:840   */\n          dup3\n            /* \"#utility.yul\":817:841   */\n          tag_23\n          jump\t// in\n        tag_22:\n            /* \"#utility.yul\":806:841   */\n          swap1\n          pop\n            /* \"#utility.yul\":796:847   */\n          swap2\n          swap1\n          pop\n          jump\t// out\n            /* \"#utility.yul\":853:979   */\n        tag_23:\n          0x00\n            /* \"#utility.yul\":930:972   */\n          0xffffffffffffffffffffffffffffffffffffffff\n            /* \"#utility.yul\":923:928   */\n          dup3\n            /* \"#utility.yul\":919:973   */\n          and\n            /* \"#utility.yul\":908:973   */\n          swap1\n          pop\n            /* \"#utility.yul\":898:979   */\n          swap2\n          swap1\n          pop\n          jump\t// out\n            /* \"#utility.yul\":985:1062   */\n        tag_25:\n          0x00\n            /* \"#utility.yul\":1051:1056   */\n          dup2\n            /* \"#utility.yul\":1040:1056   */\n          swap1\n          pop\n            /* \"#utility.yul\":1030:1062   */\n          swap2\n          swap1\n          pop\n          jump\t// out\n            /* \"#utility.yul\":1068:1190   */\n        tag_11:\n            /* \"#utility.yul\":1141:1165   */\n          tag_28\n            /* \"#utility.yul\":1159:1164   */\n          dup2\n            /* \"#utility.yul\":1141:1165   */\n          tag_20\n          jump\t// in\n        tag_28:\n            /* \"#utility.yul\":1134:1139   */\n          dup2\n            /* \"#utility.yul\":1131:1166   */\n          eq\n            /* \"#utility.yul\":1121:1123   */\n          tag_29\n          jumpi\n            /* \"#utility.yul\":1180:1181   */\n          0x00\n            /* \"#utility.yul\":1177:1178   */\n          dup1\n            /* \"#utility.yul\":1170:1182   */\n          revert\n            /* \"#utility.yul\":1121:1123   */\n        tag_29:\n            /* \"#utility.yul\":1111:1190   */\n          pop\n          jump\t// out\n            /* \"#utility.yul\":1196:1318   */\n        tag_15:\n            /* \"#utility.yul\":1269:1293   */\n          tag_31\n            /* \"#utility.yul\":1287:1292   */\n          dup2\n            /* \"#utility.yul\":1269:1293   */\n          tag_25\n          jump\t// in\n        tag_31:\n            /* \"#utility.yul\":1262:1267   */\n          dup2\n            /* \"#utility.yul\":1259:1294   */\n          eq\n            /* \"#utility.yul\":1249:1251   */\n          tag_32\n          jumpi\n            /* \"#utility.yul\":1308:1309   */\n          0x00\n            /* \"#utility.yul\":1305:1306   */\n          dup1\n            /* \"#utility.yul\":1298:1310   */\n          revert\n            /* \"#utility.yul\":1249:1251   */\n        tag_32:\n            /* \"#utility.yul\":1239:1318   */\n          pop\n          jump\t// out\n            /* \"Campaign.sol\":439:3334  contract Campaign {\r... */\n        tag_6:\n          dataSize(sub_0)\n          dup1\n          dataOffset(sub_0)\n          0x00\n          codecopy\n          0x00\n          return\n        stop\n\n        sub_0: assembly {\n                /* \"Campaign.sol\":439:3334  contract Campaign {\r... */\n              mstore(0x40, 0x80)\n              jumpi(tag_1, lt(calldatasize, 0x04))\n              shr(0xe0, calldataload(0x00))\n              dup1\n              0x81d12c58\n              gt\n              tag_13\n              jumpi\n              dup1\n              0x81d12c58\n              eq\n              tag_7\n              jumpi\n              dup1\n              0x82fde093\n              eq\n              tag_8\n              jumpi\n              dup1\n              0x8a9cfd55\n              eq\n              tag_9\n              jumpi\n              dup1\n              0x937e09b1\n              eq\n              tag_10\n              jumpi\n              dup1\n              0xd7bb99ba\n              eq\n              tag_11\n              jumpi\n              dup1\n              0xd7d1bbdb\n              eq\n              tag_12\n              jumpi\n              jump(tag_1)\n            tag_13:\n              dup1\n              0x03441006\n              eq\n              tag_2\n              jumpi\n              dup1\n              0x0a144391\n              eq\n              tag_3\n              jumpi\n              dup1\n              0x3410452a\n              eq\n              tag_4\n              jumpi\n              dup1\n              0x4051ddac\n              eq\n              tag_5\n              jumpi\n              dup1\n              0x481c6a75\n              eq\n              tag_6\n              jumpi\n            tag_1:\n              0x00\n              dup1\n              revert\n                /* \"Campaign.sol\":2168:2617  function finalizeRequest(uint256 id) public onlyManager {\r... */\n            tag_2:\n              callvalue\n              dup1\n              iszero\n              tag_14\n              jumpi\n              0x00\n              dup1\n              revert\n            tag_14:\n              pop\n              tag_15\n              0x04\n              dup1\n              calldatasize\n              sub\n              dup2\n              add\n              swap1\n              tag_16\n              swap2\n              swap1\n              tag_17\n              jump\t// in\n            tag_16:\n              tag_18\n              jump\t// in\n            tag_15:\n              stop\n                /* \"Campaign.sol\":493:534  mapping(address => bool) public approvers */\n            tag_3:\n              callvalue\n              dup1\n              iszero\n              tag_19\n              jumpi\n              0x00\n              dup1\n              revert\n            tag_19:\n              pop\n              tag_20\n              0x04\n              dup1\n              calldatasize\n              sub\n              dup2\n              add\n              swap1\n              tag_21\n              swap2\n              swap1\n              tag_22\n              jump\t// in\n            tag_21:\n              tag_23\n              jump\t// in\n            tag_20:\n              mload(0x40)\n              tag_24\n              swap2\n              swap1\n              tag_25\n              jump\t// in\n            tag_24:\n              mload(0x40)\n              dup1\n              swap2\n              sub\n              swap1\n              return\n                /* \"Campaign.sol\":3013:3108  function getRequestsCount() public view returns (uint256) {\r... */\n            tag_4:\n              callvalue\n              dup1\n              iszero\n              tag_26\n              jumpi\n              0x00\n              dup1\n              revert\n            tag_26:\n              pop\n              tag_27\n              tag_28\n              jump\t// in\n            tag_27:\n              mload(0x40)\n              tag_29\n              swap2\n              swap1\n              tag_30\n              jump\t// in\n            tag_29:\n              mload(0x40)\n              dup1\n              swap2\n              sub\n              swap1\n              return\n                /* \"Campaign.sol\":2625:3005  function getSummary()\r... */\n            tag_5:\n              callvalue\n              dup1\n              iszero\n              tag_31\n              jumpi\n              0x00\n              dup1\n              revert\n            tag_31:\n              pop\n              tag_32\n              tag_33\n              jump\t// in\n            tag_32:\n              mload(0x40)\n              tag_34\n              swap6\n              swap5\n              swap4\n              swap3\n              swap2\n              swap1\n              tag_35\n              jump\t// in\n            tag_34:\n              mload(0x40)\n              dup1\n              swap2\n              sub\n              swap1\n              return\n                /* \"Campaign.sol\":464:486  address public manager */\n            tag_6:\n              callvalue\n              dup1\n              iszero\n              tag_36\n              jumpi\n              0x00\n              dup1\n              revert\n            tag_36:\n              pop\n              tag_37\n              tag_38\n              jump\t// in\n            tag_37:\n              mload(0x40)\n              tag_39\n              swap2\n              swap1\n              tag_40\n              jump\t// in\n            tag_39:\n              mload(0x40)\n              dup1\n              swap2\n              sub\n              swap1\n              return\n                /* \"Campaign.sol\":603:646  mapping(uint256 => Request) public requests */\n            tag_7:\n              callvalue\n              dup1\n              iszero\n              tag_41\n              jumpi\n              0x00\n              dup1\n              revert\n            tag_41:\n              pop\n              tag_42\n              0x04\n              dup1\n              calldatasize\n              sub\n              dup2\n              add\n              swap1\n              tag_43\n              swap2\n              swap1\n              tag_17\n              jump\t// in\n            tag_43:\n              tag_44\n              jump\t// in\n            tag_42:\n              mload(0x40)\n              tag_45\n              swap6\n              swap5\n              swap4\n              swap3\n              swap2\n              swap1\n              tag_46\n              jump\t// in\n            tag_45:\n              mload(0x40)\n              dup1\n              swap2\n              sub\n              swap1\n              return\n                /* \"Campaign.sol\":541:570  uint256 public approversCount */\n            tag_8:\n              callvalue\n              dup1\n              iszero\n              tag_47\n              jumpi\n              0x00\n              dup1\n              revert\n            tag_47:\n              pop\n              tag_48\n              tag_49\n              jump\t// in\n            tag_48:\n              mload(0x40)\n              tag_50\n              swap2\n              swap1\n              tag_30\n              jump\t// in\n            tag_50:\n              mload(0x40)\n              dup1\n              swap2\n              sub\n              swap1\n              return\n                /* \"Campaign.sol\":1288:1768  function createRequest(\r... */\n            tag_9:\n              callvalue\n              dup1\n              iszero\n              tag_51\n              jumpi\n              0x00\n              dup1\n              revert\n            tag_51:\n              pop\n              tag_52\n              0x04\n              dup1\n              calldatasize\n              sub\n              dup2\n              add\n              swap1\n              tag_53\n              swap2\n              swap1\n              tag_54\n              jump\t// in\n            tag_53:\n              tag_55\n              jump\t// in\n            tag_52:\n              mload(0x40)\n              tag_56\n              swap2\n              swap1\n              tag_30\n              jump\t// in\n            tag_56:\n              mload(0x40)\n              dup1\n              swap2\n              sub\n              swap1\n              return\n                /* \"Campaign.sol\":655:689  uint256 public minimumContribution */\n            tag_10:\n              callvalue\n              dup1\n              iszero\n              tag_57\n              jumpi\n              0x00\n              dup1\n              revert\n            tag_57:\n              pop\n              tag_58\n              tag_59\n              jump\t// in\n            tag_58:\n              mload(0x40)\n              tag_60\n              swap2\n              swap1\n              tag_30\n              jump\t// in\n            tag_60:\n              mload(0x40)\n              dup1\n              swap2\n              sub\n              swap1\n              return\n                /* \"Campaign.sol\":944:1280  function contribute() public payable {\r... */\n            tag_11:\n              tag_61\n              tag_62\n              jump\t// in\n            tag_61:\n              stop\n                /* \"Campaign.sol\":1776:2160  function approveRequest(uint256 id) public {\r... */\n            tag_12:\n              callvalue\n              dup1\n              iszero\n              tag_63\n              jumpi\n              0x00\n              dup1\n              revert\n            tag_63:\n              pop\n              tag_64\n              0x04\n              dup1\n              calldatasize\n              sub\n              dup2\n              add\n              swap1\n              tag_65\n              swap2\n              swap1\n              tag_17\n              jump\t// in\n            tag_65:\n              tag_66\n              jump\t// in\n            tag_64:\n              stop\n                /* \"Campaign.sol\":2168:2617  function finalizeRequest(uint256 id) public onlyManager {\r... */\n            tag_18:\n                /* \"Campaign.sol\":752:759  manager */\n              0x00\n              dup1\n              sload\n              swap1\n              0x0100\n              exp\n              swap1\n              div\n              0xffffffffffffffffffffffffffffffffffffffff\n              and\n                /* \"Campaign.sol\":738:759  msg.sender == manager */\n              0xffffffffffffffffffffffffffffffffffffffff\n              and\n                /* \"Campaign.sol\":738:748  msg.sender */\n              caller\n                /* \"Campaign.sol\":738:759  msg.sender == manager */\n              0xffffffffffffffffffffffffffffffffffffffff\n              and\n              eq\n                /* \"Campaign.sol\":730:786  require(msg.sender == manager, \"Only managers allowed!\") */\n              tag_68\n              jumpi\n              mload(0x40)\n              0x08c379a000000000000000000000000000000000000000000000000000000000\n              dup2\n              mstore\n              0x04\n              add\n              tag_69\n              swap1\n              tag_70\n              jump\t// in\n            tag_69:\n              mload(0x40)\n              dup1\n              swap2\n              sub\n              swap1\n              revert\n            tag_68:\n                /* \"Campaign.sol\":2235:2258  Request storage request */\n              0x00\n                /* \"Campaign.sol\":2261:2269  requests */\n              0x04\n                /* \"Campaign.sol\":2261:2273  requests[id] */\n              0x00\n                /* \"Campaign.sol\":2270:2272  id */\n              dup4\n                /* \"Campaign.sol\":2261:2273  requests[id] */\n              dup2\n              mstore\n              0x20\n              add\n              swap1\n              dup2\n              mstore\n              0x20\n              add\n              0x00\n              keccak256\n                /* \"Campaign.sol\":2235:2273  Request storage request = requests[id] */\n              swap1\n              pop\n                /* \"Campaign.sol\":2349:2350  2 */\n              0x02\n                /* \"Campaign.sol\":2332:2346  approversCount */\n              dup1\n              sload\n                /* \"Campaign.sol\":2332:2350  approversCount / 2 */\n              tag_72\n              swap2\n              swap1\n              tag_73\n              jump\t// in\n            tag_72:\n                /* \"Campaign.sol\":2308:2315  request */\n              dup2\n                /* \"Campaign.sol\":2308:2329  request.approvalCount */\n              0x03\n              add\n              sload\n                /* \"Campaign.sol\":2308:2350  request.approvalCount > approversCount / 2 */\n              gt\n                /* \"Campaign.sol\":2286:2401  require(\r... */\n              tag_74\n              jumpi\n              mload(0x40)\n              0x08c379a000000000000000000000000000000000000000000000000000000000\n              dup2\n              mstore\n              0x04\n              add\n              tag_75\n              swap1\n              tag_76\n              jump\t// in\n            tag_75:\n              mload(0x40)\n              dup1\n              swap2\n              sub\n              swap1\n              revert\n            tag_74:\n                /* \"Campaign.sol\":2435:2442  request */\n              dup1\n                /* \"Campaign.sol\":2435:2453  request.isComplete */\n              0x02\n              add\n              0x14\n              swap1\n              sload\n              swap1\n              0x0100\n              exp\n              swap1\n              div\n              0xff\n              and\n                /* \"Campaign.sol\":2434:2453  !request.isComplete */\n              iszero\n                /* \"Campaign.sol\":2412:2521  require(\r... */\n              tag_77\n              jumpi\n              mload(0x40)\n              0x08c379a000000000000000000000000000000000000000000000000000000000\n              dup2\n              mstore\n              0x04\n              add\n              tag_78\n              swap1\n              tag_79\n              jump\t// in\n            tag_78:\n              mload(0x40)\n              dup1\n              swap2\n              sub\n              swap1\n              revert\n            tag_77:\n                /* \"Campaign.sol\":2553:2557  true */\n              0x01\n                /* \"Campaign.sol\":2532:2539  request */\n              dup2\n                /* \"Campaign.sol\":2532:2550  request.isComplete */\n              0x02\n              add\n              0x14\n                /* \"Campaign.sol\":2532:2557  request.isComplete = true */\n              0x0100\n              exp\n              dup2\n              sload\n              dup2\n              0xff\n              mul\n              not\n              and\n              swap1\n              dup4\n              iszero\n              iszero\n              mul\n              or\n              swap1\n              sstore\n              pop\n                /* \"Campaign.sol\":2568:2575  request */\n              dup1\n                /* \"Campaign.sol\":2568:2585  request.recipient */\n              0x02\n              add\n              0x00\n              swap1\n              sload\n              swap1\n              0x0100\n              exp\n              swap1\n              div\n              0xffffffffffffffffffffffffffffffffffffffff\n              and\n                /* \"Campaign.sol\":2568:2594  request.recipient.transfer */\n              0xffffffffffffffffffffffffffffffffffffffff\n              and\n                /* \"Campaign.sol\":2568:2609  request.recipient.transfer(request.value) */\n              0x08fc\n                /* \"Campaign.sol\":2595:2602  request */\n              dup3\n                /* \"Campaign.sol\":2595:2608  request.value */\n              0x01\n              add\n              sload\n                /* \"Campaign.sol\":2568:2609  request.recipient.transfer(request.value) */\n              swap1\n              dup2\n              iszero\n              mul\n              swap1\n              mload(0x40)\n              0x00\n              mload(0x40)\n              dup1\n              dup4\n              sub\n              dup2\n              dup6\n              dup9\n              dup9\n              call\n              swap4\n              pop\n              pop\n              pop\n              pop\n              iszero\n              dup1\n              iszero\n              tag_81\n              jumpi\n              returndatasize\n              0x00\n              dup1\n              returndatacopy\n              revert(0x00, returndatasize)\n            tag_81:\n              pop\n                /* \"Campaign.sol\":797:798  _ */\n              pop\n                /* \"Campaign.sol\":2168:2617  function finalizeRequest(uint256 id) public onlyManager {\r... */\n              pop\n              jump\t// out\n                /* \"Campaign.sol\":493:534  mapping(address => bool) public approvers */\n            tag_23:\n              mstore(0x20, 0x01)\n              dup1\n              0x00\n              mstore\n              keccak256(0x00, 0x40)\n              0x00\n              swap2\n              pop\n              sload\n              swap1\n              0x0100\n              exp\n              swap1\n              div\n              0xff\n              and\n              dup2\n              jump\t// out\n                /* \"Campaign.sol\":3013:3108  function getRequestsCount() public view returns (uint256) {\r... */\n            tag_28:\n                /* \"Campaign.sol\":3062:3069  uint256 */\n              0x00\n                /* \"Campaign.sol\":3089:3100  numRequests */\n              sload(0x03)\n                /* \"Campaign.sol\":3082:3100  return numRequests */\n              swap1\n              pop\n                /* \"Campaign.sol\":3013:3108  function getRequestsCount() public view returns (uint256) {\r... */\n              swap1\n              jump\t// out\n                /* \"Campaign.sol\":2625:3005  function getSummary()\r... */\n            tag_33:\n                /* \"Campaign.sol\":2709:2716  uint256 */\n              0x00\n                /* \"Campaign.sol\":2731:2738  uint256 */\n              dup1\n                /* \"Campaign.sol\":2753:2760  uint256 */\n              0x00\n                /* \"Campaign.sol\":2775:2782  uint256 */\n              dup1\n                /* \"Campaign.sol\":2797:2804  address */\n              0x00\n                /* \"Campaign.sol\":2854:2873  minimumContribution */\n              sload(0x05)\n                /* \"Campaign.sol\":2888:2909  address(this).balance */\n              selfbalance\n                /* \"Campaign.sol\":2924:2935  numRequests */\n              sload(0x03)\n                /* \"Campaign.sol\":2950:2964  approversCount */\n              sload(0x02)\n                /* \"Campaign.sol\":2979:2986  manager */\n              0x00\n              dup1\n              sload\n              swap1\n              0x0100\n              exp\n              swap1\n              div\n              0xffffffffffffffffffffffffffffffffffffffff\n              and\n                /* \"Campaign.sol\":2832:2997  return (\r... */\n              swap5\n              pop\n              swap5\n              pop\n              swap5\n              pop\n              swap5\n              pop\n              swap5\n              pop\n                /* \"Campaign.sol\":2625:3005  function getSummary()\r... */\n              swap1\n              swap2\n              swap3\n              swap4\n              swap5\n              jump\t// out\n                /* \"Campaign.sol\":464:486  address public manager */\n            tag_38:\n              0x00\n              dup1\n              sload\n              swap1\n              0x0100\n              exp\n              swap1\n              div\n              0xffffffffffffffffffffffffffffffffffffffff\n              and\n              dup2\n              jump\t// out\n                /* \"Campaign.sol\":603:646  mapping(uint256 => Request) public requests */\n            tag_44:\n              mstore(0x20, 0x04)\n              dup1\n              0x00\n              mstore\n              keccak256(0x00, 0x40)\n              0x00\n              swap2\n              pop\n              swap1\n              pop\n              dup1\n              0x00\n              add\n              dup1\n              sload\n              tag_84\n              swap1\n              tag_85\n              jump\t// in\n            tag_84:\n              dup1\n              0x1f\n              add\n              0x20\n              dup1\n              swap2\n              div\n              mul\n              0x20\n              add\n              mload(0x40)\n              swap1\n              dup2\n              add\n              0x40\n              mstore\n              dup1\n              swap3\n              swap2\n              swap1\n              dup2\n              dup2\n              mstore\n              0x20\n              add\n              dup3\n              dup1\n              sload\n              tag_86\n              swap1\n              tag_85\n              jump\t// in\n            tag_86:\n              dup1\n              iszero\n              tag_87\n              jumpi\n              dup1\n              0x1f\n              lt\n              tag_88\n              jumpi\n              0x0100\n              dup1\n              dup4\n              sload\n              div\n              mul\n              dup4\n              mstore\n              swap2\n              0x20\n              add\n              swap2\n              jump(tag_87)\n            tag_88:\n              dup3\n              add\n              swap2\n              swap1\n              0x00\n              mstore\n              keccak256(0x00, 0x20)\n              swap1\n            tag_89:\n              dup2\n              sload\n              dup2\n              mstore\n              swap1\n              0x01\n              add\n              swap1\n              0x20\n              add\n              dup1\n              dup4\n              gt\n              tag_89\n              jumpi\n              dup3\n              swap1\n              sub\n              0x1f\n              and\n              dup3\n              add\n              swap2\n            tag_87:\n              pop\n              pop\n              pop\n              pop\n              pop\n              swap1\n              dup1\n              0x01\n              add\n              sload\n              swap1\n              dup1\n              0x02\n              add\n              0x00\n              swap1\n              sload\n              swap1\n              0x0100\n              exp\n              swap1\n              div\n              0xffffffffffffffffffffffffffffffffffffffff\n              and\n              swap1\n              dup1\n              0x02\n              add\n              0x14\n              swap1\n              sload\n              swap1\n              0x0100\n              exp\n              swap1\n              div\n              0xff\n              and\n              swap1\n              dup1\n              0x03\n              add\n              sload\n              swap1\n              pop\n              dup6\n              jump\t// out\n                /* \"Campaign.sol\":541:570  uint256 public approversCount */\n            tag_49:\n              sload(0x02)\n              dup2\n              jump\t// out\n                /* \"Campaign.sol\":1288:1768  function createRequest(\r... */\n            tag_55:\n                /* \"Campaign.sol\":1442:1459  uint256 requestId */\n              0x00\n                /* \"Campaign.sol\":752:759  manager */\n              dup1\n              0x00\n              swap1\n              sload\n              swap1\n              0x0100\n              exp\n              swap1\n              div\n              0xffffffffffffffffffffffffffffffffffffffff\n              and\n                /* \"Campaign.sol\":738:759  msg.sender == manager */\n              0xffffffffffffffffffffffffffffffffffffffff\n              and\n                /* \"Campaign.sol\":738:748  msg.sender */\n              caller\n                /* \"Campaign.sol\":738:759  msg.sender == manager */\n              0xffffffffffffffffffffffffffffffffffffffff\n              and\n              eq\n                /* \"Campaign.sol\":730:786  require(msg.sender == manager, \"Only managers allowed!\") */\n              tag_91\n              jumpi\n              mload(0x40)\n              0x08c379a000000000000000000000000000000000000000000000000000000000\n              dup2\n              mstore\n              0x04\n              add\n              tag_92\n              swap1\n              tag_70\n              jump\t// in\n            tag_92:\n              mload(0x40)\n              dup1\n              swap2\n              sub\n              swap1\n              revert\n            tag_91:\n                /* \"Campaign.sol\":1484:1495  numRequests */\n              0x03\n              0x00\n                /* \"Campaign.sol\":1484:1497  numRequests++ */\n              dup2\n              sload\n              dup1\n              swap3\n              swap2\n              swap1\n              tag_94\n              swap1\n              tag_95\n              jump\t// in\n            tag_94:\n              swap2\n              swap1\n              pop\n              sstore\n                /* \"Campaign.sol\":1472:1497  requestId = numRequests++ */\n              swap1\n              pop\n                /* \"Campaign.sol\":1508:1534  Request storage newRequest */\n              0x00\n                /* \"Campaign.sol\":1537:1545  requests */\n              0x04\n                /* \"Campaign.sol\":1537:1556  requests[requestId] */\n              0x00\n                /* \"Campaign.sol\":1546:1555  requestId */\n              dup4\n                /* \"Campaign.sol\":1537:1556  requests[requestId] */\n              dup2\n              mstore\n              0x20\n              add\n              swap1\n              dup2\n              mstore\n              0x20\n              add\n              0x00\n              keccak256\n                /* \"Campaign.sol\":1508:1556  Request storage newRequest = requests[requestId] */\n              swap1\n              pop\n                /* \"Campaign.sol\":1592:1603  description */\n              dup5\n                /* \"Campaign.sol\":1567:1577  newRequest */\n              dup2\n                /* \"Campaign.sol\":1567:1589  newRequest.description */\n              0x00\n              add\n                /* \"Campaign.sol\":1567:1603  newRequest.description = description */\n              swap1\n              dup1\n              mload\n              swap1\n              0x20\n              add\n              swap1\n              tag_96\n              swap3\n              swap2\n              swap1\n              tag_97\n              jump\t// in\n            tag_96:\n              pop\n                /* \"Campaign.sol\":1633:1638  value */\n              dup4\n                /* \"Campaign.sol\":1614:1624  newRequest */\n              dup2\n                /* \"Campaign.sol\":1614:1630  newRequest.value */\n              0x01\n              add\n                /* \"Campaign.sol\":1614:1638  newRequest.value = value */\n              dup2\n              swap1\n              sstore\n              pop\n                /* \"Campaign.sol\":1672:1681  recipient */\n              dup3\n                /* \"Campaign.sol\":1649:1659  newRequest */\n              dup2\n                /* \"Campaign.sol\":1649:1669  newRequest.recipient */\n              0x02\n              add\n              0x00\n                /* \"Campaign.sol\":1649:1681  newRequest.recipient = recipient */\n              0x0100\n              exp\n              dup2\n              sload\n              dup2\n              0xffffffffffffffffffffffffffffffffffffffff\n              mul\n              not\n              and\n              swap1\n              dup4\n              0xffffffffffffffffffffffffffffffffffffffff\n              and\n              mul\n              or\n              swap1\n              sstore\n              pop\n                /* \"Campaign.sol\":1716:1721  false */\n              0x00\n                /* \"Campaign.sol\":1692:1702  newRequest */\n              dup2\n                /* \"Campaign.sol\":1692:1713  newRequest.isComplete */\n              0x02\n              add\n              0x14\n                /* \"Campaign.sol\":1692:1721  newRequest.isComplete = false */\n              0x0100\n              exp\n              dup2\n              sload\n              dup2\n              0xff\n              mul\n              not\n              and\n              swap1\n              dup4\n              iszero\n              iszero\n              mul\n              or\n              swap1\n              sstore\n              pop\n                /* \"Campaign.sol\":1759:1760  0 */\n              0x00\n                /* \"Campaign.sol\":1732:1742  newRequest */\n              dup2\n                /* \"Campaign.sol\":1732:1756  newRequest.approvalCount */\n              0x03\n              add\n                /* \"Campaign.sol\":1732:1760  newRequest.approvalCount = 0 */\n              dup2\n              swap1\n              sstore\n              pop\n                /* \"Campaign.sol\":797:798  _ */\n              pop\n                /* \"Campaign.sol\":1288:1768  function createRequest(\r... */\n              swap4\n              swap3\n              pop\n              pop\n              pop\n              jump\t// out\n                /* \"Campaign.sol\":655:689  uint256 public minimumContribution */\n            tag_59:\n              sload(0x05)\n              dup2\n              jump\t// out\n                /* \"Campaign.sol\":944:1280  function contribute() public payable {\r... */\n            tag_62:\n                /* \"Campaign.sol\":1026:1045  minimumContribution */\n              sload(0x05)\n                /* \"Campaign.sol\":1014:1023  msg.value */\n              callvalue\n                /* \"Campaign.sol\":1014:1045  msg.value > minimumContribution */\n              gt\n                /* \"Campaign.sol\":992:1129  require(\r... */\n              tag_99\n              jumpi\n              mload(0x40)\n              0x08c379a000000000000000000000000000000000000000000000000000000000\n              dup2\n              mstore\n              0x04\n              add\n              tag_100\n              swap1\n              tag_101\n              jump\t// in\n            tag_100:\n              mload(0x40)\n              dup1\n              swap2\n              sub\n              swap1\n              revert\n            tag_99:\n                /* \"Campaign.sol\":1149:1158  approvers */\n              0x01\n                /* \"Campaign.sol\":1149:1170  approvers[msg.sender] */\n              0x00\n                /* \"Campaign.sol\":1159:1169  msg.sender */\n              caller\n                /* \"Campaign.sol\":1149:1170  approvers[msg.sender] */\n              0xffffffffffffffffffffffffffffffffffffffff\n              and\n              0xffffffffffffffffffffffffffffffffffffffff\n              and\n              dup2\n              mstore\n              0x20\n              add\n              swap1\n              dup2\n              mstore\n              0x20\n              add\n              0x00\n              keccak256\n              0x00\n              swap1\n              sload\n              swap1\n              0x0100\n              exp\n              swap1\n              div\n              0xff\n              and\n                /* \"Campaign.sol\":1148:1170  !approvers[msg.sender] */\n              iszero\n                /* \"Campaign.sol\":1140:1204  require(!approvers[msg.sender], \"You can contribute only once!\") */\n              tag_102\n              jumpi\n              mload(0x40)\n              0x08c379a000000000000000000000000000000000000000000000000000000000\n              dup2\n              mstore\n              0x04\n              add\n              tag_103\n              swap1\n              tag_104\n              jump\t// in\n            tag_103:\n              mload(0x40)\n              dup1\n              swap2\n              sub\n              swap1\n              revert\n            tag_102:\n                /* \"Campaign.sol\":1241:1245  true */\n              0x01\n                /* \"Campaign.sol\":1217:1226  approvers */\n              dup1\n                /* \"Campaign.sol\":1217:1238  approvers[msg.sender] */\n              0x00\n                /* \"Campaign.sol\":1227:1237  msg.sender */\n              caller\n                /* \"Campaign.sol\":1217:1238  approvers[msg.sender] */\n              0xffffffffffffffffffffffffffffffffffffffff\n              and\n              0xffffffffffffffffffffffffffffffffffffffff\n              and\n              dup2\n              mstore\n              0x20\n              add\n              swap1\n              dup2\n              mstore\n              0x20\n              add\n              0x00\n              keccak256\n              0x00\n                /* \"Campaign.sol\":1217:1245  approvers[msg.sender] = true */\n              0x0100\n              exp\n              dup2\n              sload\n              dup2\n              0xff\n              mul\n              not\n              and\n              swap1\n              dup4\n              iszero\n              iszero\n              mul\n              or\n              swap1\n              sstore\n              pop\n                /* \"Campaign.sol\":1256:1270  approversCount */\n              0x02\n              0x00\n                /* \"Campaign.sol\":1256:1272  approversCount++ */\n              dup2\n              sload\n              dup1\n              swap3\n              swap2\n              swap1\n              tag_105\n              swap1\n              tag_95\n              jump\t// in\n            tag_105:\n              swap2\n              swap1\n              pop\n              sstore\n              pop\n                /* \"Campaign.sol\":944:1280  function contribute() public payable {\r... */\n              jump\t// out\n                /* \"Campaign.sol\":1776:2160  function approveRequest(uint256 id) public {\r... */\n            tag_66:\n                /* \"Campaign.sol\":1830:1853  Request storage request */\n              0x00\n                /* \"Campaign.sol\":1856:1864  requests */\n              0x04\n                /* \"Campaign.sol\":1856:1868  requests[id] */\n              0x00\n                /* \"Campaign.sol\":1865:1867  id */\n              dup4\n                /* \"Campaign.sol\":1856:1868  requests[id] */\n              dup2\n              mstore\n              0x20\n              add\n              swap1\n              dup2\n              mstore\n              0x20\n              add\n              0x00\n              keccak256\n                /* \"Campaign.sol\":1830:1868  Request storage request = requests[id] */\n              swap1\n              pop\n                /* \"Campaign.sol\":1889:1898  approvers */\n              0x01\n                /* \"Campaign.sol\":1889:1910  approvers[msg.sender] */\n              0x00\n                /* \"Campaign.sol\":1899:1909  msg.sender */\n              caller\n                /* \"Campaign.sol\":1889:1910  approvers[msg.sender] */\n              0xffffffffffffffffffffffffffffffffffffffff\n              and\n              0xffffffffffffffffffffffffffffffffffffffff\n              and\n              dup2\n              mstore\n              0x20\n              add\n              swap1\n              dup2\n              mstore\n              0x20\n              add\n              0x00\n              keccak256\n              0x00\n              swap1\n              sload\n              swap1\n              0x0100\n              exp\n              swap1\n              div\n              0xff\n              and\n                /* \"Campaign.sol\":1881:1944  require(approvers[msg.sender], \"You need to contribute first!\") */\n              tag_107\n              jumpi\n              mload(0x40)\n              0x08c379a000000000000000000000000000000000000000000000000000000000\n              dup2\n              mstore\n              0x04\n              add\n              tag_108\n              swap1\n              tag_109\n              jump\t// in\n            tag_108:\n              mload(0x40)\n              dup1\n              swap2\n              sub\n              swap1\n              revert\n            tag_107:\n                /* \"Campaign.sol\":1978:1985  request */\n              dup1\n                /* \"Campaign.sol\":1978:1995  request.approvals */\n              0x04\n              add\n                /* \"Campaign.sol\":1978:2007  request.approvals[msg.sender] */\n              0x00\n                /* \"Campaign.sol\":1996:2006  msg.sender */\n              caller\n                /* \"Campaign.sol\":1978:2007  request.approvals[msg.sender] */\n              0xffffffffffffffffffffffffffffffffffffffff\n              and\n              0xffffffffffffffffffffffffffffffffffffffff\n              and\n              dup2\n              mstore\n              0x20\n              add\n              swap1\n              dup2\n              mstore\n              0x20\n              add\n              0x00\n              keccak256\n              0x00\n              swap1\n              sload\n              swap1\n              0x0100\n              exp\n              swap1\n              div\n              0xff\n              and\n                /* \"Campaign.sol\":1977:2007  !request.approvals[msg.sender] */\n              iszero\n                /* \"Campaign.sol\":1955:2069  require(\r... */\n              tag_110\n              jumpi\n              mload(0x40)\n              0x08c379a000000000000000000000000000000000000000000000000000000000\n              dup2\n              mstore\n              0x04\n              add\n              tag_111\n              swap1\n              tag_112\n              jump\t// in\n            tag_111:\n              mload(0x40)\n              dup1\n              swap2\n              sub\n              swap1\n              revert\n            tag_110:\n                /* \"Campaign.sol\":2114:2118  true */\n              0x01\n                /* \"Campaign.sol\":2082:2089  request */\n              dup2\n                /* \"Campaign.sol\":2082:2099  request.approvals */\n              0x04\n              add\n                /* \"Campaign.sol\":2082:2111  request.approvals[msg.sender] */\n              0x00\n                /* \"Campaign.sol\":2100:2110  msg.sender */\n              caller\n                /* \"Campaign.sol\":2082:2111  request.approvals[msg.sender] */\n              0xffffffffffffffffffffffffffffffffffffffff\n              and\n              0xffffffffffffffffffffffffffffffffffffffff\n              and\n              dup2\n              mstore\n              0x20\n              add\n              swap1\n              dup2\n              mstore\n              0x20\n              add\n              0x00\n              keccak256\n              0x00\n                /* \"Campaign.sol\":2082:2118  request.approvals[msg.sender] = true */\n              0x0100\n              exp\n              dup2\n              sload\n              dup2\n              0xff\n              mul\n              not\n              and\n              swap1\n              dup4\n              iszero\n              iszero\n              mul\n              or\n              swap1\n              sstore\n              pop\n                /* \"Campaign.sol\":2129:2136  request */\n              dup1\n                /* \"Campaign.sol\":2129:2150  request.approvalCount */\n              0x03\n              add\n              0x00\n                /* \"Campaign.sol\":2129:2152  request.approvalCount++ */\n              dup2\n              sload\n              dup1\n              swap3\n              swap2\n              swap1\n              tag_113\n              swap1\n              tag_95\n              jump\t// in\n            tag_113:\n              swap2\n              swap1\n              pop\n              sstore\n              pop\n                /* \"Campaign.sol\":1776:2160  function approveRequest(uint256 id) public {\r... */\n              pop\n              pop\n              jump\t// out\n            tag_97:\n              dup3\n              dup1\n              sload\n              tag_114\n              swap1\n              tag_85\n              jump\t// in\n            tag_114:\n              swap1\n              0x00\n              mstore\n              keccak256(0x00, 0x20)\n              swap1\n              0x1f\n              add\n              0x20\n              swap1\n              div\n              dup2\n              add\n              swap3\n              dup3\n              tag_116\n              jumpi\n              0x00\n              dup6\n              sstore\n              jump(tag_115)\n            tag_116:\n              dup3\n              0x1f\n              lt\n              tag_117\n              jumpi\n              dup1\n              mload\n              not(0xff)\n              and\n              dup4\n              dup1\n              add\n              or\n              dup6\n              sstore\n              jump(tag_115)\n            tag_117:\n              dup3\n              dup1\n              add\n              0x01\n              add\n              dup6\n              sstore\n              dup3\n              iszero\n              tag_115\n              jumpi\n              swap2\n              dup3\n              add\n            tag_118:\n              dup3\n              dup2\n              gt\n              iszero\n              tag_119\n              jumpi\n              dup3\n              mload\n              dup3\n              sstore\n              swap2\n              0x20\n              add\n              swap2\n              swap1\n              0x01\n              add\n              swap1\n              jump(tag_118)\n            tag_119:\n            tag_115:\n              pop\n              swap1\n              pop\n              tag_120\n              swap2\n              swap1\n              tag_121\n              jump\t// in\n            tag_120:\n              pop\n              swap1\n              jump\t// out\n            tag_121:\n            tag_122:\n              dup1\n              dup3\n              gt\n              iszero\n              tag_123\n              jumpi\n              0x00\n              dup2\n              0x00\n              swap1\n              sstore\n              pop\n              0x01\n              add\n              jump(tag_122)\n            tag_123:\n              pop\n              swap1\n              jump\t// out\n                /* \"#utility.yul\":7:352   */\n            tag_125:\n              0x00\n                /* \"#utility.yul\":110:176   */\n              tag_127\n                /* \"#utility.yul\":126:175   */\n              tag_128\n                /* \"#utility.yul\":168:174   */\n              dup5\n                /* \"#utility.yul\":126:175   */\n              tag_129\n              jump\t// in\n            tag_128:\n                /* \"#utility.yul\":110:176   */\n              tag_130\n              jump\t// in\n            tag_127:\n                /* \"#utility.yul\":101:176   */\n              swap1\n              pop\n                /* \"#utility.yul\":199:205   */\n              dup3\n                /* \"#utility.yul\":192:197   */\n              dup2\n                /* \"#utility.yul\":185:206   */\n              mstore\n                /* \"#utility.yul\":237:241   */\n              0x20\n                /* \"#utility.yul\":230:235   */\n              dup2\n                /* \"#utility.yul\":226:242   */\n              add\n                /* \"#utility.yul\":275:278   */\n              dup5\n                /* \"#utility.yul\":266:272   */\n              dup5\n                /* \"#utility.yul\":261:264   */\n              dup5\n                /* \"#utility.yul\":257:273   */\n              add\n                /* \"#utility.yul\":254:279   */\n              gt\n                /* \"#utility.yul\":251:253   */\n              iszero\n              tag_131\n              jumpi\n                /* \"#utility.yul\":292:293   */\n              0x00\n                /* \"#utility.yul\":289:290   */\n              dup1\n                /* \"#utility.yul\":282:294   */\n              revert\n                /* \"#utility.yul\":251:253   */\n            tag_131:\n                /* \"#utility.yul\":305:346   */\n              tag_132\n                /* \"#utility.yul\":339:345   */\n              dup5\n                /* \"#utility.yul\":334:337   */\n              dup3\n                /* \"#utility.yul\":329:332   */\n              dup6\n                /* \"#utility.yul\":305:346   */\n              tag_133\n              jump\t// in\n            tag_132:\n                /* \"#utility.yul\":91:352   */\n              pop\n              swap4\n              swap3\n              pop\n              pop\n              pop\n              jump\t// out\n                /* \"#utility.yul\":358:497   */\n            tag_134:\n              0x00\n                /* \"#utility.yul\":442:448   */\n              dup2\n                /* \"#utility.yul\":429:449   */\n              calldataload\n                /* \"#utility.yul\":420:449   */\n              swap1\n              pop\n                /* \"#utility.yul\":458:491   */\n              tag_136\n                /* \"#utility.yul\":485:490   */\n              dup2\n                /* \"#utility.yul\":458:491   */\n              tag_137\n              jump\t// in\n            tag_136:\n                /* \"#utility.yul\":410:497   */\n              swap3\n              swap2\n              pop\n              pop\n              jump\t// out\n                /* \"#utility.yul\":503:658   */\n            tag_138:\n              0x00\n                /* \"#utility.yul\":595:601   */\n              dup2\n                /* \"#utility.yul\":582:602   */\n              calldataload\n                /* \"#utility.yul\":573:602   */\n              swap1\n              pop\n                /* \"#utility.yul\":611:652   */\n              tag_140\n                /* \"#utility.yul\":646:651   */\n              dup2\n                /* \"#utility.yul\":611:652   */\n              tag_141\n              jump\t// in\n            tag_140:\n                /* \"#utility.yul\":563:658   */\n              swap3\n              swap2\n              pop\n              pop\n              jump\t// out\n                /* \"#utility.yul\":678:951   */\n            tag_142:\n              0x00\n                /* \"#utility.yul\":783:786   */\n              dup3\n                /* \"#utility.yul\":776:780   */\n              0x1f\n                /* \"#utility.yul\":768:774   */\n              dup4\n                /* \"#utility.yul\":764:781   */\n              add\n                /* \"#utility.yul\":760:787   */\n              slt\n                /* \"#utility.yul\":750:752   */\n              tag_144\n              jumpi\n                /* \"#utility.yul\":801:802   */\n              0x00\n                /* \"#utility.yul\":798:799   */\n              dup1\n                /* \"#utility.yul\":791:803   */\n              revert\n                /* \"#utility.yul\":750:752   */\n            tag_144:\n                /* \"#utility.yul\":841:847   */\n              dup2\n                /* \"#utility.yul\":828:848   */\n              calldataload\n                /* \"#utility.yul\":866:945   */\n              tag_145\n                /* \"#utility.yul\":941:944   */\n              dup5\n                /* \"#utility.yul\":933:939   */\n              dup3\n                /* \"#utility.yul\":926:930   */\n              0x20\n                /* \"#utility.yul\":918:924   */\n              dup7\n                /* \"#utility.yul\":914:931   */\n              add\n                /* \"#utility.yul\":866:945   */\n              tag_125\n              jump\t// in\n            tag_145:\n                /* \"#utility.yul\":857:945   */\n              swap2\n              pop\n                /* \"#utility.yul\":740:951   */\n              pop\n              swap3\n              swap2\n              pop\n              pop\n              jump\t// out\n                /* \"#utility.yul\":957:1096   */\n            tag_146:\n              0x00\n                /* \"#utility.yul\":1041:1047   */\n              dup2\n                /* \"#utility.yul\":1028:1048   */\n              calldataload\n                /* \"#utility.yul\":1019:1048   */\n              swap1\n              pop\n                /* \"#utility.yul\":1057:1090   */\n              tag_148\n                /* \"#utility.yul\":1084:1089   */\n              dup2\n                /* \"#utility.yul\":1057:1090   */\n              tag_149\n              jump\t// in\n            tag_148:\n                /* \"#utility.yul\":1009:1096   */\n              swap3\n              swap2\n              pop\n              pop\n              jump\t// out\n                /* \"#utility.yul\":1102:1364   */\n            tag_22:\n              0x00\n                /* \"#utility.yul\":1210:1212   */\n              0x20\n                /* \"#utility.yul\":1198:1207   */\n              dup3\n                /* \"#utility.yul\":1189:1196   */\n              dup5\n                /* \"#utility.yul\":1185:1208   */\n              sub\n                /* \"#utility.yul\":1181:1213   */\n              slt\n                /* \"#utility.yul\":1178:1180   */\n              iszero\n              tag_151\n              jumpi\n                /* \"#utility.yul\":1226:1227   */\n              0x00\n                /* \"#utility.yul\":1223:1224   */\n              dup1\n                /* \"#utility.yul\":1216:1228   */\n              revert\n                /* \"#utility.yul\":1178:1180   */\n            tag_151:\n                /* \"#utility.yul\":1269:1270   */\n              0x00\n                /* \"#utility.yul\":1294:1347   */\n              tag_152\n                /* \"#utility.yul\":1339:1346   */\n              dup5\n                /* \"#utility.yul\":1330:1336   */\n              dup3\n                /* \"#utility.yul\":1319:1328   */\n              dup6\n                /* \"#utility.yul\":1315:1337   */\n              add\n                /* \"#utility.yul\":1294:1347   */\n              tag_134\n              jump\t// in\n            tag_152:\n                /* \"#utility.yul\":1284:1347   */\n              swap2\n              pop\n                /* \"#utility.yul\":1240:1357   */\n              pop\n                /* \"#utility.yul\":1168:1364   */\n              swap3\n              swap2\n              pop\n              pop\n              jump\t// out\n                /* \"#utility.yul\":1370:2051   */\n            tag_54:\n              0x00\n              dup1\n              0x00\n                /* \"#utility.yul\":1530:1532   */\n              0x60\n                /* \"#utility.yul\":1518:1527   */\n              dup5\n                /* \"#utility.yul\":1509:1516   */\n              dup7\n                /* \"#utility.yul\":1505:1528   */\n              sub\n                /* \"#utility.yul\":1501:1533   */\n              slt\n                /* \"#utility.yul\":1498:1500   */\n              iszero\n              tag_154\n              jumpi\n                /* \"#utility.yul\":1546:1547   */\n              0x00\n                /* \"#utility.yul\":1543:1544   */\n              dup1\n                /* \"#utility.yul\":1536:1548   */\n              revert\n                /* \"#utility.yul\":1498:1500   */\n            tag_154:\n                /* \"#utility.yul\":1617:1618   */\n              0x00\n                /* \"#utility.yul\":1606:1615   */\n              dup5\n                /* \"#utility.yul\":1602:1619   */\n              add\n                /* \"#utility.yul\":1589:1620   */\n              calldataload\n                /* \"#utility.yul\":1647:1665   */\n              0xffffffffffffffff\n                /* \"#utility.yul\":1639:1645   */\n              dup2\n                /* \"#utility.yul\":1636:1666   */\n              gt\n                /* \"#utility.yul\":1633:1635   */\n              iszero\n              tag_155\n              jumpi\n                /* \"#utility.yul\":1679:1680   */\n              0x00\n                /* \"#utility.yul\":1676:1677   */\n              dup1\n                /* \"#utility.yul\":1669:1681   */\n              revert\n                /* \"#utility.yul\":1633:1635   */\n            tag_155:\n                /* \"#utility.yul\":1707:1770   */\n              tag_156\n                /* \"#utility.yul\":1762:1769   */\n              dup7\n                /* \"#utility.yul\":1753:1759   */\n              dup3\n                /* \"#utility.yul\":1742:1751   */\n              dup8\n                /* \"#utility.yul\":1738:1760   */\n              add\n                /* \"#utility.yul\":1707:1770   */\n              tag_142\n              jump\t// in\n            tag_156:\n                /* \"#utility.yul\":1697:1770   */\n              swap4\n              pop\n                /* \"#utility.yul\":1560:1780   */\n              pop\n                /* \"#utility.yul\":1819:1821   */\n              0x20\n                /* \"#utility.yul\":1845:1898   */\n              tag_157\n                /* \"#utility.yul\":1890:1897   */\n              dup7\n                /* \"#utility.yul\":1881:1887   */\n              dup3\n                /* \"#utility.yul\":1870:1879   */\n              dup8\n                /* \"#utility.yul\":1866:1888   */\n              add\n                /* \"#utility.yul\":1845:1898   */\n              tag_146\n              jump\t// in\n            tag_157:\n                /* \"#utility.yul\":1835:1898   */\n              swap3\n              pop\n                /* \"#utility.yul\":1790:1908   */\n              pop\n                /* \"#utility.yul\":1947:1949   */\n              0x40\n                /* \"#utility.yul\":1973:2034   */\n              tag_158\n                /* \"#utility.yul\":2026:2033   */\n              dup7\n                /* \"#utility.yul\":2017:2023   */\n              dup3\n                /* \"#utility.yul\":2006:2015   */\n              dup8\n                /* \"#utility.yul\":2002:2024   */\n              add\n                /* \"#utility.yul\":1973:2034   */\n              tag_138\n              jump\t// in\n            tag_158:\n                /* \"#utility.yul\":1963:2034   */\n              swap2\n              pop\n                /* \"#utility.yul\":1918:2044   */\n              pop\n                /* \"#utility.yul\":1488:2051   */\n              swap3\n              pop\n              swap3\n              pop\n              swap3\n              jump\t// out\n                /* \"#utility.yul\":2057:2319   */\n            tag_17:\n              0x00\n                /* \"#utility.yul\":2165:2167   */\n              0x20\n                /* \"#utility.yul\":2153:2162   */\n              dup3\n                /* \"#utility.yul\":2144:2151   */\n              dup5\n                /* \"#utility.yul\":2140:2163   */\n              sub\n                /* \"#utility.yul\":2136:2168   */\n              slt\n                /* \"#utility.yul\":2133:2135   */\n              iszero\n              tag_160\n              jumpi\n                /* \"#utility.yul\":2181:2182   */\n              0x00\n                /* \"#utility.yul\":2178:2179   */\n              dup1\n                /* \"#utility.yul\":2171:2183   */\n              revert\n                /* \"#utility.yul\":2133:2135   */\n            tag_160:\n                /* \"#utility.yul\":2224:2225   */\n              0x00\n                /* \"#utility.yul\":2249:2302   */\n              tag_161\n                /* \"#utility.yul\":2294:2301   */\n              dup5\n                /* \"#utility.yul\":2285:2291   */\n              dup3\n                /* \"#utility.yul\":2274:2283   */\n              dup6\n                /* \"#utility.yul\":2270:2292   */\n              add\n                /* \"#utility.yul\":2249:2302   */\n              tag_146\n              jump\t// in\n            tag_161:\n                /* \"#utility.yul\":2239:2302   */\n              swap2\n              pop\n                /* \"#utility.yul\":2195:2312   */\n              pop\n                /* \"#utility.yul\":2123:2319   */\n              swap3\n              swap2\n              pop\n              pop\n              jump\t// out\n                /* \"#utility.yul\":2325:2467   */\n            tag_162:\n                /* \"#utility.yul\":2428:2460   */\n              tag_164\n                /* \"#utility.yul\":2454:2459   */\n              dup2\n                /* \"#utility.yul\":2428:2460   */\n              tag_165\n              jump\t// in\n            tag_164:\n                /* \"#utility.yul\":2423:2426   */\n              dup3\n                /* \"#utility.yul\":2416:2461   */\n              mstore\n                /* \"#utility.yul\":2406:2467   */\n              pop\n              pop\n              jump\t// out\n                /* \"#utility.yul\":2473:2591   */\n            tag_166:\n                /* \"#utility.yul\":2560:2584   */\n              tag_168\n                /* \"#utility.yul\":2578:2583   */\n              dup2\n                /* \"#utility.yul\":2560:2584   */\n              tag_169\n              jump\t// in\n            tag_168:\n                /* \"#utility.yul\":2555:2558   */\n              dup3\n                /* \"#utility.yul\":2548:2585   */\n              mstore\n                /* \"#utility.yul\":2538:2591   */\n              pop\n              pop\n              jump\t// out\n                /* \"#utility.yul\":2597:2706   */\n            tag_170:\n                /* \"#utility.yul\":2678:2699   */\n              tag_172\n                /* \"#utility.yul\":2693:2698   */\n              dup2\n                /* \"#utility.yul\":2678:2699   */\n              tag_173\n              jump\t// in\n            tag_172:\n                /* \"#utility.yul\":2673:2676   */\n              dup3\n                /* \"#utility.yul\":2666:2700   */\n              mstore\n                /* \"#utility.yul\":2656:2706   */\n              pop\n              pop\n              jump\t// out\n                /* \"#utility.yul\":2712:3076   */\n            tag_174:\n              0x00\n                /* \"#utility.yul\":2828:2867   */\n              tag_176\n                /* \"#utility.yul\":2861:2866   */\n              dup3\n                /* \"#utility.yul\":2828:2867   */\n              tag_177\n              jump\t// in\n            tag_176:\n                /* \"#utility.yul\":2883:2954   */\n              tag_178\n                /* \"#utility.yul\":2947:2953   */\n              dup2\n                /* \"#utility.yul\":2942:2945   */\n              dup6\n                /* \"#utility.yul\":2883:2954   */\n              tag_179\n              jump\t// in\n            tag_178:\n                /* \"#utility.yul\":2876:2954   */\n              swap4\n              pop\n                /* \"#utility.yul\":2963:3015   */\n              tag_180\n                /* \"#utility.yul\":3008:3014   */\n              dup2\n                /* \"#utility.yul\":3003:3006   */\n              dup6\n                /* \"#utility.yul\":2996:3000   */\n              0x20\n                /* \"#utility.yul\":2989:2994   */\n              dup7\n                /* \"#utility.yul\":2985:3001   */\n              add\n                /* \"#utility.yul\":2963:3015   */\n              tag_181\n              jump\t// in\n            tag_180:\n                /* \"#utility.yul\":3040:3069   */\n              tag_182\n                /* \"#utility.yul\":3062:3068   */\n              dup2\n                /* \"#utility.yul\":3040:3069   */\n              tag_183\n              jump\t// in\n            tag_182:\n                /* \"#utility.yul\":3035:3038   */\n              dup5\n                /* \"#utility.yul\":3031:3070   */\n              add\n                /* \"#utility.yul\":3024:3070   */\n              swap2\n              pop\n                /* \"#utility.yul\":2804:3076   */\n              pop\n              swap3\n              swap2\n              pop\n              pop\n              jump\t// out\n                /* \"#utility.yul\":3082:3448   */\n            tag_184:\n              0x00\n                /* \"#utility.yul\":3245:3312   */\n              tag_186\n                /* \"#utility.yul\":3309:3311   */\n              0x28\n                /* \"#utility.yul\":3304:3307   */\n              dup4\n                /* \"#utility.yul\":3245:3312   */\n              tag_179\n              jump\t// in\n            tag_186:\n                /* \"#utility.yul\":3238:3312   */\n              swap2\n              pop\n                /* \"#utility.yul\":3321:3414   */\n              tag_187\n                /* \"#utility.yul\":3410:3413   */\n              dup3\n                /* \"#utility.yul\":3321:3414   */\n              tag_188\n              jump\t// in\n            tag_187:\n                /* \"#utility.yul\":3439:3441   */\n              0x40\n                /* \"#utility.yul\":3434:3437   */\n              dup3\n                /* \"#utility.yul\":3430:3442   */\n              add\n                /* \"#utility.yul\":3423:3442   */\n              swap1\n              pop\n                /* \"#utility.yul\":3228:3448   */\n              swap2\n              swap1\n              pop\n              jump\t// out\n                /* \"#utility.yul\":3454:3820   */\n            tag_189:\n              0x00\n                /* \"#utility.yul\":3617:3684   */\n              tag_191\n                /* \"#utility.yul\":3681:3683   */\n              0x16\n                /* \"#utility.yul\":3676:3679   */\n              dup4\n                /* \"#utility.yul\":3617:3684   */\n              tag_179\n              jump\t// in\n            tag_191:\n                /* \"#utility.yul\":3610:3684   */\n              swap2\n              pop\n                /* \"#utility.yul\":3693:3786   */\n              tag_192\n                /* \"#utility.yul\":3782:3785   */\n              dup3\n                /* \"#utility.yul\":3693:3786   */\n              tag_193\n              jump\t// in\n            tag_192:\n                /* \"#utility.yul\":3811:3813   */\n              0x20\n                /* \"#utility.yul\":3806:3809   */\n              dup3\n                /* \"#utility.yul\":3802:3814   */\n              add\n                /* \"#utility.yul\":3795:3814   */\n              swap1\n              pop\n                /* \"#utility.yul\":3600:3820   */\n              swap2\n              swap1\n              pop\n              jump\t// out\n                /* \"#utility.yul\":3826:4192   */\n            tag_194:\n              0x00\n                /* \"#utility.yul\":3989:4056   */\n              tag_196\n                /* \"#utility.yul\":4053:4055   */\n              0x38\n                /* \"#utility.yul\":4048:4051   */\n              dup4\n                /* \"#utility.yul\":3989:4056   */\n              tag_179\n              jump\t// in\n            tag_196:\n                /* \"#utility.yul\":3982:4056   */\n              swap2\n              pop\n                /* \"#utility.yul\":4065:4158   */\n              tag_197\n                /* \"#utility.yul\":4154:4157   */\n              dup3\n                /* \"#utility.yul\":4065:4158   */\n              tag_198\n              jump\t// in\n            tag_197:\n                /* \"#utility.yul\":4183:4185   */\n              0x40\n                /* \"#utility.yul\":4178:4181   */\n              dup3\n                /* \"#utility.yul\":4174:4186   */\n              add\n                /* \"#utility.yul\":4167:4186   */\n              swap1\n              pop\n                /* \"#utility.yul\":3972:4192   */\n              swap2\n              swap1\n              pop\n              jump\t// out\n                /* \"#utility.yul\":4198:4564   */\n            tag_199:\n              0x00\n                /* \"#utility.yul\":4361:4428   */\n              tag_201\n                /* \"#utility.yul\":4425:4427   */\n              0x17\n                /* \"#utility.yul\":4420:4423   */\n              dup4\n                /* \"#utility.yul\":4361:4428   */\n              tag_179\n              jump\t// in\n            tag_201:\n                /* \"#utility.yul\":4354:4428   */\n              swap2\n              pop\n                /* \"#utility.yul\":4437:4530   */\n              tag_202\n                /* \"#utility.yul\":4526:4529   */\n              dup3\n                /* \"#utility.yul\":4437:4530   */\n              tag_203\n              jump\t// in\n            tag_202:\n                /* \"#utility.yul\":4555:4557   */\n              0x20\n                /* \"#utility.yul\":4550:4553   */\n              dup3\n                /* \"#utility.yul\":4546:4558   */\n              add\n                /* \"#utility.yul\":4539:4558   */\n              swap1\n              pop\n                /* \"#utility.yul\":4344:4564   */\n              swap2\n              swap1\n              pop\n              jump\t// out\n                /* \"#utility.yul\":4570:4936   */\n            tag_204:\n              0x00\n                /* \"#utility.yul\":4733:4800   */\n              tag_206\n                /* \"#utility.yul\":4797:4799   */\n              0x22\n                /* \"#utility.yul\":4792:4795   */\n              dup4\n                /* \"#utility.yul\":4733:4800   */\n              tag_179\n              jump\t// in\n            tag_206:\n                /* \"#utility.yul\":4726:4800   */\n              swap2\n              pop\n                /* \"#utility.yul\":4809:4902   */\n              tag_207\n                /* \"#utility.yul\":4898:4901   */\n              dup3\n                /* \"#utility.yul\":4809:4902   */\n              tag_208\n              jump\t// in\n            tag_207:\n                /* \"#utility.yul\":4927:4929   */\n              0x40\n                /* \"#utility.yul\":4922:4925   */\n              dup3\n                /* \"#utility.yul\":4918:4930   */\n              add\n                /* \"#utility.yul\":4911:4930   */\n              swap1\n              pop\n                /* \"#utility.yul\":4716:4936   */\n              swap2\n              swap1\n              pop\n              jump\t// out\n                /* \"#utility.yul\":4942:5308   */\n            tag_209:\n              0x00\n                /* \"#utility.yul\":5105:5172   */\n              tag_211\n                /* \"#utility.yul\":5169:5171   */\n              0x1d\n                /* \"#utility.yul\":5164:5167   */\n              dup4\n                /* \"#utility.yul\":5105:5172   */\n              tag_179\n              jump\t// in\n            tag_211:\n                /* \"#utility.yul\":5098:5172   */\n              swap2\n              pop\n                /* \"#utility.yul\":5181:5274   */\n              tag_212\n                /* \"#utility.yul\":5270:5273   */\n              dup3\n                /* \"#utility.yul\":5181:5274   */\n              tag_213\n              jump\t// in\n            tag_212:\n                /* \"#utility.yul\":5299:5301   */\n              0x20\n                /* \"#utility.yul\":5294:5297   */\n              dup3\n                /* \"#utility.yul\":5290:5302   */\n              add\n                /* \"#utility.yul\":5283:5302   */\n              swap1\n              pop\n                /* \"#utility.yul\":5088:5308   */\n              swap2\n              swap1\n              pop\n              jump\t// out\n                /* \"#utility.yul\":5314:5680   */\n            tag_214:\n              0x00\n                /* \"#utility.yul\":5477:5544   */\n              tag_216\n                /* \"#utility.yul\":5541:5543   */\n              0x1d\n                /* \"#utility.yul\":5536:5539   */\n              dup4\n                /* \"#utility.yul\":5477:5544   */\n              tag_179\n              jump\t// in\n            tag_216:\n                /* \"#utility.yul\":5470:5544   */\n              swap2\n              pop\n                /* \"#utility.yul\":5553:5646   */\n              tag_217\n                /* \"#utility.yul\":5642:5645   */\n              dup3\n                /* \"#utility.yul\":5553:5646   */\n              tag_218\n              jump\t// in\n            tag_217:\n                /* \"#utility.yul\":5671:5673   */\n              0x20\n                /* \"#utility.yul\":5666:5669   */\n              dup3\n                /* \"#utility.yul\":5662:5674   */\n              add\n                /* \"#utility.yul\":5655:5674   */\n              swap1\n              pop\n                /* \"#utility.yul\":5460:5680   */\n              swap2\n              swap1\n              pop\n              jump\t// out\n                /* \"#utility.yul\":5686:5804   */\n            tag_219:\n                /* \"#utility.yul\":5773:5797   */\n              tag_221\n                /* \"#utility.yul\":5791:5796   */\n              dup2\n                /* \"#utility.yul\":5773:5797   */\n              tag_222\n              jump\t// in\n            tag_221:\n                /* \"#utility.yul\":5768:5771   */\n              dup3\n                /* \"#utility.yul\":5761:5798   */\n              mstore\n                /* \"#utility.yul\":5751:5804   */\n              pop\n              pop\n              jump\t// out\n                /* \"#utility.yul\":5810:6032   */\n            tag_40:\n              0x00\n                /* \"#utility.yul\":5941:5943   */\n              0x20\n                /* \"#utility.yul\":5930:5939   */\n              dup3\n                /* \"#utility.yul\":5926:5944   */\n              add\n                /* \"#utility.yul\":5918:5944   */\n              swap1\n              pop\n                /* \"#utility.yul\":5954:6025   */\n              tag_224\n                /* \"#utility.yul\":6022:6023   */\n              0x00\n                /* \"#utility.yul\":6011:6020   */\n              dup4\n                /* \"#utility.yul\":6007:6024   */\n              add\n                /* \"#utility.yul\":5998:6004   */\n              dup5\n                /* \"#utility.yul\":5954:6025   */\n              tag_166\n              jump\t// in\n            tag_224:\n                /* \"#utility.yul\":5908:6032   */\n              swap3\n              swap2\n              pop\n              pop\n              jump\t// out\n                /* \"#utility.yul\":6038:6248   */\n            tag_25:\n              0x00\n                /* \"#utility.yul\":6163:6165   */\n              0x20\n                /* \"#utility.yul\":6152:6161   */\n              dup3\n                /* \"#utility.yul\":6148:6166   */\n              add\n                /* \"#utility.yul\":6140:6166   */\n              swap1\n              pop\n                /* \"#utility.yul\":6176:6241   */\n              tag_226\n                /* \"#utility.yul\":6238:6239   */\n              0x00\n                /* \"#utility.yul\":6227:6236   */\n              dup4\n                /* \"#utility.yul\":6223:6240   */\n              add\n                /* \"#utility.yul\":6214:6220   */\n              dup5\n                /* \"#utility.yul\":6176:6241   */\n              tag_170\n              jump\t// in\n            tag_226:\n                /* \"#utility.yul\":6130:6248   */\n              swap3\n              swap2\n              pop\n              pop\n              jump\t// out\n                /* \"#utility.yul\":6254:7029   */\n            tag_46:\n              0x00\n                /* \"#utility.yul\":6527:6530   */\n              0xa0\n                /* \"#utility.yul\":6516:6525   */\n              dup3\n                /* \"#utility.yul\":6512:6531   */\n              add\n                /* \"#utility.yul\":6504:6531   */\n              swap1\n              pop\n                /* \"#utility.yul\":6577:6586   */\n              dup2\n                /* \"#utility.yul\":6571:6575   */\n              dup2\n                /* \"#utility.yul\":6567:6587   */\n              sub\n                /* \"#utility.yul\":6563:6564   */\n              0x00\n                /* \"#utility.yul\":6552:6561   */\n              dup4\n                /* \"#utility.yul\":6548:6565   */\n              add\n                /* \"#utility.yul\":6541:6588   */\n              mstore\n                /* \"#utility.yul\":6605:6683   */\n              tag_228\n                /* \"#utility.yul\":6678:6682   */\n              dup2\n                /* \"#utility.yul\":6669:6675   */\n              dup9\n                /* \"#utility.yul\":6605:6683   */\n              tag_174\n              jump\t// in\n            tag_228:\n                /* \"#utility.yul\":6597:6683   */\n              swap1\n              pop\n                /* \"#utility.yul\":6693:6765   */\n              tag_229\n                /* \"#utility.yul\":6761:6763   */\n              0x20\n                /* \"#utility.yul\":6750:6759   */\n              dup4\n                /* \"#utility.yul\":6746:6764   */\n              add\n                /* \"#utility.yul\":6737:6743   */\n              dup8\n                /* \"#utility.yul\":6693:6765   */\n              tag_219\n              jump\t// in\n            tag_229:\n                /* \"#utility.yul\":6775:6863   */\n              tag_230\n                /* \"#utility.yul\":6859:6861   */\n              0x40\n                /* \"#utility.yul\":6848:6857   */\n              dup4\n                /* \"#utility.yul\":6844:6862   */\n              add\n                /* \"#utility.yul\":6835:6841   */\n              dup7\n                /* \"#utility.yul\":6775:6863   */\n              tag_162\n              jump\t// in\n            tag_230:\n                /* \"#utility.yul\":6873:6939   */\n              tag_231\n                /* \"#utility.yul\":6935:6937   */\n              0x60\n                /* \"#utility.yul\":6924:6933   */\n              dup4\n                /* \"#utility.yul\":6920:6938   */\n              add\n                /* \"#utility.yul\":6911:6917   */\n              dup6\n                /* \"#utility.yul\":6873:6939   */\n              tag_170\n              jump\t// in\n            tag_231:\n                /* \"#utility.yul\":6949:7022   */\n              tag_232\n                /* \"#utility.yul\":7017:7020   */\n              0x80\n                /* \"#utility.yul\":7006:7015   */\n              dup4\n                /* \"#utility.yul\":7002:7021   */\n              add\n                /* \"#utility.yul\":6993:6999   */\n              dup5\n                /* \"#utility.yul\":6949:7022   */\n              tag_219\n              jump\t// in\n            tag_232:\n                /* \"#utility.yul\":6494:7029   */\n              swap7\n              swap6\n              pop\n              pop\n              pop\n              pop\n              pop\n              pop\n              jump\t// out\n                /* \"#utility.yul\":7035:7454   */\n            tag_79:\n              0x00\n                /* \"#utility.yul\":7239:7241   */\n              0x20\n                /* \"#utility.yul\":7228:7237   */\n              dup3\n                /* \"#utility.yul\":7224:7242   */\n              add\n                /* \"#utility.yul\":7216:7242   */\n              swap1\n              pop\n                /* \"#utility.yul\":7288:7297   */\n              dup2\n                /* \"#utility.yul\":7282:7286   */\n              dup2\n                /* \"#utility.yul\":7278:7298   */\n              sub\n                /* \"#utility.yul\":7274:7275   */\n              0x00\n                /* \"#utility.yul\":7263:7272   */\n              dup4\n                /* \"#utility.yul\":7259:7276   */\n              add\n                /* \"#utility.yul\":7252:7299   */\n              mstore\n                /* \"#utility.yul\":7316:7447   */\n              tag_234\n                /* \"#utility.yul\":7442:7446   */\n              dup2\n                /* \"#utility.yul\":7316:7447   */\n              tag_184\n              jump\t// in\n            tag_234:\n                /* \"#utility.yul\":7308:7447   */\n              swap1\n              pop\n                /* \"#utility.yul\":7206:7454   */\n              swap2\n              swap1\n              pop\n              jump\t// out\n                /* \"#utility.yul\":7460:7879   */\n            tag_70:\n              0x00\n                /* \"#utility.yul\":7664:7666   */\n              0x20\n                /* \"#utility.yul\":7653:7662   */\n              dup3\n                /* \"#utility.yul\":7649:7667   */\n              add\n                /* \"#utility.yul\":7641:7667   */\n              swap1\n              pop\n                /* \"#utility.yul\":7713:7722   */\n              dup2\n                /* \"#utility.yul\":7707:7711   */\n              dup2\n                /* \"#utility.yul\":7703:7723   */\n              sub\n                /* \"#utility.yul\":7699:7700   */\n              0x00\n                /* \"#utility.yul\":7688:7697   */\n              dup4\n                /* \"#utility.yul\":7684:7701   */\n              add\n                /* \"#utility.yul\":7677:7724   */\n              mstore\n                /* \"#utility.yul\":7741:7872   */\n              tag_236\n                /* \"#utility.yul\":7867:7871   */\n              dup2\n                /* \"#utility.yul\":7741:7872   */\n              tag_189\n              jump\t// in\n            tag_236:\n                /* \"#utility.yul\":7733:7872   */\n              swap1\n              pop\n                /* \"#utility.yul\":7631:7879   */\n              swap2\n              swap1\n              pop\n              jump\t// out\n                /* \"#utility.yul\":7885:8304   */\n            tag_101:\n              0x00\n                /* \"#utility.yul\":8089:8091   */\n              0x20\n                /* \"#utility.yul\":8078:8087   */\n              dup3\n                /* \"#utility.yul\":8074:8092   */\n              add\n                /* \"#utility.yul\":8066:8092   */\n              swap1\n              pop\n                /* \"#utility.yul\":8138:8147   */\n              dup2\n                /* \"#utility.yul\":8132:8136   */\n              dup2\n                /* \"#utility.yul\":8128:8148   */\n              sub\n                /* \"#utility.yul\":8124:8125   */\n              0x00\n                /* \"#utility.yul\":8113:8122   */\n              dup4\n                /* \"#utility.yul\":8109:8126   */\n              add\n                /* \"#utility.yul\":8102:8149   */\n              mstore\n                /* \"#utility.yul\":8166:8297   */\n              tag_238\n                /* \"#utility.yul\":8292:8296   */\n              dup2\n                /* \"#utility.yul\":8166:8297   */\n              tag_194\n              jump\t// in\n            tag_238:\n                /* \"#utility.yul\":8158:8297   */\n              swap1\n              pop\n                /* \"#utility.yul\":8056:8304   */\n              swap2\n              swap1\n              pop\n              jump\t// out\n                /* \"#utility.yul\":8310:8729   */\n            tag_76:\n              0x00\n                /* \"#utility.yul\":8514:8516   */\n              0x20\n                /* \"#utility.yul\":8503:8512   */\n              dup3\n                /* \"#utility.yul\":8499:8517   */\n              add\n                /* \"#utility.yul\":8491:8517   */\n              swap1\n              pop\n                /* \"#utility.yul\":8563:8572   */\n              dup2\n                /* \"#utility.yul\":8557:8561   */\n              dup2\n                /* \"#utility.yul\":8553:8573   */\n              sub\n                /* \"#utility.yul\":8549:8550   */\n              0x00\n                /* \"#utility.yul\":8538:8547   */\n              dup4\n                /* \"#utility.yul\":8534:8551   */\n              add\n                /* \"#utility.yul\":8527:8574   */\n              mstore\n                /* \"#utility.yul\":8591:8722   */\n              tag_240\n                /* \"#utility.yul\":8717:8721   */\n              dup2\n                /* \"#utility.yul\":8591:8722   */\n              tag_199\n              jump\t// in\n            tag_240:\n                /* \"#utility.yul\":8583:8722   */\n              swap1\n              pop\n                /* \"#utility.yul\":8481:8729   */\n              swap2\n              swap1\n              pop\n              jump\t// out\n                /* \"#utility.yul\":8735:9154   */\n            tag_112:\n              0x00\n                /* \"#utility.yul\":8939:8941   */\n              0x20\n                /* \"#utility.yul\":8928:8937   */\n              dup3\n                /* \"#utility.yul\":8924:8942   */\n              add\n                /* \"#utility.yul\":8916:8942   */\n              swap1\n              pop\n                /* \"#utility.yul\":8988:8997   */\n              dup2\n                /* \"#utility.yul\":8982:8986   */\n              dup2\n                /* \"#utility.yul\":8978:8998   */\n              sub\n                /* \"#utility.yul\":8974:8975   */\n              0x00\n                /* \"#utility.yul\":8963:8972   */\n              dup4\n                /* \"#utility.yul\":8959:8976   */\n              add\n                /* \"#utility.yul\":8952:8999   */\n              mstore\n                /* \"#utility.yul\":9016:9147   */\n              tag_242\n                /* \"#utility.yul\":9142:9146   */\n              dup2\n                /* \"#utility.yul\":9016:9147   */\n              tag_204\n              jump\t// in\n            tag_242:\n                /* \"#utility.yul\":9008:9147   */\n              swap1\n              pop\n                /* \"#utility.yul\":8906:9154   */\n              swap2\n              swap1\n              pop\n              jump\t// out\n                /* \"#utility.yul\":9160:9579   */\n            tag_109:\n              0x00\n                /* \"#utility.yul\":9364:9366   */\n              0x20\n                /* \"#utility.yul\":9353:9362   */\n              dup3\n                /* \"#utility.yul\":9349:9367   */\n              add\n                /* \"#utility.yul\":9341:9367   */\n              swap1\n              pop\n                /* \"#utility.yul\":9413:9422   */\n              dup2\n                /* \"#utility.yul\":9407:9411   */\n              dup2\n                /* \"#utility.yul\":9403:9423   */\n              sub\n                /* \"#utility.yul\":9399:9400   */\n              0x00\n                /* \"#utility.yul\":9388:9397   */\n              dup4\n                /* \"#utility.yul\":9384:9401   */\n              add\n                /* \"#utility.yul\":9377:9424   */\n              mstore\n                /* \"#utility.yul\":9441:9572   */\n              tag_244\n                /* \"#utility.yul\":9567:9571   */\n              dup2\n                /* \"#utility.yul\":9441:9572   */\n              tag_209\n              jump\t// in\n            tag_244:\n                /* \"#utility.yul\":9433:9572   */\n              swap1\n              pop\n                /* \"#utility.yul\":9331:9579   */\n              swap2\n              swap1\n              pop\n              jump\t// out\n                /* \"#utility.yul\":9585:10004   */\n            tag_104:\n              0x00\n                /* \"#utility.yul\":9789:9791   */\n              0x20\n                /* \"#utility.yul\":9778:9787   */\n              dup3\n                /* \"#utility.yul\":9774:9792   */\n              add\n                /* \"#utility.yul\":9766:9792   */\n              swap1\n              pop\n                /* \"#utility.yul\":9838:9847   */\n              dup2\n                /* \"#utility.yul\":9832:9836   */\n              dup2\n                /* \"#utility.yul\":9828:9848   */\n              sub\n                /* \"#utility.yul\":9824:9825   */\n              0x00\n                /* \"#utility.yul\":9813:9822   */\n              dup4\n                /* \"#utility.yul\":9809:9826   */\n              add\n                /* \"#utility.yul\":9802:9849   */\n              mstore\n                /* \"#utility.yul\":9866:9997   */\n              tag_246\n                /* \"#utility.yul\":9992:9996   */\n              dup2\n                /* \"#utility.yul\":9866:9997   */\n              tag_214\n              jump\t// in\n            tag_246:\n                /* \"#utility.yul\":9858:9997   */\n              swap1\n              pop\n                /* \"#utility.yul\":9756:10004   */\n              swap2\n              swap1\n              pop\n              jump\t// out\n                /* \"#utility.yul\":10010:10232   */\n            tag_30:\n              0x00\n                /* \"#utility.yul\":10141:10143   */\n              0x20\n                /* \"#utility.yul\":10130:10139   */\n              dup3\n                /* \"#utility.yul\":10126:10144   */\n              add\n                /* \"#utility.yul\":10118:10144   */\n              swap1\n              pop\n                /* \"#utility.yul\":10154:10225   */\n              tag_248\n                /* \"#utility.yul\":10222:10223   */\n              0x00\n                /* \"#utility.yul\":10211:10220   */\n              dup4\n                /* \"#utility.yul\":10207:10224   */\n              add\n                /* \"#utility.yul\":10198:10204   */\n              dup5\n                /* \"#utility.yul\":10154:10225   */\n              tag_219\n              jump\t// in\n            tag_248:\n                /* \"#utility.yul\":10108:10232   */\n              swap3\n              swap2\n              pop\n              pop\n              jump\t// out\n                /* \"#utility.yul\":10238:10902   */\n            tag_35:\n              0x00\n                /* \"#utility.yul\":10481:10484   */\n              0xa0\n                /* \"#utility.yul\":10470:10479   */\n              dup3\n                /* \"#utility.yul\":10466:10485   */\n              add\n                /* \"#utility.yul\":10458:10485   */\n              swap1\n              pop\n                /* \"#utility.yul\":10495:10566   */\n              tag_250\n                /* \"#utility.yul\":10563:10564   */\n              0x00\n                /* \"#utility.yul\":10552:10561   */\n              dup4\n                /* \"#utility.yul\":10548:10565   */\n              add\n                /* \"#utility.yul\":10539:10545   */\n              dup9\n                /* \"#utility.yul\":10495:10566   */\n              tag_219\n              jump\t// in\n            tag_250:\n                /* \"#utility.yul\":10576:10648   */\n              tag_251\n                /* \"#utility.yul\":10644:10646   */\n              0x20\n                /* \"#utility.yul\":10633:10642   */\n              dup4\n                /* \"#utility.yul\":10629:10647   */\n              add\n                /* \"#utility.yul\":10620:10626   */\n              dup8\n                /* \"#utility.yul\":10576:10648   */\n              tag_219\n              jump\t// in\n            tag_251:\n                /* \"#utility.yul\":10658:10730   */\n              tag_252\n                /* \"#utility.yul\":10726:10728   */\n              0x40\n                /* \"#utility.yul\":10715:10724   */\n              dup4\n                /* \"#utility.yul\":10711:10729   */\n              add\n                /* \"#utility.yul\":10702:10708   */\n              dup7\n                /* \"#utility.yul\":10658:10730   */\n              tag_219\n              jump\t// in\n            tag_252:\n                /* \"#utility.yul\":10740:10812   */\n              tag_253\n                /* \"#utility.yul\":10808:10810   */\n              0x60\n                /* \"#utility.yul\":10797:10806   */\n              dup4\n                /* \"#utility.yul\":10793:10811   */\n              add\n                /* \"#utility.yul\":10784:10790   */\n              dup6\n                /* \"#utility.yul\":10740:10812   */\n              tag_219\n              jump\t// in\n            tag_253:\n                /* \"#utility.yul\":10822:10895   */\n              tag_254\n                /* \"#utility.yul\":10890:10893   */\n              0x80\n                /* \"#utility.yul\":10879:10888   */\n              dup4\n                /* \"#utility.yul\":10875:10894   */\n              add\n                /* \"#utility.yul\":10866:10872   */\n              dup5\n                /* \"#utility.yul\":10822:10895   */\n              tag_166\n              jump\t// in\n            tag_254:\n                /* \"#utility.yul\":10448:10902   */\n              swap7\n              swap6\n              pop\n              pop\n              pop\n              pop\n              pop\n              pop\n              jump\t// out\n                /* \"#utility.yul\":10908:11037   */\n            tag_130:\n              0x00\n                /* \"#utility.yul\":10969:10989   */\n              tag_256\n              tag_257\n              jump\t// in\n            tag_256:\n                /* \"#utility.yul\":10959:10989   */\n              swap1\n              pop\n                /* \"#utility.yul\":10998:11031   */\n              tag_258\n                /* \"#utility.yul\":11026:11030   */\n              dup3\n                /* \"#utility.yul\":11018:11024   */\n              dup3\n                /* \"#utility.yul\":10998:11031   */\n              tag_259\n              jump\t// in\n            tag_258:\n                /* \"#utility.yul\":10949:11037   */\n              swap2\n              swap1\n              pop\n              jump\t// out\n                /* \"#utility.yul\":11043:11118   */\n            tag_257:\n              0x00\n                /* \"#utility.yul\":11109:11111   */\n              0x40\n                /* \"#utility.yul\":11103:11112   */\n              mload\n                /* \"#utility.yul\":11093:11112   */\n              swap1\n              pop\n                /* \"#utility.yul\":11083:11118   */\n              swap1\n              jump\t// out\n                /* \"#utility.yul\":11124:11432   */\n            tag_129:\n              0x00\n                /* \"#utility.yul\":11276:11294   */\n              0xffffffffffffffff\n                /* \"#utility.yul\":11268:11274   */\n              dup3\n                /* \"#utility.yul\":11265:11295   */\n              gt\n                /* \"#utility.yul\":11262:11264   */\n              iszero\n              tag_262\n              jumpi\n                /* \"#utility.yul\":11298:11316   */\n              tag_263\n              tag_264\n              jump\t// in\n            tag_263:\n                /* \"#utility.yul\":11262:11264   */\n            tag_262:\n                /* \"#utility.yul\":11336:11365   */\n              tag_265\n                /* \"#utility.yul\":11358:11364   */\n              dup3\n                /* \"#utility.yul\":11336:11365   */\n              tag_183\n              jump\t// in\n            tag_265:\n                /* \"#utility.yul\":11328:11365   */\n              swap1\n              pop\n                /* \"#utility.yul\":11420:11424   */\n              0x20\n                /* \"#utility.yul\":11414:11418   */\n              dup2\n                /* \"#utility.yul\":11410:11425   */\n              add\n                /* \"#utility.yul\":11402:11425   */\n              swap1\n              pop\n                /* \"#utility.yul\":11191:11432   */\n              swap2\n              swap1\n              pop\n              jump\t// out\n                /* \"#utility.yul\":11438:11537   */\n            tag_177:\n              0x00\n                /* \"#utility.yul\":11524:11529   */\n              dup2\n                /* \"#utility.yul\":11518:11530   */\n              mload\n                /* \"#utility.yul\":11508:11530   */\n              swap1\n              pop\n                /* \"#utility.yul\":11497:11537   */\n              swap2\n              swap1\n              pop\n              jump\t// out\n                /* \"#utility.yul\":11543:11712   */\n            tag_179:\n              0x00\n                /* \"#utility.yul\":11661:11667   */\n              dup3\n                /* \"#utility.yul\":11656:11659   */\n              dup3\n                /* \"#utility.yul\":11649:11668   */\n              mstore\n                /* \"#utility.yul\":11701:11705   */\n              0x20\n                /* \"#utility.yul\":11696:11699   */\n              dup3\n                /* \"#utility.yul\":11692:11706   */\n              add\n                /* \"#utility.yul\":11677:11706   */\n              swap1\n              pop\n                /* \"#utility.yul\":11639:11712   */\n              swap3\n              swap2\n              pop\n              pop\n              jump\t// out\n                /* \"#utility.yul\":11718:11903   */\n            tag_73:\n              0x00\n                /* \"#utility.yul\":11775:11795   */\n              tag_269\n                /* \"#utility.yul\":11793:11794   */\n              dup3\n                /* \"#utility.yul\":11775:11795   */\n              tag_222\n              jump\t// in\n            tag_269:\n                /* \"#utility.yul\":11770:11795   */\n              swap2\n              pop\n                /* \"#utility.yul\":11809:11829   */\n              tag_270\n                /* \"#utility.yul\":11827:11828   */\n              dup4\n                /* \"#utility.yul\":11809:11829   */\n              tag_222\n              jump\t// in\n            tag_270:\n                /* \"#utility.yul\":11804:11829   */\n              swap3\n              pop\n                /* \"#utility.yul\":11848:11849   */\n              dup3\n                /* \"#utility.yul\":11838:11840   */\n              tag_271\n              jumpi\n                /* \"#utility.yul\":11853:11871   */\n              tag_272\n              tag_273\n              jump\t// in\n            tag_272:\n                /* \"#utility.yul\":11838:11840   */\n            tag_271:\n                /* \"#utility.yul\":11895:11896   */\n              dup3\n                /* \"#utility.yul\":11892:11893   */\n              dup3\n                /* \"#utility.yul\":11888:11897   */\n              div\n                /* \"#utility.yul\":11883:11897   */\n              swap1\n              pop\n                /* \"#utility.yul\":11760:11903   */\n              swap3\n              swap2\n              pop\n              pop\n              jump\t// out\n                /* \"#utility.yul\":11909:12005   */\n            tag_169:\n              0x00\n                /* \"#utility.yul\":11975:11999   */\n              tag_275\n                /* \"#utility.yul\":11993:11998   */\n              dup3\n                /* \"#utility.yul\":11975:11999   */\n              tag_276\n              jump\t// in\n            tag_275:\n                /* \"#utility.yul\":11964:11999   */\n              swap1\n              pop\n                /* \"#utility.yul\":11954:12005   */\n              swap2\n              swap1\n              pop\n              jump\t// out\n                /* \"#utility.yul\":12011:12115   */\n            tag_165:\n              0x00\n                /* \"#utility.yul\":12085:12109   */\n              tag_278\n                /* \"#utility.yul\":12103:12108   */\n              dup3\n                /* \"#utility.yul\":12085:12109   */\n              tag_276\n              jump\t// in\n            tag_278:\n                /* \"#utility.yul\":12074:12109   */\n              swap1\n              pop\n                /* \"#utility.yul\":12064:12115   */\n              swap2\n              swap1\n              pop\n              jump\t// out\n                /* \"#utility.yul\":12121:12211   */\n            tag_173:\n              0x00\n                /* \"#utility.yul\":12198:12203   */\n              dup2\n                /* \"#utility.yul\":12191:12204   */\n              iszero\n                /* \"#utility.yul\":12184:12205   */\n              iszero\n                /* \"#utility.yul\":12173:12205   */\n              swap1\n              pop\n                /* \"#utility.yul\":12163:12211   */\n              swap2\n              swap1\n              pop\n              jump\t// out\n                /* \"#utility.yul\":12217:12343   */\n            tag_276:\n              0x00\n                /* \"#utility.yul\":12294:12336   */\n              0xffffffffffffffffffffffffffffffffffffffff\n                /* \"#utility.yul\":12287:12292   */\n              dup3\n                /* \"#utility.yul\":12283:12337   */\n              and\n                /* \"#utility.yul\":12272:12337   */\n              swap1\n              pop\n                /* \"#utility.yul\":12262:12343   */\n              swap2\n              swap1\n              pop\n              jump\t// out\n                /* \"#utility.yul\":12349:12426   */\n            tag_222:\n              0x00\n                /* \"#utility.yul\":12415:12420   */\n              dup2\n                /* \"#utility.yul\":12404:12420   */\n              swap1\n              pop\n                /* \"#utility.yul\":12394:12426   */\n              swap2\n              swap1\n              pop\n              jump\t// out\n                /* \"#utility.yul\":12432:12586   */\n            tag_133:\n                /* \"#utility.yul\":12516:12522   */\n              dup3\n                /* \"#utility.yul\":12511:12514   */\n              dup2\n                /* \"#utility.yul\":12506:12509   */\n              dup4\n                /* \"#utility.yul\":12493:12523   */\n              calldatacopy\n                /* \"#utility.yul\":12578:12579   */\n              0x00\n                /* \"#utility.yul\":12569:12575   */\n              dup4\n                /* \"#utility.yul\":12564:12567   */\n              dup4\n                /* \"#utility.yul\":12560:12576   */\n              add\n                /* \"#utility.yul\":12553:12580   */\n              mstore\n                /* \"#utility.yul\":12483:12586   */\n              pop\n              pop\n              pop\n              jump\t// out\n                /* \"#utility.yul\":12592:12899   */\n            tag_181:\n                /* \"#utility.yul\":12660:12661   */\n              0x00\n                /* \"#utility.yul\":12670:12783   */\n            tag_284:\n                /* \"#utility.yul\":12684:12690   */\n              dup4\n                /* \"#utility.yul\":12681:12682   */\n              dup2\n                /* \"#utility.yul\":12678:12691   */\n              lt\n                /* \"#utility.yul\":12670:12783   */\n              iszero\n              tag_286\n              jumpi\n                /* \"#utility.yul\":12769:12770   */\n              dup1\n                /* \"#utility.yul\":12764:12767   */\n              dup3\n                /* \"#utility.yul\":12760:12771   */\n              add\n                /* \"#utility.yul\":12754:12772   */\n              mload\n                /* \"#utility.yul\":12750:12751   */\n              dup2\n                /* \"#utility.yul\":12745:12748   */\n              dup5\n                /* \"#utility.yul\":12741:12752   */\n              add\n                /* \"#utility.yul\":12734:12773   */\n              mstore\n                /* \"#utility.yul\":12706:12708   */\n              0x20\n                /* \"#utility.yul\":12703:12704   */\n              dup2\n                /* \"#utility.yul\":12699:12709   */\n              add\n                /* \"#utility.yul\":12694:12709   */\n              swap1\n              pop\n                /* \"#utility.yul\":12670:12783   */\n              jump(tag_284)\n            tag_286:\n                /* \"#utility.yul\":12801:12807   */\n              dup4\n                /* \"#utility.yul\":12798:12799   */\n              dup2\n                /* \"#utility.yul\":12795:12808   */\n              gt\n                /* \"#utility.yul\":12792:12794   */\n              iszero\n              tag_287\n              jumpi\n                /* \"#utility.yul\":12881:12882   */\n              0x00\n                /* \"#utility.yul\":12872:12878   */\n              dup5\n                /* \"#utility.yul\":12867:12870   */\n              dup5\n                /* \"#utility.yul\":12863:12879   */\n              add\n                /* \"#utility.yul\":12856:12883   */\n              mstore\n                /* \"#utility.yul\":12792:12794   */\n            tag_287:\n                /* \"#utility.yul\":12641:12899   */\n              pop\n              pop\n              pop\n              pop\n              jump\t// out\n                /* \"#utility.yul\":12905:13225   */\n            tag_85:\n              0x00\n                /* \"#utility.yul\":12986:12987   */\n              0x02\n                /* \"#utility.yul\":12980:12984   */\n              dup3\n                /* \"#utility.yul\":12976:12988   */\n              div\n                /* \"#utility.yul\":12966:12988   */\n              swap1\n              pop\n                /* \"#utility.yul\":13033:13034   */\n              0x01\n                /* \"#utility.yul\":13027:13031   */\n              dup3\n                /* \"#utility.yul\":13023:13035   */\n              and\n                /* \"#utility.yul\":13054:13072   */\n              dup1\n                /* \"#utility.yul\":13044:13046   */\n              tag_289\n              jumpi\n                /* \"#utility.yul\":13110:13114   */\n              0x7f\n                /* \"#utility.yul\":13102:13108   */\n              dup3\n                /* \"#utility.yul\":13098:13115   */\n              and\n                /* \"#utility.yul\":13088:13115   */\n              swap2\n              pop\n                /* \"#utility.yul\":13044:13046   */\n            tag_289:\n                /* \"#utility.yul\":13172:13174   */\n              0x20\n                /* \"#utility.yul\":13164:13170   */\n              dup3\n                /* \"#utility.yul\":13161:13175   */\n              lt\n                /* \"#utility.yul\":13141:13159   */\n              dup2\n                /* \"#utility.yul\":13138:13176   */\n              eq\n                /* \"#utility.yul\":13135:13137   */\n              iszero\n              tag_290\n              jumpi\n                /* \"#utility.yul\":13191:13209   */\n              tag_291\n              tag_292\n              jump\t// in\n            tag_291:\n                /* \"#utility.yul\":13135:13137   */\n            tag_290:\n                /* \"#utility.yul\":12956:13225   */\n              pop\n              swap2\n              swap1\n              pop\n              jump\t// out\n                /* \"#utility.yul\":13231:13512   */\n            tag_259:\n                /* \"#utility.yul\":13314:13341   */\n              tag_294\n                /* \"#utility.yul\":13336:13340   */\n              dup3\n                /* \"#utility.yul\":13314:13341   */\n              tag_183\n              jump\t// in\n            tag_294:\n                /* \"#utility.yul\":13306:13312   */\n              dup2\n                /* \"#utility.yul\":13302:13342   */\n              add\n                /* \"#utility.yul\":13444:13450   */\n              dup2\n                /* \"#utility.yul\":13432:13442   */\n              dup2\n                /* \"#utility.yul\":13429:13451   */\n              lt\n                /* \"#utility.yul\":13408:13426   */\n              0xffffffffffffffff\n                /* \"#utility.yul\":13396:13406   */\n              dup3\n                /* \"#utility.yul\":13393:13427   */\n              gt\n                /* \"#utility.yul\":13390:13452   */\n              or\n                /* \"#utility.yul\":13387:13389   */\n              iszero\n              tag_295\n              jumpi\n                /* \"#utility.yul\":13455:13473   */\n              tag_296\n              tag_264\n              jump\t// in\n            tag_296:\n                /* \"#utility.yul\":13387:13389   */\n            tag_295:\n                /* \"#utility.yul\":13495:13505   */\n              dup1\n                /* \"#utility.yul\":13491:13493   */\n              0x40\n                /* \"#utility.yul\":13484:13506   */\n              mstore\n                /* \"#utility.yul\":13274:13512   */\n              pop\n              pop\n              pop\n              jump\t// out\n                /* \"#utility.yul\":13518:13751   */\n            tag_95:\n              0x00\n                /* \"#utility.yul\":13580:13604   */\n              tag_298\n                /* \"#utility.yul\":13598:13603   */\n              dup3\n                /* \"#utility.yul\":13580:13604   */\n              tag_222\n              jump\t// in\n            tag_298:\n                /* \"#utility.yul\":13571:13604   */\n              swap2\n              pop\n                /* \"#utility.yul\":13626:13692   */\n              0xffffffffffffffffffffffffffffffffffffffffffffffffffffffffffffffff\n                /* \"#utility.yul\":13619:13624   */\n              dup3\n                /* \"#utility.yul\":13616:13693   */\n              eq\n                /* \"#utility.yul\":13613:13615   */\n              iszero\n              tag_299\n              jumpi\n                /* \"#utility.yul\":13696:13714   */\n              tag_300\n              tag_301\n              jump\t// in\n            tag_300:\n                /* \"#utility.yul\":13613:13615   */\n            tag_299:\n                /* \"#utility.yul\":13743:13744   */\n              0x01\n                /* \"#utility.yul\":13736:13741   */\n              dup3\n                /* \"#utility.yul\":13732:13745   */\n              add\n                /* \"#utility.yul\":13725:13745   */\n              swap1\n              pop\n                /* \"#utility.yul\":13561:13751   */\n              swap2\n              swap1\n              pop\n              jump\t// out\n                /* \"#utility.yul\":13757:13937   */\n            tag_301:\n                /* \"#utility.yul\":13805:13882   */\n              0x4e487b7100000000000000000000000000000000000000000000000000000000\n                /* \"#utility.yul\":13802:13803   */\n              0x00\n                /* \"#utility.yul\":13795:13883   */\n              mstore\n                /* \"#utility.yul\":13902:13906   */\n              0x11\n                /* \"#utility.yul\":13899:13900   */\n              0x04\n                /* \"#utility.yul\":13892:13907   */\n              mstore\n                /* \"#utility.yul\":13926:13930   */\n              0x24\n                /* \"#utility.yul\":13923:13924   */\n              0x00\n                /* \"#utility.yul\":13916:13931   */\n              revert\n                /* \"#utility.yul\":13943:14123   */\n            tag_273:\n                /* \"#utility.yul\":13991:14068   */\n              0x4e487b7100000000000000000000000000000000000000000000000000000000\n                /* \"#utility.yul\":13988:13989   */\n              0x00\n                /* \"#utility.yul\":13981:14069   */\n              mstore\n                /* \"#utility.yul\":14088:14092   */\n              0x12\n                /* \"#utility.yul\":14085:14086   */\n              0x04\n                /* \"#utility.yul\":14078:14093   */\n              mstore\n                /* \"#utility.yul\":14112:14116   */\n              0x24\n                /* \"#utility.yul\":14109:14110   */\n              0x00\n                /* \"#utility.yul\":14102:14117   */\n              revert\n                /* \"#utility.yul\":14129:14309   */\n            tag_292:\n                /* \"#utility.yul\":14177:14254   */\n              0x4e487b7100000000000000000000000000000000000000000000000000000000\n                /* \"#utility.yul\":14174:14175   */\n              0x00\n                /* \"#utility.yul\":14167:14255   */\n              mstore\n                /* \"#utility.yul\":14274:14278   */\n              0x22\n                /* \"#utility.yul\":14271:14272   */\n              0x04\n                /* \"#utility.yul\":14264:14279   */\n              mstore\n                /* \"#utility.yul\":14298:14302   */\n              0x24\n                /* \"#utility.yul\":14295:14296   */\n              0x00\n                /* \"#utility.yul\":14288:14303   */\n              revert\n                /* \"#utility.yul\":14315:14495   */\n            tag_264:\n                /* \"#utility.yul\":14363:14440   */\n              0x4e487b7100000000000000000000000000000000000000000000000000000000\n                /* \"#utility.yul\":14360:14361   */\n              0x00\n                /* \"#utility.yul\":14353:14441   */\n              mstore\n                /* \"#utility.yul\":14460:14464   */\n              0x41\n                /* \"#utility.yul\":14457:14458   */\n              0x04\n                /* \"#utility.yul\":14450:14465   */\n              mstore\n                /* \"#utility.yul\":14484:14488   */\n              0x24\n                /* \"#utility.yul\":14481:14482   */\n              0x00\n                /* \"#utility.yul\":14474:14489   */\n              revert\n                /* \"#utility.yul\":14501:14603   */\n            tag_183:\n              0x00\n                /* \"#utility.yul\":14593:14595   */\n              0x1f\n                /* \"#utility.yul\":14589:14596   */\n              not\n                /* \"#utility.yul\":14584:14586   */\n              0x1f\n                /* \"#utility.yul\":14577:14582   */\n              dup4\n                /* \"#utility.yul\":14573:14587   */\n              add\n                /* \"#utility.yul\":14569:14597   */\n              and\n                /* \"#utility.yul\":14559:14597   */\n              swap1\n              pop\n                /* \"#utility.yul\":14549:14603   */\n              swap2\n              swap1\n              pop\n              jump\t// out\n                /* \"#utility.yul\":14609:14836   */\n            tag_188:\n                /* \"#utility.yul\":14749:14783   */\n              0x5468697320726571756573742068617320616c7265616479206265656e20636f\n                /* \"#utility.yul\":14745:14746   */\n              0x00\n                /* \"#utility.yul\":14737:14743   */\n              dup3\n                /* \"#utility.yul\":14733:14747   */\n              add\n                /* \"#utility.yul\":14726:14784   */\n              mstore\n                /* \"#utility.yul\":14818:14828   */\n              0x6d706c6574656421000000000000000000000000000000000000000000000000\n                /* \"#utility.yul\":14813:14815   */\n              0x20\n                /* \"#utility.yul\":14805:14811   */\n              dup3\n                /* \"#utility.yul\":14801:14816   */\n              add\n                /* \"#utility.yul\":14794:14829   */\n              mstore\n                /* \"#utility.yul\":14715:14836   */\n              pop\n              jump\t// out\n                /* \"#utility.yul\":14842:15014   */\n            tag_193:\n                /* \"#utility.yul\":14982:15006   */\n              0x4f6e6c79206d616e616765727320616c6c6f7765642100000000000000000000\n                /* \"#utility.yul\":14978:14979   */\n              0x00\n                /* \"#utility.yul\":14970:14976   */\n              dup3\n                /* \"#utility.yul\":14966:14980   */\n              add\n                /* \"#utility.yul\":14959:15007   */\n              mstore\n                /* \"#utility.yul\":14948:15014   */\n              pop\n              jump\t// out\n                /* \"#utility.yul\":15020:15263   */\n            tag_198:\n                /* \"#utility.yul\":15160:15194   */\n              0x596f75206e656564206d6f7265206d6f6e657920746f20656e74657220696e74\n                /* \"#utility.yul\":15156:15157   */\n              0x00\n                /* \"#utility.yul\":15148:15154   */\n              dup3\n                /* \"#utility.yul\":15144:15158   */\n              add\n                /* \"#utility.yul\":15137:15195   */\n              mstore\n                /* \"#utility.yul\":15229:15255   */\n              0x6f2074686520636f6e747269627574696f6e206c697374210000000000000000\n                /* \"#utility.yul\":15224:15226   */\n              0x20\n                /* \"#utility.yul\":15216:15222   */\n              dup3\n                /* \"#utility.yul\":15212:15227   */\n              add\n                /* \"#utility.yul\":15205:15256   */\n              mstore\n                /* \"#utility.yul\":15126:15263   */\n              pop\n              jump\t// out\n                /* \"#utility.yul\":15269:15442   */\n            tag_203:\n                /* \"#utility.yul\":15409:15434   */\n              0x496e73756666696369656e7420617070726f76616c7321000000000000000000\n                /* \"#utility.yul\":15405:15406   */\n              0x00\n                /* \"#utility.yul\":15397:15403   */\n              dup3\n                /* \"#utility.yul\":15393:15407   */\n              add\n                /* \"#utility.yul\":15386:15435   */\n              mstore\n                /* \"#utility.yul\":15375:15442   */\n              pop\n              jump\t// out\n                /* \"#utility.yul\":15448:15669   */\n            tag_208:\n                /* \"#utility.yul\":15588:15622   */\n              0x596f752063616e277420617070726f7665206120726571756573742074776963\n                /* \"#utility.yul\":15584:15585   */\n              0x00\n                /* \"#utility.yul\":15576:15582   */\n              dup3\n                /* \"#utility.yul\":15572:15586   */\n              add\n                /* \"#utility.yul\":15565:15623   */\n              mstore\n                /* \"#utility.yul\":15657:15661   */\n              0x6521000000000000000000000000000000000000000000000000000000000000\n                /* \"#utility.yul\":15652:15654   */\n              0x20\n                /* \"#utility.yul\":15644:15650   */\n              dup3\n                /* \"#utility.yul\":15640:15655   */\n              add\n                /* \"#utility.yul\":15633:15662   */\n              mstore\n                /* \"#utility.yul\":15554:15669   */\n              pop\n              jump\t// out\n                /* \"#utility.yul\":15675:15854   */\n            tag_213:\n                /* \"#utility.yul\":15815:15846   */\n              0x596f75206e65656420746f20636f6e7472696275746520666972737421000000\n                /* \"#utility.yul\":15811:15812   */\n              0x00\n                /* \"#utility.yul\":15803:15809   */\n              dup3\n                /* \"#utility.yul\":15799:15813   */\n              add\n                /* \"#utility.yul\":15792:15847   */\n              mstore\n                /* \"#utility.yul\":15781:15854   */\n              pop\n              jump\t// out\n                /* \"#utility.yul\":15860:16039   */\n            tag_218:\n                /* \"#utility.yul\":16000:16031   */\n              0x596f752063616e20636f6e74726962757465206f6e6c79206f6e636521000000\n                /* \"#utility.yul\":15996:15997   */\n              0x00\n                /* \"#utility.yul\":15988:15994   */\n              dup3\n                /* \"#utility.yul\":15984:15998   */\n              add\n                /* \"#utility.yul\":15977:16032   */\n              mstore\n                /* \"#utility.yul\":15966:16039   */\n              pop\n              jump\t// out\n                /* \"#utility.yul\":16045:16167   */\n            tag_137:\n                /* \"#utility.yul\":16118:16142   */\n              tag_315\n                /* \"#utility.yul\":16136:16141   */\n              dup2\n                /* \"#utility.yul\":16118:16142   */\n              tag_169\n              jump\t// in\n            tag_315:\n                /* \"#utility.yul\":16111:16116   */\n              dup2\n                /* \"#utility.yul\":16108:16143   */\n              eq\n                /* \"#utility.yul\":16098:16100   */\n              tag_316\n              jumpi\n                /* \"#utility.yul\":16157:16158   */\n              0x00\n                /* \"#utility.yul\":16154:16155   */\n              dup1\n                /* \"#utility.yul\":16147:16159   */\n              revert\n                /* \"#utility.yul\":16098:16100   */\n            tag_316:\n                /* \"#utility.yul\":16088:16167   */\n              pop\n              jump\t// out\n                /* \"#utility.yul\":16173:16311   */\n            tag_141:\n                /* \"#utility.yul\":16254:16286   */\n              tag_318\n                /* \"#utility.yul\":16280:16285   */\n              dup2\n                /* \"#utility.yul\":16254:16286   */\n              tag_165\n              jump\t// in\n            tag_318:\n                /* \"#utility.yul\":16247:16252   */\n              dup2\n                /* \"#utility.yul\":16244:16287   */\n              eq\n                /* \"#utility.yul\":16234:16236   */\n              tag_319\n              jumpi\n                /* \"#utility.yul\":16301:16302   */\n              0x00\n                /* \"#utility.yul\":16298:16299   */\n              dup1\n                /* \"#utility.yul\":16291:16303   */\n              revert\n                /* \"#utility.yul\":16234:16236   */\n            tag_319:\n                /* \"#utility.yul\":16224:16311   */\n              pop\n              jump\t// out\n                /* \"#utility.yul\":16317:16439   */\n            tag_149:\n                /* \"#utility.yul\":16390:16414   */\n              tag_321\n                /* \"#utility.yul\":16408:16413   */\n              dup2\n                /* \"#utility.yul\":16390:16414   */\n              tag_222\n              jump\t// in\n            tag_321:\n                /* \"#utility.yul\":16383:16388   */\n              dup2\n                /* \"#utility.yul\":16380:16415   */\n              eq\n                /* \"#utility.yul\":16370:16372   */\n              tag_322\n              jumpi\n                /* \"#utility.yul\":16429:16430   */\n              0x00\n                /* \"#utility.yul\":16426:16427   */\n              dup1\n                /* \"#utility.yul\":16419:16431   */\n              revert\n                /* \"#utility.yul\":16370:16372   */\n            tag_322:\n                /* \"#utility.yul\":16360:16439   */\n              pop\n              jump\t// out\n\n            auxdata: 0xa2646970667358221220936f248a39ee9c5cd53368a8baf0e9fe672c80aa6fe60fa4b0140c0c24245a2464736f6c63430008020033\n        }\n    }\n\n    auxdata: 0xa2646970667358221220226441ad6be17aa513d16ebd0dd4709198ed0fd77b2d813dd0b5799bb96c61c564736f6c63430008020033\n}\n","bytecode":{"linkReferences":{},"object":"608060405234801561001057600080fd5b506119f1806100206000396000f3fe608060405234801561001057600080fd5b50600436106100415760003560e01c8063339d50a514610046578063a3303a7514610076578063a6b0363314610092575b600080fd5b610060600480360381019061005b9190610240565b6100b0565b60405161006d919061030c565b60405180910390f35b610090600480360381019061008b9190610240565b6100ef565b005b61009a610190565b6040516100a79190610327565b60405180910390f35b600081815481106100c057600080fd5b906000526020600020016000915054906101000a900473ffffffffffffffffffffffffffffffffffffffff1681565b600081336040516100ff9061021e565b61010a929190610349565b604051809103906000f080158015610126573d6000803e3d6000fd5b5090506000819080600181540180825580915050600190039060005260206000200160009091909190916101000a81548173ffffffffffffffffffffffffffffffffffffffff021916908373ffffffffffffffffffffffffffffffffffffffff1602179055505050565b6060600080548060200260200160405190810160405280929190818152602001828054801561021457602002820191906000526020600020905b8160009054906101000a900473ffffffffffffffffffffffffffffffffffffffff1673ffffffffffffffffffffffffffffffffffffffff16815260200190600101908083116101ca575b5050505050905090565b6115bd806103ff83390190565b60008135905061023a816103e7565b92915050565b60006020828403121561025257600080fd5b60006102608482850161022b565b91505092915050565b60006102758383610281565b60208301905092915050565b61028a816103ab565b82525050565b610299816103ab565b82525050565b60006102aa82610382565b6102b4818561039a565b93506102bf83610372565b8060005b838110156102f05781516102d78882610269565b97506102e28361038d565b9250506001810190506102c3565b5085935050505092915050565b610306816103dd565b82525050565b60006020820190506103216000830184610290565b92915050565b60006020820190508181036000830152610341818461029f565b905092915050565b600060408201905061035e60008301856102fd565b61036b6020830184610290565b9392505050565b6000819050602082019050919050565b600081519050919050565b6000602082019050919050565b600082825260208201905092915050565b60006103b6826103bd565b9050919050565b600073ffffffffffffffffffffffffffffffffffffffff82169050919050565b6000819050919050565b6103f0816103dd565b81146103fb57600080fd5b5056fe60806040523480156200001157600080fd5b50604051620015bd380380620015bd8339818101604052810190620000379190620000b4565b806000806101000a81548173ffffffffffffffffffffffffffffffffffffffff021916908373ffffffffffffffffffffffffffffffffffffffff16021790555081600581905550505062000167565b600081519050620000978162000133565b92915050565b600081519050620000ae816200014d565b92915050565b60008060408385031215620000c857600080fd5b6000620000d8858286016200009d565b9250506020620000eb8582860162000086565b9150509250929050565b6000620001028262000109565b9050919050565b600073ffffffffffffffffffffffffffffffffffffffff82169050919050565b6000819050919050565b6200013e81620000f5565b81146200014a57600080fd5b50565b620001588162000129565b81146200016457600080fd5b50565b61144680620001776000396000f3fe60806040526004361061009c5760003560e01c806381d12c581161006457806381d12c581461018c57806382fde093146101cd5780638a9cfd55146101f8578063937e09b114610235578063d7bb99ba14610260578063d7d1bbdb1461026a5761009c565b806303441006146100a15780630a144391146100ca5780633410452a146101075780634051ddac14610132578063481c6a7514610161575b600080fd5b3480156100ad57600080fd5b506100c860048036038101906100c39190610c11565b610293565b005b3480156100d657600080fd5b506100f160048036038101906100ec9190610b81565b61046d565b6040516100fe9190610dbf565b60405180910390f35b34801561011357600080fd5b5061011c61048d565b6040516101299190610f14565b60405180910390f35b34801561013e57600080fd5b50610147610497565b604051610158959493929190610f2f565b60405180910390f35b34801561016d57600080fd5b506101766104db565b6040516101839190610da4565b60405180910390f35b34801561019857600080fd5b506101b360048036038101906101ae9190610c11565b6104ff565b6040516101c4959493929190610dda565b60405180910390f35b3480156101d957600080fd5b506101e26105ea565b6040516101ef9190610f14565b60405180910390f35b34801561020457600080fd5b5061021f600480360381019061021a9190610baa565b6105f0565b60405161022c9190610f14565b60405180910390f35b34801561024157600080fd5b5061024a610745565b6040516102579190610f14565b60405180910390f35b61026861074b565b005b34801561027657600080fd5b50610291600480360381019061028c9190610c11565b61088d565b005b60008054906101000a900473ffffffffffffffffffffffffffffffffffffffff1673ffffffffffffffffffffffffffffffffffffffff163373ffffffffffffffffffffffffffffffffffffffff1614610321576040517f08c379a000000000000000000000000000000000000000000000000000000000815260040161031890610e54565b60405180910390fd5b6000600460008381526020019081526020016000209050600280546103469190610ff4565b81600301541161038b576040517f08c379a000000000000000000000000000000000000000000000000000000000815260040161038290610e94565b60405180910390fd5b8060020160149054906101000a900460ff16156103dd576040517f08c379a00000000000000000000000000000000000000000000000000000000081526004016103d490610e34565b60405180910390fd5b60018160020160146101000a81548160ff0219169083151502179055508060020160009054906101000a900473ffffffffffffffffffffffffffffffffffffffff1673ffffffffffffffffffffffffffffffffffffffff166108fc82600101549081150290604051600060405180830381858888f19350505050158015610468573d6000803e3d6000fd5b505050565b60016020528060005260406000206000915054906101000a900460ff1681565b6000600354905090565b60008060008060006005544760035460025460008054906101000a900473ffffffffffffffffffffffffffffffffffffffff16945094509450945094509091929394565b60008054906101000a900473ffffffffffffffffffffffffffffffffffffffff1681565b6004602052806000526040600020600091509050806000018054610522906110c1565b80601f016020809104026020016040519081016040528092919081815260200182805461054e906110c1565b801561059b5780601f106105705761010080835404028352916020019161059b565b820191906000526020600020905b81548152906001019060200180831161057e57829003601f168201915b5050505050908060010154908060020160009054906101000a900473ffffffffffffffffffffffffffffffffffffffff16908060020160149054906101000a900460ff16908060030154905085565b60025481565b60008060009054906101000a900473ffffffffffffffffffffffffffffffffffffffff1673ffffffffffffffffffffffffffffffffffffffff163373ffffffffffffffffffffffffffffffffffffffff1614610681576040517f08c379a000000000000000000000000000000000000000000000000000000000815260040161067890610e54565b60405180910390fd5b6003600081548092919061069490611124565b9190505590506000600460008381526020019081526020016000209050848160000190805190602001906106c9929190610a37565b50838160010181905550828160020160006101000a81548173ffffffffffffffffffffffffffffffffffffffff021916908373ffffffffffffffffffffffffffffffffffffffff16021790555060008160020160146101000a81548160ff02191690831515021790555060008160030181905550509392505050565b60055481565b600554341161078f576040517f08c379a000000000000000000000000000000000000000000000000000000000815260040161078690610e74565b60405180910390fd5b600160003373ffffffffffffffffffffffffffffffffffffffff1673ffffffffffffffffffffffffffffffffffffffff16815260200190815260200160002060009054906101000a900460ff161561081c576040517f08c379a000000000000000000000000000000000000000000000000000000000815260040161081390610ef4565b60405180910390fd5b60018060003373ffffffffffffffffffffffffffffffffffffffff1673ffffffffffffffffffffffffffffffffffffffff16815260200190815260200160002060006101000a81548160ff0219169083151502179055506002600081548092919061088690611124565b9190505550565b6000600460008381526020019081526020016000209050600160003373ffffffffffffffffffffffffffffffffffffffff1673ffffffffffffffffffffffffffffffffffffffff16815260200190815260200160002060009054906101000a900460ff16610930576040517f08c379a000000000000000000000000000000000000000000000000000000000815260040161092790610ed4565b60405180910390fd5b8060040160003373ffffffffffffffffffffffffffffffffffffffff1673ffffffffffffffffffffffffffffffffffffffff16815260200190815260200160002060009054906101000a900460ff16156109bf576040517f08c379a00000000000000000000000000000000000000000000000000000000081526004016109b690610eb4565b60405180910390fd5b60018160040160003373ffffffffffffffffffffffffffffffffffffffff1673ffffffffffffffffffffffffffffffffffffffff16815260200190815260200160002060006101000a81548160ff021916908315150217905550806003016000815480929190610a2e90611124565b91905055505050565b828054610a43906110c1565b90600052602060002090601f016020900481019282610a655760008555610aac565b82601f10610a7e57805160ff1916838001178555610aac565b82800160010185558215610aac579182015b82811115610aab578251825591602001919060010190610a90565b5b509050610ab99190610abd565b5090565b5b80821115610ad6576000816000905550600101610abe565b5090565b6000610aed610ae884610fa7565b610f82565b905082815260208101848484011115610b0557600080fd5b610b1084828561107f565b509392505050565b600081359050610b27816113cb565b92915050565b600081359050610b3c816113e2565b92915050565b600082601f830112610b5357600080fd5b8135610b63848260208601610ada565b91505092915050565b600081359050610b7b816113f9565b92915050565b600060208284031215610b9357600080fd5b6000610ba184828501610b18565b91505092915050565b600080600060608486031215610bbf57600080fd5b600084013567ffffffffffffffff811115610bd957600080fd5b610be586828701610b42565b9350506020610bf686828701610b6c565b9250506040610c0786828701610b2d565b9150509250925092565b600060208284031215610c2357600080fd5b6000610c3184828501610b6c565b91505092915050565b610c4381611037565b82525050565b610c5281611025565b82525050565b610c6181611049565b82525050565b6000610c7282610fd8565b610c7c8185610fe3565b9350610c8c81856020860161108e565b610c9581611229565b840191505092915050565b6000610cad602883610fe3565b9150610cb88261123a565b604082019050919050565b6000610cd0601683610fe3565b9150610cdb82611289565b602082019050919050565b6000610cf3603883610fe3565b9150610cfe826112b2565b604082019050919050565b6000610d16601783610fe3565b9150610d2182611301565b602082019050919050565b6000610d39602283610fe3565b9150610d448261132a565b604082019050919050565b6000610d5c601d83610fe3565b9150610d6782611379565b602082019050919050565b6000610d7f601d83610fe3565b9150610d8a826113a2565b602082019050919050565b610d9e81611075565b82525050565b6000602082019050610db96000830184610c49565b92915050565b6000602082019050610dd46000830184610c58565b92915050565b600060a0820190508181036000830152610df48188610c67565b9050610e036020830187610d95565b610e106040830186610c3a565b610e1d6060830185610c58565b610e2a6080830184610d95565b9695505050505050565b60006020820190508181036000830152610e4d81610ca0565b9050919050565b60006020820190508181036000830152610e6d81610cc3565b9050919050565b60006020820190508181036000830152610e8d81610ce6565b9050919050565b60006020820190508181036000830152610ead81610d09565b9050919050565b60006020820190508181036000830152610ecd81610d2c565b9050919050565b60006020820190508181036000830152610eed81610d4f565b9050919050565b60006020820190508181036000830152610f0d81610d72565b9050919050565b6000602082019050610f296000830184610d95565b92915050565b600060a082019050610f446000830188610d95565b610f516020830187610d95565b610f5e6040830186610d95565b610f6b6060830185610d95565b610f786080830184610c49565b9695505050505050565b6000610f8c610f9d565b9050610f9882826110f3565b919050565b6000604051905090565b600067ffffffffffffffff821115610fc257610fc16111fa565b5b610fcb82611229565b9050602081019050919050565b600081519050919050565b600082825260208201905092915050565b6000610fff82611075565b915061100a83611075565b92508261101a5761101961119c565b5b828204905092915050565b600061103082611055565b9050919050565b600061104282611055565b9050919050565b60008115159050919050565b600073ffffffffffffffffffffffffffffffffffffffff82169050919050565b6000819050919050565b82818337600083830152505050565b60005b838110156110ac578082015181840152602081019050611091565b838111156110bb576000848401525b50505050565b600060028204905060018216806110d957607f821691505b602082108114156110ed576110ec6111cb565b5b50919050565b6110fc82611229565b810181811067ffffffffffffffff8211171561111b5761111a6111fa565b5b80604052505050565b600061112f82611075565b91507fffffffffffffffffffffffffffffffffffffffffffffffffffffffffffffffff8214156111625761116161116d565b5b600182019050919050565b7f4e487b7100000000000000000000000000000000000000000000000000000000600052601160045260246000fd5b7f4e487b7100000000000000000000000000000000000000000000000000000000600052601260045260246000fd5b7f4e487b7100000000000000000000000000000000000000000000000000000000600052602260045260246000fd5b7f4e487b7100000000000000000000000000000000000000000000000000000000600052604160045260246000fd5b6000601f19601f8301169050919050565b7f5468697320726571756573742068617320616c7265616479206265656e20636f60008201527f6d706c6574656421000000000000000000000000000000000000000000000000602082015250565b7f4f6e6c79206d616e616765727320616c6c6f7765642100000000000000000000600082015250565b7f596f75206e656564206d6f7265206d6f6e657920746f20656e74657220696e7460008201527f6f2074686520636f6e747269627574696f6e206c697374210000000000000000602082015250565b7f496e73756666696369656e7420617070726f76616c7321000000000000000000600082015250565b7f596f752063616e277420617070726f766520612072657175657374207477696360008201527f6521000000000000000000000000000000000000000000000000000000000000602082015250565b7f596f75206e65656420746f20636f6e7472696275746520666972737421000000600082015250565b7f596f752063616e20636f6e74726962757465206f6e6c79206f6e636521000000600082015250565b6113d481611025565b81146113df57600080fd5b50565b6113eb81611037565b81146113f657600080fd5b50565b61140281611075565b811461140d57600080fd5b5056fea2646970667358221220936f248a39ee9c5cd53368a8baf0e9fe672c80aa6fe60fa4b0140c0c24245a2464736f6c63430008020033a2646970667358221220226441ad6be17aa513d16ebd0dd4709198ed0fd77b2d813dd0b5799bb96c61c564736f6c63430008020033","opcodes":"PUSH1 0x80 PUSH1 0x40 MSTORE CALLVALUE DUP1 ISZERO PUSH2 0x10 JUMPI PUSH1 0x0 DUP1 REVERT JUMPDEST POP PUSH2 0x19F1 DUP1 PUSH2 0x20 PUSH1 0x0 CODECOPY PUSH1 0x0 RETURN INVALID PUSH1 0x80 PUSH1 0x40 MSTORE CALLVALUE DUP1 ISZERO PUSH2 0x10 JUMPI PUSH1 0x0 DUP1 REVERT JUMPDEST POP PUSH1 0x4 CALLDATASIZE LT PUSH2 0x41 JUMPI PUSH1 0x0 CALLDATALOAD PUSH1 0xE0 SHR DUP1 PUSH4 0x339D50A5 EQ PUSH2 0x46 JUMPI DUP1 PUSH4 0xA3303A75 EQ PUSH2 0x76 JUMPI DUP1 PUSH4 0xA6B03633 EQ PUSH2 0x92 JUMPI JUMPDEST PUSH1 0x0 DUP1 REVERT JUMPDEST PUSH2 0x60 PUSH1 0x4 DUP1 CALLDATASIZE SUB DUP2 ADD SWAP1 PUSH2 0x5B SWAP2 SWAP1 PUSH2 0x240 JUMP JUMPDEST PUSH2 0xB0 JUMP JUMPDEST PUSH1 0x40 MLOAD PUSH2 0x6D SWAP2 SWAP1 PUSH2 0x30C JUMP JUMPDEST PUSH1 0x40 MLOAD DUP1 SWAP2 SUB SWAP1 RETURN JUMPDEST PUSH2 0x90 PUSH1 0x4 DUP1 CALLDATASIZE SUB DUP2 ADD SWAP1 PUSH2 0x8B SWAP2 SWAP1 PUSH2 0x240 JUMP JUMPDEST PUSH2 0xEF JUMP JUMPDEST STOP JUMPDEST PUSH2 0x9A PUSH2 0x190 JUMP JUMPDEST PUSH1 0x40 MLOAD PUSH2 0xA7 SWAP2 SWAP1 PUSH2 0x327 JUMP JUMPDEST PUSH1 0x40 MLOAD DUP1 SWAP2 SUB SWAP1 RETURN JUMPDEST PUSH1 0x0 DUP2 DUP2 SLOAD DUP2 LT PUSH2 0xC0 JUMPI PUSH1 0x0 DUP1 REVERT JUMPDEST SWAP1 PUSH1 0x0 MSTORE PUSH1 0x20 PUSH1 0x0 KECCAK256 ADD PUSH1 0x0 SWAP2 POP SLOAD SWAP1 PUSH2 0x100 EXP SWAP1 DIV PUSH20 0xFFFFFFFFFFFFFFFFFFFFFFFFFFFFFFFFFFFFFFFF AND DUP2 JUMP JUMPDEST PUSH1 0x0 DUP2 CALLER PUSH1 0x40 MLOAD PUSH2 0xFF SWAP1 PUSH2 0x21E JUMP JUMPDEST PUSH2 0x10A SWAP3 SWAP2 SWAP1 PUSH2 0x349 JUMP JUMPDEST PUSH1 0x40 MLOAD DUP1 SWAP2 SUB SWAP1 PUSH1 0x0 CREATE DUP1 ISZERO DUP1 ISZERO PUSH2 0x126 JUMPI RETURNDATASIZE PUSH1 0x0 DUP1 RETURNDATACOPY RETURNDATASIZE PUSH1 0x0 REVERT JUMPDEST POP SWAP1 POP PUSH1 0x0 DUP2 SWAP1 DUP1 PUSH1 0x1 DUP2 SLOAD ADD DUP1 DUP3 SSTORE DUP1 SWAP2 POP POP PUSH1 0x1 SWAP1 SUB SWAP1 PUSH1 0x0 MSTORE PUSH1 0x20 PUSH1 0x0 KECCAK256 ADD PUSH1 0x0 SWAP1 SWAP2 SWAP1 SWAP2 SWAP1 SWAP2 PUSH2 0x100 EXP DUP2 SLOAD DUP2 PUSH20 0xFFFFFFFFFFFFFFFFFFFFFFFFFFFFFFFFFFFFFFFF MUL NOT AND SWAP1 DUP4 PUSH20 0xFFFFFFFFFFFFFFFFFFFFFFFFFFFFFFFFFFFFFFFF AND MUL OR SWAP1 SSTORE POP POP POP JUMP JUMPDEST PUSH1 0x60 PUSH1 0x0 DUP1 SLOAD DUP1 PUSH1 0x20 MUL PUSH1 0x20 ADD PUSH1 0x40 MLOAD SWAP1 DUP2 ADD PUSH1 0x40 MSTORE DUP1 SWAP3 SWAP2 SWAP1 DUP2 DUP2 MSTORE PUSH1 0x20 ADD DUP3 DUP1 SLOAD DUP1 ISZERO PUSH2 0x214 JUMPI PUSH1 0x20 MUL DUP3 ADD SWAP2 SWAP1 PUSH1 0x0 MSTORE PUSH1 0x20 PUSH1 0x0 KECCAK256 SWAP1 JUMPDEST DUP2 PUSH1 0x0 SWAP1 SLOAD SWAP1 PUSH2 0x100 EXP SWAP1 DIV PUSH20 0xFFFFFFFFFFFFFFFFFFFFFFFFFFFFFFFFFFFFFFFF AND PUSH20 0xFFFFFFFFFFFFFFFFFFFFFFFFFFFFFFFFFFFFFFFF AND DUP2 MSTORE PUSH1 0x20 ADD SWAP1 PUSH1 0x1 ADD SWAP1 DUP1 DUP4 GT PUSH2 0x1CA JUMPI JUMPDEST POP POP POP POP POP SWAP1 POP SWAP1 JUMP JUMPDEST PUSH2 0x15BD DUP1 PUSH2 0x3FF DUP4 CODECOPY ADD SWAP1 JUMP JUMPDEST PUSH1 0x0 DUP2 CALLDATALOAD SWAP1 POP PUSH2 0x23A DUP2 PUSH2 0x3E7 JUMP JUMPDEST SWAP3 SWAP2 POP POP JUMP JUMPDEST PUSH1 0x0 PUSH1 0x20 DUP3 DUP5 SUB SLT ISZERO PUSH2 0x252 JUMPI PUSH1 0x0 DUP1 REVERT JUMPDEST PUSH1 0x0 PUSH2 0x260 DUP5 DUP3 DUP6 ADD PUSH2 0x22B JUMP JUMPDEST SWAP2 POP POP SWAP3 SWAP2 POP POP JUMP JUMPDEST PUSH1 0x0 PUSH2 0x275 DUP4 DUP4 PUSH2 0x281 JUMP JUMPDEST PUSH1 0x20 DUP4 ADD SWAP1 POP SWAP3 SWAP2 POP POP JUMP JUMPDEST PUSH2 0x28A DUP2 PUSH2 0x3AB JUMP JUMPDEST DUP3 MSTORE POP POP JUMP JUMPDEST PUSH2 0x299 DUP2 PUSH2 0x3AB JUMP JUMPDEST DUP3 MSTORE POP POP JUMP JUMPDEST PUSH1 0x0 PUSH2 0x2AA DUP3 PUSH2 0x382 JUMP JUMPDEST PUSH2 0x2B4 DUP2 DUP6 PUSH2 0x39A JUMP JUMPDEST SWAP4 POP PUSH2 0x2BF DUP4 PUSH2 0x372 JUMP JUMPDEST DUP1 PUSH1 0x0 JUMPDEST DUP4 DUP2 LT ISZERO PUSH2 0x2F0 JUMPI DUP2 MLOAD PUSH2 0x2D7 DUP9 DUP3 PUSH2 0x269 JUMP JUMPDEST SWAP8 POP PUSH2 0x2E2 DUP4 PUSH2 0x38D JUMP JUMPDEST SWAP3 POP POP PUSH1 0x1 DUP2 ADD SWAP1 POP PUSH2 0x2C3 JUMP JUMPDEST POP DUP6 SWAP4 POP POP POP POP SWAP3 SWAP2 POP POP JUMP JUMPDEST PUSH2 0x306 DUP2 PUSH2 0x3DD JUMP JUMPDEST DUP3 MSTORE POP POP JUMP JUMPDEST PUSH1 0x0 PUSH1 0x20 DUP3 ADD SWAP1 POP PUSH2 0x321 PUSH1 0x0 DUP4 ADD DUP5 PUSH2 0x290 JUMP JUMPDEST SWAP3 SWAP2 POP POP JUMP JUMPDEST PUSH1 0x0 PUSH1 0x20 DUP3 ADD SWAP1 POP DUP2 DUP2 SUB PUSH1 0x0 DUP4 ADD MSTORE PUSH2 0x341 DUP2 DUP5 PUSH2 0x29F JUMP JUMPDEST SWAP1 POP SWAP3 SWAP2 POP POP JUMP JUMPDEST PUSH1 0x0 PUSH1 0x40 DUP3 ADD SWAP1 POP PUSH2 0x35E PUSH1 0x0 DUP4 ADD DUP6 PUSH2 0x2FD JUMP JUMPDEST PUSH2 0x36B PUSH1 0x20 DUP4 ADD DUP5 PUSH2 0x290 JUMP JUMPDEST SWAP4 SWAP3 POP POP POP JUMP JUMPDEST PUSH1 0x0 DUP2 SWAP1 POP PUSH1 0x20 DUP3 ADD SWAP1 POP SWAP2 SWAP1 POP JUMP JUMPDEST PUSH1 0x0 DUP2 MLOAD SWAP1 POP SWAP2 SWAP1 POP JUMP JUMPDEST PUSH1 0x0 PUSH1 0x20 DUP3 ADD SWAP1 POP SWAP2 SWAP1 POP JUMP JUMPDEST PUSH1 0x0 DUP3 DUP3 MSTORE PUSH1 0x20 DUP3 ADD SWAP1 POP SWAP3 SWAP2 POP POP JUMP JUMPDEST PUSH1 0x0 PUSH2 0x3B6 DUP3 PUSH2 0x3BD JUMP JUMPDEST SWAP1 POP SWAP2 SWAP1 POP JUMP JUMPDEST PUSH1 0x0 PUSH20 0xFFFFFFFFFFFFFFFFFFFFFFFFFFFFFFFFFFFFFFFF DUP3 AND SWAP1 POP SWAP2 SWAP1 POP JUMP JUMPDEST PUSH1 0x0 DUP2 SWAP1 POP SWAP2 SWAP1 POP JUMP JUMPDEST PUSH2 0x3F0 DUP2 PUSH2 0x3DD JUMP JUMPDEST DUP2 EQ PUSH2 0x3FB JUMPI PUSH1 0x0 DUP1 REVERT JUMPDEST POP JUMP INVALID PUSH1 0x80 PUSH1 0x40 MSTORE CALLVALUE DUP1 ISZERO PUSH3 0x11 JUMPI PUSH1 0x0 DUP1 REVERT JUMPDEST POP PUSH1 0x40 MLOAD PUSH3 0x15BD CODESIZE SUB DUP1 PUSH3 0x15BD DUP4 CODECOPY DUP2 DUP2 ADD PUSH1 0x40 MSTORE DUP2 ADD SWAP1 PUSH3 0x37 SWAP2 SWAP1 PUSH3 0xB4 JUMP JUMPDEST DUP1 PUSH1 0x0 DUP1 PUSH2 0x100 EXP DUP2 SLOAD DUP2 PUSH20 0xFFFFFFFFFFFFFFFFFFFFFFFFFFFFFFFFFFFFFFFF MUL NOT AND SWAP1 DUP4 PUSH20 0xFFFFFFFFFFFFFFFFFFFFFFFFFFFFFFFFFFFFFFFF AND MUL OR SWAP1 SSTORE POP DUP2 PUSH1 0x5 DUP2 SWAP1 SSTORE POP POP POP PUSH3 0x167 JUMP JUMPDEST PUSH1 0x0 DUP2 MLOAD SWAP1 POP PUSH3 0x97 DUP2 PUSH3 0x133 JUMP JUMPDEST SWAP3 SWAP2 POP POP JUMP JUMPDEST PUSH1 0x0 DUP2 MLOAD SWAP1 POP PUSH3 0xAE DUP2 PUSH3 0x14D JUMP JUMPDEST SWAP3 SWAP2 POP POP JUMP JUMPDEST PUSH1 0x0 DUP1 PUSH1 0x40 DUP4 DUP6 SUB SLT ISZERO PUSH3 0xC8 JUMPI PUSH1 0x0 DUP1 REVERT JUMPDEST PUSH1 0x0 PUSH3 0xD8 DUP6 DUP3 DUP7 ADD PUSH3 0x9D JUMP JUMPDEST SWAP3 POP POP PUSH1 0x20 PUSH3 0xEB DUP6 DUP3 DUP7 ADD PUSH3 0x86 JUMP JUMPDEST SWAP2 POP POP SWAP3 POP SWAP3 SWAP1 POP JUMP JUMPDEST PUSH1 0x0 PUSH3 0x102 DUP3 PUSH3 0x109 JUMP JUMPDEST SWAP1 POP SWAP2 SWAP1 POP JUMP JUMPDEST PUSH1 0x0 PUSH20 0xFFFFFFFFFFFFFFFFFFFFFFFFFFFFFFFFFFFFFFFF DUP3 AND SWAP1 POP SWAP2 SWAP1 POP JUMP JUMPDEST PUSH1 0x0 DUP2 SWAP1 POP SWAP2 SWAP1 POP JUMP JUMPDEST PUSH3 0x13E DUP2 PUSH3 0xF5 JUMP JUMPDEST DUP2 EQ PUSH3 0x14A JUMPI PUSH1 0x0 DUP1 REVERT JUMPDEST POP JUMP JUMPDEST PUSH3 0x158 DUP2 PUSH3 0x129 JUMP JUMPDEST DUP2 EQ PUSH3 0x164 JUMPI PUSH1 0x0 DUP1 REVERT JUMPDEST POP JUMP JUMPDEST PUSH2 0x1446 DUP1 PUSH3 0x177 PUSH1 0x0 CODECOPY PUSH1 0x0 RETURN INVALID PUSH1 0x80 PUSH1 0x40 MSTORE PUSH1 0x4 CALLDATASIZE LT PUSH2 0x9C JUMPI PUSH1 0x0 CALLDATALOAD PUSH1 0xE0 SHR DUP1 PUSH4 0x81D12C58 GT PUSH2 0x64 JUMPI DUP1 PUSH4 0x81D12C58 EQ PUSH2 0x18C JUMPI DUP1 PUSH4 0x82FDE093 EQ PUSH2 0x1CD JUMPI DUP1 PUSH4 0x8A9CFD55 EQ PUSH2 0x1F8 JUMPI DUP1 PUSH4 0x937E09B1 EQ PUSH2 0x235 JUMPI DUP1 PUSH4 0xD7BB99BA EQ PUSH2 0x260 JUMPI DUP1 PUSH4 0xD7D1BBDB EQ PUSH2 0x26A JUMPI PUSH2 0x9C JUMP JUMPDEST DUP1 PUSH4 0x3441006 EQ PUSH2 0xA1 JUMPI DUP1 PUSH4 0xA144391 EQ PUSH2 0xCA JUMPI DUP1 PUSH4 0x3410452A EQ PUSH2 0x107 JUMPI DUP1 PUSH4 0x4051DDAC EQ PUSH2 0x132 JUMPI DUP1 PUSH4 0x481C6A75 EQ PUSH2 0x161 JUMPI JUMPDEST PUSH1 0x0 DUP1 REVERT JUMPDEST CALLVALUE DUP1 ISZERO PUSH2 0xAD JUMPI PUSH1 0x0 DUP1 REVERT JUMPDEST POP PUSH2 0xC8 PUSH1 0x4 DUP1 CALLDATASIZE SUB DUP2 ADD SWAP1 PUSH2 0xC3 SWAP2 SWAP1 PUSH2 0xC11 JUMP JUMPDEST PUSH2 0x293 JUMP JUMPDEST STOP JUMPDEST CALLVALUE DUP1 ISZERO PUSH2 0xD6 JUMPI PUSH1 0x0 DUP1 REVERT JUMPDEST POP PUSH2 0xF1 PUSH1 0x4 DUP1 CALLDATASIZE SUB DUP2 ADD SWAP1 PUSH2 0xEC SWAP2 SWAP1 PUSH2 0xB81 JUMP JUMPDEST PUSH2 0x46D JUMP JUMPDEST PUSH1 0x40 MLOAD PUSH2 0xFE SWAP2 SWAP1 PUSH2 0xDBF JUMP JUMPDEST PUSH1 0x40 MLOAD DUP1 SWAP2 SUB SWAP1 RETURN JUMPDEST CALLVALUE DUP1 ISZERO PUSH2 0x113 JUMPI PUSH1 0x0 DUP1 REVERT JUMPDEST POP PUSH2 0x11C PUSH2 0x48D JUMP JUMPDEST PUSH1 0x40 MLOAD PUSH2 0x129 SWAP2 SWAP1 PUSH2 0xF14 JUMP JUMPDEST PUSH1 0x40 MLOAD DUP1 SWAP2 SUB SWAP1 RETURN JUMPDEST CALLVALUE DUP1 ISZERO PUSH2 0x13E JUMPI PUSH1 0x0 DUP1 REVERT JUMPDEST POP PUSH2 0x147 PUSH2 0x497 JUMP JUMPDEST PUSH1 0x40 MLOAD PUSH2 0x158 SWAP6 SWAP5 SWAP4 SWAP3 SWAP2 SWAP1 PUSH2 0xF2F JUMP JUMPDEST PUSH1 0x40 MLOAD DUP1 SWAP2 SUB SWAP1 RETURN JUMPDEST CALLVALUE DUP1 ISZERO PUSH2 0x16D JUMPI PUSH1 0x0 DUP1 REVERT JUMPDEST POP PUSH2 0x176 PUSH2 0x4DB JUMP JUMPDEST PUSH1 0x40 MLOAD PUSH2 0x183 SWAP2 SWAP1 PUSH2 0xDA4 JUMP JUMPDEST PUSH1 0x40 MLOAD DUP1 SWAP2 SUB SWAP1 RETURN JUMPDEST CALLVALUE DUP1 ISZERO PUSH2 0x198 JUMPI PUSH1 0x0 DUP1 REVERT JUMPDEST POP PUSH2 0x1B3 PUSH1 0x4 DUP1 CALLDATASIZE SUB DUP2 ADD SWAP1 PUSH2 0x1AE SWAP2 SWAP1 PUSH2 0xC11 JUMP JUMPDEST PUSH2 0x4FF JUMP JUMPDEST PUSH1 0x40 MLOAD PUSH2 0x1C4 SWAP6 SWAP5 SWAP4 SWAP3 SWAP2 SWAP1 PUSH2 0xDDA JUMP JUMPDEST PUSH1 0x40 MLOAD DUP1 SWAP2 SUB SWAP1 RETURN JUMPDEST CALLVALUE DUP1 ISZERO PUSH2 0x1D9 JUMPI PUSH1 0x0 DUP1 REVERT JUMPDEST POP PUSH2 0x1E2 PUSH2 0x5EA JUMP JUMPDEST PUSH1 0x40 MLOAD PUSH2 0x1EF SWAP2 SWAP1 PUSH2 0xF14 JUMP JUMPDEST PUSH1 0x40 MLOAD DUP1 SWAP2 SUB SWAP1 RETURN JUMPDEST CALLVALUE DUP1 ISZERO PUSH2 0x204 JUMPI PUSH1 0x0 DUP1 REVERT JUMPDEST POP PUSH2 0x21F PUSH1 0x4 DUP1 CALLDATASIZE SUB DUP2 ADD SWAP1 PUSH2 0x21A SWAP2 SWAP1 PUSH2 0xBAA JUMP JUMPDEST PUSH2 0x5F0 JUMP JUMPDEST PUSH1 0x40 MLOAD PUSH2 0x22C SWAP2 SWAP1 PUSH2 0xF14 JUMP JUMPDEST PUSH1 0x40 MLOAD DUP1 SWAP2 SUB SWAP1 RETURN JUMPDEST CALLVALUE DUP1 ISZERO PUSH2 0x241 JUMPI PUSH1 0x0 DUP1 REVERT JUMPDEST POP PUSH2 0x24A PUSH2 0x745 JUMP JUMPDEST PUSH1 0x40 MLOAD PUSH2 0x257 SWAP2 SWAP1 PUSH2 0xF14 JUMP JUMPDEST PUSH1 0x40 MLOAD DUP1 SWAP2 SUB SWAP1 RETURN JUMPDEST PUSH2 0x268 PUSH2 0x74B JUMP JUMPDEST STOP JUMPDEST CALLVALUE DUP1 ISZERO PUSH2 0x276 JUMPI PUSH1 0x0 DUP1 REVERT JUMPDEST POP PUSH2 0x291 PUSH1 0x4 DUP1 CALLDATASIZE SUB DUP2 ADD SWAP1 PUSH2 0x28C SWAP2 SWAP1 PUSH2 0xC11 JUMP JUMPDEST PUSH2 0x88D JUMP JUMPDEST STOP JUMPDEST PUSH1 0x0 DUP1 SLOAD SWAP1 PUSH2 0x100 EXP SWAP1 DIV PUSH20 0xFFFFFFFFFFFFFFFFFFFFFFFFFFFFFFFFFFFFFFFF AND PUSH20 0xFFFFFFFFFFFFFFFFFFFFFFFFFFFFFFFFFFFFFFFF AND CALLER PUSH20 0xFFFFFFFFFFFFFFFFFFFFFFFFFFFFFFFFFFFFFFFF AND EQ PUSH2 0x321 JUMPI PUSH1 0x40 MLOAD PUSH32 0x8C379A000000000000000000000000000000000000000000000000000000000 DUP2 MSTORE PUSH1 0x4 ADD PUSH2 0x318 SWAP1 PUSH2 0xE54 JUMP JUMPDEST PUSH1 0x40 MLOAD DUP1 SWAP2 SUB SWAP1 REVERT JUMPDEST PUSH1 0x0 PUSH1 0x4 PUSH1 0x0 DUP4 DUP2 MSTORE PUSH1 0x20 ADD SWAP1 DUP2 MSTORE PUSH1 0x20 ADD PUSH1 0x0 KECCAK256 SWAP1 POP PUSH1 0x2 DUP1 SLOAD PUSH2 0x346 SWAP2 SWAP1 PUSH2 0xFF4 JUMP JUMPDEST DUP2 PUSH1 0x3 ADD SLOAD GT PUSH2 0x38B JUMPI PUSH1 0x40 MLOAD PUSH32 0x8C379A000000000000000000000000000000000000000000000000000000000 DUP2 MSTORE PUSH1 0x4 ADD PUSH2 0x382 SWAP1 PUSH2 0xE94 JUMP JUMPDEST PUSH1 0x40 MLOAD DUP1 SWAP2 SUB SWAP1 REVERT JUMPDEST DUP1 PUSH1 0x2 ADD PUSH1 0x14 SWAP1 SLOAD SWAP1 PUSH2 0x100 EXP SWAP1 DIV PUSH1 0xFF AND ISZERO PUSH2 0x3DD JUMPI PUSH1 0x40 MLOAD PUSH32 0x8C379A000000000000000000000000000000000000000000000000000000000 DUP2 MSTORE PUSH1 0x4 ADD PUSH2 0x3D4 SWAP1 PUSH2 0xE34 JUMP JUMPDEST PUSH1 0x40 MLOAD DUP1 SWAP2 SUB SWAP1 REVERT JUMPDEST PUSH1 0x1 DUP2 PUSH1 0x2 ADD PUSH1 0x14 PUSH2 0x100 EXP DUP2 SLOAD DUP2 PUSH1 0xFF MUL NOT AND SWAP1 DUP4 ISZERO ISZERO MUL OR SWAP1 SSTORE POP DUP1 PUSH1 0x2 ADD PUSH1 0x0 SWAP1 SLOAD SWAP1 PUSH2 0x100 EXP SWAP1 DIV PUSH20 0xFFFFFFFFFFFFFFFFFFFFFFFFFFFFFFFFFFFFFFFF AND PUSH20 0xFFFFFFFFFFFFFFFFFFFFFFFFFFFFFFFFFFFFFFFF AND PUSH2 0x8FC DUP3 PUSH1 0x1 ADD SLOAD SWAP1 DUP2 ISZERO MUL SWAP1 PUSH1 0x40 MLOAD PUSH1 0x0 PUSH1 0x40 MLOAD DUP1 DUP4 SUB DUP2 DUP6 DUP9 DUP9 CALL SWAP4 POP POP POP POP ISZERO DUP1 ISZERO PUSH2 0x468 JUMPI RETURNDATASIZE PUSH1 0x0 DUP1 RETURNDATACOPY RETURNDATASIZE PUSH1 0x0 REVERT JUMPDEST POP POP POP JUMP JUMPDEST PUSH1 0x1 PUSH1 0x20 MSTORE DUP1 PUSH1 0x0 MSTORE PUSH1 0x40 PUSH1 0x0 KECCAK256 PUSH1 0x0 SWAP2 POP SLOAD SWAP1 PUSH2 0x100 EXP SWAP1 DIV PUSH1 0xFF AND DUP2 JUMP JUMPDEST PUSH1 0x0 PUSH1 0x3 SLOAD SWAP1 POP SWAP1 JUMP JUMPDEST PUSH1 0x0 DUP1 PUSH1 0x0 DUP1 PUSH1 0x0 PUSH1 0x5 SLOAD SELFBALANCE PUSH1 0x3 SLOAD PUSH1 0x2 SLOAD PUSH1 0x0 DUP1 SLOAD SWAP1 PUSH2 0x100 EXP SWAP1 DIV PUSH20 0xFFFFFFFFFFFFFFFFFFFFFFFFFFFFFFFFFFFFFFFF AND SWAP5 POP SWAP5 POP SWAP5 POP SWAP5 POP SWAP5 POP SWAP1 SWAP2 SWAP3 SWAP4 SWAP5 JUMP JUMPDEST PUSH1 0x0 DUP1 SLOAD SWAP1 PUSH2 0x100 EXP SWAP1 DIV PUSH20 0xFFFFFFFFFFFFFFFFFFFFFFFFFFFFFFFFFFFFFFFF AND DUP2 JUMP JUMPDEST PUSH1 0x4 PUSH1 0x20 MSTORE DUP1 PUSH1 0x0 MSTORE PUSH1 0x40 PUSH1 0x0 KECCAK256 PUSH1 0x0 SWAP2 POP SWAP1 POP DUP1 PUSH1 0x0 ADD DUP1 SLOAD PUSH2 0x522 SWAP1 PUSH2 0x10C1 JUMP JUMPDEST DUP1 PUSH1 0x1F ADD PUSH1 0x20 DUP1 SWAP2 DIV MUL PUSH1 0x20 ADD PUSH1 0x40 MLOAD SWAP1 DUP2 ADD PUSH1 0x40 MSTORE DUP1 SWAP3 SWAP2 SWAP1 DUP2 DUP2 MSTORE PUSH1 0x20 ADD DUP3 DUP1 SLOAD PUSH2 0x54E SWAP1 PUSH2 0x10C1 JUMP JUMPDEST DUP1 ISZERO PUSH2 0x59B JUMPI DUP1 PUSH1 0x1F LT PUSH2 0x570 JUMPI PUSH2 0x100 DUP1 DUP4 SLOAD DIV MUL DUP4 MSTORE SWAP2 PUSH1 0x20 ADD SWAP2 PUSH2 0x59B JUMP JUMPDEST DUP3 ADD SWAP2 SWAP1 PUSH1 0x0 MSTORE PUSH1 0x20 PUSH1 0x0 KECCAK256 SWAP1 JUMPDEST DUP2 SLOAD DUP2 MSTORE SWAP1 PUSH1 0x1 ADD SWAP1 PUSH1 0x20 ADD DUP1 DUP4 GT PUSH2 0x57E JUMPI DUP3 SWAP1 SUB PUSH1 0x1F AND DUP3 ADD SWAP2 JUMPDEST POP POP POP POP POP SWAP1 DUP1 PUSH1 0x1 ADD SLOAD SWAP1 DUP1 PUSH1 0x2 ADD PUSH1 0x0 SWAP1 SLOAD SWAP1 PUSH2 0x100 EXP SWAP1 DIV PUSH20 0xFFFFFFFFFFFFFFFFFFFFFFFFFFFFFFFFFFFFFFFF AND SWAP1 DUP1 PUSH1 0x2 ADD PUSH1 0x14 SWAP1 SLOAD SWAP1 PUSH2 0x100 EXP SWAP1 DIV PUSH1 0xFF AND SWAP1 DUP1 PUSH1 0x3 ADD SLOAD SWAP1 POP DUP6 JUMP JUMPDEST PUSH1 0x2 SLOAD DUP2 JUMP JUMPDEST PUSH1 0x0 DUP1 PUSH1 0x0 SWAP1 SLOAD SWAP1 PUSH2 0x100 EXP SWAP1 DIV PUSH20 0xFFFFFFFFFFFFFFFFFFFFFFFFFFFFFFFFFFFFFFFF AND PUSH20 0xFFFFFFFFFFFFFFFFFFFFFFFFFFFFFFFFFFFFFFFF AND CALLER PUSH20 0xFFFFFFFFFFFFFFFFFFFFFFFFFFFFFFFFFFFFFFFF AND EQ PUSH2 0x681 JUMPI PUSH1 0x40 MLOAD PUSH32 0x8C379A000000000000000000000000000000000000000000000000000000000 DUP2 MSTORE PUSH1 0x4 ADD PUSH2 0x678 SWAP1 PUSH2 0xE54 JUMP JUMPDEST PUSH1 0x40 MLOAD DUP1 SWAP2 SUB SWAP1 REVERT JUMPDEST PUSH1 0x3 PUSH1 0x0 DUP2 SLOAD DUP1 SWAP3 SWAP2 SWAP1 PUSH2 0x694 SWAP1 PUSH2 0x1124 JUMP JUMPDEST SWAP2 SWAP1 POP SSTORE SWAP1 POP PUSH1 0x0 PUSH1 0x4 PUSH1 0x0 DUP4 DUP2 MSTORE PUSH1 0x20 ADD SWAP1 DUP2 MSTORE PUSH1 0x20 ADD PUSH1 0x0 KECCAK256 SWAP1 POP DUP5 DUP2 PUSH1 0x0 ADD SWAP1 DUP1 MLOAD SWAP1 PUSH1 0x20 ADD SWAP1 PUSH2 0x6C9 SWAP3 SWAP2 SWAP1 PUSH2 0xA37 JUMP JUMPDEST POP DUP4 DUP2 PUSH1 0x1 ADD DUP2 SWAP1 SSTORE POP DUP3 DUP2 PUSH1 0x2 ADD PUSH1 0x0 PUSH2 0x100 EXP DUP2 SLOAD DUP2 PUSH20 0xFFFFFFFFFFFFFFFFFFFFFFFFFFFFFFFFFFFFFFFF MUL NOT AND SWAP1 DUP4 PUSH20 0xFFFFFFFFFFFFFFFFFFFFFFFFFFFFFFFFFFFFFFFF AND MUL OR SWAP1 SSTORE POP PUSH1 0x0 DUP2 PUSH1 0x2 ADD PUSH1 0x14 PUSH2 0x100 EXP DUP2 SLOAD DUP2 PUSH1 0xFF MUL NOT AND SWAP1 DUP4 ISZERO ISZERO MUL OR SWAP1 SSTORE POP PUSH1 0x0 DUP2 PUSH1 0x3 ADD DUP2 SWAP1 SSTORE POP POP SWAP4 SWAP3 POP POP POP JUMP JUMPDEST PUSH1 0x5 SLOAD DUP2 JUMP JUMPDEST PUSH1 0x5 SLOAD CALLVALUE GT PUSH2 0x78F JUMPI PUSH1 0x40 MLOAD PUSH32 0x8C379A000000000000000000000000000000000000000000000000000000000 DUP2 MSTORE PUSH1 0x4 ADD PUSH2 0x786 SWAP1 PUSH2 0xE74 JUMP JUMPDEST PUSH1 0x40 MLOAD DUP1 SWAP2 SUB SWAP1 REVERT JUMPDEST PUSH1 0x1 PUSH1 0x0 CALLER PUSH20 0xFFFFFFFFFFFFFFFFFFFFFFFFFFFFFFFFFFFFFFFF AND PUSH20 0xFFFFFFFFFFFFFFFFFFFFFFFFFFFFFFFFFFFFFFFF AND DUP2 MSTORE PUSH1 0x20 ADD SWAP1 DUP2 MSTORE PUSH1 0x20 ADD PUSH1 0x0 KECCAK256 PUSH1 0x0 SWAP1 SLOAD SWAP1 PUSH2 0x100 EXP SWAP1 DIV PUSH1 0xFF AND ISZERO PUSH2 0x81C JUMPI PUSH1 0x40 MLOAD PUSH32 0x8C379A000000000000000000000000000000000000000000000000000000000 DUP2 MSTORE PUSH1 0x4 ADD PUSH2 0x813 SWAP1 PUSH2 0xEF4 JUMP JUMPDEST PUSH1 0x40 MLOAD DUP1 SWAP2 SUB SWAP1 REVERT JUMPDEST PUSH1 0x1 DUP1 PUSH1 0x0 CALLER PUSH20 0xFFFFFFFFFFFFFFFFFFFFFFFFFFFFFFFFFFFFFFFF AND PUSH20 0xFFFFFFFFFFFFFFFFFFFFFFFFFFFFFFFFFFFFFFFF AND DUP2 MSTORE PUSH1 0x20 ADD SWAP1 DUP2 MSTORE PUSH1 0x20 ADD PUSH1 0x0 KECCAK256 PUSH1 0x0 PUSH2 0x100 EXP DUP2 SLOAD DUP2 PUSH1 0xFF MUL NOT AND SWAP1 DUP4 ISZERO ISZERO MUL OR SWAP1 SSTORE POP PUSH1 0x2 PUSH1 0x0 DUP2 SLOAD DUP1 SWAP3 SWAP2 SWAP1 PUSH2 0x886 SWAP1 PUSH2 0x1124 JUMP JUMPDEST SWAP2 SWAP1 POP SSTORE POP JUMP JUMPDEST PUSH1 0x0 PUSH1 0x4 PUSH1 0x0 DUP4 DUP2 MSTORE PUSH1 0x20 ADD SWAP1 DUP2 MSTORE PUSH1 0x20 ADD PUSH1 0x0 KECCAK256 SWAP1 POP PUSH1 0x1 PUSH1 0x0 CALLER PUSH20 0xFFFFFFFFFFFFFFFFFFFFFFFFFFFFFFFFFFFFFFFF AND PUSH20 0xFFFFFFFFFFFFFFFFFFFFFFFFFFFFFFFFFFFFFFFF AND DUP2 MSTORE PUSH1 0x20 ADD SWAP1 DUP2 MSTORE PUSH1 0x20 ADD PUSH1 0x0 KECCAK256 PUSH1 0x0 SWAP1 SLOAD SWAP1 PUSH2 0x100 EXP SWAP1 DIV PUSH1 0xFF AND PUSH2 0x930 JUMPI PUSH1 0x40 MLOAD PUSH32 0x8C379A000000000000000000000000000000000000000000000000000000000 DUP2 MSTORE PUSH1 0x4 ADD PUSH2 0x927 SWAP1 PUSH2 0xED4 JUMP JUMPDEST PUSH1 0x40 MLOAD DUP1 SWAP2 SUB SWAP1 REVERT JUMPDEST DUP1 PUSH1 0x4 ADD PUSH1 0x0 CALLER PUSH20 0xFFFFFFFFFFFFFFFFFFFFFFFFFFFFFFFFFFFFFFFF AND PUSH20 0xFFFFFFFFFFFFFFFFFFFFFFFFFFFFFFFFFFFFFFFF AND DUP2 MSTORE PUSH1 0x20 ADD SWAP1 DUP2 MSTORE PUSH1 0x20 ADD PUSH1 0x0 KECCAK256 PUSH1 0x0 SWAP1 SLOAD SWAP1 PUSH2 0x100 EXP SWAP1 DIV PUSH1 0xFF AND ISZERO PUSH2 0x9BF JUMPI PUSH1 0x40 MLOAD PUSH32 0x8C379A000000000000000000000000000000000000000000000000000000000 DUP2 MSTORE PUSH1 0x4 ADD PUSH2 0x9B6 SWAP1 PUSH2 0xEB4 JUMP JUMPDEST PUSH1 0x40 MLOAD DUP1 SWAP2 SUB SWAP1 REVERT JUMPDEST PUSH1 0x1 DUP2 PUSH1 0x4 ADD PUSH1 0x0 CALLER PUSH20 0xFFFFFFFFFFFFFFFFFFFFFFFFFFFFFFFFFFFFFFFF AND PUSH20 0xFFFFFFFFFFFFFFFFFFFFFFFFFFFFFFFFFFFFFFFF AND DUP2 MSTORE PUSH1 0x20 ADD SWAP1 DUP2 MSTORE PUSH1 0x20 ADD PUSH1 0x0 KECCAK256 PUSH1 0x0 PUSH2 0x100 EXP DUP2 SLOAD DUP2 PUSH1 0xFF MUL NOT AND SWAP1 DUP4 ISZERO ISZERO MUL OR SWAP1 SSTORE POP DUP1 PUSH1 0x3 ADD PUSH1 0x0 DUP2 SLOAD DUP1 SWAP3 SWAP2 SWAP1 PUSH2 0xA2E SWAP1 PUSH2 0x1124 JUMP JUMPDEST SWAP2 SWAP1 POP SSTORE POP POP POP JUMP JUMPDEST DUP3 DUP1 SLOAD PUSH2 0xA43 SWAP1 PUSH2 0x10C1 JUMP JUMPDEST SWAP1 PUSH1 0x0 MSTORE PUSH1 0x20 PUSH1 0x0 KECCAK256 SWAP1 PUSH1 0x1F ADD PUSH1 0x20 SWAP1 DIV DUP2 ADD SWAP3 DUP3 PUSH2 0xA65 JUMPI PUSH1 0x0 DUP6 SSTORE PUSH2 0xAAC JUMP JUMPDEST DUP3 PUSH1 0x1F LT PUSH2 0xA7E JUMPI DUP1 MLOAD PUSH1 0xFF NOT AND DUP4 DUP1 ADD OR DUP6 SSTORE PUSH2 0xAAC JUMP JUMPDEST DUP3 DUP1 ADD PUSH1 0x1 ADD DUP6 SSTORE DUP3 ISZERO PUSH2 0xAAC JUMPI SWAP2 DUP3 ADD JUMPDEST DUP3 DUP2 GT ISZERO PUSH2 0xAAB JUMPI DUP3 MLOAD DUP3 SSTORE SWAP2 PUSH1 0x20 ADD SWAP2 SWAP1 PUSH1 0x1 ADD SWAP1 PUSH2 0xA90 JUMP JUMPDEST JUMPDEST POP SWAP1 POP PUSH2 0xAB9 SWAP2 SWAP1 PUSH2 0xABD JUMP JUMPDEST POP SWAP1 JUMP JUMPDEST JUMPDEST DUP1 DUP3 GT ISZERO PUSH2 0xAD6 JUMPI PUSH1 0x0 DUP2 PUSH1 0x0 SWAP1 SSTORE POP PUSH1 0x1 ADD PUSH2 0xABE JUMP JUMPDEST POP SWAP1 JUMP JUMPDEST PUSH1 0x0 PUSH2 0xAED PUSH2 0xAE8 DUP5 PUSH2 0xFA7 JUMP JUMPDEST PUSH2 0xF82 JUMP JUMPDEST SWAP1 POP DUP3 DUP2 MSTORE PUSH1 0x20 DUP2 ADD DUP5 DUP5 DUP5 ADD GT ISZERO PUSH2 0xB05 JUMPI PUSH1 0x0 DUP1 REVERT JUMPDEST PUSH2 0xB10 DUP5 DUP3 DUP6 PUSH2 0x107F JUMP JUMPDEST POP SWAP4 SWAP3 POP POP POP JUMP JUMPDEST PUSH1 0x0 DUP2 CALLDATALOAD SWAP1 POP PUSH2 0xB27 DUP2 PUSH2 0x13CB JUMP JUMPDEST SWAP3 SWAP2 POP POP JUMP JUMPDEST PUSH1 0x0 DUP2 CALLDATALOAD SWAP1 POP PUSH2 0xB3C DUP2 PUSH2 0x13E2 JUMP JUMPDEST SWAP3 SWAP2 POP POP JUMP JUMPDEST PUSH1 0x0 DUP3 PUSH1 0x1F DUP4 ADD SLT PUSH2 0xB53 JUMPI PUSH1 0x0 DUP1 REVERT JUMPDEST DUP2 CALLDATALOAD PUSH2 0xB63 DUP5 DUP3 PUSH1 0x20 DUP7 ADD PUSH2 0xADA JUMP JUMPDEST SWAP2 POP POP SWAP3 SWAP2 POP POP JUMP JUMPDEST PUSH1 0x0 DUP2 CALLDATALOAD SWAP1 POP PUSH2 0xB7B DUP2 PUSH2 0x13F9 JUMP JUMPDEST SWAP3 SWAP2 POP POP JUMP JUMPDEST PUSH1 0x0 PUSH1 0x20 DUP3 DUP5 SUB SLT ISZERO PUSH2 0xB93 JUMPI PUSH1 0x0 DUP1 REVERT JUMPDEST PUSH1 0x0 PUSH2 0xBA1 DUP5 DUP3 DUP6 ADD PUSH2 0xB18 JUMP JUMPDEST SWAP2 POP POP SWAP3 SWAP2 POP POP JUMP JUMPDEST PUSH1 0x0 DUP1 PUSH1 0x0 PUSH1 0x60 DUP5 DUP7 SUB SLT ISZERO PUSH2 0xBBF JUMPI PUSH1 0x0 DUP1 REVERT JUMPDEST PUSH1 0x0 DUP5 ADD CALLDATALOAD PUSH8 0xFFFFFFFFFFFFFFFF DUP2 GT ISZERO PUSH2 0xBD9 JUMPI PUSH1 0x0 DUP1 REVERT JUMPDEST PUSH2 0xBE5 DUP7 DUP3 DUP8 ADD PUSH2 0xB42 JUMP JUMPDEST SWAP4 POP POP PUSH1 0x20 PUSH2 0xBF6 DUP7 DUP3 DUP8 ADD PUSH2 0xB6C JUMP JUMPDEST SWAP3 POP POP PUSH1 0x40 PUSH2 0xC07 DUP7 DUP3 DUP8 ADD PUSH2 0xB2D JUMP JUMPDEST SWAP2 POP POP SWAP3 POP SWAP3 POP SWAP3 JUMP JUMPDEST PUSH1 0x0 PUSH1 0x20 DUP3 DUP5 SUB SLT ISZERO PUSH2 0xC23 JUMPI PUSH1 0x0 DUP1 REVERT JUMPDEST PUSH1 0x0 PUSH2 0xC31 DUP5 DUP3 DUP6 ADD PUSH2 0xB6C JUMP JUMPDEST SWAP2 POP POP SWAP3 SWAP2 POP POP JUMP JUMPDEST PUSH2 0xC43 DUP2 PUSH2 0x1037 JUMP JUMPDEST DUP3 MSTORE POP POP JUMP JUMPDEST PUSH2 0xC52 DUP2 PUSH2 0x1025 JUMP JUMPDEST DUP3 MSTORE POP POP JUMP JUMPDEST PUSH2 0xC61 DUP2 PUSH2 0x1049 JUMP JUMPDEST DUP3 MSTORE POP POP JUMP JUMPDEST PUSH1 0x0 PUSH2 0xC72 DUP3 PUSH2 0xFD8 JUMP JUMPDEST PUSH2 0xC7C DUP2 DUP6 PUSH2 0xFE3 JUMP JUMPDEST SWAP4 POP PUSH2 0xC8C DUP2 DUP6 PUSH1 0x20 DUP7 ADD PUSH2 0x108E JUMP JUMPDEST PUSH2 0xC95 DUP2 PUSH2 0x1229 JUMP JUMPDEST DUP5 ADD SWAP2 POP POP SWAP3 SWAP2 POP POP JUMP JUMPDEST PUSH1 0x0 PUSH2 0xCAD PUSH1 0x28 DUP4 PUSH2 0xFE3 JUMP JUMPDEST SWAP2 POP PUSH2 0xCB8 DUP3 PUSH2 0x123A JUMP JUMPDEST PUSH1 0x40 DUP3 ADD SWAP1 POP SWAP2 SWAP1 POP JUMP JUMPDEST PUSH1 0x0 PUSH2 0xCD0 PUSH1 0x16 DUP4 PUSH2 0xFE3 JUMP JUMPDEST SWAP2 POP PUSH2 0xCDB DUP3 PUSH2 0x1289 JUMP JUMPDEST PUSH1 0x20 DUP3 ADD SWAP1 POP SWAP2 SWAP1 POP JUMP JUMPDEST PUSH1 0x0 PUSH2 0xCF3 PUSH1 0x38 DUP4 PUSH2 0xFE3 JUMP JUMPDEST SWAP2 POP PUSH2 0xCFE DUP3 PUSH2 0x12B2 JUMP JUMPDEST PUSH1 0x40 DUP3 ADD SWAP1 POP SWAP2 SWAP1 POP JUMP JUMPDEST PUSH1 0x0 PUSH2 0xD16 PUSH1 0x17 DUP4 PUSH2 0xFE3 JUMP JUMPDEST SWAP2 POP PUSH2 0xD21 DUP3 PUSH2 0x1301 JUMP JUMPDEST PUSH1 0x20 DUP3 ADD SWAP1 POP SWAP2 SWAP1 POP JUMP JUMPDEST PUSH1 0x0 PUSH2 0xD39 PUSH1 0x22 DUP4 PUSH2 0xFE3 JUMP JUMPDEST SWAP2 POP PUSH2 0xD44 DUP3 PUSH2 0x132A JUMP JUMPDEST PUSH1 0x40 DUP3 ADD SWAP1 POP SWAP2 SWAP1 POP JUMP JUMPDEST PUSH1 0x0 PUSH2 0xD5C PUSH1 0x1D DUP4 PUSH2 0xFE3 JUMP JUMPDEST SWAP2 POP PUSH2 0xD67 DUP3 PUSH2 0x1379 JUMP JUMPDEST PUSH1 0x20 DUP3 ADD SWAP1 POP SWAP2 SWAP1 POP JUMP JUMPDEST PUSH1 0x0 PUSH2 0xD7F PUSH1 0x1D DUP4 PUSH2 0xFE3 JUMP JUMPDEST SWAP2 POP PUSH2 0xD8A DUP3 PUSH2 0x13A2 JUMP JUMPDEST PUSH1 0x20 DUP3 ADD SWAP1 POP SWAP2 SWAP1 POP JUMP JUMPDEST PUSH2 0xD9E DUP2 PUSH2 0x1075 JUMP JUMPDEST DUP3 MSTORE POP POP JUMP JUMPDEST PUSH1 0x0 PUSH1 0x20 DUP3 ADD SWAP1 POP PUSH2 0xDB9 PUSH1 0x0 DUP4 ADD DUP5 PUSH2 0xC49 JUMP JUMPDEST SWAP3 SWAP2 POP POP JUMP JUMPDEST PUSH1 0x0 PUSH1 0x20 DUP3 ADD SWAP1 POP PUSH2 0xDD4 PUSH1 0x0 DUP4 ADD DUP5 PUSH2 0xC58 JUMP JUMPDEST SWAP3 SWAP2 POP POP JUMP JUMPDEST PUSH1 0x0 PUSH1 0xA0 DUP3 ADD SWAP1 POP DUP2 DUP2 SUB PUSH1 0x0 DUP4 ADD MSTORE PUSH2 0xDF4 DUP2 DUP9 PUSH2 0xC67 JUMP JUMPDEST SWAP1 POP PUSH2 0xE03 PUSH1 0x20 DUP4 ADD DUP8 PUSH2 0xD95 JUMP JUMPDEST PUSH2 0xE10 PUSH1 0x40 DUP4 ADD DUP7 PUSH2 0xC3A JUMP JUMPDEST PUSH2 0xE1D PUSH1 0x60 DUP4 ADD DUP6 PUSH2 0xC58 JUMP JUMPDEST PUSH2 0xE2A PUSH1 0x80 DUP4 ADD DUP5 PUSH2 0xD95 JUMP JUMPDEST SWAP7 SWAP6 POP POP POP POP POP POP JUMP JUMPDEST PUSH1 0x0 PUSH1 0x20 DUP3 ADD SWAP1 POP DUP2 DUP2 SUB PUSH1 0x0 DUP4 ADD MSTORE PUSH2 0xE4D DUP2 PUSH2 0xCA0 JUMP JUMPDEST SWAP1 POP SWAP2 SWAP1 POP JUMP JUMPDEST PUSH1 0x0 PUSH1 0x20 DUP3 ADD SWAP1 POP DUP2 DUP2 SUB PUSH1 0x0 DUP4 ADD MSTORE PUSH2 0xE6D DUP2 PUSH2 0xCC3 JUMP JUMPDEST SWAP1 POP SWAP2 SWAP1 POP JUMP JUMPDEST PUSH1 0x0 PUSH1 0x20 DUP3 ADD SWAP1 POP DUP2 DUP2 SUB PUSH1 0x0 DUP4 ADD MSTORE PUSH2 0xE8D DUP2 PUSH2 0xCE6 JUMP JUMPDEST SWAP1 POP SWAP2 SWAP1 POP JUMP JUMPDEST PUSH1 0x0 PUSH1 0x20 DUP3 ADD SWAP1 POP DUP2 DUP2 SUB PUSH1 0x0 DUP4 ADD MSTORE PUSH2 0xEAD DUP2 PUSH2 0xD09 JUMP JUMPDEST SWAP1 POP SWAP2 SWAP1 POP JUMP JUMPDEST PUSH1 0x0 PUSH1 0x20 DUP3 ADD SWAP1 POP DUP2 DUP2 SUB PUSH1 0x0 DUP4 ADD MSTORE PUSH2 0xECD DUP2 PUSH2 0xD2C JUMP JUMPDEST SWAP1 POP SWAP2 SWAP1 POP JUMP JUMPDEST PUSH1 0x0 PUSH1 0x20 DUP3 ADD SWAP1 POP DUP2 DUP2 SUB PUSH1 0x0 DUP4 ADD MSTORE PUSH2 0xEED DUP2 PUSH2 0xD4F JUMP JUMPDEST SWAP1 POP SWAP2 SWAP1 POP JUMP JUMPDEST PUSH1 0x0 PUSH1 0x20 DUP3 ADD SWAP1 POP DUP2 DUP2 SUB PUSH1 0x0 DUP4 ADD MSTORE PUSH2 0xF0D DUP2 PUSH2 0xD72 JUMP JUMPDEST SWAP1 POP SWAP2 SWAP1 POP JUMP JUMPDEST PUSH1 0x0 PUSH1 0x20 DUP3 ADD SWAP1 POP PUSH2 0xF29 PUSH1 0x0 DUP4 ADD DUP5 PUSH2 0xD95 JUMP JUMPDEST SWAP3 SWAP2 POP POP JUMP JUMPDEST PUSH1 0x0 PUSH1 0xA0 DUP3 ADD SWAP1 POP PUSH2 0xF44 PUSH1 0x0 DUP4 ADD DUP9 PUSH2 0xD95 JUMP JUMPDEST PUSH2 0xF51 PUSH1 0x20 DUP4 ADD DUP8 PUSH2 0xD95 JUMP JUMPDEST PUSH2 0xF5E PUSH1 0x40 DUP4 ADD DUP7 PUSH2 0xD95 JUMP JUMPDEST PUSH2 0xF6B PUSH1 0x60 DUP4 ADD DUP6 PUSH2 0xD95 JUMP JUMPDEST PUSH2 0xF78 PUSH1 0x80 DUP4 ADD DUP5 PUSH2 0xC49 JUMP JUMPDEST SWAP7 SWAP6 POP POP POP POP POP POP JUMP JUMPDEST PUSH1 0x0 PUSH2 0xF8C PUSH2 0xF9D JUMP JUMPDEST SWAP1 POP PUSH2 0xF98 DUP3 DUP3 PUSH2 0x10F3 JUMP JUMPDEST SWAP2 SWAP1 POP JUMP JUMPDEST PUSH1 0x0 PUSH1 0x40 MLOAD SWAP1 POP SWAP1 JUMP JUMPDEST PUSH1 0x0 PUSH8 0xFFFFFFFFFFFFFFFF DUP3 GT ISZERO PUSH2 0xFC2 JUMPI PUSH2 0xFC1 PUSH2 0x11FA JUMP JUMPDEST JUMPDEST PUSH2 0xFCB DUP3 PUSH2 0x1229 JUMP JUMPDEST SWAP1 POP PUSH1 0x20 DUP2 ADD SWAP1 POP SWAP2 SWAP1 POP JUMP JUMPDEST PUSH1 0x0 DUP2 MLOAD SWAP1 POP SWAP2 SWAP1 POP JUMP JUMPDEST PUSH1 0x0 DUP3 DUP3 MSTORE PUSH1 0x20 DUP3 ADD SWAP1 POP SWAP3 SWAP2 POP POP JUMP JUMPDEST PUSH1 0x0 PUSH2 0xFFF DUP3 PUSH2 0x1075 JUMP JUMPDEST SWAP2 POP PUSH2 0x100A DUP4 PUSH2 0x1075 JUMP JUMPDEST SWAP3 POP DUP3 PUSH2 0x101A JUMPI PUSH2 0x1019 PUSH2 0x119C JUMP JUMPDEST JUMPDEST DUP3 DUP3 DIV SWAP1 POP SWAP3 SWAP2 POP POP JUMP JUMPDEST PUSH1 0x0 PUSH2 0x1030 DUP3 PUSH2 0x1055 JUMP JUMPDEST SWAP1 POP SWAP2 SWAP1 POP JUMP JUMPDEST PUSH1 0x0 PUSH2 0x1042 DUP3 PUSH2 0x1055 JUMP JUMPDEST SWAP1 POP SWAP2 SWAP1 POP JUMP JUMPDEST PUSH1 0x0 DUP2 ISZERO ISZERO SWAP1 POP SWAP2 SWAP1 POP JUMP JUMPDEST PUSH1 0x0 PUSH20 0xFFFFFFFFFFFFFFFFFFFFFFFFFFFFFFFFFFFFFFFF DUP3 AND SWAP1 POP SWAP2 SWAP1 POP JUMP JUMPDEST PUSH1 0x0 DUP2 SWAP1 POP SWAP2 SWAP1 POP JUMP JUMPDEST DUP3 DUP2 DUP4 CALLDATACOPY PUSH1 0x0 DUP4 DUP4 ADD MSTORE POP POP POP JUMP JUMPDEST PUSH1 0x0 JUMPDEST DUP4 DUP2 LT ISZERO PUSH2 0x10AC JUMPI DUP1 DUP3 ADD MLOAD DUP2 DUP5 ADD MSTORE PUSH1 0x20 DUP2 ADD SWAP1 POP PUSH2 0x1091 JUMP JUMPDEST DUP4 DUP2 GT ISZERO PUSH2 0x10BB JUMPI PUSH1 0x0 DUP5 DUP5 ADD MSTORE JUMPDEST POP POP POP POP JUMP JUMPDEST PUSH1 0x0 PUSH1 0x2 DUP3 DIV SWAP1 POP PUSH1 0x1 DUP3 AND DUP1 PUSH2 0x10D9 JUMPI PUSH1 0x7F DUP3 AND SWAP2 POP JUMPDEST PUSH1 0x20 DUP3 LT DUP2 EQ ISZERO PUSH2 0x10ED JUMPI PUSH2 0x10EC PUSH2 0x11CB JUMP JUMPDEST JUMPDEST POP SWAP2 SWAP1 POP JUMP JUMPDEST PUSH2 0x10FC DUP3 PUSH2 0x1229 JUMP JUMPDEST DUP2 ADD DUP2 DUP2 LT PUSH8 0xFFFFFFFFFFFFFFFF DUP3 GT OR ISZERO PUSH2 0x111B JUMPI PUSH2 0x111A PUSH2 0x11FA JUMP JUMPDEST JUMPDEST DUP1 PUSH1 0x40 MSTORE POP POP POP JUMP JUMPDEST PUSH1 0x0 PUSH2 0x112F DUP3 PUSH2 0x1075 JUMP JUMPDEST SWAP2 POP PUSH32 0xFFFFFFFFFFFFFFFFFFFFFFFFFFFFFFFFFFFFFFFFFFFFFFFFFFFFFFFFFFFFFFFF DUP3 EQ ISZERO PUSH2 0x1162 JUMPI PUSH2 0x1161 PUSH2 0x116D JUMP JUMPDEST JUMPDEST PUSH1 0x1 DUP3 ADD SWAP1 POP SWAP2 SWAP1 POP JUMP JUMPDEST PUSH32 0x4E487B7100000000000000000000000000000000000000000000000000000000 PUSH1 0x0 MSTORE PUSH1 0x11 PUSH1 0x4 MSTORE PUSH1 0x24 PUSH1 0x0 REVERT JUMPDEST PUSH32 0x4E487B7100000000000000000000000000000000000000000000000000000000 PUSH1 0x0 MSTORE PUSH1 0x12 PUSH1 0x4 MSTORE PUSH1 0x24 PUSH1 0x0 REVERT JUMPDEST PUSH32 0x4E487B7100000000000000000000000000000000000000000000000000000000 PUSH1 0x0 MSTORE PUSH1 0x22 PUSH1 0x4 MSTORE PUSH1 0x24 PUSH1 0x0 REVERT JUMPDEST PUSH32 0x4E487B7100000000000000000000000000000000000000000000000000000000 PUSH1 0x0 MSTORE PUSH1 0x41 PUSH1 0x4 MSTORE PUSH1 0x24 PUSH1 0x0 REVERT JUMPDEST PUSH1 0x0 PUSH1 0x1F NOT PUSH1 0x1F DUP4 ADD AND SWAP1 POP SWAP2 SWAP1 POP JUMP JUMPDEST PUSH32 0x5468697320726571756573742068617320616C7265616479206265656E20636F PUSH1 0x0 DUP3 ADD MSTORE PUSH32 0x6D706C6574656421000000000000000000000000000000000000000000000000 PUSH1 0x20 DUP3 ADD MSTORE POP JUMP JUMPDEST PUSH32 0x4F6E6C79206D616E616765727320616C6C6F7765642100000000000000000000 PUSH1 0x0 DUP3 ADD MSTORE POP JUMP JUMPDEST PUSH32 0x596F75206E656564206D6F7265206D6F6E657920746F20656E74657220696E74 PUSH1 0x0 DUP3 ADD MSTORE PUSH32 0x6F2074686520636F6E747269627574696F6E206C697374210000000000000000 PUSH1 0x20 DUP3 ADD MSTORE POP JUMP JUMPDEST PUSH32 0x496E73756666696369656E7420617070726F76616C7321000000000000000000 PUSH1 0x0 DUP3 ADD MSTORE POP JUMP JUMPDEST PUSH32 0x596F752063616E277420617070726F7665206120726571756573742074776963 PUSH1 0x0 DUP3 ADD MSTORE PUSH32 0x6521000000000000000000000000000000000000000000000000000000000000 PUSH1 0x20 DUP3 ADD MSTORE POP JUMP JUMPDEST PUSH32 0x596F75206E65656420746F20636F6E7472696275746520666972737421000000 PUSH1 0x0 DUP3 ADD MSTORE POP JUMP JUMPDEST PUSH32 0x596F752063616E20636F6E74726962757465206F6E6C79206F6E636521000000 PUSH1 0x0 DUP3 ADD MSTORE POP JUMP JUMPDEST PUSH2 0x13D4 DUP2 PUSH2 0x1025 JUMP JUMPDEST DUP2 EQ PUSH2 0x13DF JUMPI PUSH1 0x0 DUP1 REVERT JUMPDEST POP JUMP JUMPDEST PUSH2 0x13EB DUP2 PUSH2 0x1037 JUMP JUMPDEST DUP2 EQ PUSH2 0x13F6 JUMPI PUSH1 0x0 DUP1 REVERT JUMPDEST POP JUMP JUMPDEST PUSH2 0x1402 DUP2 PUSH2 0x1075 JUMP JUMPDEST DUP2 EQ PUSH2 0x140D JUMPI PUSH1 0x0 DUP1 REVERT JUMPDEST POP JUMP INVALID LOG2 PUSH5 0x6970667358 0x22 SLT KECCAK256 SWAP4 PUSH16 0x248A39EE9C5CD53368A8BAF0E9FE672C DUP1 0xAA PUSH16 0xE60FA4B0140C0C24245A2464736F6C63 NUMBER STOP ADDMOD MUL STOP CALLER LOG2 PUSH5 0x6970667358 0x22 SLT KECCAK256 0x22 PUSH5 0x41AD6BE17A 0xA5 SGT 0xD1 PUSH15 0xBD0DD4709198ED0FD77B2D813DD0B5 PUSH26 0x9BB96C61C564736F6C6343000802003300000000000000000000 "},"gasEstimates":{"creation":{"codeDepositCost":"1328200","executionCost":"1383","totalCost":"1329583"},"external":{"createCampaign(uint256)":"infinite","deployedCampaigns(uint256)":"2334","getCampaigns()":"infinite"}},"methodIdentifiers":{"createCampaign(uint256)":"a3303a75","deployedCampaigns(uint256)":"339d50a5","getCampaigns()":"a6b03633"}},"storageLayout":{"storage":[{"astId":4,"contract":"Campaign.sol:CampaignFactory","label":"deployedCampaigns","offset":0,"slot":"0","type":"t_array(t_address)dyn_storage"}],"types":{"t_address":{"encoding":"inplace","label":"address","numberOfBytes":"20"},"t_array(t_address)dyn_storage":{"base":"t_address","encoding":"dynamic_array","label":"address[]","numberOfBytes":"32"}}},"userdoc":{"kind":"user","methods":{},"version":1}}